:020000041000EA
:4000000000F003082F3300100D0000009533001095330010953300109533001000000000000000000000000000000000913300109133001000000000913300109133001096
:400040009133001091330010913300109133001091330010913300109133001091330010913300109133001091330010913300109133001091330010913300109133001040
:400080009133001091330010913300109133001091330010913300109133001091330010913300109133001091330010913300109133001091330010913300109133001000
:4000C00091330010913300109133001091330010913300109133001091330010913300109133001091330010913300109133001091330010913300109133001091330010C0
:40010000913300109133001091330010913300109133001091330010913300109133001091330010913300109133001091330010913300109133001091330010913300107F
:40014000913300109133001091330010913300109133001091330010913300109133001091330010913300109133001091330010913300109133001091330010913300103F
:4001800091330010913300109133001091330010913300109133001091330010913300109133001091330010913300109133001091330010913300109133001091330010FF
:4001C00091330010913300109133001091330010913300109133001091330010913300109133001091330010913300109133001091330010913300109133001091330010BF
:40020000913300109133001091330010913300109133001091330010913300109133001091330010913300109133001091330010913300109133001091330010913300107E
:40024000913300109133001091330010913300109133001091330010913300109133001091330010913300109133001091330010913300109133001091330010913300103E
:4002800091330010913300109133001010B5054C237833B9044B13B10448AFF300800123237010BD640D000800000000083C001008B5034B1BB103490348AFF3008008BDFE
:4002C00000000000680D0008083C001070470000014B01221A607047800D000838B50546284B197093F83E30DB0933D11446254A92F83E3043F0800382F83E30224B00223E
:400300001A60204B93F83F3013F0010F04D01F4B9B6813F0030FF4D01D4B1E4A0121002002F0AAF958BB184B1B68002BFBD0ACB1022C07D0032C09D0124B93F83E30DB0977
:40034000FAD10BE0002002F05FFDF5E7002002F02BFEF1E701220B4B83F83C20AC460E4C0FCCACE80F000FCCACE80F000FCCACE80F0094E80F008CE80F00284638BD0322BE
:40038000E9E700BF840D0008800D000800002140D10200108C0200088C0D000870B590B005460E4600221B49012002F0B7F91A4B1A4C5C60DC60666094F83E3043F02003DF
:4003C00084F83E3094F83E306FF3C71384F83E30012211466846FFF781FFA36BBF2B02D9A36BC12B03D90D4B052283F83C20AC460B4C0FCCACE80F000FCCACE80F000FCC36
:40040000ACE80F0094E80F008CE80F00284610B070BD00BFCD0200108C020008840D00088C0D000810B504460A462021FFF756FF204610BD10B50446034B99640122032183
:40044000FFF74CFF204610BD840D000858B50446044EB164F2641A463021FFF73FFF204658BD00BF840D000870B590B005460C46214EB164002250216846FFF72FFF96F82A
:400480003C302BB9237B03F00703022B13D9FEE7AC4606F108040FCCACE80F000FCCACE80F000FCCACE80F0094E80F008CE80F00284610B070BD237B03F00703022B13D0D0
:4004C000012B15D00C4B93F83E30DB09FAD12C460A4E0FCE0FC40FCE0FC40FCE0FC496E80F0084E80F00E3E7002002F05DFDE9E7002002F089FCE5E7840D00088C0D000867
:4005000000B591B0054B44F61D329A640122A4216846FFF7E3FE11B05DF804FB840D000810B582B01A4B10229A600024009401230A220721174801F0E1FE009423460E22BF
:400540000221154801F0DAFE144BD3F8903013F0800F00D00124002300930B2207210D4801F0CCFE0C4B04229A60A3F50073D3F8903013F0800F03D1054B10225A60FEE712
:40058000034B10225A60002CF9D102B010BD00BF0006324080033240000532400003324080B594B04FF4FA6002F0D8FA62B6DFF854814FF01009C8F808904E4F4E4902A848
:4005C000FFF7ECFE3D4602AC0FCC0FC50FCC0FC50FCC0FC594E80F0085E80F00FFF790FFFFF79EFF0023009308220221434801F085FE434902A8FFF71DFF032102A8FFF7B0
:4006000011FF3E4602AC0FCC0FC60FCC0FC60FCC0FC694E80F0085E80F00C8F8049097F8223013F0200F0AD1364C10256560642002F094FAA560642002F090FAF4E700F0CF
:400640007FF800F0FFF800F0D3FB002313932AE000F08EF80021084601F0A2F91390139C012C0ED89CB9274B10225A60139B93B1254A13780133137000F06EF900F0B8FB65
:4006800015E04FF44A71214802F08CFAEAE71D4B10229A60EAE71C4B00221A70ECE71C4902A8FFF7E1FE00F055FB0028D0D0164B1B78052BF3D9144B00221A70114D1026CF
:4006C000AE6003231222134902A8FFF7BFFE094C0DF1080CBCE80F000FC4BCE80F000FC4BCE80F000FC49CE80F0084E80F006E60D5E700BF000E0008E00200080005324012
:40070000DC0D000800063240400E0008D8350010000300087036001008B5084B1B7823B100F0E2F900F050FC08BD01F0FFF801F051F9024B01221A70F2E700BF410E0008CD
:4007400010B5FFF7E9FF044650B16CB100F002FB0028FBD100F02EF800F074F8204610BD00F0A6FB0446F0E700F042FB0446EDE770B50E4E00252C460CB1284670BD63090F
:4007800004330B4A52F8233004F01F02D34013F0010F02D11C360134EEE7304600F0E0F905463146204600F031FAF3E710370010540E00087047C9B2062902D0831800219A
:4007C000197130F8121000EB42035980104400230372704770B505460C4601235E1E03B970BD324621462846FFF7E5FF3346F5E710B5094AC0EBC00302EB83039C6801EBC9
:400800008103C0EBC00002EB8000817E04EB4300FFF7E0FF10BD00BF1037001038B50546C0EBC002064B03EB82031B8B04E021462846FFF7DDFF23465C1E002BF7D138BD0E
:400840001037001010B501235C1E03B910BD2046FFF7E4FF2346F7E79840C2F5807C01FB0CFC02FB00C0000A70472DE9F04106460C46174601235D1E13B90020BDE8F081BF
:4008800034F8150004EB4503B3F802C0604522D3A0EB0C03621900211172012132799A4203D272799A4214D399B9FBB2062B10D004EB050898F804100823012241EA0C217E
:4008C000FFF7CAFFC0F30F2204EB45035A8088F804002B46CFE7ACEB000372799A420ED263191B7A327A934203D2621901331372EFE72A4639462046FFF75DFFE9E700214F
:40090000CCE7000008B5074AC0EBC00302EB830301EB81019A7E986800EB41015868FFF7A4FF08BD1037001070B50646C0EBC002084B03EB82031B8B002505E021463046BC
:40094000FFF7E0FF054323465C1E002BF6D1284670BD00BF1037001038B5002401235D1E0BB9204638BD2846FFF7DEFF04432B46F5E700000F4B1B78C3EBC3039A000E4BDC
:4009800013445B680D4AD2F8D02091B2188801238340013B994206D2094B1B680949097823F811207047064A12680649097822F8113070474E0E00081037001000003640C9
:4009C000440E00080C37001038B5234C2378234AC3EBC3039900114448682378C3EBC30399000A44127E013A1D4B1B78DBB29A421CD91B4C23780133DBB22370164D2B785E
:400A0000C3EBC3039A00154B13449A68237803EB830359001144134A116000F085FC2878217800F0B7FD00F0FBFC38BD0C4B00221A704FF4803000F0A1F90B4B1B78012BA5
:400A400007D0802000F09AF9084A138901331381EBE700F0FDF9E8E74E0E0008103700104D0E0008440E00084C0E0008540E000808B5084B4FF48372C3F8F020D3F8F030FD
:400A8000FFF778FF044A138901331381034800F075F908BD00003640540E00088000010010B50D4B1B78C3EBC3039A000B4B9C580B4B1B7804EBC3040A4B4FF48372C3F859
:400AC000F020D3F8F030FFF755FF204600F074FDFFF77AFF10BD00BF4E0E0008103700104D0E00080000364070B5002313B1124C012315E0114A191D02EB81000024446011
:400B00004FF0FF3042F821000133EFE76668A27E0A4B2B4400211976012A05D01C342B465D1E002BF2D170BD20690028F6D0228BF17902F04DFCF1E710370010540E0008C7
:400B400000B50B884A88A3EB020C4FF0000EA1F806E00079604501DAA1F806C05DF804FB2DE9F84380468468476890F81A9000252E460BE04A4621463846FFF776FE0646B4
:400B800021463846FFF7DCFF0A340135B8F81830AB42EFD83046BDE8F88370B50C8B8D684E680A6901230DE0718896F806C0A1EB0C0111E0194614E0012111705B000A3577
:400BC0000132744604F1FF3EFCB110EA0304EBD1718896F806C06144B5F806C08C45E9D800218C4205D092F800C00CF1FF3C82F800C08C4202D01478002CDFD120EA0300E0
:400C000008430029D8D1F179D7E770BD38B504468A7E154B03441D7E012A17D040F22641124801F0BFFF104B23441D76630904F01F04012000FA04F46DB904330A4A02EB84
:400C400083035A6822EA04045C6038BD2846FFF7A4FF0546E7E70433034A02EB83035A6814435C60F1E700BF540E0008843600109F2811D940F2FE3399420DD903F5800360
:400C800003F60743A3FB0123CA1A03EB52035B0AC3EB832399422FD09F280DD9B1F5FF7F0AD91B4BA3FB0123CA1A03EB52031B0AC3EB4323994221D09F280CD97E290AD937
:400CC000144BA3FB0123CA1A03EB52039B09C3EBC313994214D09F2814D93E2914D90E4BA3FB0123CA1A03EB52035B09C3EB831399420BD000207047042070470320704791
:400D0000022070470020704700207047012070472140800011080402054110044B1EDBB2032B09D8102289B18AB1642302FB03F3B3FBF0F3002203E00022F4E701325B00B3
:400D4000092BFBD90A2B02D9013A00E00022D0B270470000024BD86800F08000704700BF540E0008034A02400349CB681343CB60704700BF80000100540E0008034A024089
:400D80000349CB6823EA0203CB60704780000100540E00080E4BDB6813F4803F13D110B5044690B943090433094A52F8233000F01F02D34013F0010F01D1012006E000F0C4
:400DC00067FC204602E011207047012010BD00BF540E000810B5054BDC6814F4803402D01124204610BD00F09BFBFAE7540E000810B50B4BDC6814F080040FD14FF0FF30F4
:400E000004B110BD2046FFF7C5FF08B10134F7E7044B00221A70FFF7DDFFF2E71120F0E7540E00084C0E000830B583B00025074C0DB103B030BD002300930E2221792068D4
:400E400001F05CFA08340135F2E700BF2C3700107047000010B501460F4BB3F90040002C0CDB04F01F0063090122824020330B4840F82320BFF34F8FBFF36F8F064801F08E
:400E800033FE002C07DB04F01F02640901239340024A42F8243010BD6C37001000E100E008B10120704708B5552100F0BBFC08BD38B5002425460CB1284638BD2046FFF737
:400EC000EFFF05430134F6E770B5002505B170BDC5EBC5029300094AD6582C4604E006EBC40000F069FB0134C5EBC5039A00034B13441B7EA342F2D80135E7E71037001004
:400F0000C0EBC000024B03EB800043685889704710370010C0EBC000024B03EB800043685981704710370010C0EB0032012303FA01F101398A4205D9C0EB0020814203D300
:400F40000520704706207047002070472DE9F04180460E46FFF7D4FF05460022318800F00BFA01462846FFF783FE074620B931886800FFF7D9FF074639462846FFF7CEFE5F
:400F800004467B1FDBB2012B06D92401E4B244EA07003073BDE8F08129464046FFF7BAFFF3E7000010B5002404B110BDC4EBC4039A00044B134459682046FFF7C7FF013455
:400FC000F2E700BF1037001008B5FFF7EBFFFFF72BFF00F019F9002008BD000038B5124D2A689369114CE31ADB09526902EB03135A6822F0F8525A600D4B8022C3F8842057
:401000002B6893F87D20135923F0704343F0C0431351012001F0BAFD2B6893F87D20135923F07043135138BD940E0008800332400003324001390143014BC3F800127047B8
:4010400000003640044A136823F4F873136043F020031360704700BF14030008044B054AC3F800244FF0C172C3F80025704700BF0000364000008301094AD2F8003403F05B
:401080007F0343F0C17343F48033C2F80034D2F8003503F07F0343F40003C2F80035704700003640084AD2F8A83243F0805343F00103C2F8A832054BC2F800344FF0C1732D
:4010C000C2F80035704700BF000036400000830110B4038801209840013800EB80035B000D4CA4FB03435B09013303EB010C844500D984468B4208D8C91A914209D89445ED
:4011000005D300205DF8044B70470021F5E70620F8E70620F6E700BF1F85EB51164B0022C3F88C21C3F8B022C3F8B4220621C3F888124FF48071C3F880120121C3F8F011D4
:401140004FF48371C3F8F010D3F8F010C3F8F8200322C3F84023A023074AD2F8F02012F0040F02D10BB1013BF6E71BB9024B0822C3F84023704700BF000036401F4B4FF4EF
:401180008372C3F8F020D3F8F0301D4BB3F90030002B07DB03F01F015B0901228A40194941F82320154B0022C3F88022C3F8B022C3F8B422C3F888225021C3F8F011012140
:4011C000C3F88C11C3F88021D3F8002242F08072C3F800220222C3F8F820A023074AD2F8842012F0070F02D00BB1013BF6E7034B40F20132C3F84023704700BF0000364058
:401200006C37001000E100E010B5FFF75DFEFFF7E5FE404B4FF48032C3F80422D3F8A82242F0805242F00102C3F8A8220022C3F8F420C3F8B422C3F8C022C3F82023C3F8BF
:401240008421C3F88822C3F88022C3F88422C3F880214FF04871C3F8D0122F4C216891F87DC02E495CF8010020F070404CF8010020688469091BC909406900EB0111486859
:4012800020F0F85040F080604860D3F8941241F48051C3F894124FF48071C3F8A012D3F8A81241F0805141F00101C3F8A8124FF08071C3F8A41240F64130C3F88801C3F82F
:4012C0009022C3F88412FFF7C9FE154B1B7F013BFF2B0BD8104A12689068B2F87410425822F47F421B029BB213434350FFF7AAFE0C4B1B6843F0004343F48053054A136073
:401300000F23C2F800330023C2F8F0310A23C2F8103310BD00003640940E000880033240540E00081403000870B5044602F049F80E4DD5F8002422F07F020D4B1E78344414
:40134000637A1343C5F8003402F03FF802F039F8D5F8002522F07F02064B1B6833445B7A1343C5F8003502F030F870BD000036400C370010440E00084FF0010C0CFA01FC57
:401380000CF1FF33A0B100B586460F290BD9ACF10A03B3FBF0F3053A012A07D903B9012318465DF804FBB3FBF0F3F4E75B08F5E7053A012A03D903B90123184670475B08B0
:4013C000F9E7000008B50D4B1B78C3EBC3039A000B4B13445B6859891B7B1804053B012B04D9012B05D9FFF725FE08BD40F00070F7E74908F7D10121F5E700BF4E0E00086A
:401400001037001008B5027B01884089FFF7B4FF80B2024BC3F8140308BD00BF0000364008B50D4BB3F90030002B0CDB03F01F015B0901228A402033084941F82320BFF39C
:401440004F8FBFF36F8F064B0122C3F88021FFF765FEFFF793FE08BD6C37001000E100E00000364008B50448FFF77CFC172001F08DFBFFF7D5FF08BD80000100F8B5054650
:4014800001F09FFF06462F682C79072C2BD8A400214B1B6893F87D10CB590F22A24023EA0203062202FA04F42343CB512C682D79072D1ED8184B1A689369E31ADB0952696C
:4014C000190102EB0313032D19D85358EC001F20A04023EA00030B25A5401D435550304601F073FFF8BD4FF471710C4801F05AFBCDE74FF42271094801F054FBDAE7043D64
:401500005A68ED001F21A94022EA01020B2101FA05F515435D60E2E7940E0008D835001070B5164E3378164CC3EBC3039A00A018144D00232B703378C3EBC3039A00224464
:4015400092682B7803EB8303590011440E4A11604068FFF7E9FE3378C3EBC3039A00A0582B7800EBC300094B1860FFF787FF0848FFF770FCFFF776FF70BD00BF4E0E0008A7
:40158000103700104D0E0008440E0008480E0008A10A001008B5C0EBC000054B53F8200000EBC100034B1860FFF768FF08BD00BF10370010480E0008F8B5044601F001FF2B
:4015C000074625682679072E2FD8264B1A689369EB1ADB095269190102EB0313032E2AD85358F0001F26864023EA0606565026682579072D29D8AD001A4B1B6893F87D10E0
:401600008B590F22AA4023EA02030E2202FA05F52B438B5125682479072C1CD80123A3406B60384601F0D1FEF8BD4FF422710E4801F0B8FAC9E7043E5A68F6001F2101FA5F
:4016400006F622EA06065E60D1E74FF47171064801F0A8FACFE740F28131034801F0A2FADCE700BF940E0008D835001008B5064B1B78012B00D008BD044B1868FFF79CFF5D
:40168000014B00221A70F6E74F0E0008480E000870B5104EC0EBC00306EB83035C68C0B20D4D2870FFF7E2FF2B78C3EBC30356F823200A4B1A600A4BDA6822F07F02DA6050
:4016C0002A78D9680A43DA602046FFF79BFEFFF779FE70BD103700104E0E0008480E0008540E000838B5C0EBC002114B03EB82035D68C9B20F4C21709A68237803EB830308
:4017000002EB43030C4A1360FFF7C2FF2846FFF70BFE2278094B186800EBC2001860FFF7ADFE074B01221A700648FFF793FB38BD103700104D0E0008440E0008480E00081D
:401740004F0E0008710A00102DE9F84306460D4690462D490B78C3EBC3032C4A02EB83035F684FF0000985F800900878284B1978FFF7B8FFFFF780FC80240CE0013B254A63
:40178000D26812F0800F01D0002BF7D1224B1B68B3F8009094B1B14503D22B7823EA04032B706408E3B22A7813432B703846FFF7BBFDFFF757FE46F26463E0E7124B1B784C
:4017C000C3EBC303114A52F82300114B1B7800EBC300124B1860FFF7EFFE114B00221A70FFF760FC4A4631463846FFF771FC98F800202B789A4201D288F80030064B1B6890
:401800002A785A72BDE8F8834E0E0008103700104D0E0008540E0008440E0008480E00084F0E00082DE9F04383B004460F46C0EBC002384B03EB82035E6801238DF8043054
:40184000B14639F8098B03FA08F808F1FF3801FB08F8314BA3FB08384FEA5818C2B22F4B1A702F48FFF7F6FA00252E4B1D700AE001AA49464046FFF767FF0543294A137834
:401880000133DBB21370C4EBC403224A02EB8303D97E244B1B78DBB29942E9D89DF8043001335B0873721F4B00221A7006E0002353721C4A13780133DBB21370194B1B78B8
:4018C000DBB299421ED9C4EBC403124A02EB83039A68144B1B7803EB830302EB4302124B1A60537A707A8342E1D31B1ADBB2537207FB03F363330848A0FB0303C3F347138D
:401900005372D6E7074B00221A70284603B0BDE8F08300BF103700101F85EB514E0E0008710A00104D0E0008440E000838B5184C3C220021204601F04BFD45F25A032380A6
:401940004FF4106363804FF47A73A38008236383012323770F4D07CDC4F81E00C4F82210C4F826202A8862850B490C4C5D1E03B938BDA268238B04E011F8013B53720A325F
:401980000346581E002BF7D11C342B46EEE700BF540E0008383700103437001010370010034678B9C0EBC002084800EB8202128B8A4209D906480344187E012303FA01F136
:4019C00008407047002070471846704710370010540E00080023024AD380024A13607047540E0008900E0008044B03221A615A61034B044AC3F8002E704700BF00203140BD
:401A000000001F410100118010B5754AD2F8003523F0030343F00103C2F80035714B1A681068D2F88810425822F47F4242501A681068D2F88410425822F07F4242501A68FE
:401A40001068D2F88410425822F47F4242501B6893F83E2032B16249D1F8802322F00F02C1F8802393F83E2032B15D49D1F8802322F03002C1F8802393F83E3033B1584AAB
:401A8000D2F8803343F00043C2F880330021012000F0D8FF0021022000F0D4FF0021032000F0D0FF0021042000F0CCFF0021084600F0C8FF4A4CD4F8043523F4407323F016
:401AC000010343F00103C4F80435D4F8043523F47F03C4F80435D4F8043543F00043C4F80435D4F8003523F47063C4F80035D4F8003523F4E043C4F80035D4F8003543F473
:401B00000043C4F80035384A136823F440731360002001F0D3FAD4F8803113F0010F05D1D4F80C3523F00043C4F80C350821002001F09AF82B4B1B6893F83F20012A06D9DA
:401B400093F8702002F001029B68C3F8042C25490A689368B2F8742013445A6822F47F425A600A6892F8731003238B4092F8701092F8720001FA00F0034301F00101906812
:401B80000B4343F00043C0F800349368D3F8003492F83F30332B03D993680022C3F8CC2C104A13689868B3F87410435823F47F4343F47E434350126892F8731003238B40FD
:401BC00092F8701092F8720081400B43916843F00043C1F800349368D3F8003410BD00BF00002640940E00080000274030B58FB040F2DC5000F0B2FF9621002001F034F860
:401C000034252A46002101A801F0E2FB2B4C01AA0021204600F046F92A46002101A801F0D7FB01AA0121204600F03CF9FFF7ECFE234B0F221A60234AC3F8002224252A461A
:401C4000002101A801F0C4FB01A9204600F0DAFA2A46002101A801F0BBFB8023019301A9194800F0CFFA2A46002101A801F0B0FB0123019301A9154800F0C4FA0DF1040CE9
:401C8000134C0FCCACE80F000FCCACE80F002368CCF8003001A90F4800F0B4FA2A46002101A801F095FB4FF4C023049301A90A4800F0A8FAFFF798FE0FB030BD00003240FB
:401CC00000006240070101008003324080043240483700100005324000063240014B1860704700BF940E0008B0F1204F3CD018D880283BD007D9B0F5807F3FD0244B984251
:401D000009D024487047102832D0402801D12248704700282ED170474FF4A40070471D4870471E4B98422BD02DD31D4B98422CD8B0F1704F12D900F1805001380428EED8BF
:401D400001A353F820F000BF191D00101F1D0010791D0010611D0010651D00100D4870471048704710487047002070470F4870470F487047074870470E487047044870471A
:401D80004FF4A0007047034870470248C3E700BF06005200FF00520002005000090000A0050000F0020052000300520005005200010050000100520010B5124B1B6893F867
:401DC0003130012B16D90F4B1C68236AB4F8B0201344D4F8B420D358002B11DB0A4B1868FFF782FF636801229A6063689B68002BFBD110BD40F2C311044800F0D3FEE2E7A5
:401E00000348F6E7940E0008980E00082C380010020050001A4B186028B102230370FF23437000234380174B1B6893F8502002B9704700B583B0B3F93830ADF8003000230D
:401E400001931149684600F04FFEBDF90030002B07DB03F01F015B0901228A400B4941F82320084B1B6893F8513013B903B05DF804FB02220649012000F050FCF6E700BF41
:401E8000A80E0008940E0008D507000800E100E08D08000808B50248FFF7BCFF08BD00BFAC0E0008002800F0A181F8B50D4614460646002A00F09C81072900F2F88023683E
:401EC000012B00F2F980636833F00F0340F0F980237A33F01F0340F0F980E368032B00F2FA802369012B00F2FB806369012B00F2FC80A369012B00F2FD80E369032B00F294
:401F0000FE80236A012B00F2FF80636A012B00F20081A36A012B00F20181E36A032B00F20281236B072B00F203812768072D00F20481012F00F20781002F40F00A810123C8
:401F4000AB4073606768072D00F2078137F00F0340F00981A800A74B1B6893F87D108B590F22824023EA020307F00F0787401F438F51277A072D00F2FC8037F01F0340F043
:401F8000FE809C4B1A689369F31ADB095269190102EB0313032D00F2F88053584FEAC50C1F2000FA0CF023EA000307F01F0707FA0CF71F435750E768082D00F2F380032F9C
:401FC00000F2F68068008B4B1B6893F87C108B590322824023EA020207F00303834013438B512769082D00F2E980012F00F2EC80B3690122AA4023EA020307F00107AF40FC
:402000001F43B7616769072D00F2E480012F00F2E7807848036893F87EC05CF806300121A94023EA010307F00102AA401A434CF806206A0002F1100C032303FA0CF3194307
:40204000036893F87F70BB5923EA0101A36903F00103AB400B43E26902F0030202FA0CF21343BB51036893F88020B15821F0FF01236A03F00103606A400000F00200034308
:40208000A06A800000F004000343E06AC00000F018000343206B4001C0B20343AD0005F47E7503FA05F50D43B5500020F8BD4521514800F077FD02E746214F4800F072FD1D
:4020C00001E747214C4800F06DFD01E748214A4800F068FD01E74921474800F063FD00E74A21454800F05EFDFFE64B21424800F059FDFEE64C21404800F054FDFDE64D2183
:402100003D4800F04FFDFCE64E213B4800F04AFDFBE64F21384800F045FDFAE65021364800F040FDF9E65121334800F03BFDF8E65221314800F036FDF7E640F227312F4815
:4021400000F030FDF5E64FF44A712C4800F02AFDF2E60123AB40B360F4E64FF47171274800F020FDF2E640F2C531244800F01AFDF0E64FF42271214800F014FDFDE640F2CB
:4021800089211E4800F00EFDFBE62A1F5968D2001F20904021EA000107F01F0797400F435F6008E74FF4DD61144800F0FBFC06E740F2E961114800F0F5FC03E740F26961FB
:4021C0000E4800F0EFFC10E740F26A610B4800F0E9FC0DE740F20341084800F0E3FC15E740F20441054800F0DDFC12E70448704703485BE7940E0008C8380010D835001020
:4022000001005A0000286ED070B50C46054600296BD00B6833F0FF0347D1236933F0FF0348D1A3685B0D5B05002B48D1636823F4FF7323F00103002B46D1E36913F0604F7B
:4022400047D1236A13F0604F48D1294B19688A69AA1AD2094969100101EB021226682E601E6896F87DC0E66845F80C601E6896F87EC0266945F80C601E6896F87FC0666994
:4022800045F80C601E6896F87CC0A66845F80C606668AE611B6893F88030A669EE50E3690B50236A5360002070BD9921114800F079FCB2E79A210F4800F074FCB1E79B217B
:4022C0000C4800F06FFCB1E79C210A4800F06AFCB3E79D21074800F065FCB2E79E21054800F060FCB1E7044870470348DCE700BF940E0008C838001001005A002DE9F04185
:4023000004460D4616461F469DF8188007293ED836F00F0340D1012F43D838F01F0345D123680122AA4023EA020307F00107AF401F4327602D4B1B6893F87D100B59A80038
:402340000F22824023EA020306F00F0686401E430E51072D2FD838F01F0332D1234B1B689869241AE4095B69200103EB0414032D2DD81A58ED001F24AC4022EA040208F06A
:402380001F0808FA05F515431D50BDE8F081D921174800F007FCBBE7DA21154800F002FCB9E7DB21124800F0FDFBB6E7DC21104800F0F8FBB4E74FF422710E4800F0F2FB94
:4023C000C9E740F289210B4800F0ECFBC6E7043D6368ED001F22AA4023EA020308F01F0808FA05F51D436560CFE700BF940E0008C8380010D835001038B50C4B1B68D3F826
:40240000B4301B58002B01DB094838BD05460C460B0C1B041BB9A4B26C600020F5E740F2D521044800F0BEFBF5E700BF940E000801008A002C38001038B50368002B0FDA66
:4024400005460C46C2600B0C1B041BB9A4B2AC60002038BD40F2BB21024800F0A3FBF5E70148F6E72C38001001008A0038B504460D4651B1084B1B68D3F8B4301B59002B85
:4024800008DAE3682B60002038BD9921034800F089FBEFE70248F7E7940E00086039001001008A00034B1B6803B17047014B1860FBE700BFC00E00082DE9F84304460E4694
:4024C00017461D46DDF82080324B1B68002B44D0304B1B682C2004FB00F01C185FFA85F943F80090C5F3072363602D0CA5602A4B1B6893F83130994534D2274B1B681A6A35
:40250000B3F8B01001FB09222261656893F832309D422DD2204B1B681A6A05F1800302EB43156561D4F808904FEA19431B042BBB4FEA19431B043BBB1FFA89F343EA094342
:40254000AB60E76126620023A361B8F1000F02D0B8F90030A381BDE8F883B5210F4800F021FBB5E740F2C3110D4800F01BFBC4E740F2DF110A4800F015FBCBE74FF4FF71F0
:40258000074800F00FFBD3E740F2FF11044800F009FBD1E7C00E0008940E0008FC3900102C38001030B58FB00446002849D0A369072B4BD8E36A002B4DD0236B002B4FD028
:4025C0000DF11C0C04F1140EBEE80F00ACE80F00DEF80030CCF800300DF1080CA646BEE80F00ACE80F00DEF80030CCF800301F4B1B68DB8E079A1344ADF83030089B0D9366
:402600000CAD00950B9BA26AE16A0A98FFF754FF00210091069B0A460598FFF74DFF216B284600F061FABDF93030002B07DB03F01F015B0901228A400D4941F823200FB085
:4026400030BD52210B4800F0ADFAB0E75621094800F0A8FAAEE75821064800F0A3FAACE75921044800F09EFAAAE700BF940E000800E100E0FC390010F8B507460E461C46A5
:40268000154652B3204B1B6863B31F4B19682C2202FB071002FB06114A684FF0010C0CFA02F2120446680CFA06F603692BB38F692FBB1B68002B24DA2B882B601A432A609A
:4026C0000369DD60C1F818C04C620469330C1B046BB9B6B2A6603846F8BDFD210B4800F061FACFE7FE21094800F05CFACDE740F2BB21074800F056FAEBE7064FEBE7064F9B
:40270000E9E7054FE7E700BFC00E0008FC3900102C38001004028A0007028A00F8B506460F4615460F4B1B6873B10E4B1C682C2000FB0644236A6BB1E369AB4210D9236AC6
:4027400043F825700020F8BD4FF4AF71064800F029FAEAE74FF4B171034800F023FAEBE70248F0E7C00E0008FC3900100A028A0070B582B000230193044680B12369A3B155
:402780006369C3B1236AE3B16369DD682A0C1ED1ADB2002D3DD163691B6802B070BD40F2D111244800F0FEF9E8E74FF4E971214800F0F8F9E4E740F2D3111E4800F0F2F97B
:4027C000E0E74FF4EA711B4800F0ECF9DCE712041A601B682069184B1B68D3F8B4301B58002BD5DA01A9FFF741FE60B9019803681E0CDBB2E2699A4206D9226A52F8233019
:4028000013B1984700E0002631462069FFF7F4FDBEE763691D601B68636A2BB19847002363620023A361B6E7A36A002BF9D09847F7E700BFFC390010940E000810B50446E8
:40284000084B1B683BB1074B1B682C2000FB0430FFF78EFF10BD40F2B111034800F0A2F9F1E700BFC00E0008FC390010264B1B6893F83130834242D970B505460C460029CF
:402880003FD00B6813F01F0F01D0204870BD1E4B1B6893F8313098421CD21B4B1B68186AB3F8B03003FB0505194E35602268D2080021606800F08CFD00212846FFF79CFD81
:4028C00035686CB1224600212846FFF7B5FD68B11048DBE740F2C3110F4800F063F9DCE740F293310C4800F05DF9EBE70021084B1868FFF781FD0028C8D00648C6E7034810
:4029000070470248C2E700BF940E000803018A00CC0E000801018A002C38001038B505460C4613461AB113B3D4B9124838BD0029F9D1114B1B6893F8313098420AD20E4BF7
:402940001B68186AB3F8B03003FB05000B4B18602046EBE740F2C311094800F023F9EEE708490C604B602846FFF780FFDEE70148DCE700BF03018A00940E0008CC0E000891
:402980002C380010C40E00082DE9F041194B1B68DD682B6883422BD90C46460900F01F00012303FA00F8B9B10027124B18680368002B17DA6A6852F8263013EA080F0FD0D7
:4029C00023EA080342F8263000250021FFF714FD54B12846BDE8F08100F0F3FC0746E4E7054DF2E7054DF3E7384600F0EEFCF0E7034DEEE7CC0E00080201880003018800BE
:402A000004018A000B4B1B68DB681A6882420CD9410900F01F00012202FA00F05B6853F82130034203D004487047044870470448704700BFCC0E00080101880004018A001E
:402A400000018800134B1B6893F83C3083421DD9042904D9A1F580739BB2132B18D8FF290CD901F01F010C4B00F1C00243F82210D030042243F820200020704701F0070126
:402A8000D030054B43F82010002070470348704702487047940E00080000264001004A0038B504460C4B9A680C4B9A4204D010340B4B53F8240038BD0D4631B11034074BC6
:402AC00053F8240043F82450F5E740F23711054800F068F8F2E700BF00ED00E00000000800000010983A001060B338B50D4604464368072B13D8B4F900306268002B13DB41
:402B00005201D2B203F1604303F5614383F800230D4B9A680D4B9A420DD0002038BD32210B4800F03FF8E6E703F00F035201D2B20849CA54ECE72946B4F90000FFF7B0FFF4
:402B40000020EBE70448704700ED00E000000008983A001014ED00E00100560010B5044605E0084B186800F023FCA4F50044B4F5004FF6D8044B186804FB00F000F018FC36
:402B800010BD00BF280300083003000808B5034B1B7803FB00F000F00BFC08BD3403000801BEFEE738B50C46044D18220146284600F060FCAC610020FFF7F2FFD00C00082D
:402BC000FEE7000008B50268254BDA6142681A6282685A62C2689A620269DA6242691A6382695A63C2699A631E4A916AD963D16A1964516A5964516B9964926BDA64F1EEEB
:402C0000103A13F0900F27D0026A154B1A65426A5A65826A9A65C26ADA65026B1A66426B5A66826B9A66C26BDA66026C1A67426C5A67826C9A67C26CDA67026DC3F880206B
:402C4000426DC3F88420826DC3F88820C26DC3F88C20026EC3F89020FFF7B2FF08BD00BFD00C000800ED00E070B40446002830D01923304802681668B2F8A850725922F0F6
:402C800003028B422CBF002301231A43725102681668B2F8A850725922F44072725102681568B2F8AAC055F80C2022F00302134345F80C3003681868B3F8AA20835823F464
:402CC000407383503CB110291DD9212926D801221AE06423CDE7174B1B6893F855208A421ED293F856208A421CD293F857208A421AD293F858208A4218D293F859308B42E2
:402D000016D3042200E000220A4B1B6859680B6823F00F0313430B6070BC70470222F3E70022F1E70122EFE70222EDE70322EBE70522E9E7940E000870B582B004460D4638
:402D4000022803D9042801D0032816D16B1EDBB2012B03D9042D01D0082D14D1264B53F82440042D29D0012D29D0022D2DD026466469002CFBD100202EE040F6B2111F48A8
:402D8000FFF710FFE2E740F6B3111C48FFF70AFFE4E76469BCB11A4B984212D0A3681D42F7D1E3681A6800925B6801932368294668469847134B1C60EBE70020EAE7002096
:402DC000E8E7012DEAD102B070BD0E4B1E68002ED1D03669CFE73669002EF4D0B3681D42F9D1F3681A6800925B6801933368294668469847EFE700BFD40E0008343B001009
:402E0000FF004200D00E000870B50446012826D81E4B1B684BB301210020FFF78DFF064670BB00F0CEFA0546184B1B681BB104210020FFF781FF164A136923F004031361D6
:402E4000012C14D030BF284600F0BFFA0F4B1B681BB108210020FFF76FFF304670BD4FF4E0710C48FFF79EFED2E70026D9E720BF094B1B7803B120BF074B01221A70E2E708
:402E800002210020FFF758FF044EE6E7D40E000800ED00E0343B0010080F0008FF00420010B50446002833D01C4A1368DB6803F5E043D3F8003923601368DA6802F5E042F7
:402EC000D2F800286260DA6802F5E042D2F80428A260DA6802F5E042D2F80828E260DA6802F5E042D2F80C282261DA6802F5E042D2F810286261DA6802F5E042D2F81428D7
:402F0000A261DB6803F5E043D3F81838E36110BD40F6A1210248FFF745FEC5E7940E0008343B001010B50446002832D01C4B1B68DA68616802F5E042C2F80018DA68A16850
:402F400002F5E042C2F80418DA68E16802F5E042C2F80818DA68216902F5E042C2F80C18DA68616902F5E042C2F81018DA68A16902F5E042C2F81418DA68E16902F5E0422A
:402F8000C2F81818DB68226803F5E043C3F8002910BD40F6C9210348FFF704FEC6E700BF940E0008343B001070B50446012845D83B4B5B68002B47D001210846FFF7BCFE36
:402FC0000646002865D100F0FCF90546344B5B681BB104210120FFF7AFFE324B1B6893F843202AB19B68D3F8E03013F0100F2DD14FF0B0539B899BB233B14FF0B0539B893C
:403000009BB2B3F5807F30D1204600F0E1FA254B1B6893F843202AB19B68D3F8E03013F0100F32D1284600F0D0F91D4B5B681BB108210120FFF780FE304670BD4FF4267152
:403040001948FFF7AFFDB3E70026BCE71748FFF727FFCDE730BF134B1B681A68D3F89430D35803F00303022BD1D1114A136943F004031361012CEDD120BF0E4B1B7803B1F8
:4030800020BF0C4B01221A70E5E70848FFF74AFFC8E702210120FFF74FFE074ECCE700BFD40E0008940E0008343B0010E80E000800ED00E0080F0008FF00420004280FD08C
:4030C00000060B4B1B681A68D3F8A03000F04070D0504FF0E022136923F00403136170474FF0E022136943F004031361704700BF940E000808B50120FFF7A0FB08BD000053
:40310000604BD3F8802302F00F0202F1D00153F8213003F00703042B17D8DFE803F0031616050800584B11E0584B1B680EE002F1C003544951F8233003F01F03112B1DD02D
:40314000132B1ED14FF4004300E0514BB2BB4D4AD2F8900500F00100D2F88815C1F30171D2F8882512F0405F0ED0464AD2F88825C2F30172012A08D0002206E04FF4004389
:40318000E4E74FF4FA43E1E7012202B108B9032916D13C49D1F88005C0F31100D1F88425C2F30C02D1F88015C1F300610131B3FBF2F300FB03F3B3FBF1F301E0012A31D0BE
:4031C000304AD2F88023C2F30112D340314A1360314AD2F89010C1F3072101311269120E0132B3FBF2F22D480260B3FBF1F32C4A13602C4A136003F5742202F23F222A493B
:40320000A1FB0212C2F3874228490A7003F2E733274AA2FB03239B09264A1360DB03264A13607047174AD2F8400600F00100D2F80016C1F30171D2F8002612F0405F08D062
:40324000104AD2F80026C2F30172012A02D0002200E0012202B108B90329B1D10949D1F8002602F07F02D1F80006C0F30420D1F80016C1F3044102FB03F3B3FBF0F3B3FB34
:40328000F1F39DE70000264000127A001C03000800366E01200300080000214024030008180300082C03000883DE1B4334030008D34D6210300300082803000808B50D48C3
:4032C000FEF70CFDFEF792FCFFF71AFF002211460420FFF723FB0848FFF7E4F8074B1B6893F8513013B9FEF7D5FD08BD0448FFF759F9F8E7743700100C0F0008940E000837
:40330000D03B001008B500F05CF8074AD2F8883043F47003C2F88830BFF34F8FBFF36F8F00F053F808BD00BF00ED00E07047FFF7FDFF72B6104C114DAC4209DA2168626807
:40334000A368043BA2BFC858D050FAE70C34F3E70B490C4A00209142BCBF41F8040BFAE709480A490860BFF34F8FFFF7CBFFFFF7A5FFFDF715F9FEE70C3C0010243C001081
:40338000640D0008901000080000000808ED00E0FEE7FEE700B504207146084202D0EFF3098001E0EFF308800430FFF70BFCFEE70230800803D001300238FCD100BF00BF8A
:4033C0007047EFF3108072B6704780F310887047830730B548D0541E002A3FD0CAB2034601E0013C3AD303F8012B9D07F9D1032C2DD9CDB245EA05250F2C45EA054536D97C
:40340000A4F1100222F00F0C03F1200EE6444FEA121C03F1100242E9045542E9025510327245F8D10CF1010214F00C0F03EB021204F00F0C13D0ACF1040323F00303043330
:40344000134442F8045B9342FBD10CF003042CB1CAB21C4403F8012B9C42FBD130BD64461346002CF4D1F9E703461446BFE71A46A446E0E730B540EA0104A30701D1032A56
:403480000FD8844601F1FF3E07E01EF8011F03F8011B541EC1B19C4622466346002AF4D130BD0B468446194653F8045BA5F1013424EA050414F0803FE4D1043A032A4CF818
:4034C000045B1946EFD8DDE76244002CE8D003F8011B9342FBD130BD024B13B1024800F005B8704700000000F9340010002301461A46184600F01AB838B5084B084D5B1B63
:403500009C1007D0043B1D44013C55F804399847002CF9D1BDE8384000F054B8700700086C070008704700BF704700BF2DE9F047DFF880A00646DAF8000098460F46914661
:40354000FFF7F0FF1A4B1B68D3F8484124B365681F2D26DC5EB96B1C0235DAF80000636044F82570FFF7E0FF0020BDE8F08704EB85010123C1F88890D4F88821AB401A43C5
:40358000022EC4F88821C1F80881E4D1D4F88C211343C4F88C31DEE703F5A674C3F84841D5E7DAF80000FFF7BFFF4FF0FF30DCE7043C001060070008F8B500BFF8BC08BC06
:4035C0009E467047F8B500BFF8BC08BC9E4670475FF800F0810A00082F566F6C756D65732F446174612F5653636F64652F4749542F4F6E657468696E785F50726F6A656350
:40360000745F4578616D706C65732F4578616D706C655F43617053656E73652F4F6E657468696E785F43726561746F722E637964736E2F47656E6572617465645F536F75BE
:403640007263652F50536F43362F70646C2F647269766572732F7065726970686572616C2F6770696F2F63795F6770696F2E68004F6E657468696E782043617073656E7397
:40368000650000002F566F6C756D65732F446174612F5653636F64652F4749542F4F6E657468696E785F50726F6A6563745F4578616D706C65732F4578616D706C655F436F
:4036C000617053656E73652F4F6E657468696E785F43726561746F722E637964736E2F47656E6572617465645F536F757263652F50536F43362F43617053656E73655F50C9
:40370000726F63657373696E672E6300000000002C370010720E0008800E000800000000500E000801280000010001018004324000000000200000000D00E8031B1B0603BB
:403740001E20040000000000030000000000000000000000CC00000000000000000000000000000013130000000000003100000007000000000021400000254000000140D3
:403780000000344000002440000031400000324000001F410000234000001140010101010101010101101010800019005500F0000501053B04101C01010000000FC00000DC
:4037C0000004000001010101011D3A57789600082000101208000000001F00000010000F002000023F06080E00080009000A000B24282C3034000000100000009000000055
:4038000088000000080000008000000004F0000000F00000400200002005A000D00100018001A00120000000100000002F566F6C756D65732F446174612F5653636F646533
:403840002F4749542F4F6E657468696E785F50726F6A6563745F4578616D706C65732F4578616D706C655F43617053656E73652F4F6E657468696E785F43726561746F72CE
:403880002E637964736E2F47656E6572617465645F536F757263652F50536F43362F70646C2F647269766572732F7065726970686572616C2F6970632F63795F6970635F09
:4038C0006472762E680000002F566F6C756D65732F446174612F5653636F64652F4749542F4F6E657468696E785F50726F6A6563745F4578616D706C65732F4578616D7023
:403900006C655F43617053656E73652F4F6E657468696E785F43726561746F722E637964736E2F47656E6572617465645F536F757263652F50536F43362F70646C2F64728F
:4039400069766572732F7065726970686572616C2F6770696F2F63795F6770696F2E63002F566F6C756D65732F446174612F5653636F64652F4749542F4F6E657468696EEE
:40398000785F50726F6A6563745F4578616D706C65732F4578616D706C655F43617053656E73652F4F6E657468696E785F43726561746F722E637964736E2F47656E657235
:4039C000617465645F536F757263652F50536F43362F70646C2F647269766572732F7065726970686572616C2F6970632F63795F6970635F6472762E630000002F566F6CFA
:403A0000756D65732F446174612F5653636F64652F4749542F4F6E657468696E785F50726F6A6563745F4578616D706C65732F4578616D706C655F43617053656E73652FB2
:403A40004F6E657468696E785F43726561746F722E637964736E2F47656E6572617465645F536F757263652F50536F43362F70646C2F647269766572732F706572697068DF
:403A80006572616C2F6970632F63795F6970635F706970652E6300002F566F6C756D65732F446174612F5653636F64652F4749542F4F6E657468696E785F50726F6A65632C
:403AC000745F4578616D706C65732F4578616D706C655F43617053656E73652F4F6E657468696E785F43726561746F722E637964736E2F47656E6572617465645F536F75FA
:403B00007263652F50536F43362F70646C2F647269766572732F7065726970686572616C2F737973696E742F63795F737973696E742E63002F566F6C756D65732F446174B9
:403B4000612F5653636F64652F4749542F4F6E657468696E785F50726F6A6563745F4578616D706C65732F4578616D706C655F43617053656E73652F4F6E657468696E7826
:403B80005F43726561746F722E637964736E2F47656E6572617465645F536F757263652F50536F43362F70646C2F647269766572732F7065726970686572616C2F737973B9
:403BC000706D2F63795F737973706D2E6300000003000000010000000100000000000000050360000400000001000000000000000100000006046000080000006C10000848
:403C0000F5300010380300080000000000000010000000088C0200002C3C00108C020008440A0000640D00082C03000001006000840D000800006000840D000802800000ED
:403C40000000000000000000000000000000000000000000000000000000000000000000000000000000000000000000000000000000000000000000000000000000000044
:403C800000F0F0019C020008F10064000A0000000000000000000000000000000000000007000000010000000000000272000000000000002000000000127A000048E801C5
:403CC00000127A0000093D000000A00F00127A00401F00000800000000000000240600088C060008F406000800000000000000000000000000000000000000000000000082
:403D00000000000000000000000000000000000000000000000000000000000000000000000000000000000000000000000000000000000000000000000000000000000083
:403D40000000000000000000000000000000000000000000000000000000000000000000000000000000000000000000000000000000000000000000000000000000000043
:403D800001000000000000000E33CDAB34126DE6ECDE05000B00000000000000000000000000000000000000000000000000000000000000000000000000000000000000D6
:403DC00000000000000000000000000000000000000000000000000000000000000000000000000000000000000000000000000000000000000000000000000000000000C3
:403E00000000000000000000000000000000000000000000000000000000000000000000000000000000000000000000000000000000000000000000000000000000000082
:403E40000000000000000000000000000000000000000000000000000000000000000000000000000000000000000000000000000000000000000000000000000000000042
:403E80000000000000000000000000000000000000000000000000000000000000000000000000000000000000000000000000000000000000000000000000000000000002
:403EC00000000000000000000000000000000000000000000000000000000000000000000000000000000000000000000000000000000000000000000000000000000000C2
:403F00000000000000000000000000000000000000000000000000000000000000000000000000000000000000000000000000000000000000000000000000000000000081
:403F40000000000000000000000000000000000000000000000000000000000000000000000000000000000000000000000000000000000000000000000000000000000041
:403F80000000000000000000000000000000000000000000000000000000000000000000000000000000000000000000000000000000000000000000000000000000000001
:403FC00000000000000000000000000000000000000000000000000000000000000000000000000000000000000000000000000000000000000000000000000000000000C1
:404000000000000000000000000000000000000000000000000000000000000000000000000000000000000000000000000000000000000000000000000000000000000080
:404040000000000000000000000000000000000000000000000000000000000000000000000000000000000000000000000000000000000000000000000000000000000040
:404080000000000000000000000000000000000000000000000000000000000000000000000000000000000000000000000000000000000000000000000000000000000000
:4040C00000000000000000000000000000000000000000000000000000000000000000000000000000000000000000000000000000000000000000000000000000000000C0
:404100008C100008D9340010B10200108D02001080B2C10048B3154B1B681A6AB3F8B030C3EBC303D358002BF5DA114B3E22C3F8042141F61E72C3F808210622C3F818257C
:4041400021F07F41C3F81C15D3F81C35074B1B681A6AB3F8B030C3EBC303134400225A60034BD3F81C35002BFADA7047940E000800002640F8B5284B1B6893F83130052BEC
:4041800036D9254F3A68166AB2F8B03003EB83031E44526802F57042146EA4B200F054FA05463B681968D3F890208A58013C032C1AD8032A22D01868D3F884104258120E9F
:4041C0004058C0F30720531C00FB0333134800FB03F3134A1068134AA2FB00208009B3FBF0F08230FFF794FF284600F035FAF8BD40F2C3110C4800F037FAC2E74FF0B05279
:40420000D27A002AD7D10822B2601968D3F890208A58032AF9D0CEE7940E000840420F0020030008D34D62102C3800104378FF2B00D0704710B500F007FA0446144B1B68E1
:4042400093F83130042B1DD9114B1A68136AB2F8B02003EB8203DB680E4A13600E4A002111600E4A012111605A680D4B1A6013680B431360136813F0010FFBD1204600F082
:40428000EBF910BD40F2C311064800F0EDF9DBE7940E0008BC0E0008B00E0008B40E0008B80E00082C3800102DE9F84307468846524B1B6893F83130012B35D94F4B1B6844
:4042C0001C6AB3F8B0201444D3F8B450254493F85030002B73D04FF0B053DB7A002B3FD1464B1B6893F83130052B23D9434B19680A6AB1F8B03003EB83031344D1F8B42042
:40430000D358002B73DB002000F096F93C4B98426FD000233B4A12680121184600F090F9064670B1384C32E040F2C311374800F09BF9C3E740F2C311344800F095F9D5E70D
:404340000136002000F078F92D4B984202D0304B9E42F5D92E4B9E424DD84FF0010901E04FF0000900F070F906462A4BD3F81C35002B0FDB244CB9F1000F05D001210020BD
:4043800000F06EF90028F9D1304600F065F92046BDE8F883204A0121204600F059F908B1194CE8E74046FFF7B3FE37B12B68002BFCDB00F03DF90446DDE7184CDBE700F055
:4043C00043F90646144A0121204600F041F938B95FB12B68002BFCDB00F02AF9044600E0094C304600F038F9D1E70C4CF9E7064CCDE7054CCBE7044CC9E700BF940E000804
:4044000001018800A80E0008050052002C380010EF49020000002640980E00080100500070B57F4B19684C684FF0B0535B782BB14FF0B0535B78DBB2212B5BD10A6AB1F87E
:40444000B030C3EBC30302EB030CD358002BF5DADCF80C3043F00103CCF80C300B6AB1F8B020C2EBC2021344DA6812F0020F30D0DA681FFA82FC0D68D1F88420AA58120A9C
:40448000120402F47F02D1F88860AD594FEA152E42EA0E624CEA0202DA600D68D1F88420AB5823F47F4343F41063AB505C4A13681D68D3F888106B5823F47F4343F410637A
:4044C0006B5013681A68D3F884105158D3F88830D358534B1B68196AB3F8B020C2EBC2020A44002151601A6AB3F8B030C3EBC30313445B684A4B1B681968D3F8943019447C
:4045000005E030BF0B6803F00303022B0FD1454A136943F0040313610128F2D120BF424B1B7803B120BF404B01221A70EAE73C4B1A68116AB2F8B030C3EBC303C818CB5869
:40454000002BF4DA4FF0B0535B7873B34FF0B0535B78DBB2212B28D0D4F80C31002B53D1324BD3F80801D3F81815D3F8042141F61E75C3F808510625C3F818553E25C3F841
:4045800004514425C3F81C55284BD3F81C35002BFADA4FF0AA33C4F80C31244BC3F80801C3F81815C3F804212EE0C36813F0020F1ED01468D2F88410625822F47F42C368A2
:4045C0001B0C1B029BB213436350154B1A681468D2F88800235823F47F43116AB2F8B020C2EBC2020A44D268120E43EA022323500B4B1A68136AB2F8B020C2EBC2021344B3
:40460000DA6822F00102DA60054B1B681A6AB3F8B030C3EBC303134400225A6070BD00BF940E000800ED00E0080F0008000026405FF800F0B91D00105FF800F0052A0010C5
:404640005FF800F0792600105FF800F0C33300105FF800F0392400105FF800F0CB3300105FF800F0892900105FF800F0A52B001000000000000000000000000000000000BE
:4046800000000000000000000000000000000000000000000000000000000000000000000000000000000000000000000000000000000000000000000000000000000000FA
:4046C00000000000000000000000000000000000000000000000000000000000000000000000000000000000000000000000000000000000000000000000000000000000BA
:404700000000000000000000000000000000000000000000000000000000000000000000000000000000000000000000000000000000000000000000000000000000000079
:404740000000000000000000000000000000000000000000000000000000000000000000000000000000000000000000000000000000000000000000000000000000000039
:4047800000000000000000000000000000000000000000000000000000000000000000000000000000000000000000000000000000000000000000000000000000000000F9
:4047C00000000000000000000000000000000000000000000000000000000000000000000000000000000000000000000000000000000000000000000000000000000000B9
:0200000490303A
:02000000CBED46
:0200000490501A
:0C0000000005E20721002100E21FECEDEA
:00000001FF