:020000041000EA
:4000000000F003086F1D00100D000000D51D0010D51D0010D51D0010D51D001000000000000000000000000000000000D11D0010D11D001000000000D11D0010D11D00101C
:40004000D11D0010D11D0010D11D0010D11D0010D11D0010D11D0010D11D0010D11D0010D11D0010D11D0010D11D0010D11D0010D11D0010D11D0010D11D0010D11D0010A0
:40008000D11D0010D11D0010D11D0010D11D0010D11D0010D11D0010D11D0010D11D0010D11D0010D11D0010D11D0010D11D0010D11D0010D11D0010D11D0010D11D001060
:4000C000D11D0010D11D0010D11D0010D11D0010D11D0010D11D0010D11D0010D11D0010D11D0010D11D0010D11D0010D11D0010D11D0010D11D0010D11D0010D11D001020
:40010000D11D0010D11D0010D11D0010D11D0010D11D0010D11D0010D11D0010D11D0010D11D0010D11D0010D11D0010D11D0010D11D0010D11D0010D11D0010D11D0010DF
:40014000D11D0010D11D0010D11D0010D11D0010D11D0010D11D0010D11D0010D11D0010D11D0010D11D0010D11D0010D11D0010D11D0010D11D0010D11D0010D11D00109F
:40018000D11D0010D11D0010D11D0010D11D0010D11D0010D11D0010D11D0010D11D0010D11D0010D11D0010D11D0010D11D0010D11D0010D11D0010D11D0010D11D00105F
:4001C000D11D0010D11D0010D11D0010D11D0010D11D0010D11D0010D11D0010D11D0010D11D0010D11D0010D11D0010D11D0010D11D0010D11D0010D11D0010D11D00101F
:40020000D11D0010D11D0010D11D0010D11D0010D11D0010D11D0010D11D0010D11D0010D11D0010D11D0010D11D0010D11D0010D11D0010D11D0010D11D0010D11D0010DE
:40024000D11D0010D11D0010D11D0010D11D0010D11D0010D11D0010D11D0010D11D0010D11D0010D11D0010D11D0010D11D0010D11D0010D11D0010D11D0010D11D00109E
:40028000D11D0010D11D0010D11D001010B5054C237833B9044B13B10448AFF300800123237010BD3C0D0008000000002825001008B5034B1BB103490348AFF3008008BD9F
:4002C00000000000400D00082825001070470000014B01221A607047580D000838B50546284B197093F83E30DB0933D11446254A92F83E3043F0800382F83E30224B002285
:400300001A60204B93F83F3013F0010F04D01F4B9B6813F0030FF4D01D4B1E4A0121002000F0D4FE58BB184B1B68002BFBD0ACB1022C07D0032C09D0124B93F83E30DB094A
:40034000FAD10BE0002001F07FFAF5E7002001F04BFBF1E701220B4B83F83C20AC460E4C0FCCACE80F000FCCACE80F000FCCACE80F0094E80F008CE80F00284638BD032286
:40038000E9E700BF5C0D0008580D000800002140D10200108C020008640D000870B590B005460E4600221B49012000F0E1FE1A4B1A4C5C60DC60666094F83E3043F020032A
:4003C00084F83E3094F83E306FF3C71384F83E30012211466846FFF781FFA36BBF2B02D9A36BC12B03D90D4B052283F83C20AC460B4C0FCCACE80F000FCCACE80F000FCC36
:40040000ACE80F0094E80F008CE80F00284610B070BD00BFCD0200108C0200085C0D0008640D000838B505460A4CA164E26423659DF81020BDF8143043EA024363659DF8A4
:4004400018208021FFF74AFF636D85F82130284638BD00BF5C0D000800B591B0054B44F61D329A640122A4216846FFF737FF11B05DF804FB5C0D000830B595B04FF4FA6057
:4004800001F096F82D4D0024009423460E220421284600F05DFC009423460E220521284600F056FC0094012308220421244800F04FFC62B6234904A8FFF770FF224D04ACB1
:4004C0000FCC0FC50FCC0FC50FCC0FC594E80F0085E80F00FFF7C0FF06E0184B10229A6020E0164B20229A60184C0123029347F2305301930C230093154B2246154904A820
:40050000FFF790FFA37803F04203022BECD1104B9B7A422B14BF00230123002BDDD1074B10225A600A4B9B7A522B14BF00230123002BD6D1014B20225A60D5E7000632409C
:4005400000003240CC020008B40D0008000E0008F40D00089C020008024B034AC3F8002E704700BF00001F410100118010B54B4AD2F8003523F0030343F00103C2F8003522
:40058000474B1A681068D2F88810425822F47F4242501A681068D2F88410425822F07F4242501A681068D2F88410425822F47F4242501B6893F83E2032B13849D1F880235C
:4005C00022F00F02C1F8802393F83E2032B13349D1F8802322F03002C1F8802393F83E3033B12E4AD2F8803343F00043C2F880330021012000F050FF0021022000F04CFF74
:400600000021032000F048FF0021042000F044FF0021084600F040FF204CD4F8043523F4407323F0010343F00103C4F80435D4F8043523F47F03C4F80435D4F8043543F0E0
:400640000043C4F80435D4F8003523F47063C4F80035D4F8003523F4E043C4F80035D4F8003543F40043C4F800350E4A136823F440731360002001F041FAD4F8803113F0F2
:40068000010F05D1D4F80C3523F00043C4F80C350821002001F008F810BD00BF00002640140E00080000274030B58FB040F2DC5000F07EFF9621002000F0F6FF34252A46C3
:4006C000002101A801F0A4FB174C01AA0021204600F012F92A46002101A801F099FB01AA0121204600F008F9FFF740FF24252A46002101A801F08CFB4FF4C023049301A996
:40070000204600F0A9FA2A46002101A801F080FB4FF4CC03049301A9044800F09DFAFFF71BFF0FB030BD00BF0000324000063240014B1860704700BF140E0008B0F1204F1B
:400740003CD018D880283BD007D9B0F5807F3FD0244B984209D024487047102832D0402801D12248704700282ED170474FF4A40070471D4870471E4B98422BD02DD31D4B1F
:4007800098422CD8B0F1704F12D900F1805001380428EED801A353F820F000BF6D07001073070010CD070010B5070010B90700100D487047104870471048704700207047D7
:4007C0000F4870470F487047074870470E487047044870474FF4A0007047034870470248C3E700BF06005200FF00520002005000090000A0050000F0020052000300520036
:4008000005005200010050000100520010B5124B1B6893F83130012B16D90F4B1C68236AB4F8B0201344D4F8B420D358002B11DB0A4B1868FFF782FF636801229A606368F2
:400840009B68002BFBD110BD40F2C311044800F0C9FEE2E70348F6E7140E0008180E0008D0200010020050001A4B186028B102230370FF23437000234380174B1B6893F894
:40088000502002B9704700B583B0B3F93830ADF80030002301931149684600F04FFEBDF90030002B07DB03F01F015B0901228A400B4941F82320084B1B6893F8513013B9B4
:4008C00003B05DF804FB02220649012000F050FCF6E700BF280E0008140E0008AD07000800E100E06508000808B50248FFF7BCFF08BD00BF2C0E0008002800F0A181F8B5C6
:400900000D4614460646002A00F09C81072900F2F8802368012B00F2F980636833F00F0340F0F980237A33F01F0340F0F980E368032B00F2FA802369012B00F2FB806369C1
:40094000012B00F2FC80A369012B00F2FD80E369032B00F2FE80236A012B00F2FF80636A012B00F20081A36A012B00F20181E36A032B00F20281236B072B00F20381276854
:40098000072D00F20481012F00F20781002F40F00A810123AB4073606768072D00F2078137F00F0340F00981A800A74B1B6893F87D108B590F22824023EA020307F00F077B
:4009C00087401F438F51277A072D00F2FC8037F01F0340F0FE809C4B1A689369F31ADB095269190102EB0313032D00F2F88053584FEAC50C1F2000FA0CF023EA000307F0FB
:400A00001F0707FA0CF71F435750E768082D00F2F380032F00F2F68068008B4B1B6893F87C108B590322824023EA020207F00303834013438B512769082D00F2E980012F0A
:400A400000F2EC80B3690122AA4023EA020307F00107AF401F43B7616769072D00F2E480012F00F2E7807848036893F87EC05CF806300121A94023EA010307F00102AA4014
:400A80001A434CF806206A0002F1100C032303FA0CF31943036893F87F70BB5923EA0101A36903F00103AB400B43E26902F0030202FA0CF21343BB51036893F88020B158F7
:400AC00021F0FF01236A03F00103606A400000F002000343A06A800000F004000343E06AC00000F018000343206B4001C0B20343AD0005F47E7503FA05F50D43B55000207A
:400B0000F8BD4521514800F06DFD02E746214F4800F068FD01E747214C4800F063FD01E748214A4800F05EFD01E74921474800F059FD00E74A21454800F054FDFFE64B2171
:400B4000424800F04FFDFEE64C21404800F04AFDFDE64D213D4800F045FDFCE64E213B4800F040FDFBE64F21384800F03BFDFAE65021364800F036FDF9E65121334800F0EF
:400B800031FDF8E65221314800F02CFDF7E640F227312F4800F026FDF5E64FF44A712C4800F020FDF2E60123AB40B360F4E64FF47171274800F016FDF2E640F2C531244802
:400BC00000F010FDF0E64FF42271214800F00AFDFDE640F289211E4800F004FDFBE62A1F5968D2001F20904021EA000107F01F0797400F435F6008E74FF4DD61144800F03D
:400C0000F1FC06E740F2E961114800F0EBFC03E740F269610E4800F0E5FC10E740F26A610B4800F0DFFC0DE740F20341084800F0D9FC15E740F20441054800F0D3FC12E718
:400C40000448704703485BE7140E000868210010FC21001001005A0000286ED070B50C46054600296BD00B6833F0FF0347D1236933F0FF0348D1A3685B0D5B05002B48D17C
:400C8000636823F4FF7323F00103002B46D1E36913F0604F47D1236A13F0604F48D1294B19688A69AA1AD2094969100101EB021226682E601E6896F87DC0E66845F80C606B
:400CC0001E6896F87EC0266945F80C601E6896F87FC0666945F80C601E6896F87CC0A66845F80C606668AE611B6893F88030A669EE50E3690B50236A5360002070BD9921C2
:400D0000114800F06FFCB2E79A210F4800F06AFCB1E79B210C4800F065FCB1E79C210A4800F060FCB3E79D21074800F05BFCB2E79E21054800F056FCB1E704487047034857
:400D4000DCE700BF140E00086821001001005A002DE9F04104460D4616461F469DF8188007293ED836F00F0340D1012F43D838F01F0345D123680122AA4023EA020307F026
:400D80000107AF401F4327602D4B1B6893F87D100B59A8000F22824023EA020306F00F0686401E430E51072D2FD838F01F0332D1234B1B689869241AE4095B69200103EB26
:400DC0000414032D2DD81A58ED001F24AC4022EA040208F01F0808FA05F515431D50BDE8F081D921174800F0FDFBBBE7DA21154800F0F8FBB9E7DB21124800F0F3FBB6E781
:400E0000DC21104800F0EEFBB4E74FF422710E4800F0E8FBC9E740F289210B4800F0E2FBC6E7043D6368ED001F22AA4023EA020308F01F0808FA05F51D436560CFE700BFA6
:400E4000140E000868210010FC21001038B50C4B1B68D3F8B4301B58002B01DB094838BD05460C460B0C1B041BB9A4B26C600020F5E740F2D521044800F0B4FBF5E700BFD9
:400E8000140E000801008A00D020001038B50368002B0FDA05460C46C2600B0C1B041BB9A4B2AC60002038BD40F2BB21024800F099FBF5E70148F6E7D020001001008A0068
:400EC00038B504460D4651B1084B1B68D3F8B4301B59002B08DAE3682B60002038BD9921034800F07FFBEFE70248F7E7140E00089022001001008A00034B1B6803B1704755
:400F0000014B1860FBE700BF400E00082DE9F84304460E4617461D46DDF82080324B1B68002B44D0304B1B682C2004FB00F01C185FFA85F943F80090C5F3072363602D0CA6
:400F4000A5602A4B1B6893F83130994534D2274B1B681A6AB3F8B01001FB09222261656893F832309D422DD2204B1B681A6A05F1800302EB43156561D4F808904FEA19438F
:400F80001B042BBB4FEA19431B043BBB1FFA89F343EA0943AB60E76126620023A361B8F1000F02D0B8F90030A381BDE8F883B5210F4800F017FBB5E740F2C3110D4800F0AD
:400FC00011FBC4E740F2DF110A4800F00BFBCBE74FF4FF71074800F005FBD3E740F2FF11044800F0FFFAD1E7400E0008140E000828230010D020001030B58FB004460028D2
:4010000049D0A369072B4BD8E36A002B4DD0236B002B4FD00DF11C0C04F1140EBEE80F00ACE80F00DEF80030CCF800300DF1080CA646BEE80F00ACE80F00DEF80030CCF81A
:4010400000301F4B1B68DB8E079A1344ADF83030089B0D930CAD00950B9BA26AE16A0A98FFF754FF00210091069B0A460598FFF74DFF216B284600F061FABDF93030002B6C
:4010800007DB03F01F015B0901228A400D4941F823200FB030BD52210B4800F0A3FAB0E75621094800F09EFAAEE75821064800F099FAACE75921044800F094FAAAE700BF2C
:4010C000140E000800E100E028230010F8B507460E461C46154652B3204B1B6863B31F4B19682C2202FB071002FB06114A684FF0010C0CFA02F2120446680CFA06F603690B
:401100002BB38F692FBB1B68002B24DA2B882B601A432A600369DD60C1F818C04C620469330C1B046BB9B6B2A6603846F8BDFD210B4800F057FACFE7FE21094800F052FA92
:40114000CDE740F2BB21074800F04CFAEBE7064FEBE7064FE9E7054FE7E700BF400E000828230010D020001004028A0007028A00F8B506460F4615460F4B1B6873B10E4B52
:401180001C682C2000FB0644236A6BB1E369AB4210D9236A43F825700020F8BD4FF4AF71064800F01FFAEAE74FF4B171034800F019FAEBE70248F0E7400E0008282300103B
:4011C0000A028A0070B582B000230193044680B12369A3B16369C3B1236AE3B16369DD682A0C1ED1ADB2002D3DD163691B6802B070BD40F2D111244800F0F4F9E8E74FF422
:40120000E971214800F0EEF9E4E740F2D3111E4800F0E8F9E0E74FF4EA711B4800F0E2F9DCE712041A601B682069184B1B68D3F8B4301B58002BD5DA01A9FFF741FE60B930
:40124000019803681E0CDBB2E2699A4206D9226A52F8233013B1984700E0002631462069FFF7F4FDBEE763691D601B68636A2BB19847002363620023A361B6E7A36A002B17
:40128000F9D09847F7E700BF28230010140E000810B50446084B1B683BB1074B1B682C2000FB0430FFF78EFF10BD40F2B111034800F098F9F1E700BF400E000828230010EB
:4012C000264B1B6893F83130834242D970B505460C4600293FD00B6813F01F0F01D0204870BD1E4B1B6893F8313098421CD21B4B1B68186AB3F8B03003FB0505194E356090
:401300002268D2080021606800F082FD00212846FFF79CFD35686CB1224600212846FFF7B5FD68B11048DBE740F2C3110F4800F059F9DCE740F293310C4800F053F9EBE78D
:401340000021084B1868FFF781FD0028C8D00648C6E7034870470248C2E700BF140E000803018A004C0E000801018A00D020001038B505460C4613461AB113B3D4B9124895
:4013800038BD0029F9D1114B1B6893F8313098420AD20E4B1B68186AB3F8B03003FB05000B4B18602046EBE740F2C311094800F019F9EEE708490C604B602846FFF780FF59
:4013C000DEE70148DCE700BF03018A00140E00084C0E0008D0200010440E00082DE9F041194B1B68DD682B6883422BD90C46460900F01F00012303FA00F8B9B10027124B63
:4014000018680368002B17DA6A6852F8263013EA080F0FD023EA080342F8263000250021FFF714FD54B12846BDE8F08100F0E9FC0746E4E7054DF2E7054DF3E7384600F010
:40144000E4FCF0E7034DEEE74C0E0008020188000301880004018A000B4B1B68DB681A6882420CD9410900F01F00012202FA00F05B6853F82130034203D004487047044813
:4014800070470448704700BF4C0E00080101880004018A0000018800134B1B6893F83C3083421DD9042904D9A1F580739BB2132B18D8FF290CD901F01F010C4B00F1C002E6
:4014C00043F82210D030042243F820200020704701F00701D030054B43F82010002070470348704702487047140E00080000264001004A0038B504460C4B9A680C4B9A42DB
:4015000004D010340B4B53F8240038BD0D4631B11034074B53F8240043F82450F5E740F23711054800F05EF8F2E700BF00ED00E00000000800000010C023001060B338B597
:401540000D4604464368072B13D8B4F900306268002B13DB5201D2B203F1604303F5614383F800230D4B9A680D4B9A420DD0002038BD32210B4800F035F8E6E703F00F0389
:401580005201D2B20849CA54ECE72946B4F90000FFF7B0FF0020EBE70448704700ED00E000000008C023001014ED00E00100560010B5044605E0084B186800F019FCA4F5F7
:4015C0000044B4F5004FF6D8044B186804FB00F000F00EFC10BD00BFFC0200080403000801BEFEE738B50C46044D18220146284600F060FCAC610020FFF7F2FFA80C000849
:40160000FEE7000008B50268254BDA6142681A6282685A62C2689A620269DA6242691A6382695A63C2699A631E4A916AD963D16A1964516A5964516B9964926BDA64F1EEC0
:40164000103A13F0900F27D0026A154B1A65426A5A65826A9A65C26ADA65026B1A66426B5A66826B9A66C26BDA66026C1A67426C5A67826C9A67C26CDA67026DC3F8802041
:40168000426DC3F88420826DC3F88820C26DC3F88C20026EC3F89020FFF7B2FF08BD00BFA80C000800ED00E070B40446002830D01923304802681668B2F8A850725922F0F4
:4016C00003028B422CBF002301231A43725102681668B2F8A850725922F44072725102681568B2F8AAC055F80C2022F00302134345F80C3003681868B3F8AA20835823F43A
:40170000407383503CB110291DD9212926D801221AE06423CDE7174B1B6893F855208A421ED293F856208A421CD293F857208A421AD293F858208A4218D293F859308B42B7
:4017400016D3042200E000220A4B1B6859680B6823F00F0313430B6070BC70470222F3E70022F1E70122EFE70222EDE70322EBE70522E9E7140E000870B582B004460D468E
:40178000022803D9042801D0032816D16B1EDBB2012B03D9042D01D0082D14D1264B53F82440042D29D0012D29D0022D2DD026466469002CFBD100202EE040F6B2111F487E
:4017C000FFF710FFE2E740F6B3111C48FFF70AFFE4E76469BCB11A4B984212D0A3681D42F7D1E3681A6800925B6801932368294668469847134B1C60EBE70020EAE700206C
:40180000E8E7012DEAD102B070BD0E4B1E68002ED1D03669CFE73669002EF4D0B3681D42F9D1F3681A6800925B6801933368294668469847EFE700BF540E00085824001051
:40184000FF004200500E000870B50446012826D81E4B1B684BB301210020FFF78DFF064670BB00F0CEFA0546184B1B681BB104210020FFF781FF164A136923F0040313612C
:40188000012C14D030BF284600F0BFFA0F4B1B681BB108210020FFF76FFF304670BD4FF4E0710C48FFF79EFED2E70026D9E720BF094B1B7803B120BF074B01221A70E2E7DE
:4018C00002210020FFF758FF044EE6E7540E000800ED00E058240010880E0008FF00420010B50446002833D01C4A1368DB6803F5E043D3F8003923601368DA6802F5E042C1
:40190000D2F800286260DA6802F5E042D2F80428A260DA6802F5E042D2F80828E260DA6802F5E042D2F80C282261DA6802F5E042D2F810286261DA6802F5E042D2F81428AC
:40194000A261DB6803F5E043D3F81838E36110BD40F6A1210248FFF745FEC5E7140E00085824001010B50446002832D01C4B1B68DA68616802F5E042C2F80018DA68A16899
:4019800002F5E042C2F80418DA68E16802F5E042C2F80818DA68216902F5E042C2F80C18DA68616902F5E042C2F81018DA68A16902F5E042C2F81418DA68E16902F5E04200
:4019C000C2F81818DB68226803F5E043C3F8002910BD40F6C9210348FFF704FEC6E700BF140E00085824001070B50446012845D83B4B5B68002B47D001210846FFF7BCFE7F
:401A00000646002865D100F0FCF90546344B5B681BB104210120FFF7AFFE324B1B6893F843202AB19B68D3F8E03013F0100F2DD14FF0B0539B899BB233B14FF0B0539B8911
:401A40009BB2B3F5807F30D1204600F0E1FA254B1B6893F843202AB19B68D3F8E03013F0100F32D1284600F0D0F91D4B5B681BB108210120FFF780FE304670BD4FF4267128
:401A80001948FFF7AFFDB3E70026BCE71748FFF727FFCDE730BF134B1B681A68D3F89430D35803F00303022BD1D1114A136943F004031361012CEDD120BF0E4B1B7803B1CE
:401AC00020BF0C4B01221A70E5E70848FFF74AFFC8E702210120FFF74FFE074ECCE700BF540E0008140E000858240010680E000800ED00E0880E0008FF00420004280FD056
:401B000000060B4B1B681A68D3F8A03000F04070D0504FF0E022136923F00403136170474FF0E022136943F004031361704700BF140E000808B50120FFF7AAFB08BD00009E
:401B4000604BD3F8802302F00F0202F1D00153F8213003F00703042B17D8DFE803F0031616050800584B11E0584B1B680EE002F1C003544951F8233003F01F03112B1DD003
:401B8000132B1ED14FF4004300E0514BB2BB4D4AD2F8900500F00100D2F88815C1F30171D2F8882512F0405F0ED0464AD2F88825C2F30172012A08D0002206E04FF400435F
:401BC000E4E74FF4FA43E1E7012202B108B9032916D13C49D1F88005C0F31100D1F88425C2F30C02D1F88015C1F300610131B3FBF2F300FB03F3B3FBF1F301E0012A31D094
:401C0000304AD2F88023C2F30112D340314A1360314AD2F89010C1F3072101311269120E0132B3FBF2F22D480260B3FBF1F32C4A13602C4A136003F5742202F23F222A4910
:401C4000A1FB0212C2F3874228490A7003F2E733274AA2FB03239B09264A1360DB03264A13607047174AD2F8400600F00100D2F80016C1F30171D2F8002612F0405F08D038
:401C8000104AD2F80026C2F30172012A02D0002200E0012202B108B90329B1D10949D1F8002602F07F02D1F80006C0F30420D1F80016C1F3044102FB03F3B3FBF0F3B3FB0A
:401CC000F1F39DE70000264000127A00F002000800366E01F402000800002140F8020008EC0200080003000883DE1B4308030008D34D621004030008FC02000808B50D48FE
:401D0000FEF716FDFEF7D0FCFFF71AFF002211460420FFF72DFB0848FFF7EEF8074B1B6893F8513013B9FEF7DFFD08BD0448FFF763F9F8E7182000108C0E0008140E000810
:401D4000F024001008B500F05CF8074AD2F8883043F47003C2F88830BFF34F8FBFF36F8F00F053F808BD00BF00ED00E07047FFF7FDFF72B6104C114DAC4209DA21686268D4
:401D8000A368043BA2BFC858D050FAE70C34F3E70B490C4A00209142BCBF41F8040BFAE709480A490860BFF34F8FFFF7CBFFFFF7A5FFFEF761FBFEE72C25001044250010F6
:401DC0003C0D0008101000080000000808ED00E0FEE7FEE700B504207146084202D0EFF3098001E0EFF308800430FFF70BFCFEE70230800803D001300238FCD100BF00BF08
:401E00007047EFF3108072B6704780F310887047830730B548D0541E002A3FD0CAB2034601E0013C3AD303F8012B9D07F9D1032C2DD9CDB245EA05250F2C45EA054536D951
:401E4000A4F1100222F00F0C03F1200EE6444FEA121C03F1100242E9045542E9025510327245F8D10CF1010214F00C0F03EB021204F00F0C13D0ACF1040323F00303043306
:401E8000134442F8045B9342FBD10CF003042CB1CAB21C4403F8012B9C42FBD130BD64461346002CF4D1F9E703461446BFE71A46A446E0E730B540EA0104A30701D1032A2C
:401EC0000FD8844601F1FF3E07E01EF8011F03F8011B541EC1B19C4622466346002AF4D130BD0B468446194653F8045BA5F1013424EA050414F0803FE4D1043A032A4CF8EE
:401F0000045B1946EFD8DDE76244002CE8D003F8011B9342FBD130BD024B13B1024800F005B8704700000000391F0010002301461A46184600F01AB838B5084B084D5B1B0D
:401F40009C1007D0043B1D44013C55F804399847002CF9D1BDE8384000F054B84807000844070008704700BF704700BF2DE9F047DFF880A00646DAF8000098460F46914687
:401F8000FFF7F0FF1A4B1B68D3F8484124B365681F2D26DC5EB96B1C0235DAF80000636044F82570FFF7E0FF0020BDE8F08704EB85010123C1F88890D4F88821AB401A439B
:401FC000022EC4F88821C1F80881E4D1D4F88C211343C4F88C31DEE703F5A674C3F84841D5E7DAF80000FFF7BFFF4FF0FF30DCE72425001038070008F8B500BFF8BC08BCFB
:402000009E467047F8B500BFF8BC08BC9E4670475FF800F0590A00080000214000002540000001400000344000002440000031400000324000001F410000234000001140FE
:40204000010101010101010101101010800019005500F0000501053B04101C01010000000FC000000004000001010101011D3A57789600082000101208000000001F0000CC
:402080000010000F002000023F06080E00080009000A000B24282C3034000000100000009000000088000000080000008000000004F0000000F00000400200002005A000E7
:4020C000D00100018001A00120000000100000002F566F6C756D65732F446174612F5653636F64652F4749542F4F6E657468696E785F50726F6A6563745F4578616D706CFB
:4021000065732F4578616D706C655F4C6F52612F4F6E657468696E785F43726561746F722E637964736E2F47656E6572617465645F536F757263652F50536F43362F7064BA
:402140006C2F647269766572732F7065726970686572616C2F6970632F63795F6970635F6472762E680000002F566F6C756D65732F446174612F5653636F64652F474954CF
:402180002F4F6E657468696E785F50726F6A6563745F4578616D706C65732F4578616D706C655F4C6F52612F4F6E657468696E785F43726561746F722E637964736E2F4797
:4021C000656E6572617465645F536F757263652F50536F43362F70646C2F647269766572732F7065726970686572616C2F6770696F2F63795F6770696F2E63002F566F6C2D
:40220000756D65732F446174612F5653636F64652F4749542F4F6E657468696E785F50726F6A6563745F4578616D706C65732F4578616D706C655F4C6F52612F4F6E6574D8
:4022400068696E785F43726561746F722E637964736E2F47656E6572617465645F536F757263652F50536F43362F70646C2F647269766572732F7065726970686572616CE9
:402280002F6770696F2F63795F6770696F2E68002F566F6C756D65732F446174612F5653636F64652F4749542F4F6E657468696E785F50726F6A6563745F4578616D706CD0
:4022C00065732F4578616D706C655F4C6F52612F4F6E657468696E785F43726561746F722E637964736E2F47656E6572617465645F536F757263652F50536F43362F7064F9
:402300006C2F647269766572732F7065726970686572616C2F6970632F63795F6970635F6472762E630000002F566F6C756D65732F446174612F5653636F64652F47495412
:402340002F4F6E657468696E785F50726F6A6563745F4578616D706C65732F4578616D706C655F4C6F52612F4F6E657468696E785F43726561746F722E637964736E2F47D5
:40238000656E6572617465645F536F757263652F50536F43362F70646C2F647269766572732F7065726970686572616C2F6970632F63795F6970635F706970652E630000A4
:4023C0002F566F6C756D65732F446174612F5653636F64652F4749542F4F6E657468696E785F50726F6A6563745F4578616D706C65732F4578616D706C655F4C6F52612F4D
:402400004F6E657468696E785F43726561746F722E637964736E2F47656E6572617465645F536F757263652F50536F43362F70646C2F647269766572732F70657269706835
:402440006572616C2F737973696E742F63795F737973696E742E63002F566F6C756D65732F446174612F5653636F64652F4749542F4F6E657468696E785F50726F6A6563B3
:40248000745F4578616D706C65732F4578616D706C655F4C6F52612F4F6E657468696E785F43726561746F722E637964736E2F47656E6572617465645F536F757263652F8B
:4024C00050536F43362F70646C2F647269766572732F7065726970686572616C2F737973706D2F63795F737973706D2E6300000003000000010000000100000000000000B2
:4025000005036000040000000100000000000000010000000604600008000000EC0F0008351B0010100300080000000000000010000000088C0200004C2500108C02000880
:402540001C0A00003C0D0008D4020000010060005C0D0008000060005C0D000850998400000000000C0501000800000C01004434000000000000000000000000000000005F
:402580000000000000000000010000000000000000000000000000000A0000000000000000000000000000000000000000127A000048E80100127A0000093D000000A00FD2
:4025C00000127A00401F0000080000000000000000000000FC05000864060008CC060008000000000000000000000000000000000000000000000000000000000000000093
:40260000000000000000000000000000000000000000000000000000000000000000000000000000000000000000000000000000000000000000000000000000000000009A
:402640000000000000000000000000000000000000000000000000000000000000000000000000000000000000000000000000000000000000000000010000000000000059
:402680000E33CDAB34126DE6ECDE05000B000000000000000000000000000000000000000000000000000000000000000000000000000000000000000000000000000000EE
:4026C00000000000000000000000000000000000000000000000000000000000000000000000000000000000000000000000000000000000000000000000000000000000DA
:402700000000000000000000000000000000000000000000000000000000000000000000000000000000000000000000000000000000000000000000000000000000000099
:402740000000000000000000000000000000000000000000000000000000000000000000000000000000000000000000000000000000000000000000000000000000000059
:402780000000000000000000000000000000000000000000000000000000000000000000000000000000000000000000000000000000000000000000000000000000000019
:4027C00000000000000000000000000000000000000000000000000000000000000000000000000000000000000000000000000000000000000000000000000000000000D9
:402800000000000000000000000000000000000000000000000000000000000000000000000000000000000000000000000000000000000000000000000000000000000098
:402840000000000000000000000000000000000000000000000000000000000000000000000000000000000000000000000000000000000000000000000000000000000058
:402880000000000000000000000000000000000000000000000000000000000000000000000000000000000000000000000000000000000000000000000000000000000018
:4028C00000000000000000000000000000000000000000000000000000000000000000000000000000000000000000000000000000000000000000000000000000000000D8
:402900000000000000000000000000000000000000000000000000000000000000000000000000000000000000000000000000000000000000000000000000000000000097
:402940000000000000000000000000000000000000000000000000000000000000000000000000000000000000000000000000000000000000000000000000000000000057
:402980000000000000000000000000000000000000000000000000000000000000000000000000000000000000000000000000000000000000000000000000000000000017
:4029C00000000000000000000000000000000000000000000000000000000000000000000000000000000000000000000000000000000000000000000C100008191F00106B
:402A0000B10200108D02001080B2C10048B3154B1B681A6AB3F8B030C3EBC303D358002BF5DA114B3E22C3F8042141F61E72C3F808210622C3F8182521F07F41C3F81C1597
:402A4000D3F81C35074B1B681A6AB3F8B030C3EBC303134400225A60034BD3F81C35002BFADA7047140E000800002640F8B5284B1B6893F83130052B36D9254F3A68166A9B
:402A8000B2F8B03003EB83031E44526802F57042146EA4B200F050FA05463B681968D3F890208A58013C032C1AD8032A22D01868D3F884104258120E4058C0F30720531C7E
:402AC00000FB0333134800FB03F3134A1068134AA2FB00208009B3FBF0F08230FFF794FF284600F02DFAF8BD40F2C3110C4800F01FFAC2E74FF0B052D27A002AD7D1082249
:402B0000B2601968D3F890208A58032AF9D0CEE7140E000840420F00F4020008D34D6210D02000104378FF2B00D0704710B500F003FA0446144B1B6893F83130042B1DD954
:402B4000114B1A68136AB2F8B02003EB8203DB680E4A13600E4A002111600E4A012111605A680D4B1A6013680B431360136813F0010FFBD1204600F0E3F910BD40F2C311FB
:402B8000064800F0D5F9DBE7140E00083C0E0008300E0008340E0008380E0008D02000102DE9F84307468846524B1B6893F83130012B35D94F4B1B681C6AB3F8B0201444C5
:402BC000D3F8B450254493F85030002B73D04FF0B053DB7A002B3FD1464B1B6893F83130052B23D9434B19680A6AB1F8B03003EB83031344D1F8B420D358002B73DB0020EE
:402C000000F0A6F93C4B98426FD000233B4A12680121184600F098F9064670B1384C32E040F2C311374800F083F9C3E740F2C311344800F07DF9D5E70136002000F088F938
:402C40002D4B984202D0304B9E42F5D92E4B9E424DD84FF0010901E04FF0000900F06CF906462A4BD3F81C35002B0FDB244CB9F1000F05D00121002000F06EF90028F9D147
:402C8000304600F05DF92046BDE8F883204A0121204600F049F908B1194CE8E74046FFF7B3FE37B12B68002BFCDB00F059F90446DDE7184CDBE700F03FF90646144A0121AD
:402CC000204600F031F938B95FB12B68002BFCDB00F046F9044600E0094C304600F030F9D1E70C4CF9E7064CCDE7054CCBE7044CC9E700BF140E000801018800280E0008D7
:402D000005005200D0200010EF49020000002640180E00080100500070B57F4B19684C684FF0B0535B782BB14FF0B0535B78DBB2212B5BD10A6AB1F8B030C3EBC30302EB90
:402D4000030CD358002BF5DADCF80C3043F00103CCF80C300B6AB1F8B020C2EBC2021344DA6812F0020F30D0DA681FFA82FC0D68D1F88420AA58120A120402F47F02D1F89E
:402D80008860AD594FEA152E42EA0E624CEA0202DA600D68D1F88420AB5823F47F4343F41063AB505C4A13681D68D3F888106B5823F47F4343F410636B5013681A68D3F864
:402DC00084105158D3F88830D358534B1B68196AB3F8B020C2EBC2020A44002151601A6AB3F8B030C3EBC30313445B684A4B1B681968D3F89430194405E030BF0B6803F0DC
:402E00000303022B0FD1454A136943F0040313610128F2D120BF424B1B7803B120BF404B01221A70EAE73C4B1A68116AB2F8B030C3EBC303C818CB58002BF4DA4FF0B0537F
:402E40005B7873B34FF0B0535B78DBB2212B28D0D4F80C31002B53D1324BD3F80801D3F81815D3F8042141F61E75C3F808510625C3F818553E25C3F804514425C3F81C55A9
:402E8000284BD3F81C35002BFADA4FF0AA33C4F80C31244BC3F80801C3F81815C3F804212EE0C36813F0020F1ED01468D2F88410625822F47F42C3681B0C1B029BB21343BC
:402EC0006350154B1A681468D2F88800235823F47F43116AB2F8B020C2EBC2020A44D268120E43EA022323500B4B1A68136AB2F8B020C2EBC2021344DA6822F00102DA6020
:402F0000054B1B681A6AB3F8B030C3EBC303134400225A6070BD00BF140E000800ED00E0880E0008000026405FF800F08D0E00105FF800F0E51500105FF800F0031E001066
:402F40005FF800F00B1E00105FF800F0CD1000105FF800F0591400105FF800F0DD1300105FF800F00D08001000000000000000000000000000000000000000000000000026
:402F80000000000000000000000000000000000000000000000000000000000000000000000000000000000000000000000000000000000000000000000000000000000011
:402FC00000000000000000000000000000000000000000000000000000000000000000000000000000000000000000000000000000000000000000000000000000000000D1
:0200000490303A
:02000000068F69
:0200000490501A
:0C0000000005E20721002100E217278F15
:00000001FF