:020000041000EA
:4000000000F00308CF0200100D00000035030010350300103503001035030010000000000000000000000000000000003103001031030010000000003103001031030010A7
:400040003103001031030010310300103103001031030010310300103103001031030010310300103103001031030010310300103103001031030010310300103103001040
:400080003103001031030010310300103103001031030010310300103103001031030010310300103103001031030010310300103103001031030010310300103103001000
:4000C00031030010310300103103001031030010310300103103001031030010310300103103001031030010310300103103001031030010310300103103001031030010C0
:40010000310300103103001031030010310300103103001031030010310300103103001031030010310300103103001031030010310300103103001031030010310300107F
:40014000310300103103001031030010310300103103001031030010310300103103001031030010310300103103001031030010310300103103001031030010310300103F
:4001800031030010310300103103001031030010310300103103001031030010310300103103001031030010310300103103001031030010310300103103001031030010FF
:4001C00031030010310300103103001031030010310300103103001031030010310300103103001031030010310300103103001031030010310300103103001031030010BF
:40020000310300103103001031030010310300103103001031030010310300103103001031030010310300103103001031030010310300103103001031030010310300107E
:40024000310300103103001031030010310300103103001031030010310300103103001031030010310300103103001031030010310300103103001031030010310300103E
:4002800031030010310300103103001010B5054C237833B9044B13B10448AFF300800123237010BDFC080008000000004043001008B5034B1BB103490348AFF3008008BDDC
:4002C0000000000000090008404300107047FFF7FDFF72B6104C114DAC4209DA21686268A368043BA2BFC858D050FAE70C34F3E70B490C4A00209142BCBF41F8040BFAE784
:4003000009480A490860BFF34F8F00F015F900F0EFF800F0F1FAFEE7444300105C430010FC080008280B00080000000808ED00E0FEE7FEE700B504207146084202D0EFF3CA
:40034000098001E0EFF30880043001F01BFBFEE708B5012001F02CF908BD00005D4BD3F8802302F00F0202F1D00153F8213003F00703042B17D8DFE803F003161605080046
:40038000554B11E0554B1B680EE002F1C003514951F8233003F01F03112B1DD0132B1ED14FF4004300E04E4BB2BB4A4AD2F8900500F00100D2F88815C1F30171D2F88825F0
:4003C00012F0405F0ED0434AD2F88825C2F30172012A08D0002206E04FF40043E4E74FF4FA43E1E7012202B108B9032916D13949D1F88005C0F31100D1F88425C2F30C023B
:40040000D1F88015C1F300610131B3FBF2F300FB03F3B3FBF1F301E0012A2BD02D4AD2F88023C2F30112D3402C4A53602D49D1F89000C0F3072001300969090E0131B3FBCF
:40044000F1F19160B3FBF0F3D360136103F5742101F23F212448A0FB0101C1F38741117503F2E7332149A1FB03139B099361DB03D3617047174AD2F8400600F00100D2F8CE
:400480000016C1F30171D2F8002612F0405F08D0104AD2F80026C2F30172012A02D0002200E0012202B108B90329B7D10949D1F8002602F07F02D1F80006C0F30420D1F8B8
:4004C0000016C1F3044102FB03F3B3FBF0F3B3FBF1F3A3E70000264000127A008C02000800366E010000214083DE1B43D34D621008B50D4801F0A4FB00F056F9FFF72EFF6A
:4005000000221146042000F0F5FD084800F084FE074B1B6893F8513013B900F009FB08BD044800F0F9FEF8E78441001018090008100B0008EC31001008B501F0E6FA074AD5
:40054000D2F8883043F47003C2F88830BFF34F8FBFF36F8F01F0DDFA08BD00BF00ED00E0FEE730B50546002214460DE001EB420E11F812C09EF801E00CF800E00132013B25
:40058000DBB2002BF2D10134032C05D855F82400C3B220F0FF00F4E730BD0000024B034AC3F8002E704700BF00001F410100118030B587B0704AD2F8003523F0030343F0B6
:4005C0000103C2F800356D4B1B68019301A801F0A5FC6B4A13681868D3F88810435823F47F43435013681868D3F88410435823F07F43435013681868D3F88410435823F47B
:400600007F4343F4A0634350136893F83E2032B15949D1F8802322F00F02C1F8802393F83E2032B15449D1F8802322F03002C1F8802393F83E2032B14F49D1F8802342F0E0
:400640000042C1F8802393F83E20012A08D94A49D1F8842322F00F0242F00102C1F8842393F83E20012A06D94349D1F8842322F03002C1F8842393F83E30012B06D93E4A0D
:40068000D2F8843343F00043C2F8843340F21111012000F0A5FF0021022000F0A1FF0021032000F09DFF0021042000F099FF0021084600F095FF01AC324D0FCD0FC42B68F8
:4006C000236001A800F0BAFF00284FD12E4AD2F8083F43F00043C2F8083F2C4801F060F8002846D1244CD4F8043543F4407343F00103C4F80435D4F8043523F47F0343F481
:40070000C603C4F80435D4F8043543F00043C4F80435D4F8003523F47063C4F80035D4F8003523F4E04343F48053C4F80035D4F8003543F40043C4F80035154A136823F41C
:4007400040731360012001F05FFAD4F8803113F0010F05D1D4F80C3523F00043C4F80C353021002001F060F907B030BD0420FFF7F7FE0420FFF7F4FE0000264020320010E0
:40078000100B00082432001000702640400D03000000274008B50A46002101F0E7FC08BD08B501F0D5FC08BD30B58FB040F2DC5001F0B4F89621002001F036F934252A4639
:4007C000002101A801F0D2FC2F4C01AA0021204600F0B6F92A46002101A801F0C7FC01AA0121204600F0ACF9FFF7E2FE274B284AC3F8F021002409E004EB44035A00254BDB
:400800001344998B9869FFF7C5FF01340B2CF3D900240AE004EB44039A001E4B13449A6E596E186EFFF7BCFF0134112CF2D9194C04F59C7104F50070FFF793FE164AD2F8E4
:40084000003943F00603C2F800392422002101A801F08CFC01A90C4800F022FB0DF1040C04F504740FCCACE80F000FCCACE80F002368CCF8003001A9084800F011FBFFF796
:400880008DFE0FB030BD00BF00003240000021400300FA0520320010007034408004324010464FF0000C0FE0114B93F82C3013F0040FF9D10F4B032283F82C200CE00D4AF5
:4008C00082F82C300CF1010CC31C23F0030363450DDD1CF0030FE7D0054B93F82C3013F00403F9D18445EADA11F80C30E7E77047001634400014344010B5C82001F00EF8A1
:4009000000F030F800214C1C044801F037FC4FF47A7001F003F82146F5E700BF843D0010074B062283F8282003F58073472283F8282003F5A063002283F82C20704700BF0C
:400940000012344008B501F0E0F8054A92F82C3043F0100382F82C30C0B201F0DAF808BD0019344008B5064B1B7813B1FFF7EAFF08BDFFF7D5FF024B01221A70F6E700BF2A
:40098000980A0008B0F1204F3CD018D880283BD007D9B0F5807F3FD0244B984209D024487047102832D0402801D12248704700282ED170474FF4A40070471D4870471E4B60
:4009C00098422BD02DD31D4B98422CD8B0F1704F12D900F1805001380428EED801A353F820F000BFB5090010BB090010150A0010FD090010010A00100D48704710487047CA
:400A000010487047002070470F4870470F487047074870470E487047044870474FF4A0007047034870470248C3E700BF06005200FF00520002005000090000A0050000F0B6
:400A4000020052000300520005005200010050000100520010B5124B1B6893F83130012B16D90F4B1C68236AB4F8B0201344D4F8B420D358002B11DB0A4B1868FFF782FFBA
:400A8000636801229A6063689B68002BFBD110BD40F2C311044800F065FFE2E70348F6E7100B00089C0A0008983D0010020050001A4B186228B102230370FF2343700023D5
:400AC0004380174B1B6893F8502002B9704700B583B0B3F93830ADF80030002301931149684600F0E1FEBDF90030002B07DB03F01F015B0901228A400B4941F82320084B08
:400B00001B6893F8513013B903B05DF804FB02220649012000F0BCFCF6E700BF9C0A0008100B00087D03000800E100E03504000808B50248FFF7BCFF08BD00BFC00A000812
:400B4000002800F0A181F8B50D4614460646002A00F09C81072900F2F8802368012B00F2F980636833F00F0340F0F980237A33F01F0340F0F980E368032B00F2FA802369FD
:400B8000012B00F2FB806369012B00F2FC80A369012B00F2FD80E369032B00F2FE80236A012B00F2FF80636A012B00F20081A36A012B00F20181E36A032B00F20281236BE4
:400BC000072B00F203812768072D00F20481012F00F20781002F40F00A810123AB4073606768072D00F2078137F00F0340F00981A800A74B1B6893F87D108B590F22824021
:400C000023EA020307F00F0787401F438F51277A072D00F2FC8037F01F0340F0FE809C4B1A689369F31ADB095269190102EB0313032D00F2F88053584FEAC50C1F2000FA9C
:400C40000CF023EA000307F01F0707FA0CF71F435750E768082D00F2F380032F00F2F68068008B4B1B6893F87C108B590322824023EA020207F00303834013438B51276985
:400C8000082D00F2E980012F00F2EC80B3690122AA4023EA020307F00107AF401F43B7616769072D00F2E480012F00F2E7807848036893F87EC05CF806300121A94023EAFA
:400CC000010307F00102AA401A434CF806206A0002F1100C032303FA0CF31943036893F87F70BB5923EA0101A36903F00103AB400B43E26902F0030202FA0CF21343BB516C
:400D0000036893F88020B15821F0FF01236A03F00103606A400000F002000343A06A800000F004000343E06AC00000F018000343206B4001C0B20343AD0005F47E7503FA07
:400D400005F50D43B5500020F8BD4521514800F009FE02E746214F4800F004FE01E747214C4800F0FFFD01E748214A4800F0FAFD01E74921474800F0F5FD00E74A21454844
:400D800000F0F0FDFFE64B21424800F0EBFDFEE64C21404800F0E6FDFDE64D213D4800F0E1FDFCE64E213B4800F0DCFDFBE64F21384800F0D7FDFAE65021364800F0D2FD93
:400DC000F9E65121334800F0CDFDF8E65221314800F0C8FDF7E640F227312F4800F0C2FDF5E64FF44A712C4800F0BCFDF2E60123AB40B360F4E64FF47171274800F0B2FD64
:400E0000F2E640F2C531244800F0ACFDF0E64FF42271214800F0A6FDFDE640F289211E4800F0A0FDFBE62A1F5968D2001F20904021EA000107F01F0797400F435F6008E787
:400E40004FF4DD61144800F08DFD06E740F2E961114800F087FD03E740F269610E4800F081FD10E740F26A610B4800F07BFD0DE740F20341084800F075FD15E740F20441FD
:400E8000054800F06FFD12E70448704703485BE7100B0008F43D00104C3E001001005A0000286ED070B50C46054600296BD00B6833F0FF0347D1236933F0FF0348D1A36896
:400EC0005B0D5B05002B48D1636823F4FF7323F00103002B46D1E36913F0604F47D1236A13F0604F48D1294B19688A69AA1AD2094969100101EB021226682E601E6896F851
:400F00007DC0E66845F80C601E6896F87EC0266945F80C601E6896F87FC0666945F80C601E6896F87CC0A66845F80C606668AE611B6893F88030A669EE50E3690B50236A05
:400F40005360002070BD9921114800F00BFDB2E79A210F4800F006FDB1E79B210C4800F001FDB1E79C210A4800F0FCFCB3E79D21074800F0F7FCB2E79E21054800F0F2FC96
:400F8000B1E7044870470348DCE700BF100B0008F43D001001005A0038B50C4B1B68D3F8B4301B58002B01DB094838BD05460C460B0C1B041BB9A4B26C600020F5E740F2DD
:400FC000D521044800F0CEFCF5E700BF100B000801008A00983D001038B50368002B0FDA05460C46C2600B0C1B041BB9A4B2AC60002038BD40F2BB21024800F0B3FCF5E748
:401000000148F6E7983D001001008A0038B504460D4651B1084B1B68D3F8B4301B59002B08DAE3682B60002038BD9921034800F099FCEFE70248F7E7100B0008A43E001000
:4010400001008A00264B1B6893F83130834242D970B505460C4600293FD00B6813F01F0F01D0204870BD1E4B1B6893F8313098421CD21B4B1B68186AB3F8B03003FB050583
:40108000194E35602268D2080021606801F06EF800212846FFF780FF35686CB1224600212846FFF799FF68B11048DBE740F2C3110F4800F057FCDCE740F293310C4800F07D
:4010C00051FCEBE70021084B1868FFF765FF0028C8D00648C6E7034870470248C2E700BF100B000803018A00C40A000801018A00983D001038B505460C4613461AB11BB3A0
:40110000D4B9124838BD0029F9D1114B1B6893F8313098420AD20E4B1B68186AB3F8B03003FB05000B4B18602046EBE740F2C311094800F017FCEEE706494C608B60043123
:401140002846FFF77FFFDDE70048DBE703018A00100B0008C40A0008983D00102DE9F041194B1B68DD682B6883422BD90C46460900F01F00012303FA00F8B9B10027124BCD
:4011800018680368002B17DA6A6852F8263013EA080F0FD023EA080342F8263000250021FFF7FAFE54B12846BDE8F08100F0ADFC0746E4E7054DF2E7054DF3E7384600F0E8
:4011C000A8FCF0E7034DEEE7C40A0008020188000301880004018A000B4B1B68DB681A6882420CD9410900F01F00012202FA00F05B6853F82130034203D00448704704485E
:4012000070470448704700BFC40A00080101880004018A0000018800034B1B6803B17047014B1860FBE700BFD00A00082DE9F84304460E4617461D46DDF82080324B1B6816
:40124000002B44D0304B1B682C2004FB00F01C185FFA85F943F80090C5F3072363602D0CA5602A4B1B6893F83130994534D2274B1B681A6AB3F8B01001FB0922226165681A
:4012800093F832309D422DD2204B1B681A6A05F1800302EB43156561D4F808904FEA19431B042BBB4FEA19431B043BBB1FFA89F343EA0943AB60E76126620023A361B8F10C
:4012C000000F02D0B8F90030A381BDE8F883B5210F4800F047FBB5E740F2C3110D4800F041FBC4E740F2DF110A4800F03BFBCBE74FF4FF71074800F035FBD3E740F2FF1151
:40130000044800F02FFBD1E7D00A0008100B0008003F0010983D001030B58FB00446002849D0A369072B4BD8E36A002B4DD0236B002B4FD00DF11C0C04F1140EBEE80F00E7
:40134000ACE80F00DEF80030CCF800300DF1080CA646BEE80F00ACE80F00DEF80030CCF800301F4B1B68DB8E079A1344ADF83030089B0D930CAD00950B9BA26AE16A0A98FD
:40138000FFF754FF00210091069B0A460598FFF74DFF216B284600F087FABDF93030002B07DB03F01F015B0901228A400D4941F823200FB030BD52210B4800F0D3FAB0E7D8
:4013C0005621094800F0CEFAAEE75821064800F0C9FAACE75921044800F0C4FAAAE700BF100B000800E100E0003F0010F8B507460E461C46154652B3204B1B6863B31F4B56
:4014000019682C2202FB071002FB06114A684FF0010C0CFA02F2120446680CFA06F603692BB38F692FBB1B68002B24DA2B882B601A432A600369DD60C1F818C04C620469A5
:40144000330C1B046BB9B6B2A6603846F8BDFD210B4800F087FACFE7FE21094800F082FACDE740F2BB21074800F07CFAEBE7064FEBE7064FE9E7054FE7E700BFD00A00087D
:40148000003F0010983D001004028A0007028A00F8B506460F4615460F4B1B6873B10E4B1C682C2000FB0644236A6BB1E369AB4210D9236A43F825700020F8BD4FF4AF715D
:4014C000064800F04FFAEAE74FF4B171034800F049FAEBE70248F0E7D00A0008003F00100A028A0070B582B000230193044680B12369A3B16369C3B1236AE3B16369DD681C
:401500002A0C1ED1ADB2002D3DD163691B6802B070BD40F2D111244800F024FAE8E74FF4E971214800F01EFAE4E740F2D3111E4800F018FAE0E74FF4EA711B4800F012FA46
:40154000DCE712041A601B682069184B1B68D3F8B4301B58002BD5DA01A9FFF757FD60B9019803681E0CDBB2E2699A4206D9226A52F8233013B1984700E00026314620698A
:40158000FFF70AFDBEE763691D601B68636A2BB19847002363620023A361B6E7A36A002BF9D09847F7E700BF003F0010100B000810B50446084B1B683BB1074B1B682C20A8
:4015C00000FB0430FFF78EFF10BD40F2B111034800F0C8F9F1E700BFD00A0008003F0010134B1B6893F83C3083421DD9042904D9A1F580739BB2132B18D8FF290CD901F015
:401600001F010C4B00F1C00243F82210D030042243F820200020704701F00701D030054B43F82010002070470348704702487047100B00080000264001004A0010B504462A
:40164000002868D0514BD3F88035002BC0F29B802368B3F5802F64D22368C3F31103E279002A64D04FF080721343484AC2F88035A388B3F5005F5CD22389B3F5007F5ED2E5
:40168000A388C3F30C032189414A02EA014213433E4AC2F88435A37A0F2B56D8E37A0F2B59D8A389B3F5005F5BD2A37A03F00F03E27A1201D2B21343A189364A02EA0122B4
:4016C0001343A27B120702F0405213432F4AC2F88835A379042B4AD8238AB3F5007F4CD22A49D1F88C3523F4E063A279120202F4E0621343C1F88C35D1F88C3523F0FF7398
:4017000023F48033208A224A02EA00421343C1F88C35002010BD40F21F211F4800F022F990E740F229211C4800F01CF994E700229AE74FF40C71184800F014F99CE740F2AE
:401740003121154800F00EF99AE74FF40E71124800F008F9A2E740F239210F4800F002F99FE740F23A210C4800F0FCF89DE740F24321094800F0F6F8AEE74FF411710648A2
:4017800000F0F0F8ACE70548C4E700BF000026400000FF0100FF1F005C3F001003004A0038B505462C4AD2F88C3543F00043C2F88C35044603E0012000F0C8F8013C264BB5
:4017C000D3F8903513F0040F01D1002CF3D1224AD2F8883523F0405343F00053C2F8883505B15CB11C4AD2F8803543F00043C2F8803503E0012000F0A9F8013C164BD3F860
:40180000903513F0010F01D1002CF3D105B15CB1114AD2F8883543F04053C2F888350DB1C4B10025284638BD0B4BD3F8882522F0405242F00052C3F88825D3F8802522F091
:401840000042C3F88025D3F88C2522F00042C3F88C25E4E7014DE5E70000264002004A0038B504460C4B9A680C4B9A4204D010340B4B53F8240038BD0D4631B11034074B93
:4018800053F8240043F82450F5E740F23711054800F068F8F2E700BF00ED00E000000008000000101440001060B338B50D4604464368072B13D8B4F900306268002B13DB11
:4018C0005201D2B203F1604303F5614383F800230D4B9A680D4B9A420DD0002038BD32210B4800F03FF8E6E703F00F035201D2B20849CA54ECE72946B4F90000FFF7B0FF47
:401900000020EBE70448704700ED00E0000000081440001014ED00E00100560010B5044605E0084B186800F0E7F8A4F50044B4F5004FF6D8044B186804FB00F000F0DCF886
:4019400010BD00BFA8020008A402000808B5034B1B7803FB00F000F0CFF808BDA002000801BEFEE738B50C46044D18220146284600F01CFCAC610020FFF7F2FF6808000812
:40198000FEE7000008B50268254BDA6142681A6282685A62C2689A620269DA6242691A6382695A63C2699A631E4A916AD963D16A1964516A5964516B9964926BDA64F1EE3D
:4019C000103A13F0900F27D0026A154B1A65426A5A65826A9A65C26ADA65026B1A66426B5A66826B9A66C26BDA66026C1A67426C5A67826C9A67C26CDA67026DC3F88020BE
:401A0000426DC3F88420826DC3F88820C26DC3F88C20026EC3F89020FFF7B2FF08BD00BF6808000800ED00E070B40446002830D01923304802681668B2F8A850725922F0B4
:401A400003028B422CBF002301231A43725102681668B2F8A850725922F44072725102681568B2F8AAC055F80C2022F00302134345F80C3003681868B3F8AA20835823F4B6
:401A8000407383503CB110291DD9212926D801221AE06423CDE7174B1B6893F855208A421ED293F856208A421CD293F857208A421AD293F858208A4218D293F859308B4234
:401AC00016D3042200E000220A4B1B6859680B6823F00F0313430B6070BC70470222F3E70022F1E70122EFE70222EDE70322EBE70522E9E7100B00080230800803D0013048
:401B00000238FCD100BF00BF7047EFF3108072B6704780F31088704710B5044601280BD884B9114B5869C00F104B1B6893F844300BB1012C08D010BD40F262710C48FFF758
:401B400011FFEDE70020EFE7074B9B6913F0804F07D1054B9B69002B01DB0020EBE70120E9E70120E7E700BF00002640100B00087040001038B5164B1B6893F8443013B3C0
:401B800004460D46072809D8114B1B6893F8443053B1104B9B6903F0070306E040F2CC710D48FFF7DFFEEFE70023DBB29C420AD008498A6922F0070204F0070002438A61F5
:401BC0000DB19C4200D838BDC820FFF7BFFEFAE7100B0008000026407040001008B5FFF794FF074B5A6807490A4042F468525A605A680A405A605B68FFF78BFF08BD00BF8C
:401C000000002640FF00FC0F04280FD000060B4B1B681A68D3F8A03000F04070D0504FF0E022136923F00403136170474FF0E022136943F004031361704700BF100B000867
:401C4000014B1860704700BF100B000838B50D4640F4004000040D4BD8614FF47A740B4B1B6C13F0010F05D124B1013C0120FFF76DFEF4E744B1054B1A6C42F001021A64DA
:401C8000DB6A2B80002038BD0148FCE700003C400400160010B50E4B03EA00430B430D4AD3614FF47A740B4B1B6C13F0010F05D124B1013C0120FFF749FEF4E734B1054AC0
:401CC000136C43F001031364002010BD0248FCE70000FF7F00003C400400160070B582B005460A2407E0BCB1013CB3B9BDF80620B2F5C05F11D04FF4C05141F60260FFF757
:401D0000C9FF03460028EED10DF1060141F60260FFF79CFF0346E6E74A4B002B43D0002B6DD0002B35D1BDF8063023F03F039BB2ADF80630AA78012A69D0EA78002A7DD132
:401D400096B2C2F10104A4B223F040039BB2ADF8063043F01003ADF806303B4BD3403B4A1360BDF80610314389B2ADF8061041F60960FFF78FFF0346EA78961B06F0030629
:401D8000ADF80660A400A4B23443ADF80640304A54664FF0B052527812B14FF0B0525278184602B070BD0DF1060141F60360FFF74DFF03460028B2D1BDF8062012F4806FCD
:401DC000ADD10A2408E0C4B1013C002BA7D1BDF80620B2F5806FA2D04FF4806141F60360FFF758FF03460028EDD10DF1060141F60360FFF72BFF0346E5E7124B8FE70DF138
:401E0000060141F60960FFF721FF034689E7EA78012A0ED90024022643F04003ADF8063043F03003ADF806300A4BD340074A136097E796B2C2F10204A4B2EDE700240126BA
:401E400082E700BF040016000024F4008C02000800F03D400048E80138B50C4641F2010141EA400141F60860FFF714FF054620B16001FFF76BFD284638BD46F6370141F663
:401E80000F60FFF707FF0546F2E7000010B59CB01E4C0DF14C0CA646BEE80F00ACE80F00BEE80F00ACE80F00DEF80030CCF800300DF1280C04F1240EBEE80F00ACE80F007B
:401EC000BEE80F00ACE80F00DEF80030CCF800300DF1040E04F1480CBCE80F00AEE80F00BCE80F00AEE80F00DCF80030CEF8003013A90748FEF7D4FF0AA90648FEF7D0FFF5
:401F000001A90548FEF7CCFF1CB010BD3C4200100001324080013240000232402DE9F041002800F0EE800646794B5B6813F4003F01D1784C06E0FFF751FEFAE7013C012003
:401F4000FFF704FD744BDB6E0BB1002CF6D1724BD3F8A03013F0010F06D06F4BD3F8B43013F0010F40F0CF806B4BDB6E1BB16B4D2846BDE8F081FFF789FF694901F5F8331F
:401F8000684AC3F8A420327842F42022C3F8A8204FF00112C3F8AC20D1F8005115F0010540F0B3801B6F13F0080F3DD00B6801225D4941EA42321343594A1360544B5B698F
:401FC00013F0804F43D1544AD2F8C43043F00303C2F8C430504CD4F8A07047F4403343F03003C4F8A0304020FFF7B0FCD4F8B03013F0010F41D027F4803727F0100747F493
:40200000003848F02008444BC3F8A0804FF4FA64464B1B6913F0100F3CD1002C3AD0013C0120FFF793FCF3E7414B1B68414A934203D83B4B1B68404ABDE7404AA2FB0332E9
:40204000120D374B1B68013AB2D13B4AB3E701210320FFF78FFD2E4B5B6903F08043384A126892F84420002AB4D0002BB2D0284A936943F080439361ACE70123C4F8B030B5
:402080004020FFF763FC0323C4F8B0304020FFF75DFCB0E754B92B4D75B3002D7FF468AF31787078FFF7D8FE054661E71A4A936E43F0080393660120FFF72EFD18B947F425
:4020C000003848F0280828F4802343F00103124AC2F8A0300F4C03E0013C0120FFF736FC0D4BD3F8B43013F0010F01D1002CF3D1002CD1D1134DD0E73046FFF7EFFD05463C
:40210000CBE7114D34E7054D32E7104D30E700BF00002640F07E0E0000F03D400300160000003C4006000001041A0080004032409402000800093D00040A008083DE1B436A
:40214000100B00080400160001001600020016000A44914200F1FF3300D1704710B511F8014B03F8014F9142F9D110BD02440346934200D1704703F8011BF9E70FB40A4B5D
:4021800013B51C6824B1A36913B9204600F07AF805AB049AA1680193204600F0D1F902B0BDE8104004B07047AC02000810B50139034632B111F8014F03F8014B013A002C59
:4021C000F7D11A440021934200D110BD03F8011BF9E70000002310B50446C0E90033C0E90433836081814366C2818361194608225C30FFF7BBFF054B6362054BA362054B0C
:40220000E362054B2462236310BD00BFE92A00100B2B0010432B0010672B0010014900F0AFB800BF412E001070B568224D1E55430E4605F1740100F0E5F8044640B100216F
:40224000C0E900160C30A06005F16802FFF78EFF204670BD014800F0B3B800BF150B0008014800F0AEB800BF150B0008014800F0A7B800BF160B0008014800F0A2B800BF0A
:40228000160B000810B50446FFF7F0FFA3691BB1BDE81040FFF7F0BFC4E912332365134B134A1B68A262A34204BF0123A361204600F020F86060204600F01CF8A060204605
:4022C00000F018F80022E06004216068FFF782FFA06801220921FFF77DFFE06802221221FFF778FF0123A361D2E700BFA84200101D220010F8B50746FFF7ACFF1E4B1E68D2
:40230000B36913B93046FFF7BDFF4836D6E90134013B03D533680BB33668F7E7B4F90C50D5B9164BE36004F15800656600F047F8FFF796FFC4E90155C4E904552560A56191
:402340000822294604F15C00FFF710FFC4E90D55C4E912552046F8BD6834D9E704213846FFF762FF044630600028D5D1FFF778FF0C233B60EEE700BFA84200100100FFFF6E
:402380002DE9F8430646884600F148040027D4E90195B9F1010905D52468002CF7D13846BDE8F883AB89012B07D9B5F90E30013303D029463046C04707436835E9E77047C2
:4023C0007047704770B50E4E0C463168054611B900F07AFB30602146284600F075FB431C0AD0C41C24F00304A04207D0211A284600F06AFB013001D14FF0FF34204670BDD1
:402400001C0B00082DE9F041CD1C25F0030508350C2D38BF0C25002D074601DBA94205D90C233B6000263046BDE8F0812E4E00F00FFE33681C4634BB29463846FFF7C2FFDE
:40244000431C04464DD134682646002E40D123683146384604EB030800F036FB80453AD1216803356D1A25F0030508350C2D38BF0C2529463846FFF7A5FF01302BD02368A2
:402480002B4423600EE02268521B1ED40B2A16D96119A342256018BF5960636808BF316062514B60384604F10B0600F0D7FD26F00706231DF21AB6D09B1BA350B3E76268F0
:4024C000A3420CBF32605A60ECE723466468B2E734467668B9E70C233B60384600F0BEFDA1E72560DEE700BF180B00089368013B002B10B4936008DA9469A34201DB0A29AC
:4025000003D15DF8044B00F033BB1368581C1060197008465DF8044B7047F8B506460F461446D518AC4201D1002007E014F8011B3A463046FFF7DAFF431CF3D1F8BD000093
:402540002DE9F04F0D469DB014469846064618B183690BB9FFF796FE894B9D421BD175686B6ED90705D4AB899A0502D4A86DFFF727FFAB891B0701D52B69EBB929463046AE
:4025800000F05AFBC0B16B6EDC070ED54FF0FF301DB0BDE8F08F7B4B9D4201D1B568DFE7794B9D4208BFF568DAE7AB899805EDD4A86DFFF706FFE9E70023099320238DF88C
:4025C0002930CDF80C803023DFF8C0818DF82A304FF0010923469A4613F8012B0AB1252AF9D1BAEB040B0BD05B46224629463046FFF793FF013000F0AA80099A5A4409921E
:402600009AF80030002B00F0A28000234FF0FF32CDE905230AF1010A049307938DF853301A935446052214F8011B584800F0C0FC049AD8B9D10644BF20238DF8533013079B
:4026400044BF2B238DF853309AF800302A2B15D0079A544600204FF00A0C214611F8013B303B092B4ED9B0B1079214E0A0EB080309FA03F313430493A246D2E7039B191D04
:402680001B680391002BBBBF5B4242F0020207930793B8BF049223782E2B0CD163782A2B35D1039B1A1D1B680392002BB8BF4FF0FF3302340593DFF8E4A0217803225046C6
:4026C00000F076FC40B14023A0EB0A0003FA00F0049B03430134049314F8011B2C488DF82810062200F064FC00283FD0294B1BBB039B073323F0070308330393099B3B44B6
:40270000099367E70CFB02320C460120A5E700230134059319464FF00A0C204610F8012B303A092A03D9002BC5D00591C3E70CFB012104460123F0E703AB00932A46164B3E
:4027400004A93046AFF300800746781CD6D16B6ED90705D4AB899A0502D4A86DFFF731FEAB895B063FF512AF099811E703AB00932A46094B04A9304600F080F8E4E700BFDA
:40278000CC420010EC420010AC4200100C43001016430010000000001B250010124300102DE9F047164699468A680B69DDF820809342B8BF1346336091F8432007460C461C
:4027C0000AB1013333602368990642BF336802333360256815F0060506D104F1190AE36832689B1AAB4226DC94F84320131E226818BF012392062BD404F143024946384631
:40280000C04701301ED02368E568326803F00603042B08BFAD1AA36822690CBF25EAE57500259342C4BF9B1AED1800261A34B5421AD1002008E00123524649463846C04718
:40284000013003D14FF0FF30BDE8F0870135C6E7E1185A1C302081F84300224494F8451082F843100233C7E70123224649463846C0470130E6D00136D9E700002DE9FF479A
:402880000F7E0C9D782F914680460C469A4601F1430207D8622F0AD8002F00F0D880582F00F0A38004F1420584F842703AE0A7F16303152BF6D801A151F823F015290010F6
:4028C00029290010A5280010A5280010A5280010A528001029290010A5280010A5280010A5280010A5280010352A001059290010172A0010A5280010A5280010572A00108F
:40290000A528001059290010A5280010A52800101F2A00102B681A1D1B682A6004F1420584F842300123A3E020682968060601F104030AD50E682B60002E03DA2D2376425C
:4029400084F843305E480A2319E00E682B6010F0400F18BF36B2EFE72B682068191D2960010601D51E6802E04606FBD51E8854486F2F0CBF08230A23002184F843106568BC
:40298000A560002DA2BF216821F0040121600EB9002D4DD01546B6FBF3F103FB1167C75D05F8017D3746BB420E46F4D9082B0BD12368DE0708D5236961689942DEBF302337
:4029C00005F8013C05F1FF35521B2261CDF800A04B4603AA21464046FFF7E2FE01304CD14FF0FF3004B0BDE8F087354881F845702968236851F8046B29601D0614D5DF0797
:402A000044BF43F0200323601EB9236823F0200323601023B0E7236843F0200323607823284884F84530E3E7590648BFB6B2E6E71546BBE72B6826686169181D2860350630
:402A40001B6801D5196002E07006FBD51980002323611546BAE72B681A1D2A601D6862680021284600F0A4FA08B1401B606063682361002384F84330A8E723692A46494611
:402A80004046D0470130ABD023689B0713D4E068039B9842B8BF1846A4E70123324649464046D04701309BD00135E36803995B1AAB42F2DCEBE7002504F11906F5E700BF42
:402AC0001D4300102E43001038B5064D0023044608462B6000F070FB431C02D12B6803B1236038BD200B000810B50C46B1F90E1000F006FB0028ABBF636DA3891B1823F438
:402B00008053ACBF6365A38110BD2DE9F0411F468B89DB0505460C46164605D5B1F90E100223002200F0C8F9A389B4F90E1023F48053A38132463B462846BDE8F04100F039
:402B400069B810B50C46B1F90E1000F0B5F9431CA38915BF606523F4805343F48053A38118BFA38110BDB1F90E1000F0D3B80000F8B50E461446054618B183690BB9FFF75B
:402B800081FB214B9C422BD16C68A369A360A3891A072FD523696BB323692068C01A6369F6B28342374604DC2146284600F048F930BBA368013BA36023685A1C22601E70A5
:402BC00063690130834204D0A389DB0706D50A2E04D12146284600F033F988B93846F8BD0A4B9C4201D1AC68CFE7094B9C4208BFEC68CAE72146284600F01EF80028CBD079
:402C00004FF0FF37EAE700BFCC420010EC420010AC42001038B5074D04460846114600222A601A46FDF73CFE431C02D12B6803B1236038BD200B0008324B70B51D68064634
:402C40000C4625B1AB6913B92846FFF71BFB2E4B9C420FD16C68A389B4F90C2019072CD4DD0611D40923336042F04003A3814FF0FF303EE0254B9C4201D1AC68EBE7244B81
:402C80009C4208BFEC68E6E7580712D5616B41B104F14403994202D0304600F0E5F900236363A38923F02403A3810023636023692360A38943F00803A38123694BB9A3896B
:402CC00003F42073B3F5007F03D02146304600F02BF9A089B4F90C2010F001030AD00023A36063695B42A361236943B910F08000BAD170BD810758BF6369A360F4E70020C3
:402D0000F7E700BFAC020008CC420010EC420010AC42001038B5064D0023044608462B6000F022FA431C02D12B6803B1236038BD200B00088A892DE9F041054610070C4622
:402D400058D44B68002B05DC0B6C002B02DC0020BDE8F081E66A002EF9D0002312F480522F682B6032D0606DA3895A0705D56368C01A636B0BB1236CC01A00230246E66AC5
:402D8000216A2846B047431CA38906D129681D292CD82A4ACA40D60728D500226260D9042269226004D5421C01D12B6803B96065616B2F600029CAD004F14403994202D09C
:402DC000284600F051F900206063C1E7216A01232846B047411CC7D12B68002BC4D01D2B01D0162B01D12F60B1E7A38943F04003A381ADE70F69002FA9D093070E6808BFA1
:402E00004B690F6018BF0023A6EB07088B60B8F1000F9CDD216AA66A43463A462846B047002806DCA38943F04003A3814FF0FF308EE70744A8EB0008E9E700BF0100402027
:402E400038B50B6905460C4613B90025284638BD18B183690BB9FFF715FA144B9C421BD16C68B4F90C30002BEFD0626ED00704D4990502D4A06DFFF7A3FA28462146FFF754
:402E800059FF636EDA070546E0D4A3899B05DDD4A06DFFF796FAD9E7054B9C4201D1AC68DFE7044B9C4208BFEC68DAE7CC420010EC420010AC42001038B5074D0446084623
:402EC000114600222A601A4600F066F9431C02D12B6803B1236038BD200B000870B50E46B1F90E10002996B014461D4608DAB6F90C3000222A601A0610D44FF480630EE0FE
:402F00006A4600F00FF90028F1DB019A02F47042A2F500535A425A412A60EEE740230020236016B070BD00008B8973B59D0706460C4607D504F147032360236101236361B1
:402F400002B070BD01AB6A46FFF7C8FF009905463046FFF757FA48B9B4F90C309A05EFD423F0030343F00203A381E3E70D4BB362A389206043F08003A381009B6361019B3F
:402F800020615BB1B4F90E10304600F0DDF828B1A38923F0030343F00103A381A0890543A581CDE71D220010000000000000000001F0FF01102A2BDB10F0070F08D010F844
:402FC000013B013A8B422DD010F0070F42B3F6D1F0B441EA012141EA014122F007047FF000070023F0E80256083C85EA010586EA010685FA47F5A3FA87F586FA47F6A5FA1A
:4030000087F68EB9EED1F0BC01F0FF0102F0070232B110F8013B013A83EA010313B1F8D10020704701387047002D06BF35460338073815F0010F07D1013015F4807F02BF80
:40304000013015F4C03F0130F0BC0138704700BF0148FFF7B5B900BF140B00080148FFF7B0B900BF140B000837B5002944D051F8043C0190002BA1F10404B8BFE418FFF7F9
:40308000E7FF1E4A0198136833B96360146003B0BDE83040FFF7E2BFA34208D9256861198B4201BF19685B6849192160EDE71A465B680BB1A342FAD911685518A5420BD197
:4030C000246821445418A3421160E0D11C685B68536021441160DAE702D90C230360D6E7256861198B4204BF19685B68636004BF491921605460CAE703B030BD180B00083D
:4031000038B5074D04460846114600222A601A4600F04AF8431C02D12B6803B1236038BD200B000838B5074D00230446084611462B6000F021F8431C02D12B6803B123601A
:4031400038BD00BF200B000838B5064D0023044608462B6000F018F8431C02D12B6803B1236038BD200B0008024B58221A604FF0FF307047200B0008024B58221A604FF0A5
:40318000FF307047200B0008024B58221A600020704700BF200B0008024B58221A604FF0FF307047200B0008024B58221A604FF0FF307047200B0008044A05491368002B78
:4031C00008BF0B461844106018467047240B0008280B0008F8B500BFF8BC08BC9E467047F8B500BFF8BC08BC9E4670470300000001000000010000000000000005036000F9
:40320000040000000100000000000000010000000604600008000000780A00085103001019160100F80100002A0002010A00080708000000C6000000002034407400802043
:4032400034407400002234407400802234407400002434407400802434407400002634407400802634407400002834407400802834407400002A34407400802A344074005A
:4032800000213440543400109000000000233440E434001090000000002534407435001090000000002734400436001090000000002934409436001090000000002B344005
:4032C000243700109000000000603440B43700107C00000080603440303800107C00000000613440AC3800107C00000080613440283900107C00000000623440A4390010F6
:403300007C00000080623440203A00107C000000006334409C3A00107C00000080633440183B00107C00000000643440943B00107C00000080643440103C00107C00000003
:40334000006534408C3C00107C00000080653440083D00107C0000002C0F038C0403060C070808030A140E1811AC1343153117C619311B4E1D301F402205235326082C1A0F
:403380002E04310F321C340335F038203A083B223E104002450449FF4A074BFF4C404D204EF04F0550085C045D045E04609961096301644065A8664067208040828084103D
:4033C00088B08A0C8C098E10910195029A039E80A014A4ACA611AC1CAEA2B080B102B41FB501B660B880BE01BF11C031C106C5C0C60BC7E0C826C9FFCAFFCBFFCEF0CF44FD
:40340000D00CD601DC04DD04DE04DF04E009E199E301EAC0EE40EF02A801040119010000010434405F2A344001723440027834400100000000000000000000000600000029
:403440000000000000000000000000000300000000000000000000000000000000000000FFFFFFFFFFFFFFFFFFFFFFFFFFFFFFFFFFFFFFFFFF000000FFFFFFFFFFFFFFFF66
:40348000FFFFFFFFFFFFFFFFFFFFFFFFFF000000000000000000000000000000000000000000000000000000FFFFFFFFFFFFFFFFFFFFFFFF11111111111111111111111159
:4034C000111111111111111111111111111111111111111111111111111111111111111111111111000000000000000000000000FFFFFFFFFFFFFFFFFFFFFFFFFFFFFFFF78
:40350000FFFFFFFFFF000000FFFFFFFFFFFFFFFFFFFFFFFFFFFFFFFFFFFFFFFFFF000000000000000000000000000000000000000000000000000000FFFFFFFFFFFFFFFFAD
:40354000FFFFFFFF1111111111111111111111111111111111111111111111111111111111111111111111111111111111111111111111110000000000000000000000001F
:40358000FFFFFFFFFFFFFFFFFFFFFFFFFFFFFFFFFFFFFFFFFF000000FFFFFFFFFFFFFFFFFFFFFFFFFFFFFFFFFFFFFFFFFF0000000000000000000000000000000000000035
:4035C0000000000000000000FFFFFFFFFFFFFFFFFFFFFFFF1111111111111111111111111111111111111111111111111111111111111111111111111111111111111111EB
:4036000011111111000000000000000000000000FFFFFFFFFFFFFFFFFFFFFFFFFFFFFFFFFFFFFFFFFF000000FFFFFFFFFFFFFFFFFFFFFFFFFFFFFFFFFFFFFFFFFF00000070
:40364000000000000000000000000000000000000000000000000000FFFFFFFFFFFFFFFFFFFFFFFF111111111111111111111111111111111111111111111111111111117A
:403680001111111111111111111111111111111111111111000000000000000000000000FFFFFFFFFFFFFFFFFFFFFFFFFFFFFFFFFFFFFFFFFF000000FFFFFFFFFFFFFFFFD3
:4036C000FFFFFFFFFFFFFFFFFFFFFFFFFF000000000000000000000000000000000000000000000000000001FFFFFFFFFFFFFFFFFFFFFFFF11111111111111111111101117
:403700001111111111111111111111111111111111111111111111111111111111111111111111110000000000100000000000002236FF15440FFFFFFF34FFFFF5F62F34D9
:4037400027FFFFFFFF0000002F36FFFF226FFF1F4446FF023FFFFFFFFFFFFFFFFF000000000000000000000000000000000000000000010000000000FFFFFFFFFFFFFFFF59
:40378000FFFFFFFF83111111111111111111136457119137111161113D11111311131411211121121183151111111141111411111141111100000000000000001F1F1F1F31
:4037C0001F1F1F1F1F1F1F1F1F1F1F1F1F1F1F1F1F1F1F1F1F1F1F1F1F1F1F1F000000000000000000000000000000000000000000000000FFFFFFFFFFFFFFFFFFFFFFFF71
:4038000011111111111111111111111111111111111111111111111111111111111111111111111111111111111111111111111100000000000000001F1F1F1F1F1F1F1F60
:403840001F1F1F1F1F1F1F1F1F1F1F1F1F1F1F1F1F1F1F1F1F1F1F1F000000000000000000000000000000000000000000000000FFFFFFFFFFFFFFFFFFFFFFFF1111111128
:40388000111111111111111111111111111111111111111111111111111111111111111111111111111111111111111100000000000000001F1F1F1F1F1F1F1F1F1F1F1FA8
:4038C0001F1F1F1F1F1F1F1F1F1F1F1F1F1F1F1F1F1F1F1F000000000000000000000000000000000000000000000000FFFFFFFFFFFFFFFFFFFFFFFF1111111111111111E0
:403900001111111111111111111111111111111111111111111111111111111111111111111111111111111100000000000000001F1F1F1F1F1F1F1F1F1F1F1F1F1F1F1FEF
:403940001F1F1F1F1F1F1F1F1F1F1F1F1F1F1F1F000000000000000000000000000000000000000000000000FFFFFFFFFFFFFFFFFFFFFFFF11111111111111111111111197
:4039800011111111111111111111111111111111111111111111111111111111111111111111111100000000000000001F1F1F1F1F1F1F1F1F1F1F1F1F1F1F1F1F1F1F1F37
:4039C0001F1F1F1F1F1F1F1F1F1F1F1F000000000000000000000000000000000000000000000000FFFFFFFFFFFFFFFFFFFFFFFF111111111111111111111111111111114F
:403A0000111111111111111111111111111111111111111111111111111111111111111100000000000000001F1F1F1F1F1F1F1F1F1F1F1F1F1F1F1F1F1F1F1F1F1F1F1F7E
:403A40001F1F1F1F1F1F1F1F000000000000000000000000000000000000000000000000FFFFFFFFFFFFFFFFFFFFFFFF111111111111111111111111111111111111111106
:403A80001111111111111111111111111111111111111111111111111111111100000000000000001F1F1F1F1F1F1F1F1F1F1F1F1F1F1F1F1F1F1F1F1F1F1F1F1F1F1F1FC6
:403AC0001F1F1F1F000000000000000000000000000000000000000000000000FFFFFFFFFFFFFFFFFFFFFFFF111111111111111111111111111111111111111111111111BE
:403B000011111111111111111111111111111111111111111111111100000000000000001F1F1F1F1F1F1F1F1F1F1F1F1F1F1F1F1F1F1F1F1F1F1F1F1F1F1F1F1F1F1F1F0D
:403B4000000000000000000000000000000000000000000000000000FFFFFFFFFFFFFFFFFFFFFFFF1111111111111111111111111111111111111111111111111111111175
:403B8000111111111111111111111111111111111111111100000000000000001F1F1F1F1F1F1F1F1F1F1F1F1F1F1F1F1F1F1F1F1F1F1F1F1F1F1F1F1F1F1F1F00000000D1
:403BC0000000000000000000000000000000000000000000FFFFFFFFFFFFFFFFFFFFFFFF1111111111111111111111111111111111111111111111111111111111111111B1
:403C00001111111111111111111111111111111100000000000000001F1F1F1F1F1F1F1F1F1F1F1F1F1F1F1F1F1F1F1F1F1F1F1F1F1F1F1F1F1F1F1F000000000000000094
:403C400000000000000000000000000000000000FFFFFFFFFFFFFFFFFFFFFFFF111111111111111111111111111111111111111111111111111111111111111111111111EC
:403C800011111111111111111111111100000000000000001F1F1F1F1F1F1F1F1F1F1F1F1F1F1F1F1F021F1F1F1F1F1F1F1F1F1F1F1F1F1F00000000000000000000000075
:403CC00000000000000000000000000FFFFFFFFFFFFFFFFFFFFFFFFF111111111111111111111111111111111111111111111D11111111111111111111111111111111110D
:403D0000111111111111111100000000000000001F1F1F1F1F1F1F1F1F1F1F1F1F1F1F1F1F1F1F1F1F1F1F1F1F1F1F1F1F1F1F1F000000000000000000000000000000001B
:403D40000000000000000000FFFFFFFFFFFFFFFFFFFFFFFF111111111111111111111111111111111111111111111111111111111111111111111111111111111111111163
:403D8000111111110D0A5465737420636F756E743A256C64000000002E2E2F4F6E657468696E785F43726561746F722E637964736E2F47656E6572617465645F536F757274
:403DC00063652F50536F43362F70646C2F647269766572732F7065726970686572616C2F6970632F63795F6970635F6472762E68000000002E2E2F4F6E657468696E785FC0
:403E000043726561746F722E637964736E2F47656E6572617465645F536F757263652F50536F43362F70646C2F647269766572732F7065726970686572616C2F6770696F45
:403E40002F63795F6770696F2E6300002E2E2F4F6E657468696E785F43726561746F722E637964736E2F47656E6572617465645F536F757263652F50536F43362F70646C8B
:403E80002F647269766572732F7065726970686572616C2F6770696F2F63795F6770696F2E6800002E2E2F4F6E657468696E785F43726561746F722E637964736E2F4765BB
:403EC0006E6572617465645F536F757263652F50536F43362F70646C2F647269766572732F7065726970686572616C2F6970632F63795F6970635F6472762E630000000010
:403F00002E2E2F4F6E657468696E785F43726561746F722E637964736E2F47656E6572617465645F536F757263652F50536F43362F70646C2F647269766572732F706572D0
:403F40006970686572616C2F6970632F63795F6970635F706970652E630000002E2E2F4F6E657468696E785F43726561746F722E637964736E2F47656E6572617465645F3A
:403F8000536F757263652F50536F43362F70646C2F647269766572732F7065726970686572616C2F737973636C6B2F63795F737973636C6B2E6300002E2E2F4F6E657468F9
:403FC000696E785F43726561746F722E637964736E2F47656E6572617465645F536F757263652F50536F43362F70646C2F647269766572732F7065726970686572616C2F85
:40400000737973636C6B2F63795F737973636C6B2E6800002E2E2F4F6E657468696E785F43726561746F722E637964736E2F47656E6572617465645F536F757263652F50EB
:40404000536F43362F70646C2F647269766572732F7065726970686572616C2F737973696E742F63795F737973696E742E6300002E2E2F4F6E657468696E785F43726561DD
:40408000746F722E637964736E2F47656E6572617465645F536F757263652F50536F43362F70646C2F647269766572732F7065726970686572616C2F737973706D2F6379A6
:4040C0005F737973706D2E63000000000000204000002440000000400000000000002340000030400000314000009F40000022400000104002020202020202020210101D6C
:40410000800017007500FF030602063604102000000000007FC0000000040000000000000019324B647D00804000080B100000000000FF012002001F00800004FF08101868
:40414000001000140018001C4044484C50000000081000000800000004000000041000000012000004210000002100000016000040114002C41300138013A01320000000F6
:404180001C0000000000214000002540000001400000344000002440000031400000324000001F410000234000001140010101010101010101101010800019005500F000F6
:4041C0000501053B04101C01010000000FC000000004000001010101011D3A57789600082000101208000000001F00000010000F002000023F06080E00080009000A000B80
:4042000024282C3034000000100000009000000088000000080000008000000004F0000000F00000400200002005A000D00100018001A001200000001000000000000000E3
:40424000000000000000000066666666000000000000FFFF000000001C1C1C1C1C1C1C1C00000000000000000000000066E6EE66000000000000FFFF000000001C1A1A1AC0
:404280001A1A000000000000000000000000000066E66666000000000000FFFF000000001A1A001C00000000B00200080000000000000000000000000000000000000000AA
:4042C00000000000000000000000000000000000000000000000000000000000000000000000000000000000000000000000000000000000000000000000000000000000BE
:40430000000000000000000000000000232D302B2000686C4C006566674546470030313233343536373839414243444546003031323334353637383961626364656600008A
:404340000000000000000010000000088C020000644300108C020008DC050000FC0800082C0200000048E80100127A0000093D0000127A0000127A0008000000401F0000AD
:404380000000A00FB002000800000000CC420010EC420010AC420010000000000000000000000000000000000000000000000000000000000000000000000000000000003A
:4043C00000000000000000000000000000000000000000000000000000000000000000000000000000000000B10200108D02001080B2C10048B3154B1B681A6AB3F8B0307B
:40440000C3EBC303D358002BF5DA114B3E22C3F8042141F61E72C3F808210622C3F8182521F07F41C3F81C15D3F81C35074B1B681A6AB3F8B030C3EBC303134400225A6018
:40444000034BD3F81C35002BFADA7047100B000800002640F8B5284B1B6893F83130052B36D9254F3A68166AB2F8B03003EB83031E44526802F57042146EA4B200F044FA66
:4044800005463B681968D3F890208A58013C032C1AD8032A22D01868D3F884104258120E4058C0F30720531C00FB0333134800FB03F3134A1068134AA2FB00208009B3FB96
:4044C000F0F08230FFF794FF284600F02DFAF8BD40F2C3110C4800F01FFAC2E74FF0B052D27A002AD7D10822B2601968D3F890208A58032AF9D0CEE7100B000840420F0083
:4045000090020008D34D6210983D00104378FF2B00D0704710B500F0F7F90446134B1B6893F83130042B1AD9104B1A68136AB2F8B02003EB8203DA680D4B1A6100215961E9
:40454000012199615268DA6113680B431360136813F0010FFBD1204600F0E6F910BD40F2C311044800F0D8F9DEE700BF100B00089C0A0008983D00102DE9F84307468846D9
:40458000524B1B6893F83130012B35D94F4B1B681C6AB3F8B0201444D3F8B450254493F85030002B73D04FF0B053DB7A002B3FD1464B1B6893F83130052B23D9434B196881
:4045C0000A6AB1F8B03003EB83031344D1F8B420D358002B73DB002000F0AEF93C4B98426FD000233B4A126A0121184600F098F9064670B1384C32E040F2C311374800F0BE
:404600008BF9C3E740F2C311344800F085F9D5E70136002000F090F92D4B984202D0304B9E42F5D92E4B9E424DD84FF0010901E04FF0000900F068F906462A4BD3F81C3565
:40464000002B0FDB244CB9F1000F05D00121002000F06EF90028F9D1304600F065F92046BDE8F8831B4A0121204600F049F908B1194CE8E74046FFF7BBFE37B12B68002B6B
:40468000FCDB00F045F90446DDE7174CDBE700F03BF906460F4A0121204600F031F938B95FB12B68002BFCDB00F032F9044600E0094C304600F038F9D1E70B4CF9E7064C4F
:4046C000CDE7054CCBE7044CC9E700BF100B0008010188009C0A000805005200983D0010EF490200000026400100500070B57F4B19684C684FF0B0535B782BB14FF0B05365
:404700005B78DBB2212B5BD10A6AB1F8B030C3EBC30302EB030CD358002BF5DADCF80C3043F00103CCF80C300B6AB1F8B020C2EBC2021344DA6812F0020F30D0DA681FFA62
:4047400082FC0D68D1F88420AA58120A120402F47F02D1F88860AD594FEA152E42EA0E624CEA0202DA600D68D1F88420AB5823F47F4343F41063AB505C4A13681D68D3F817
:4047800088106B5823F47F4343F410636B5013681A68D3F884105158D3F88830D358534B1B68196AB3F8B020C2EBC2020A44002151601A6AB3F8B030C3EBC30313445B6860
:4047C0004A4B1B681968D3F89430194405E030BF0B6803F00303022B0FD1454A136943F0040313610128F2D120BF424B1B7803B120BF404B01221A70EAE73C4B1A68116A23
:40480000B2F8B030C3EBC303C818CB58002BF4DA4FF0B0535B7873B34FF0B0535B78DBB2212B28D0D4F80C31002B53D1324BD3F80801D3F81815D3F8042141F61E75C3F847
:4048400008510625C3F818553E25C3F804514425C3F81C55284BD3F81C35002BFADA4FF0AA33C4F80C31244BC3F80801C3F81815C3F804212EE0C36813F0020F1ED014682F
:40488000D2F88410625822F47F42C3681B0C1B029BB213436350154B1A681468D2F88800235823F47F43116AB2F8B020C2EBC2020A44D268120E43EA022323500B4B1A6895
:4048C000136AB2F8B020C2EBC2021344DA6822F00102DA60054B1B681A6AB3F8B030C3EBC303134400225A6070BD00BF100B000800ED00E0D40A00080000264000000000B7
:404900005FF800F0D90F00105FF800F00B1B00105FF800F0550A00105FF800F0651900105FF800F0ED1300105FF800F0131B00105FF800F05D1100105FF800F0D91100104E
:404940000000000000000000000000000000000000000000000000000000000000000000000000000000000000000000000000000000000000000000000000000000000037
:4049800000000000000000000000000000000000000000000000000000000000000000000000000000000000000000000000000000000000000000000000000000000000F7
:4049C00000000000000000000000000000000000000000000000000000000000000000000000000000000000000000000000000000000000000000000000000000000000B7
:0200000490303A
:0200000028A432
:0200000490501A
:0C0000000005E20721002100E22049A4D5
:00000001FF