:020000041000EA
:4000000000F00308CF2400100D0000003525001035250010352500103525001000000000000000000000000000000000312500103125001000000000312500103125001075
:400040003125001031250010312500103125001031250010312500103125001031250010312500103125001031250010312500103125001031250010312500103125001020
:4000800031250010312500103125001031250010312500103125001031250010312500103125001031250010312500103125001031250010312500103125001031250010E0
:4000C00031250010312500103125001031250010312500103125001031250010312500103125001031250010312500103125001031250010312500103125001031250010A0
:40010000312500103125001031250010312500103125001031250010312500103125001031250010312500103125001031250010312500103125001031250010312500105F
:40014000312500103125001031250010312500103125001031250010312500103125001031250010312500103125001031250010312500103125001031250010312500101F
:4001800031250010312500103125001031250010312500103125001031250010312500103125001031250010312500103125001031250010312500103125001031250010DF
:4001C000312500103125001031250010312500103125001031250010312500103125001031250010312500103125001031250010312500103125001031250010312500109F
:40020000312500103125001031250010312500103125001031250010312500103125001031250010312500103125001031250010312500103125001031250010312500105E
:40024000312500103125001031250010312500103125001031250010312500103125001031250010312500103125001031250010312500103125001031250010312500101E
:4002800031250010312500103125001010B5054C237833B9044B13B10448AFF300800123237010BD640D000800000000402F001008B5034B1BB103490348AFF3008008BD1D
:4002C00000000000680D0008402F001070470000014B01221A607047800D000838B50546284B197093F83E30DB0933D11446254A92F83E3043F0800382F83E30224B002213
:400300001A60204B93F83F3013F0010F04D01F4B9B6813F0030FF4D01D4B1E4A0121002000F0ACFF58BB184B1B68002BFBD0ACB1022C07D0032C09D0124B93F83E30DB0971
:40034000FAD10BE0002001F02FFEF5E7002001F0FBFEF1E701220B4B83F83C20AC460E4C0FCCACE80F000FCCACE80F000FCCACE80F0094E80F008CE80F00284638BD03221F
:40038000E9E700BF840D0008800D000800002140D10200108C0200088C0D000870B590B005460E4600221B49012000F0B9FF1A4B1A4C5C60DC60666094F83E3043F02003D9
:4003C00084F83E3094F83E306FF3C71384F83E30012211466846FFF781FFA36BBF2B02D9A36BC12B03D90D4B052283F83C20AC460B4C0FCCACE80F000FCCACE80F000FCC36
:40040000ACE80F0094E80F008CE80F00284610B070BD00BFCD0200108C020008840D00088C0D000810B504460A462021FFF756FF204610BD58B50446044EB164F2641A46B0
:400440003021FFF74BFF204658BD00BF840D000870B590B005460C46214EB164002250216846FFF73BFF96F83C302BB9237B03F00703022B13D9FEE7AC4606F108040FCCDA
:40048000ACE80F000FCCACE80F000FCCACE80F0094E80F008CE80F00284610B070BD237B03F00703022B13D0012B15D00C4B93F83E30DB09FAD12C460A4E0FCE0FC40FCE22
:4004C0000FC40FCE0FC496E80F0084E80F00E3E7002001F039FEE9E7002001F065FDE5E7840D00088C0D000870B592B04FF4FA6001F004FC00231193109362B6474E484979
:400500006846FFF74BFF35466C460FCC0FC50FCC0FC50FCC0FC594E80F0085E80F0003216846FFF77FFFB4466C460FCCACE80F000FCCACE80F000FCCACE80F0094E80F0095
:4005400085E80F0096F8223013F0200F00D1FEE700F0FCF840E04FF47C71324801F0F2FB49E0119B002B01DA00231193119C24B22D4B1B6803EB83032C4A02EB83035B686B
:40058000002B45D022460021294801F09DFA1090109B1B1627490B70109B1B144B70109B1B128B70109BCB70032304226846FFF741FF1A4CEC46BCE80F000FC4BCE80F00C3
:4005C0000FC4BCE80F000FC49CE80F0084E80F0019496846FFF73CFF00F07CF8012000F08BF8114B1B6803EB8303104A02EB83035B68002BAFD000210D4801F005FA1190C7
:40060000119BB3F5803FACDB4FF6FF731193A8E740F2D941034801F095FBB3E71C0E00089C020008782700105C0E0008FC27001000001D41DC0D00080003000838B50446C7
:40064000224B1B689B684FF08042C3F800240369FF2B0BD81D4A12689068B2F87410425822F47F421B029BB213434350174B1A6892F8731003238B4092F8701092F872007B
:4006800081400B43916843F00043C1F800349368D3F800340E4D0021284601F0E3F8A168284600F0D1FF01234FF480320021284601F046FA6368012B00D838BD01224FF4E5
:4006C0008031284601F066FAF7E700BF640E000800001D4108B5074B5B6813F4802F04D00121044801F006F908BD0021014801F001F9F9E700001D4108B50146034801F0C3
:4007000011F908B1002008BD0120FCE700001D4108B5094B1B7803B108BD0849084801F0B3FA084B1B78002BF6D1064B01221A700548FFF783FFEFE7600E000879070010DC
:4007400028290010610E0008FC27001008B5084B1B7813F0010F03D0064801F0BBF808BDFFF7D6FF024A137843F001031370F3E7600E000800001D4110B5094BD3F81042EE
:40078000072C07D8064BC3F81042D3F81022D3F8103210BD40F23161024801F0D3FAF1E700001D4188280010064B4FF000421A60054AC3F8002303F50033044AC3F8002E55
:4007C000704700BF00001D41080001000100118010B55F4AD2F8003523F0030343F00103C2F800355B4B1A681068D2F88810425822F47F4242501A681068D2F884104258E7
:4008000022F07F4242501A681068D2F88410425822F47F4242501B6893F83E2032B14C49D1F8802322F00F02C1F8802393F83E2032B14749D1F8802322F03002C1F88023C1
:4008400093F83E3033B1424AD2F8803343F00043C2F880330021012001F0C4F90021022001F0C0F90021032001F0BCF90021042001F0B8F90021084601F0B4F9344CD4F8A8
:40088000043523F4407323F0010343F00103C4F80435D4F8043523F47F03C4F80435D4F8043543F00043C4F80435D4F8003523F47063C4F80035D4F8003523F4E043C4F81C
:4008C0000035D4F8003543F40043C4F80035224A136823F440731360002001F0BFFCD4F8803113F0010F05D1D4F80C3523F00043C4F80C350821002001F086FA154B1B6804
:4009000093F83F20392A03D99B680022C3F8E42C104A13689868B3F87410435823F47F4343F4E0634350126892F8731003238B4092F8701092F8720081400B43916843F060
:400940000043C1F800349368D3F8003410BD00BF00002640640E00080000274030B58FB040F2DC5001F0CAF99621002001F04CFA34252A46002101A801F0FAFD154C01AAAF
:400980000021204600F00EF92A46002101A801F0EFFD01AA0121204600F004F9FFF718FF24252A46002101A801F0E2FD01A9204600F0A8FA2A46002101A801F0D9FD082354
:4009C000019301A9044800F09DFAFFF7EDFE0FB030BD00BF0000324000053240014B1860704700BF640E0008B0F1204F3CD018D880283BD007D9B0F5807F3FD0244B984262
:400A000009D024487047102832D0402801D12248704700282ED170474FF4A40070471D4870471E4B98422BD02DD31D4B98422CD8B0F1704F12D900F1805001380428EED8D2
:400A400001A353F820F000BF190A00101F0A0010790A0010610A0010650A00100D4870471048704710487047002070470F4870470F487047074870470E487047044870478C
:400A80004FF4A0007047034870470248C3E700BF06005200FF00520002005000090000A0050000F0020052000300520005005200010050000100520010B5124B1B6893F87A
:400AC0003130012B16D90F4B1C68236AB4F8B0201344D4F8B420D358002B11DB0A4B1868FFF782FF636801229A6063689B68002BFBD110BD40F2C311044801F023F9E2E76C
:400B00000348F6E7640E0008680E0008E8290010020050001A4B186028B102230370FF23437000234380174B1B6893F8502002B9704700B583B0B3F93830ADF800300023D3
:400B400001931149684601F09FF8BDF90030002B07DB03F01F015B0901228A400B4941F82320084B1B6893F8513013B903B05DF804FB02220649012000F0D2FBF6E700BF88
:400B8000780E0008640E0008D507000800E100E08D08000808B50248FFF7BCFF08BD00BF7C0E0008002800F0A181F8B50D4614460646002A00F09C81072900F2F8802368E1
:400BC000012B00F2F980636833F00F0340F0F980237A33F01F0340F0F980E368032B00F2FA802369012B00F2FB806369012B00F2FC80A369012B00F2FD80E369032B00F2A7
:400C0000FE80236A012B00F2FF80636A012B00F20081A36A012B00F20181E36A032B00F20281236B072B00F203812768072D00F20481012F00F20781002F40F00A810123DB
:400C4000AB4073606768072D00F2078137F00F0340F00981A800A74B1B6893F87D108B590F22824023EA020307F00F0787401F438F51277A072D00F2FC8037F01F0340F056
:400C8000FE809C4B1A689369F31ADB095269190102EB0313032D00F2F88053584FEAC50C1F2000FA0CF023EA000307F01F0707FA0CF71F435750E768082D00F2F380032FAF
:400CC00000F2F68068008B4B1B6893F87C108B590322824023EA020207F00303834013438B512769082D00F2E980012F00F2EC80B3690122AA4023EA020307F00107AF400F
:400D00001F43B7616769072D00F2E480012F00F2E7807848036893F87EC05CF806300121A94023EA010307F00102AA401A434CF806206A0002F1100C032303FA0CF319431A
:400D4000036893F87F70BB5923EA0101A36903F00103AB400B43E26902F0030202FA0CF21343BB51036893F88020B15821F0FF01236A03F00103606A400000F0020003431B
:400D8000A06A800000F004000343E06AC00000F018000343206B4001C0B20343AD0005F47E7503FA05F50D43B5500020F8BD4521514800F0C7FF02E746214F4800F0C2FF8C
:400DC00001E747214C4800F0BDFF01E748214A4800F0B8FF01E74921474800F0B3FF00E74A21454800F0AEFFFFE64B21424800F0A9FFFEE64C21404800F0A4FFFDE64D21AA
:400E00003D4800F09FFFFCE64E213B4800F09AFFFBE64F21384800F095FFFAE65021364800F090FFF9E65121334800F08BFFF8E65221314800F086FFF7E640F227312F483C
:400E400000F080FFF5E64FF44A712C4800F07AFFF2E60123AB40B360F4E64FF47171274800F070FFF2E640F2C531244800F06AFFF0E64FF42271214800F064FFFDE640F244
:400E800089211E4800F05EFFFBE62A1F5968D2001F20904021EA000107F01F0797400F435F6008E74FF4DD61144800F04BFF06E740F2E961114800F045FF03E740F2696116
:400EC0000E4800F03FFF10E740F26A610B4800F039FF0DE740F20341084800F033FF15E740F20441054800F02DFF12E70448704703485BE7640E00088C2A0010302B001013
:400F000001005A0000286ED070B50C46054600296BD00B6833F0FF0347D1236933F0FF0348D1A3685B0D5B05002B48D1636823F4FF7323F00103002B46D1E36913F0604F8E
:400F400047D1236A13F0604F48D1294B19688A69AA1AD2094969100101EB021226682E601E6896F87DC0E66845F80C601E6896F87EC0266945F80C601E6896F87FC06669A7
:400F800045F80C601E6896F87CC0A66845F80C606668AE611B6893F88030A669EE50E3690B50236A5360002070BD9921114800F0C9FEB2E79A210F4800F0C4FEB1E79B21EA
:400FC0000C4800F0BFFEB1E79C210A4800F0BAFEB3E79D21074800F0B5FEB2E79E21054800F0B0FEB1E7044870470348DCE700BF640E00088C2A001001005A0038B50C4BCD
:401000001B68D3F8B4301B58002B01DB094838BD05460C460B0C1B041BB9A4B26C600020F5E740F2D521044800F08CFEF5E700BF640E000801008A00E829001038B50368F2
:40104000002B0FDA05460C46C2600B0C1B041BB9A4B2AC60002038BD40F2BB21024800F071FEF5E70148F6E7E829001001008A0038B504460D4651B1084B1B68D3F8B430A6
:401080001B59002B08DAE3682B60002038BD9921034800F057FEEFE70248F7E7640E0008D42B001001008A00034B1B6803B17047014B1860FBE700BF900E00082DE9F843D0
:4010C00004460E4617461D46DDF82080324B1B68002B44D0304B1B682C2004FB00F01C185FFA85F943F80090C5F3072363602D0CA5602A4B1B6893F83130994534D2274BB2
:401100001B681A6AB3F8B01001FB09222261656893F832309D422DD2204B1B681A6A05F1800302EB43156561D4F808904FEA19431B042BBB4FEA19431B043BBB1FFA89F3C8
:4011400043EA0943AB60E76126620023A361B8F1000F02D0B8F90030A381BDE8F883B5210F4800F0EFFDB5E740F2C3110D4800F0E9FDC4E740F2DF110A4800F0E3FDCBE7CE
:401180004FF4FF71074800F0DDFDD3E740F2FF11044800F0D7FDD1E7900E0008640E0008782C0010E829001030B58FB00446002849D0A369072B4BD8E36A002B4DD0236B77
:4011C000002B4FD00DF11C0C04F1140EBEE80F00ACE80F00DEF80030CCF800300DF1080CA646BEE80F00ACE80F00DEF80030CCF800301F4B1B68DB8E079A1344ADF8303073
:40120000089B0D930CAD00950B9BA26AE16A0A98FFF754FF00210091069B0A460598FFF74DFF216B284600F02FFDBDF93030002B07DB03F01F015B0901228A400D4941F887
:4012400023200FB030BD52210B4800F07BFDB0E75621094800F076FDAEE75821064800F071FDACE75921044800F06CFDAAE700BF640E000800E100E0782C0010F8B50746EA
:401280000E461C46154652B3204B1B6863B31F4B19682C2202FB071002FB06114A684FF0010C0CFA02F2120446680CFA06F603692BB38F692FBB1B68002B24DA2B882B60DF
:4012C0001A432A600369DD60C1F818C04C620469330C1B046BB9B6B2A6603846F8BDFD210B4800F02FFDCFE7FE21094800F02AFDCDE740F2BB21074800F024FDEBE7064F7C
:40130000EBE7064FE9E7054FE7E700BF900E0008782C0010E829001004028A0007028A00F8B506460F4615460F4B1B6873B10E4B1C682C2000FB0644236A6BB1E369AB423D
:4013400010D9236A43F825700020F8BD4FF4AF71064800F0F7FCEAE74FF4B171034800F0F1FCEBE70248F0E7900E0008782C00100A028A0070B582B000230193044680B1F4
:401380002369A3B16369C3B1236AE3B16369DD682A0C1ED1ADB2002D3DD163691B6802B070BD40F2D111244800F0CCFCE8E74FF4E971214800F0C6FCE4E740F2D3111E48E8
:4013C00000F0C0FCE0E74FF4EA711B4800F0BAFCDCE712041A601B682069184B1B68D3F8B4301B58002BD5DA01A9FFF741FE60B9019803681E0CDBB2E2699A4206D9226A4D
:4014000052F8233013B1984700E0002631462069FFF7F4FDBEE763691D601B68636A2BB19847002363620023A361B6E7A36A002BF9D09847F7E700BF782C0010640E00082F
:4014400010B50446084B1B683BB1074B1B682C2000FB0430FFF78EFF10BD40F2B111034800F070FCF1E700BF900E0008782C0010264B1B6893F83130834242D970B505463F
:401480000C4600293FD00B6813F01F0F01D0204870BD1E4B1B6893F8313098421CD21B4B1B68186AB3F8B03003FB0505194E35602268D2080021606801F05AF800212846DF
:4014C000FFF79CFD35686CB1224600212846FFF7B5FD68B11048DBE740F2C3110F4800F031FCDCE740F293310C4800F02BFCEBE70021084B1868FFF781FD0028C8D00648EB
:40150000C6E7034870470248C2E700BF640E000803018A009C0E000801018A00E829001038B505460C4613461AB113B3D4B9124838BD0029F9D1114B1B6893F831309842FB
:401540000AD20E4B1B68186AB3F8B03003FB05000B4B18602046EBE740F2C311094800F0F1FBEEE708490C604B602846FFF780FFDEE70148DCE700BF03018A00640E0008B2
:401580009C0E0008E8290010940E00082DE9F041194B1B68DD682B6883422BD90C46460900F01F00012303FA00F8B9B10027124B18680368002B17DA6A6852F8263013EAB2
:4015C000080F0FD023EA080342F8263000250021FFF714FD54B12846BDE8F08100F0C1FF0746E4E7054DF2E7054DF3E7384600F0BCFFF0E7034DEEE79C0E000802018800F6
:401600000301880004018A000B4B1B68DB681A6882420CD9410900F01F00012202FA00F05B6853F82130034203D004487047044870470448704700BF9C0E00080101880065
:4016400004018A00000188002DE9F8430E460746002842D0002E45D0002F00F0F080002E00F0EF803268784B1340002B3FD17268764B1340002B3FD1B36813F0FC2F40D159
:40168000F36813F0FC2F41D1337D032B43D8B369B3F5803F44D2F36D072B46D8336EB3F5803F47D2736EB3F5803F48D2736843F000437B60B3683B61F3687B613369BB61F8
:4016C000337D9B07FB61B3693B62336803F460687368C3F3800900244DE03A215C4800F031FBB7E73B215A4800F02CFBB4E74A21574800F027FBBAE74B21554800F022FB82
:40170000BAE74C21524800F01DFBB9E74D21504800F018FBB8E74E214D4800F013FBB6E74F214B4800F00EFBB5E75021484800F009FBB3E75121464800F004FBB2E75221F0
:40174000434800F0FFFAB1E76321414800F0FAFA1CE0404B002223F81520726F02F11C7303F58033520093FBF2F31BB23A4A42F825300134E4B20F2C20D82546A31D06EBA6
:4017800083035A68354B1340002BDDD1AB1D06EB8303596805F1200247F822105B6813F0012FD6D1B8F5606FD3D1B9F1000FD0D0284B4FF4784223F81520CEE7F36DC7F802
:4017C0001832C7F81032336EC7F82832C7F82032736EC7F83832C7F8303296F870309BB1B36EB3F1804F20D2F36E23F44F0323F0FF03FBB96FF04043C7F80433B36EC7F85D
:401800000033F36EC7F84433D7F8003F3F2B02D0D7F8003F13B90B23C7F8003F336843F400133B600020BDE8F8838221084800F089FAD9E78321064800F084FADAE7084837
:40184000F1E70748EFE700BF0811DF0001FE30201C2D0010E00E0008A00E000888CA887E0100060038B50D46044658B154B30023236063604FF0031222616261A361E3611C
:4018800023620BE0B521114800F05CFAEEE703F12002002044F822000133DBB20F2BF6D90023C4F81832C4F82832C4F838325DB16FF04043C4F804330020C4F84003C4F8ED
:4018C000440338BD0248FCE70020FAE71C2D00100100060008B50368002B0ADBD0F8A032002BFBDB036843F000430360022000F01DFA08BD38B505460C46012904D8012C5C
:4019000008D001236B6238BD40F27111044800F019FAF4E76B6843F480336B60F3E700BF1C2D001038B504460D4601290AD8D4F8103203F00103012D14D0104AA3B9D2B9A3
:401940000F4817E04FF4F0710E4800F0FBF9EEE7D4F8103203F00103013A002BEED1002AF6D1EBE7054AF8E70123C4F81032D4F81032002038BD0448FCE700BF5555550118
:40198000020006001C2D00100300060038B505460C460F2909D80F2C0DD8203455F8243013F0012F09D0002006E04FF41571044800F0C8F9EFE7002038BD0120FCE700BF7F
:4019C0001C2D001038B505460C460F2903D80F2C07D9002038BD40F222210A4800F0B2F9F5E721462846FFF7D1FF28B96B6813F0080FEFD00120EDE76B6813F0040FE9D1C3
:401A00000020E7E71C2D001070B506460C460F290DD80F2C11D804F1600356F82350ADB221463046FFF7CEFF48B128B270BD4FF42871044800F086F9EBE70025F0E7284670
:401A4000F4E700BF1C2D0010F8B505460C4616460F292AD80F2C26D86B6813F0800F1CD104F1200355F8233013F4806F15D06F68C7F302177B1C01279F406B6813F4807F54
:401A800002D1102F00D9102721462846FFF79AFF88B9B2B2B2FBF7F216B2094B33F814309BB2F21A16B23046F8BD40F27B31054800F048F9CEE73AB296FBF2F216B2ECE781
:401AC000E00E00081C2D001070B505460C4616460F2907D80F2C2BD86B6813F0020F07D0002026E040F21F41134800F02BF9F1E7324621462846FFF7A7FF42F2107300FBCC
:401B000003F300280CDD0D4A52F8240000EBD07003EB6000094B53F8243090FBF3F008E0064A52F8240000EBD070A3EB6000F1E7002000B270BD00BF1C2D0010A00E00089B
:401B400070B5064614461D4649B9B4F1804F0CD2012D10D8012D14D0C6F8044370BD40F29E410B4800F0EEF8EFE740F29F41084800F0E8F8ECE74FF49461054800F0E2F825
:401B8000E8E7D6F800231443C6F80043E6E700BF1C2D001070B504460D46164621F44F0323F0FF0353B9012E0ED8012E12D0D4F8441321EA0505C4F8445370BD40F2ED4144
:401BC000074800F0BFF8EEE740F2EE41044800F0B9F8EAE7D4F844130D43C4F84453ECE71C2D0010134B1B6893F83C3083421DD9042904D9A1F580739BB2132B18D8FF2940
:401C00000CD901F01F010C4B00F1C00243F82210D030042243F820200020704701F00701D030054B43F82010002070470348704702487047640E00080000264001004A0006
:401C400038B504460C4B9A680C4B9A4204D010340B4B53F8240038BD0D4631B11034074B53F8240043F82450F5E740F23711054800F068F8F2E700BF00ED00E00000000886
:401C800000000010BC2D001060B338B50D4604464368072B13D8B4F900306268002B13DB5201D2B203F1604303F5614383F800230D4B9A680D4B9A420DD0002038BD32217B
:401CC0000B4800F03FF8E6E703F00F035201D2B20849CA54ECE72946B4F90000FFF7B0FF0020EBE70448704700ED00E000000008BC2D001014ED00E00100560010B50446B4
:401D000005E0084B186800F023FCA4F50044B4F5004FF6D8044B186804FB00F000F018FC10BD00BF240300082C03000808B5034B1B7803FB00F000F00BFC08BD3003000802
:401D400001BEFEE738B50C46044D18220146284600F060FCAC610020FFF7F2FFD00C0008FEE7000008B50268254BDA6142681A6282685A62C2689A620269DA6242691A6384
:401D800082695A63C2699A631E4A916AD963D16A1964516A5964516B9964926BDA64F1EE103A13F0900F27D0026A154B1A65426A5A65826A9A65C26ADA65026B1A66426B28
:401DC0005A66826B9A66C26BDA66026C1A67426C5A67826C9A67C26CDA67026DC3F88020426DC3F88420826DC3F88820C26DC3F88C20026EC3F89020FFF7B2FF08BD00BF47
:401E0000D00C000800ED00E070B40446002830D01923304802681668B2F8A850725922F003028B422CBF002301231A43725102681668B2F8A850725922F4407272510268D2
:401E40001568B2F8AAC055F80C2022F00302134345F80C3003681868B3F8AA20835823F4407383503CB110291DD9212926D801221AE06423CDE7174B1B6893F855208A422D
:401E80001ED293F856208A421CD293F857208A421AD293F858208A4218D293F859308B4216D3042200E000220A4B1B6859680B6823F00F0313430B6070BC70470222F3E73F
:401EC0000022F1E70122EFE70222EDE70322EBE70522E9E7640E000870B582B004460D46022803D9042801D0032816D16B1EDBB2012B03D9042D01D0082D14D1264B53F890
:401F00002440042D29D0012D29D0022D2DD026466469002CFBD100202EE040F6B2111F48FFF710FFE2E740F6B3111C48FFF70AFFE4E76469BCB11A4B984212D0A3681D4246
:401F4000F7D1E3681A6800925B6801932368294668469847134B1C60EBE70020EAE70020E8E7012DEAD102B070BD0E4B1E68002ED1D03669CFE73669002EF4D0B3681D42FA
:401F8000F9D1F3681A6800925B6801933368294668469847EFE700BF040F0008642E0010FF004200000F000870B50446012826D81E4B1B684BB301210020FFF78DFF0646C0
:401FC00070BB00F0CEFA0546184B1B681BB104210020FFF781FF164A136923F004031361012C14D030BF284600F0BFFA0F4B1B681BB108210020FFF76FFF304670BD4FF489
:40200000E0710C48FFF79EFED2E70026D9E720BF094B1B7803B120BF074B01221A70E2E702210020FFF758FF044EE6E7040F000800ED00E0642E0010380F0008FF004200E0
:4020400010B50446002833D01C4A1368DB6803F5E043D3F8003923601368DA6802F5E042D2F800286260DA6802F5E042D2F80428A260DA6802F5E042D2F80828E260DA68AA
:4020800002F5E042D2F80C282261DA6802F5E042D2F810286261DA6802F5E042D2F81428A261DB6803F5E043D3F81838E36110BD40F6A1210248FFF745FEC5E7640E0008D7
:4020C000642E001010B50446002832D01C4B1B68DA68616802F5E042C2F80018DA68A16802F5E042C2F80418DA68E16802F5E042C2F80818DA68216902F5E042C2F80C18AA
:40210000DA68616902F5E042C2F81018DA68A16902F5E042C2F81418DA68E16902F5E042C2F81818DB68226803F5E043C3F8002910BD40F6C9210348FFF704FEC6E700BF56
:40214000640E0008642E001070B50446012845D83B4B5B68002B47D001210846FFF7BCFE0646002865D100F0FCF90546344B5B681BB104210120FFF7AFFE324B1B6893F887
:4021800043202AB19B68D3F8E03013F0100F2DD14FF0B0539B899BB233B14FF0B0539B899BB2B3F5807F30D1204600F0E1FA254B1B6893F843202AB19B68D3F8E03013F023
:4021C000100F32D1284600F0D0F91D4B5B681BB108210120FFF780FE304670BD4FF426711948FFF7AFFDB3E70026BCE71748FFF727FFCDE730BF134B1B681A68D3F89430EE
:40220000D35803F00303022BD1D1114A136943F004031361012CEDD120BF0E4B1B7803B120BF0C4B01221A70E5E70848FFF74AFFC8E702210120FFF74FFE074ECCE700BF81
:40224000040F0008640E0008642E0010180F000800ED00E0380F0008FF00420004280FD000060B4B1B681A68D3F8A03000F04070D0504FF0E022136923F0040313617047D2
:402280004FF0E022136943F004031361704700BF640E000808B50120FFF7D2F808BD0000604BD3F8802302F00F0202F1D00153F8213003F00703042B17D8DFE803F00316F6
:4022C00016050800584B11E0584B1B680EE002F1C003544951F8233003F01F03112B1DD0132B1ED14FF4004300E0514BB2BB4D4AD2F8900500F00100D2F88815C1F30171D6
:40230000D2F8882512F0405F0ED0464AD2F88825C2F30172012A08D0002206E04FF40043E4E74FF4FA43E1E7012202B108B9032916D13C49D1F88005C0F31100D1F8842521
:40234000C2F30C02D1F88015C1F300610131B3FBF2F300FB03F3B3FBF1F301E0012A31D0304AD2F88023C2F30112D340314A1360314AD2F89010C1F3072101311269120E94
:402380000132B3FBF2F22D480260B3FBF1F32C4A13602C4A136003F5742202F23F222A49A1FB0212C2F3874228490A7003F2E733274AA2FB03239B09264A1360DB03264A96
:4023C00013607047174AD2F8400600F00100D2F80016C1F30171D2F8002612F0405F08D0104AD2F80026C2F30172012A02D0002200E0012202B108B90329B1D10949D1F811
:40240000002602F07F02D1F80006C0F30420D1F80016C1F3044102FB03F3B3FBF0F3B3FBF1F39DE70000264000127A001803000800366E011C03000800002140200300087E
:40244000140300082803000883DE1B4330030008D34D62102C0300082403000808B50D48FEF7BCFAFEF77AFAFFF71AFF002211460420FFF755F80848FEF716FE074B1B68D5
:4024800093F8513013B9FEF785FB08BD0448FEF78BFEF8E7302900103C0F0008640E0008082F001008B500F05CF8074AD2F8883043F47003C2F88830BFF34F8FBFF36F8FB4
:4024C00000F053F808BD00BF00ED00E07047FFF7FDFF72B6104C114DAC4209DA21686268A368043BA2BFC858D050FAE70C34F3E70B490C4A00209142BCBF41F8040BFAE77A
:4025000009480A490860BFF34F8FFFF7CBFFFFF7A5FFFDF7E9FFFEE7442F00105C2F0010640D0008C01000080000000808ED00E0FEE7FEE700B504207146084202D0EFF340
:40254000098001E0EFF308800430FFF70BFCFEE70230800803D001300238FCD100BF00BF7047EFF3108072B6704780F310887047830730B548D0541E002A3FD0CAB203466D
:4025800001E0013C3AD303F8012B9D07F9D1032C2DD9CDB245EA05250F2C45EA054536D9A4F1100222F00F0C03F1200EE6444FEA121C03F1100242E9045542E902551032B6
:4025C0007245F8D10CF1010214F00C0F03EB021204F00F0C13D0ACF1040323F003030433134442F8045B9342FBD10CF003042CB1CAB21C4403F8012B9C42FBD130BD64469F
:402600001346002CF4D1F9E703461446BFE71A46A446E0E730B540EA0104A30701D1032A0FD8844601F1FF3E07E01EF8011F03F8011B541EC1B19C4622466346002AF4D17F
:4026400030BD0B468446194653F8045BA5F1013424EA050414F0803FE4D1043A032A4CF8045B1946EFD8DDE76244002CE8D003F8011B9342FBD130BD024B13B1024800F07D
:4026800005B870470000000099260010002301461A46184600F01AB838B5084B084D5B1B9C1007D0043B1D44013C55F804399847002CF9D1BDE8384000F054B8700700088B
:4026C0006C070008704700BF704700BF2DE9F047DFF880A00646DAF8000098460F469146FFF7F0FF1A4B1B68D3F8484124B365681F2D26DC5EB96B1C0235DAF8000063608A
:4027000044F82570FFF7E0FF0020BDE8F08704EB85010123C1F88890D4F88821AB401A43022EC4F88821C1F80881E4D1D4F88C211343C4F88C31DEE703F5A674C3F84841A1
:40274000D5E7DAF80000FFF7BFFF4FF0FF30DCE73C2F001060070008F8B500BFF8BC08BC9E467047F8B500BFF8BC08BC9E4670475FF800F0810A00082F566F6C756D65730A
:402780002F446174612F5653636F64652F4749542F4F6E657468696E785F50726F6A6563745F4578616D706C65732F4578616D706C655F4465764B69744C69676874536549
:4027C0006E736F722F4F6E657468696E785F43726561746F722E637964736E2F47656E6572617465645F536F757263652F50536F43362F4144432E68000000000000000048
:402800000100000010280010010000000100000074C02055AC0004902400020002000200FD01000E0000000001000000000400000000000000000000000000000000000029
:402840000000000000000000000000000000000000000000000000000000000000000000000000000000000000000000010000000000000000000000000000000000000057
:4028800000000000E40C00002F566F6C756D65732F446174612F5653636F64652F4749542F4F6E657468696E785F50726F6A6563745F4578616D706C65732F4578616D7065
:4028C0006C655F4465764B69744C6967687453656E736F722F4F6E657468696E785F43726561746F722E637964736E2F47656E6572617465645F536F757263652F50536F26
:4029000043362F70646C2F647269766572732F7065726970686572616C2F7361722F63795F7361722E6800008A00000007000000000021400000254000000140000034405F
:4029400000002440000031400000324000001F410000234000001140010101010101010101101010800019005500F0000501053B04101C01010000000FC00000000400009A
:4029800001010101011D3A57789600082000101208000000001F00000010000F002000023F06080E00080009000A000B24282C30340000001000000090000000880000001F
:4029C000080000008000000004F0000000F00000400200002005A000D00100018001A00120000000100000002F566F6C756D65732F446174612F5653636F64652F474954F7
:402A00002F4F6E657468696E785F50726F6A6563745F4578616D706C65732F4578616D706C655F4465764B69744C6967687453656E736F722F4F6E657468696E785F4372A3
:402A40006561746F722E637964736E2F47656E6572617465645F536F757263652F50536F43362F70646C2F647269766572732F7065726970686572616C2F6970632F637936
:402A80005F6970635F6472762E6800002F566F6C756D65732F446174612F5653636F64652F4749542F4F6E657468696E785F50726F6A6563745F4578616D706C65732F452D
:402AC00078616D706C655F4465764B69744C6967687453656E736F722F4F6E657468696E785F43726561746F722E637964736E2F47656E6572617465645F536F75726365AF
:402B00002F50536F43362F70646C2F647269766572732F7065726970686572616C2F6770696F2F63795F6770696F2E63000000002F566F6C756D65732F446174612F5653C0
:402B4000636F64652F4749542F4F6E657468696E785F50726F6A6563745F4578616D706C65732F4578616D706C655F4465764B69744C6967687453656E736F722F4F6E65F3
:402B80007468696E785F43726561746F722E637964736E2F47656E6572617465645F536F757263652F50536F43362F70646C2F647269766572732F70657269706865726198
:402BC0006C2F6770696F2F63795F6770696F2E68000000002F566F6C756D65732F446174612F5653636F64652F4749542F4F6E657468696E785F50726F6A6563745F4578C5
:402C0000616D706C65732F4578616D706C655F4465764B69744C6967687453656E736F722F4F6E657468696E785F43726561746F722E637964736E2F47656E6572617465AB
:402C4000645F536F757263652F50536F43362F70646C2F647269766572732F7065726970686572616C2F6970632F63795F6970635F6472762E6300002F566F6C756D657307
:402C80002F446174612F5653636F64652F4749542F4F6E657468696E785F50726F6A6563745F4578616D706C65732F4578616D706C655F4465764B69744C69676874536544
:402CC0006E736F722F4F6E657468696E785F43726561746F722E637964736E2F47656E6572617465645F536F757263652F50536F43362F70646C2F647269766572732F7094
:402D000065726970686572616C2F6970632F63795F6970635F706970652E63002F566F6C756D65732F446174612F5653636F64652F4749542F4F6E657468696E785F507242
:402D40006F6A6563745F4578616D706C65732F4578616D706C655F4465764B69744C6967687453656E736F722F4F6E657468696E785F43726561746F722E637964736E2F64
:402D800047656E6572617465645F536F757263652F50536F43362F70646C2F647269766572732F7065726970686572616C2F7361722F63795F7361722E6300002F566F6CEC
:402DC000756D65732F446174612F5653636F64652F4749542F4F6E657468696E785F50726F6A6563745F4578616D706C65732F4578616D706C655F4465764B69744C6967DD
:402E0000687453656E736F722F4F6E657468696E785F43726561746F722E637964736E2F47656E6572617465645F536F757263652F50536F43362F70646C2F647269766542
:402E400072732F7065726970686572616C2F737973696E742F63795F737973696E742E63000000002F566F6C756D65732F446174612F5653636F64652F4749542F4F6E65FA
:402E80007468696E785F50726F6A6563745F4578616D706C65732F4578616D706C655F4465764B69744C6967687453656E736F722F4F6E657468696E785F43726561746FC7
:402EC000722E637964736E2F47656E6572617465645F536F757263652F50536F43362F70646C2F647269766572732F7065726970686572616C2F737973706D2F63795F7389
:402F00007973706D2E63000003000000010000000100000000000000050360000400000001000000000000000100000006046000080000009C100008952200103803000894
:402F40000000000000000010000000088C020000642F00108C020008440A0000640D00085C03000001006000840D000800006000840D000800F0F001BC020008F10064005D
:402F80000A00000000000000000000000000000000000000028000000000000000000000000000000000000000000000000000000000000000000000000000000000000085
:402FC000000000000000000000000000000000000000000000000000070000000000000000000000720000000000000000127A000048E80100127A0000093D000000A00F1A
:4030000000127A00401F0000080000000000000000000000240600088C060008F40600080000000000000000000000000000000000000000000000000000000000000000CF
:403040000000000000000000000000000000000000000000000000000000000000000000000000000000000000000000000000000000000000000000000000000000000050
:40308000000000000000000000000000000000000000000000000000000000000000000000000000000000000000000000000000000000000000000001000000000000000F
:4030C0000E33CDAB34126DE6ECDE05000B000000000000000000000000000000000000000000000000000000000000000000000000000000000000000000000000000000A4
:40310000000000000000000000000000000000000000000000000000000000000000000000000000000000000000000000000000000000000000000000000000000000008F
:40314000000000000000000000000000000000000000000000000000000000000000000000000000000000000000000000000000000000000000000000000000000000004F
:40318000000000000000000000000000000000000000000000000000000000000000000000000000000000000000000000000000000000000000000000000000000000000F
:4031C00000000000000000000000000000000000000000000000000000000000000000000000000000000000000000000000000000000000000000000000000000000000CF
:40320000000000000000000000000000000000000000000000000000000000000000000000000000000000000000000000000000000000000000000000000000000000008E
:40324000000000000000000000000000000000000000000000000000000000000000000000000000000000000000000000000000000000000000000000000000000000004E
:40328000000000000000000000000000000000000000000000000000000000000000000000000000000000000000000000000000000000000000000000000000000000000E
:4032C00000000000000000000000000000000000000000000000000000000000000000000000000000000000000000000000000000000000000000000000000000000000CE
:40330000000000000000000000000000000000000000000000000000000000000000000000000000000000000000000000000000000000000000000000000000000000008D
:40334000000000000000000000000000000000000000000000000000000000000000000000000000000000000000000000000000000000000000000000000000000000004D
:40338000000000000000000000000000000000000000000000000000000000000000000000000000000000000000000000000000000000000000000000000000000000000D
:4033C00000000000000000000000000000000000000000000000000000000000000000000000000000000000000000000000000000000000000000000000000000000000CD
:403400000000000000000000000000000000000000000000000000000000000000000000000000000000000000000000000000000000000000000000BC1000087926001009
:40344000B10200108D02001080B2C10048B3154B1B681A6AB3F8B030C3EBC303D358002BF5DA114B3E22C3F8042141F61E72C3F808210622C3F8182521F07F41C3F81C154D
:40348000D3F81C35074B1B681A6AB3F8B030C3EBC303134400225A60034BD3F81C35002BFADA7047640E000800002640F8B5284B1B6893F83130052B36D9254F3A68166A01
:4034C000B2F8B03003EB83031E44526802F57042146EA4B200F054FA05463B681968D3F890208A58013C032C1AD8032A22D01868D3F884104258120E4058C0F30720531C30
:4035000000FB0333134800FB03F3134A1068134AA2FB00208009B3FBF0F08230FFF794FF284600F021FAF8BD40F2C3110C4800F023FAC2E74FF0B052D27A002AD7D1082206
:40354000B2601968D3F890208A58032AF9D0CEE7640E000840420F001C030008D34D6210E82900104378FF2B00D0704710B500F007FA0446144B1B6893F83130042B1DD96C
:40358000114B1A68136AB2F8B02003EB8203DB680E4A13600E4A002111600E4A012111605A680D4B1A6013680B431360136813F0010FFBD1204600F0D7F910BD40F2C311BD
:4035C000064800F0D9F9DBE7640E00088C0E0008800E0008840E0008880E0008E82900102DE9F84307468846524B1B6893F83130012B35D94F4B1B681C6AB3F8B0201444C6
:40360000D3F8B450254493F85030002B73D04FF0B053DB7A002B3FD1464B1B6893F83130052B23D9434B19680A6AB1F8B03003EB83031344D1F8B420D358002B73DB0020A3
:4036400000F096F93C4B98426FD000233B4A12680121184600F0A0F9064670B1384C32E040F2C311374800F087F9C3E740F2C311344800F081F9D5E70136002000F078F9FE
:403680002D4B984202D0304B9E42F5D92E4B9E424DD84FF0010901E04FF0000900F070F906462A4BD3F81C35002B0FDB244CB9F1000F05D00121002000F06AF90028F9D1FD
:4036C000304600F051F92046BDE8F883204A0121204600F065F908B1194CE8E74046FFF7B3FE37B12B68002BFCDB00F04DF90446DDE7184CDBE700F043F90646144A01215B
:40370000204600F04DF938B95FB12B68002BFCDB00F03AF9044600E0094C304600F024F9D1E70C4CF9E7064CCDE7054CCBE7044CC9E700BF640E000801018800780E0008E8
:4037400005005200E8290010EF49020000002640680E00080100500070B57F4B19684C684FF0B0535B782BB14FF0B0535B78DBB2212B5BD10A6AB1F8B030C3EBC30302EBD5
:40378000030CD358002BF5DADCF80C3043F00103CCF80C300B6AB1F8B020C2EBC2021344DA6812F0020F30D0DA681FFA82FC0D68D1F88420AA58120A120402F47F02D1F854
:4037C0008860AD594FEA152E42EA0E624CEA0202DA600D68D1F88420AB5823F47F4343F41063AB505C4A13681D68D3F888106B5823F47F4343F410636B5013681A68D3F81A
:4038000084105158D3F88830D358534B1B68196AB3F8B020C2EBC2020A44002151601A6AB3F8B030C3EBC30313445B684A4B1B681968D3F89430194405E030BF0B6803F091
:403840000303022B0FD1454A136943F0040313610128F2D120BF424B1B7803B120BF404B01221A70EAE73C4B1A68116AB2F8B030C3EBC303C818CB58002BF4DA4FF0B05335
:403880005B7873B34FF0B0535B78DBB2212B28D0D4F80C31002B53D1324BD3F80801D3F81815D3F8042141F61E75C3F808510625C3F818553E25C3F804514425C3F81C555F
:4038C000284BD3F81C35002BFADA4FF0AA33C4F80C31244BC3F80801C3F81815C3F804212EE0C36813F0020F1ED01468D2F88410625822F47F42C3681B0C1B029BB2134372
:403900006350154B1A681468D2F88800235823F47F43116AB2F8B020C2EBC2020A44D268120E43EA022323500B4B1A68136AB2F8B020C2EBC2021344DA6822F00102DA60D5
:40394000054B1B681A6AB3F8B030C3EBC303134400225A6070BD00BF640E000800ED00E0380F0008000026405FF800F06B2500105FF800F0091600105FF800F0451D0010C0
:403980005FF800F0632500105FF800F0B90A00105FF800F08D1500105FF800F07D1200105FF800F03D1000100000000000000000000000000000000000000000000000008B
:4039C00000000000000000000000000000000000000000000000000000000000000000000000000000000000000000000000000000000000000000000000000000000000C7
:0200000490303A
:02000000AD024F
:0200000490501A
:0C0000000005E20721002100E21ACE02F8
:00000001FF