:020000041008E2
:4000000000780408EB0208100D00000051030810510308105103081051030810000000000000000000000000000000004D0308104D030810000000004D0308104D030810DA
:400040004D0308104D0308104D0308104D0308104D0308104D0308104D0308104D0308104D0308104D0308104D0308104D0308104D0308104D0308104D0308104D03081000
:400080004D0308104D0308104D0308104D0308104D0308104D0308104D0308104D0308104D0308104D0308104D0308104D0308104D0308104D0308104D0308104D030810C0
:4000C0004D0308104D0308104D0308104D0308104D0308104D0308104D0308104D0308104D0308104D0308104D0308104D0308104D0308104D0308104D0308104D03081080
:400100004D0308104D0308104D0308104D0308104D0308104D0308104D0308104D0308104D0308104D0308104D0308104D0308104D0308104D0308104D0308104D0308103F
:400140004D0308104D0308104D0308104D0308104D0308104D0308104D0308104D0308104D0308104D0308104D0308104D0308104D0308104D0308104D0308104D030810FF
:400180004D0308104D0308104D0308104D0308104D0308104D0308104D0308104D0308104D0308104D0308104D0308104D0308104D0308104D0308104D0308104D030810BF
:4001C0004D0308104D0308104D0308104D0308104D0308104D0308104D0308104D0308104D0308104D0308104D0308104D0308104D0308104D0308104D0308104D0308107F
:400200004D0308104D0308104D0308104D0308104D0308104D0308104D0308104D0308104D0308104D0308104D0308104D0308104D0308104D0308104D0308104D0308103E
:400240004D0308104D0308104D0308104D0308104D0308104D0308104D0308104D0308104D0308104D0308104D0308104D0308104D0308104D0308104D0308104D030810FE
:400280004D0308104D0308104D03081010B5054C237833B9044B13B10448AFF300800123237010BDE448020800000000FC110810084B10B51BB108490848AFF30080084812
:4002C000036803B910BD074B002BFBD0BDE81040184700BF00000000E8480208FC110810B4420208000000007047FFF7FDFF72B6104C114DAC4209DA21686268A368043B57
:40030000A2BFC858D050FAE70C34F3E70B490C4A00209142BCBF41F8040BFAE709480A490860BFF34F8F00F017F900F0F1F800F01DF8FEE70012081018120810E4480208DF
:40034000E84A02080040020808ED00E0FEE7FEE700B504207146084202D0EFF3098001E0EFF30880043000F043FDFEE70020704708B5012000F0B6FC08BD00BF704700BF5C
:400380005C4AD2F8803303F00F0303F1D00152F8212002F00702032A04D0042A05D092B9554914E0554A116811E003F1C002514951F8222002F01F02112A06D0132A04D0D0
:4003C0004FF4FA4103E04E4901E04FF400418BBB484BD3F8902502F00100D3F88825C2F30172D3F8883513F0405F07D0414BD3F88835C3F30173012B02D102E0012300E090
:40040000002303B108B9032A46D13A48D0F88025C2F31103D0F88425C2F30C02D0F88005C0F300600130B1FBF2F202FB03F2B2FBF0F131E0012B2FD12E4BD3F8402602F07A
:400440000100D3F80026C2F30172D3F8003613F0405F07D0274BD3F80036C3F30173012B02D102E0012300E0002303B108B9032A12D12048D0F8002602F07F02D0F80036F7
:40048000C3F30423D0F80006C0F3044002FB01F2B2FBF3F2B2FBF0F1164BD3F88033C3F3011321FA03F215494A601648D0F89030C3F3072301330069000E0130B2FBF0F09A
:4004C0008860B2FBF3F3CB600B6103F5742202F23F220D48A0FB0202C2F387420A7503F2E7330A4AA2FB03239B098B61DB03CB61704700BF0000264000127A008C42020816
:4005000000366E010000214083DE1B43D34D621008B50D4800F0D0FCFFF730FFFFF730FF00221146042000F0A5F9084800F038FA074B1B6893F8513013B1064800F0A0FA32
:4005400000F0E2F808BD00BF4411081000490208E44A0208140F081008B500F0A6FC074AD2F8883043F47003C2F88830BFF34F8FBFF36F8F00F09DFC08BD00BF00ED00E0A2
:400580001F4B98422DD00CD840282ED003D8E8B1102828D02FE0802829D0B0F5807F28D029E0184B984228D006D8B0F1204F0DD0154B984212D01EE0144B98420AD0013356
:4005C000984209D0023B984215D101E0002070470F4870470F4870470F4870474FF4A0007047074870470D4870470D4870470D487047034870470C4870474FF4A4007047FA
:4006000006005200010000F0090000A0040000F0010052000200520003005200010050000200500005005200FF00520038B5124B1B6893F83130012B04D840F2C3110F486F
:4006400000F0C6FB0C4B1D682A6AB5F8B03013442C46D5F8B420D358002B0BDB084B1868FFF78EFF6B6801229A6063689B68002BFBD138BD034838BDE44A0208480F08103F
:40068000804A0208020050001A4B186128B102230370FF23437000234380174B1B6893F850202AB300B583B0B3F93830ADF80030002301931149684600F04EFBBDF900309E
:4006C000002B08DB590903F01F03012202FA03F30B4A42F82130084B1B6893F8513023B102220849012000F077FA03B05DF804FB704700BF804A0208E44A020825430208D8
:4007000000E100E0DD43020808B50248FFF7BCFF08BD00BF944A020838B50B4B1B68D3F8B4301B58002B0DDA0D4604460B0C1B0423B140F2D521054800F04AFBA9B2616043
:40074000002038BD024838BDE44A0208880F081001008A0038B50368002B01DA002300E0094B73B90D460446C2600B0C1B0423B140F2BB21054800F02BFBA9B2A16000201C
:4007800038BD014838BD00BF01008A00880F081038B504460D4619B99921084800F018FB074B1B68D3F8B4301B59002B03DAE3682B60002038BD034838BD00BFC80F0810CB
:4007C000E44A020801008A00254B1B6893F8313083423AD900293AD00B6813F01F0F38D170B50D4604461E4B1B6893F83130984204D340F2C3111B4800F0EAFA184B1B6831
:40080000186AB3F8B03004FB0304174E34602A68D2080021686800F055FB00212046FFF77BFF346825B940F293310E4800F0D0FA2A4600212046FFF78DFF60B900210A4B90
:400840001868FFF769FF40B970BD084870470748704706487047064870BD054870BD00BFE44A0208880F0810984A020803018A0001018A0010B504461346B2B9A9B9124B2F
:400880001B6893F83130984204D340F2C3110F4800F09EFA0C4B1B681A6AB3F8B03004FB03240B4B1C60002010BD43B149B1084A51609360111D2046FFF786FF10BD054858
:4008C00010BD044810BD00BFE44A0208880F0810984A020803018A002DE9F0411B4B1B68DC68236883422CD90D464609A0EB4610012303FA00F819B900F0D7FA074600E0CD
:400900000027124B18680368002B01DA002300E00F4B83B9626852F8263018EA030F05D023EA080342F82630002400E0094C0021FFF7F2FE00E0084C25B9384600F0B9FA1B
:4009400000E0064C2046BDE8F08100BF984A020801008A00020188000301880004018A000B4B1B68DB681A6882420CD94109A0EB4110012202FA00F05B6853F821301842B8
:4009800003D004487047044870470448704700BF984A02080101880004018A0000018800024B1B680BB9014B18607047A44A02082DE9F8430446884691461D46089F2C4B46
:4009C0001B681BB9B5212B4800F002FA284B1B682C2000FB04F01C18EEB21E50C5F3072363602D0CA560244B1B6893F831309E4204D340F2C311214800F0EAF91E4B1B6852
:400A0000196AB3F8B02006FB02162661666893F832309E4204D340F2DF11184800F0D8F9154B1B681D6A803605EB46156561A668330C1B0423B14FF4FF71104800F0C8F936
:400A4000330C1B0423B140F2FF110C4800F0C0F9B3B243EA0646AE60C4F81C90C4F820800023A36117B1B7F90030A381BDE8F883A44A020808100810E44A0208880F081033
:400A8000F0B58FB0044618B95221274800F0A0F9A369072B03D95621234800F099F9E36A1BB95821204800F093F9236B1BB959211D4800F08DF907AD04F114060FCE0FC5A5
:400AC00037682F6002AD26460FCE0FC533682B60164B1B68B3F93620079B1344ADF83030089B0D93A26AE16A0CAD00953B460A98FFF75EFF00210091069B0A460598FFF75E
:400B000057FF216B284600F027F9BDF93030002B08DB590903F01F03012202FA03F3044A42F821300FB0F0BD08100810E44A020800E100E0F8B506460F461D4614461AB959
:400B4000FD211F4800F044F91E4B1B681BB9FE211B4800F03DF91B4B1B682C2101FB063001FB07314B68012202FA03F31B04466802FA06F60269EAB18F69EFB91268002AE8
:400B800001DA002200E0104AC2B92288134323600369DC6001238B614D620469330C1B0423B140F2BB21094800F012F9B2B2A2600020F8BD0648F8BD0648F8BD0548F8BD5D
:400BC00008100810A44A020801008A00880F081004028A0007028A00F8B505460F4616460E4B1B6823B94FF4AF710D4800F0F0F80A4B1B682C2404FB0534236A23B94FF473
:400C0000B171074800F0E4F8E369B34204D9236A43F826700020F8BD0248F8BDA44A0208081008100A028A0070B582B000230193044620B940F2D111284800F0C9F8236977
:400C400023B94FF4E971254800F0C2F8636923B940F2D311214800F0BBF8236A23B94FF4EA711E4800F0B4F86369DD682A0C20D012041A601B682069194B1B68D3F8B430A8
:400C8000C358002B15DA01A9FFF782FD60B9019803681E0CDBB2E269934206D2226A52F8233013B1984700E0002631462069FFF733FDADB275B16369ADB21D601B68636A9F
:400CC0001BB198470023636202E0A36A03B198470023A36163691B6802B070BD08100810E44A020810B50446074B1B6823B940F2B111064800F06CF8034B1B682C2000FBB4
:400D00000430FFF791FF10BDA44A02080810081038B50D4B9A680D4B9A420FD10D46044621B940F237110A4800F052F804F11003064A52F8230042F8235038BD1030054B35
:400D400053F8200038BD00BF00ED00E000400208481008100000081048B338B504460D464368072B03D93221134800F031F8B4F900306268002B08DB5201D2B203F160438D
:400D800003F5614383F8002305E003F00F035201D2B20A49CA540A4B9A680A4B9A4208D12946B4F90000FFF7B3FF002038BD06487047002038BD00BF4810081014ED00E063
:400DC00000ED00E0004002080100560001BEFEE738B50D46044C18220146204600F07AF8A5610020FFF7F2FF50480208FEE700BF08B50268254BDA6142681A6282685A6217
:400E0000C2689A620269DA6242691A6382695A63C2699A631E4A916AD963D16A1964516A5964516B9964926BDA64F1EE103A13F0900F27D0026A154B1A65426A5A65826AC6
:400E40009A65C26ADA65026B1A66426B5A66826B9A66C26BDA66026C1A67426C5A67826C9A67C26CDA67026DC3F88020426DC3F88420826DC3F88820C26DC3F88C20026E68
:400E8000C3F89020FFF7B2FF08BD00BF5048020800ED00E0000000000230800803D001300238FCD100BF00BF7047EFF3108072B6704780F310887047014B1860704700BFE6
:400EC000E44A020802440346934202D003F8011BFAE7704710B5034642B111F8014B03F8014B013A002CF7D11A4400E010BD934202D003F8014BFAE710BD0000F8B500BFF6
:400F0000F8BC08BC9E467047F8B500BFF8BC08BC9E46704703000000010000000100000000000000050360000400000001000000000000000100000006046000080000003A
:400F4000604A02087103081047656E6572617465645F536F757263655C50536F43365C70646C5C647269766572732F7065726970686572616C2F6970632F63795F69706388
:400F80005F6472762E68000047656E6572617465645F536F757263655C50536F43365C70646C5C647269766572735C7065726970686572616C5C6970635C63795F697063C0
:400FC0005F6472762E68000047656E6572617465645F536F757263655C50536F43365C70646C5C647269766572735C7065726970686572616C5C6970635C63795F69706380
:401000005F6472762E63000047656E6572617465645F536F757263655C50536F43365C70646C5C647269766572735C7065726970686572616C5C6970635C63795F69706344
:401040005F706970652E630047656E6572617465645F536F757263655C50536F43365C70646C5C647269766572735C7065726970686572616C5C737973696E745C63795F70
:40108000737973696E742E63000000000000204000002440000000400000000000002340000030400000314000009F40000022400000104002020202020202020210101DCD
:4010C000800017007500FF030602063604102000000000007FC0000000040000000000000019324B647D00804000080B100000000000FF012002001F00800004FF081018D9
:40110000001000140018001C4044484C50000000081000000800000004000000041000000012000004210000002100000016000040114002C41300138013A0132000000066
:401140001C0000000000214000002540000001400000344000002440000031400000324000001F410000234000001140010101010101010101101010800019005500F00066
:401180000501053B04101C01010000000FC000000004000001010101011D3A57789600082000101208000000001F00000010000F002000023F06080E00080009000A000BF0
:4011C00024282C3034000000100000009000000088000000080000008000000004F0000000F00000400200002005A000D00100018001A00120000000100000000000000054
:4012000000000810004002088C020000201208108C420208C4050000E4480208040200000048E80100127A0000093D0000127A0000127A0008000000401F00000000A00F66
:40124000B10208108D0208100000000080B2C10050B3164B1B681A6AB3F8B030C3EBC303D358002BF5DA3E22114B1A6041F61E7204331A60A3F584730622C3F8182521F00C
:401280007F41C3F81C15D3F81C35084B1A68116AB2F8B030C3EBC3030B4400225A60054BD3F81C35002BFADA704700BFE44A02080401264000002640F8B5274B1B6893F8D6
:4012C0003130052B04D840F2C311244800F04AFA214F3A68166AB2F8B03003EB83031E4452684FF26003D458A4B200F053FA05463B681968D3F890208A58013C032C27D895
:40130000032A0CD1164A127812F0FF0F07D10822B2601968D3F890208A58032AF9D01968D3F884208B588858C0F307221B0E581C02FB00000B4B03FB00F00B4B1B680B4A26
:40134000A2FB03239B09B0FBF3F08230FFF77EFF284600F00FFAF8BDE44A0208480F08100B00001640420F0090420208D34D62104378FF2B23D110B500F00CFA0446104B37
:401380001B6893F83130042B04D840F2C3110D4800F0E8F90A4B1A68136AB2F8B02003EB8203DB685A68136843F001031360136813F0010FFBD1204600F0DCF910BD704713
:4013C000E44A0208480F08102DE9F04707468846554B1B6893F83130012B04D840F2C311524800F0BFF9504B1B681C6AB3F8B0201444D3F8B420161993F85030002B79D0BB
:401400004B4B1B7813F0FF0F02D04FF0000901E04FF00109B9F1000F38D0434B1B6893F83130052B04D840F2C311404800F09AF93D4B1A68116AB2F8B03003EB83030B4481
:40144000D2F8B420D358002B22DB002000F09AF9384B98421ED00023374A12690121184600F0A0F918B1354D17E0013500E00025002000F087F92F4B984202D0304B9D42D8
:40148000F3D92F4B9D4207D92C4D06E0002504E02A4D02E0294D00E00025002D41D100F079F98246274BD3F81C35002B10DA224A0121204600F07EF960B94046FFF7C6FE2B
:4014C00057B13368002BFCDB00F07CF9054604E01A4D02E0194D00E01B4DB9F1000F05D00121002000F076F90028F9D1504600F041F916E000F04EF980460F4A0121204607
:4015000000F058F938B947B13368002BFCDB00F059F9054602E0094D00E00B4D404600F029F92846BDE8F087E44A0208480F08100B00001601018800804A02080500520048
:40154000EF4902000000264001005000F0B47F4B1A6855684FF0B0535B7813F0FF0F04D04FF0B0535B78DBB200E02123212B55D1116AB2F8B030C3EBC303CC18CB58002BF0
:40158000F6DAE36843F00103E360146AB2F8B030C3EBC3031C44E36813F0020F2DD0E3689EB21368D2F884105958090A090401F47F01D2F88870DB591B0A41EA0363334382
:4015C000E3601168D2F884208B5823F47F4343F410638B505D4A13681C68D3F88810635823F47F4343F41063635013681A68D3F884105158D3F88830D358544B1A68116A37
:40160000B2F8B030C3EBC3030B4400215960116AB2F8B030C3EBC3030B445B684B4B19680C68D1F894301C44494A136943F004031361012801D030BF07E020BF454B1B78F1
:4016400003B120BF0122434B1A70236803F00303022BE9D00A6AB1F8B030C3EBC303D018D358002BF6DA4FF0B0535B7813F0FF0F04D04FF0B0535B78DBB200E02123212BA7
:4016800030D1C36813F0020F1FD00C68D1F88410635823F47F42C3681B0C1B0203F47F4313436350294B19680C68D1F88800235823F47F420D6AB1F8B030C3EBC3032B4476
:4016C000DB681B0E42EA03232350204B1A68136AB2F8B020C2EBC2021344DA6822F00102DA6026E0D5F80C311BBB1B490E681B4BD3F818451A4A106841F61E770F600621F0
:40170000C3F818153E2111604422C3F81C25134BD3F81C35002BFADA4FF0AA33C5F80C310D4B1E60A3F58473C3F8184503F582731860064B1A68116AB2F8B030C3EBC303D2
:401740000B4400225A60F0BC704700BFE44A020800ED00E0A84A020808012640000026400401264001B40248844601BC604700BFD10D081001B40248844601BC604700BF0D
:40178000B30E081001B40248844601BC604700BF6109081001B40248844601BC604700BFAB0E081001B40248844601BC604700BF350B081001B40248844601BC604700BFF5
:4017C0005507081001B40248844601BC604700BF2D06081001B40248844601BC604700BFD90808100000000000000000000000000000000000000000000000000000000059
:0200000490303A
:02000000CA77BD
:0200000490501A
:0C0000000005E20721002100E20EEB7772
:00000001FF