:020000041000EA
:4000000000400208230100100D00000085010010000000000000000000000000000000000000000000000000000000008101001000000000000000008101001081010010E9
:400040008101001081010010810100108101001081010010810100108101001081010010810100108101001081010010810100108101001081010010810100108101001060
:400080008101001081010010810100108101001081010010810100108101001081010010810100108101001081010010810100108101001081010010810100108101001020
:4000C00010B5064C2378002B07D1054B002B02D0044800E000BF0123237010BD3C06000800000000902D0010084B10B5002B03D00749084800E000BF07480368002B00D16D
:4001000010BD064B002BFBD09847F9E70000000040060008902D0010E8000008000000007047FFF7FDFF72B60F4C104DAC4209DA21686268A368043B02DBC858D050FAE7EC
:400140000C34F3E70A490B4A0020521A02DD043A8850FCDC084809490860BFF34F8F00F0FFF800F01DF8FEE7942D0010AC2D00103C060008140800080000000808ED00E0F4
:40018000FEE7FEE700B504207146084202D0EFF3098001E0EFF30880043001F06BFAFEE70020704710B5002001F00AF910BDC04670B56249E0239B00CB580F2213401A00F2
:4001C000D0329200525807210A40032A05D0042A06D0002A12D15A4814E05A4A106811E01A00C0329200554952581F210A40112A06D0132A04D0FA20C00103E0524801E0CE
:4002000080200002002B36D14C4BB222D2009A5801211140B125ED005A59120F032422405B591B0F1C4207D0444C63591B0F03242340012B02D102E0012300E00023002BE2
:4002400001D0002901D1032A4BD13C4BB022D2009D58AD03AD0B3D495958C904C90C9C58240E01231C40013401F07AFD6843210001F076FD35E0012B33D1304BC822D20019
:400280009A5801251540C024E4001A59120F03210A401B591B0F194207D028490B591B0F03210B40012B02D102E0012300E00023002B01D0002D01D1032A12D11F4DC02268
:4002C000D200AB587F210B40A958090A1F263140AC58240C3440584301F042FD210001F03FFDE0239B00154AD3581B0903221340D840144C6060164B1D692D0AFC32154016
:4003000001351969090E013101F02AFDA060290001F026FD0500E06020610E4BC0180E4901F01EFD20750D4BE818FA21890001F017FDA061C003E06170BDC04600002640D9
:4003400000127A00C000000800366E0184050000000021403F420F0040420F00E703000010B5284801F0F6FC274CB022D200A3585B005B08A350E021890063583020834359
:40038000635080235B04A350204A214BE250A02292010433E250FF221E4BE25001F0C8FCC0225200A35801218B43A35000F076F9FFF7FEFEB0235B055B78002B04D0B02323
:4003C0005B055B78DBB200E02123212B03D1124B0022DA605A60114C22008021042000F095FD2000103000F029FE0D4B1A685123D35C002B02D00B4800F096FE00F0C4FA4A
:4004000010BDC046D82C00100000264001000200840500008C050000E00023405806000810080008D81E00108023024AD35803201840704700002140FEE7C046F0B5002521
:40044000002711E0BB00C658F3B2FF22964308E06A008A181478A419527822700135013BDBB2002BF4D10137022FEBD9F0BDC046014A024B1A60704701001180000E1F41BB
:4004800070B5724A116808230B431360704C03E0012001F0B5F8013C6C4B1B695B0701D4002CF5D1002C01D16A4B00E00023002B02D00520FFF7C0FF6748A021C900435896
:4004C00003229343023A13434350644A116808688823CB58C31818686149084018601368186884241B59C01803681B021B0A0360106805680359EB181868014019601368BA
:400500003E229A5C002A06D05348E02189004258753CA24342503E229A5C002A06D04E48E021890042583024A24342503E229B5C002B07D04849E02292008B58802000069C
:4005400003438B500021012000F06CFF0021022000F068FF0021032000F064FF0021042000F060FF0021002000F05CFF3A4C3D4BE1583D4A0A4001252A43E250E1583B4AD1
:400580000A40E250E258802109060A43E250043BE158374A0A40E250E158364A0A40E250E258802109020A43E250284A1168324B0B401360002001F031FBC0235B00E3586B
:4005C0001D4204D12D4AA3585B005B08A3500821002001F067F8214B1B683F229A5C092A06D97122995C6E3A8A402549986842509A687A201B5AD2181368FF210B4021496E
:400600000B43136015490A689468135AE3181A687E3082431A600A687323D15C703B180088407021515C7224145DA14001437120105C83400B43802109060B438021C900B6
:400640009068435093685B5870BDC0460000274020A1070002004A000000264010080008FF00FFFF04050000FEFCFFFFFFFF00FFFFF0FFFFFF8FFFFFFFFCFFFF0C0500008F
:40068000240C000000FF691810B50A00002101F0FCFB10BD10B501F0EFFB10BD30B58FB09621002000F0FEFF00F0D4FF002814D100F0C0FFC0235B004C4AD358DB0705D457
:4006C00011004B4A8B585B005B088B504749484A8B588020000603438B50012001F036FA444A516C444B0B40E82189010B435364536C1B0AFF2213403A2B07D13D4A516C34
:400700003E4B0B40E82189010B435364002300223B493C4801F0A0FA002300223A493B4801F09AFA3422002101A801F0AEFB384C01AA0021200000F02FF93422002101A843
:4007400001F0A3FB01AA0121200000F025F9FFF797FE304A304B1A6000240EE02F48620011194B00C3189988121955002A5A588800041043FFF788FF01340B2CEED900248A
:400780000AE0620012199300244AD3181A6DD96C986CFFF77FFF0134112CF2D9204C2100203120002C30FFF749FE1E4A116806230B43136001AD24220021280001F065FB65
:4007C0002900134800F082FA2A002300383313CB13C213CB13C213CB13C22900124800F075FAFFF745FE0FB030BDC046000026400C05000000002740FF00FFFFFFC5FFDFEE
:400800000F0E0040050E0000010700402A070000000032400300FA05F00121400C1F00100C2000100079344000063240214B984230D00ED8402831D004D800281FD010286D
:400840002AD031E080282BD080235B00984229D02AE0194B984229D007D8A0231B0698420DD0164B984212D01EE0154B98420AD0144B984209D0144B984215D101E00020DD
:4008800016E0124814E0124812E0124810E0A020C0030DE007480BE00F4809E00F4807E00F4805E0034803E00E4801E0A420C0037047C04606005200010000F0090000A05F
:4008C000040000F0050000F0030000F0010052000200520003005200010050000200500005005200FF00520070B5124B1A683123D35C002B04D1C421FF310F4800F08CFE68
:400900000C4B1D682C00B423EB582A6A944663441B68002B0BDB094B1868FFF787FF6B6801229A6063689B68002BFBD100E0044870BDC0461008000898290010E8070008A0
:400940000200500010B50D4B1861002805D002230370FD33437000234380094B1B6850229A5C002A08D051229B5C002B04D04F3A0449002000F092FC10BDC046E807000849
:40098000100800086101000810B502481430FFF7D9FF10BDE8070008F8B54F464646C0B406000D001400002800D16FE1002A00D16EE1072903D94521B84800F02DFE2368B4
:4009C000012B03D94621B54800F026FE0F2362689A4303D04721B14800F01EFE237A1F22934303D04821AD4800F016FEE368032B03D94921A94800F00FFE2369012B03D934
:400A00004A21A64800F008FE6369012B03D94B21A24800F001FEA369012B03D94C219F4800F0FAFDE369032B03D94D219B4800F0F3FD236A012B03D94E21984800F0ECFDBB
:400A4000636A012B03D94F21944800F0E5FDA36A012B03D95021914800F0DEFDE36A032B03D951218D4800F0D7FD236B072B03D952218A4800F0D0FD2768072D03D98849E9
:400A8000884800F0C9FD012F04D9CA218900854800F0C2FD002F03D10123AB40736002E00123AB40B3606768072D04D9F12189007C4800F0B1FD0F233A009A4303D07A490E
:400AC000784800F0A9FDA900784B1A687D23D35C9B191A6890460F2291468A40404690430200484607408F4017431F60277A072D04D9A22189006B4800F08EFD1F233A0085
:400B00009A4303D06A49674800F086FD674B1A689369F31ADB0952691B01D318032D0AD81968E8001F22824091431F22174087400F431F600AE02A1F5968D2001F209040F6
:400B400081431F20074097400F435F60E768082D04D9DD21C900534800F05EFD032F03D95449504800F058FD6900504B1A687C23D35C9B191A689046032291468A40404601
:400B800090430200484607408F4017431F602769082D03D94849434800F03EFD012F03D94649404800F038FDB36901221100A9408B431740AF401F43B76163699846072D0E
:400BC00003D93F49374800F027FD4346012B03D93C49344800F020FD34487E230268D35C9B191A6801273900A9408C468A43110042463A40AA400A431A606B001022904653
:400C0000984403210B00424693406246134399467F2203689A5C9446B44463461A684B469A43A3693B40AB401A43E3691940434699400A4363461A6002688023D35CF61874
:400C40003368FF22944693431800236A1F40636A5A00022313403B43A26A9100042739400B431F00E36AD900182319403B000B43226B520161460A401343AD00FE22920070
:400C80001540AB4003433360002002E00E4800E00D480CBC90469946F8BDC046D829001027030000182A0010C50300001008000889020000E9060000690600006A06000088
:400CC000030400000404000001005A0070B505000C0000285DD000295DD0FF230A689A4303D099212D4800F097FCFF2322699A4303D09A21294800F08FFCA3685B0D03D069
:400D00009B21264800F088FC63685B0A03D09C21224800F081FCE3695B0F03D09D211F4800F07AFC236A5B0F03D09E211B4800F073FC1B4A11688B69EB1ADB0949691B0196
:400D4000CB18216829607D211068415C6918E06808607E211068415C6918206908607F211068415C6918606908607C211068415C6918A06808606168A961116880228A5C96
:400D8000AD18A2692A60E2691A60226A5A60002002E0044800E0034870BDC046D82900101008000801005A0070B504000D000A4B1A68B423D3581B181B68002B0ADA0B0CAB
:400DC00003D00649064800F027FC2D042D0C6560002000E0034870BD10080008D5020000582A001001008A0070B505000C000368002B01DA002300E0084B002B0BD1EA6067
:400E0000230C03D00649074800F006FC2404240CAC60002000E0014870BDC04601008A00BB020000582A001070B505000C1E03D19921084800F0F0FB074B1A68B423D35883
:400E40005B191B68002B03DAEB682360002000E0024870BD982A00101008000801008A0070B504000D00234B1A683123D35C834236D9002936D00B68DB0635D13123D35C20
:400E8000984204D3C421FF311B4800F0C5FB194B1B681A6AB0215B5A5C431419174E34602B68DA080021686800F0EFFF00212000FFF77AFF3468002D03D111490E4800F072
:400EC000ABFB2A0000212000FFF78EFF00280DD10A4B18680021FFF767FF002808D108E0084806E0074804E0064802E0064800E0054870BD10080008582A0010000800081A
:400F00009303000003018A0001018A0010B50400002A17D1002915D1124B1A683123D35C984204D3C421FF310F4800F075FB0D4B1B681A6AB0215B5A5C4314190B4B1C60B5
:400F400000200EE0002A09D0002909D0074B59609A60191D2000FFF783FF02E0044800E0034810BD10080008582A00100008000803018A00F0B583B00D001C4B1B68DC6802
:400F8000236883422DD947097B01C01A012383401E00002903D100F000FC019001E000230193124B18680368002B01DA002300E00F4B002B0ED16368BF00DF193B683342CF
:400FC00003D0B3433B60002400E00A4C0021FFF7EBFE00E0084C002D04D1019800F0E1FB00E0064C200003B0F0BDC0460008000801008A00020188000301880004018A009F
:401000000A4B1B68DA68136883420BD943095901401A0121814052689B009B580B4203D0034802E0034800E003487047000800080101880004018A0000018800034B1B684A
:40104000002B01D1014B18607047C0460C080008F0B5474680B404000F0090461E002D4B1B68002B03D1B5212B4800F0D5FA294B1B682C2060431C18FF221500354025601D
:40108000330A13406360360CA660244B1A683123D35C9D4204D3C421FF31214800F0BCFA1E4B1A68B023D35A6B43116A8C466344236166683223D35C9E4204D3E021FF31FC
:4010C000174800F0A9FA154B1B681D6A80367601AD196561A668330C04D0FF214900104800F09AFA330C03D00E490D4800F094FA3604330C1E43AE604346E36127620023D8
:40110000A361069B002B02D000229B5EA38104BC9046F0BD0C080008D82A001010080008582A0010FF010000F0B58FB0041E03D15221294800F070FA6368032B03D9542149
:40114000254800F069FAE36A002B03D15821224800F062FA236B002B03D159211E4800F05BFA07AA1300210061C961C321C921C302AD290023001433C1CBC1C141CB41C123
:401180000821535E0CAE3380144B1B6836215B5E07998C466344B370089B0D930B9B0A980096A26AE16AFFF753FF2B69E868002200920021FFF74CFF216B300000F0BEF99D
:4011C0000023F25E002A05DB1F231A401E3B9340034A13600FB0F0BDD82A00101008000800E100E0F8B505000F0016001C00002A03D1FD21224800F00FFA224B1B68002BFE
:4012000003D1FE211E4800F007FA1E4B1B682C2128004843181879435918012213004D68AB401B044568AA4015000269002A20D08F69002F1FD11268002A01DA002200E05D
:40124000114A002A19D132681204120C134333600369DE6001238B614C6204692B0C03D00A490B4800F0D8F92A04120CA260002004E0084802E0084800E00748F8BDC04644
:40128000D82A00100C08000801008A00BB020000582A001004028A0007028A0070B504000D0016000F4B1B68002B04D1AF2149000D4800F0B1F90B4B1B682C2060431C18D6
:4012C000236A002B04D1B1214900074800F0A4F9E369B34204D9236AB6009D51002000E0024870BD0C080008D82A00100A028A0070B582B0040000230193002804D1D221DE
:40130000FF312D4800F088F92369002B04D1E9214900294800F080F96369002B04D1D421FF31254800F078F9236A002B04D1EA214900214800F070F96269D5682B0C24D049
:401340001B041360136820691C4B1A68B423D358C3181B68002B18DA01A9FFF765FD00280ED1019803681E0CFF221340E269934207D29B00226AD358002B02D0984700E0BF
:40138000002631002069FFF70FFD2D042D0C0FD063691D601B68636A002B03D098470023636203E0A36A002B00D098470023A36163691B6802B070BDD82A00101008000853
:4013C00010B50400084B1B68002B04D1B221FF31064800F021F9044B1B682C2060431818FFF786FF10BDC0460C080008D82A001010B50400094B1B689B6CC340DB0703D423
:40140000BE21074800F008F9044B1B681B691034A402E3580F20184010BDC04610080008182B0010134B1A683C23D35C83421DD9042904D94B1EFF3B9BB2132B18D8FF29CC
:401440000CD91F2319400C4A0300C0339B009950D03080000423835000200AE007231940D0308000044BC150002002E0034800E002487047100800080000264001004A0036
:4014800070B505000C001A4B1B6828229A5C012A15D1820807211000884327D19200AD1AED00FF20A8401B6820339A181168AC4023004B40184004004C40146016E03A22A2
:4014C0009B5EDBB2994203D176210A4800F0A4F8074B1B681B68072215408022120615438022920194466444A400E55070BDC04610080008582B001070B504000D000B4B58
:401500009A680B4B9A420CD1002904D13821FF31084800F081F81034054BA400E058E55003E01034A400044BE05870BD00ED00E000000008582B001000000010F0B547468C
:4015400080B482B0061E01914AD04368032B03D93221264800F060F80023F05E002804DBB178FFF78DFF002400E0214C0023F15E7368002912DB88081E4FC0308000C559F5
:4015800003221140C900FC3290468A4095439A01434613408B402B43C35116E089B20F220A40083A92080632920013481018476803221140C900FF252A008A4097439A0132
:4015C0002B0013408B403B4343600B4B9A680B4B9A4206D10023F05E0199FFF78DFF00E0034C200002B004BC9046F0BD582B00100100560000E100E000ED00E000000008CF
:4016000010B5034B1B78584300F0BEF810BDC046D400000801BEFEE770B50D00044C18220100200000F039FCA5610020FFF7F2FF00060008054B802212069A649B6C002B19
:4016400001DB002000E002487047C0460000274003004600054B8022120198585B68FF221A4202D08023DB021843704700002640FEE7C04610B50A4B0268DA6142681A6208
:4016800082685A62C2689A620269DA6242691A6382695A63C2699A63FFF7EAFF10BDC04600060008F0B5474680B4002801D0192300E064238B429B415B42304D2C6822681C
:4016C000A826A45BA41822680327BA433B401A4322602C682268A45BA2181668284CA046264016602C682668AA229446A25A96193268BA43134333602A6813686546525B73
:40170000D3181A68444614401C60002805D010291BD921291BD8012024E0184B1B6855229A5C914215D956229A5C914213D957229A5C914211D958229A5C91420FD9592243
:401740009B5C99420DD804200CE000200AE0022008E0002006E0012004E0022002E0032000E00520054A1268526813680F218B430343136004BC9046F0BDC0461008000839
:40178000FFFCFFFF000000000230800803D001300238FCD1C046C0467047EFF3108072B6704780F31088704710B5B0235B059B899BB2002B04D0B0235B059B899BB201E0A8
:4017C00080235B0080225200934215D1184C23681968683A9B58C9180B680F208343963A13430B6021680C689C23CB58E318196881430A431A6019E00D4C2368196898225F
:401800009B58C918B02040050A4BC2580A4B13400A681343C022920013430B60226811689C23D358CB18054A82581A6010BDC0461008000848180000FFFCFFFF4418000090
:4018400030B5B0235B059B899BB2002B04D0B0235B059B899BB201E080235B0080225200934215D1184C23681968683A9B58C9180B680F208343953A13430B6021680C68D3
:401880009C23CB58E318196881430A431A6019E00D4D2B68196898229B58C918B0246405C12040012258094B13400A681343C022920013430B602A6811689C23D358CB18F5
:4018C00022581A6030BDC04610080008FFFCFFFFB0235B059B899BB2002B04D0B0235B059B899BB201E080235B008022520093420DD1104B1B681A6898215B58D2181168EC
:401900000D4B0B40C021C9010B43136011E0094B1B68196898229B58C918084BB0225205D258074B13400A681343C022920013430B60704710080008FF8FFFFF18180000E6
:40194000FFFCFFFF30B5B0235B059B899BB2002B04D0B0235B059B899BB201E080235B008022520093420DD1134B1B681A6898215B58D2181168114B0B408021C9010B432A
:40198000136018E00C4D2B68196898229B58C918B02464050A4822580A4B13400A681343C022920013430B602A6811689C23D358CB1822581A6030BD10080008FF8FFFFFAE
:4019C0004C180000FFFCFFFF10B5B0235B059B899BB2002B04D0B0235B059B899BB201E080235B0080225200934217D10020FFF7FFFCB0235B055B78002B04D0B0235B05A5
:401A00005B78DBB200E02123222B03D8002803D1013004E0012002E0002000E0012010BDF8B50700012803D93D493E48FFF7F4FDB0235B055B78002B04D0B0235B055B7841
:401A4000DBB200E021239DB2B0235B059B899BB2002B04D0B0235B059E89B6B201E0802676000020FFF7C4FC002814D180235B009E4212D1222D12D82B4B1B685C682B48F7
:401A800021582B4B19403B068022520413400B432350002404E0274C02E0264C00E0254C80235B009E4201D1222D03D880235B009E4232D01C4B1A683123D35C002B04D14B
:401AC000C421FF311C48FFF7A7FD174B1B681D6A80235B009E4203D1002F05D0174A06E0002F03D0164A02E0164A00E0164A01212800FFF779F900280FD10B4B1A68B4231D
:401B0000D3585B191B68002BF7DBEB681B0E1B06A0221206934200D100242000F8BDC0464C0A00009C2B00101008000818F00000FFFFFFFE040042009829001001010030D1
:401B40000300000C010000300100000CF8B50500012804D9822109012948FFF75DFDFFF733FF002849D0FFF718FE0700002D11D10021244B244AD150E823DB00B022520539
:401B8000D65CF6B20120FFF74BFF041E19D1FFF70BFE16E0B02252051C4BD0581A4B194958501B49565CF6B21A481A581F218A4314390A431A500320FFF722FDFFF7C2FE31
:401BC0000024002C15D11049124A8B581F20834306401E438E50002D02D1FFF779FE08E00720FFF70DFDFFF72BFE0020FFF718FF04003800FFF7D5FD00E0074C2000F8BDB9
:401C00009C2B0010307F00000000264010180000410700001CFF000003004200042805D10B4A116804230B4313600FE0094B1A681168A023D358CB180006C0229204104053
:401C40001860034A136804218B4313607047C04610E000E010080008F0B54F464646C0B483B006000D0000921F00012B03D95B212B48FFF7D1FC330B03D05C212848FFF732
:401C8000CBFC284B1A686E23D35A9B08013B264A13432A009A4301D16B0003D45D212048FFF7BAFC32006A40F0231B011A40141E2FD1FFF772FD01901A4B18686C23C15A3C
:401CC00083689C4661446E23C35A9A08013A2A40920090466A22825A15402D0A5D432A00424455182A68920A9202FF231E40009B002B01D00134FF3426437F0280239B00FB
:401D00001F403E4316432E600198FFF74AFD002000E0064803B00CBC90469946F0BDC046DC2B001010080008000F00400100CE000749C02252008B589B009B088020C00576
:401D400003438B508B588020000603438B50704700002640014B18607047C04610080008002243088B4274D303098B425FD3030A8B4244D3030B8B4228D3030C8B420DD3CB
:401D8000FF22090212BA030C8B4202D31212090265D0030B8B4219D300E0090AC30B8B4201D3CB03C01A5241830B8B4201D38B03C01A5241430B8B4201D34B03C01A5241DE
:401DC000030B8B4201D30B03C01A5241C30A8B4201D3CB02C01A5241830A8B4201D38B02C01A5241430A8B4201D34B02C01A5241030A8B4201D30B02C01A5241CDD2C309AE
:401E00008B4201D3CB01C01A524183098B4201D38B01C01A524143098B4201D34B01C01A524103098B4201D30B01C01A5241C3088B4201D3CB00C01A524183088B4201D306
:401E40008B00C01A524143088B4201D34B00C01A5241411A00D20146524110467047FFE701B5002000F006F802BDC0460029F7D076E770477047C046002310B59A4203D0EB
:401E8000CC5CC4540133F9E710BD03008218934202D019700133FAE77047030030B5002A0DD00C7801335D1E013A2C700131002CF5D19A189A4202D01C700133FAE730BD5D
:401EC000F8B5C046F8BC08BC9E467047F8B5C046F8BC08BC9E4670470300000001000000010000000000000005036000040000000100000000000000010000000604600079
:401F000008000000C8070008A50100100020344074008020344074000022344074008022344074000024344074008024344074000026344074008026344074000028344018
:401F40007400802834407400002A34407400802A3440740000213440682000109000000000233440F8200010900000000025344088210010900000000027344018220010E6
:401F80009000000000293440A822001090000000002B3440382300109000000000603440C82300107C00000080603440442400107C00000000613440C02400107C00000018
:401FC000806134403C2500107C00000000623440B82500107C00000080623440342600107C00000000633440B02600107C000000806334402C2700107C00000000643440DD
:40200000A82700107C00000080643440242800107C00000000653440A02800107C000000806534401C2900107C000000BAC0DC04E301EC0C000110010322344001713440F7
:4020400002783440200000000000000000000000000066000000000000000000000000000000000000030000000000000000000000000004FFFFFFFFFFFFFFFFFFFFFFFFF1
:40208000FFFFFFFFFFFFFFFFFF000000FFFFFFFFFFFFFFFFFFFFFFFFFFFFFFFFFFFFFFFFFF000000000000000000000000000000070600000000000000000060FFFFFFFFD5
:4020C000FFFFFFFFFFFFFBFF1111111111111111111111111111111111111111111111111111111111111111111111111011111111111111111101110000040000000000C9
:4021000000000000FFFFF34FFFFFFFFFFFFFFFFFFFFFFFFFF7FFFFFFF6000000FFFFFFFFFFFFFFFFFFFFFFFFFFFFFFFFFFFFFFFFFF00000000001F000000001F0000000058
:40214000000000000000000000000000FFFFFFFFFFFFFFFFFFFFFFFF111111111111111111111111111101111111111111111111131111111111111811111111111111914A
:402180001110111011111111000002600000000000020000FFFFFFFFFFFFFFFFFFFFFFFFFFFFFFFFFFFFFFFFF2000000FFFFFFFFFFFFFFFFFFFFFFFFFFFFFFFFFFFFFFFF6B
:4021C000FF0000000E1F0700061F001F0D00001F001F1F000000F00000000000FFFFFFDFFFFFFFFFFFFFB3FF111111C111111111111111111111111D111111111111111132
:40220000111111111111111111111111111111111111011111111111008080000000000000000004FFFFFF60FFFFFFFFFFFFFFFFFFFFFFFFFFFFFFFFFF000000FFFFFFFFCA
:40224000FFFFFFFFFFFFFFFFFFFFFFFFFFFFFFFFFF000000001F0706001F001F0006001F08001F0000000F0F000000F0FFFFFFFFFFFFFFFFFFFFFBFF111111111111011143
:4022800011111111111111111111111111111111111111111111111111111111101111111111011111111011200498920000000000000000FFFFFFFFFFFFFFFFFFFFFFFF46
:4022C000FFFFFFFFFFFFFFFFFF000000FFFFFFFFFFFFFFFFFFFFFFFFFFFFFFFFFFFFFFFFFF0000001F001F1F1F1F001F071F00001F1F0C1F0000F000000F0000FFDFFFFFD8
:40230000FFFFFFFFFFFEDF6F111111111111111111111111111111111111111111111111111111111111111111111111111111111111111111111111000002900000000094
:4023400000000000FFFF7FF76766FFFFF6FFFFFFFFFFF7771FFFFFFF7F000000FFFFFFFFFFFFFFFFFFFFFFFFFFFFFFFFFFFFFFFFFF000000061F001F001F001F00000000B7
:402380001F07001F0006000000000000FFFFFFFFFFFFFFFFFFFFFFFF11111B1111111111111111111111111111111111111111111111111111111111111111111311181123
:4023C000E11291E11297E16200000000000000001F1F1F1F1F1F1F1F1F1F1F1F1F1F1F1F1F1F1F1F1F1F1F1F1F1F1F1F1F1F1F1F00000000000000000000000000000000AC
:402400000000000000000000FFFFFFFFFFFFFFFFFFFFFFFF1111111111111111111111111111111111111111111111111111111111111111111111111111111111111111BC
:402440001111111100000000000000001F1F1F1F1F1F1F1F1F1F1F1F1F1F1F1F1F1F1F1F1F1F1F1F1F1F1F1F1F1F1F1F00001F000000000F0000000000000000000000000A
:4024800000000000BFFFFFFFFFFFFFFFFFFFFFFF11111111111111111111111111111111111111111111111111111111111111111111111111111111111111111111111138
:4024C00000000000000000201F1F1F1F1F1F1F1F1F1F1F0C1F1F1F1F1F1F1F1F1F1F1F1F171F1F141F1F1F1F001F00001F0F000F1F0000060C000000050000000070000000
:40250000FFFFFFFFFFFFFFFFFFFFBFFF111111101711111111111111111111111111111111111111111111D11111111111E111181111111111D11111EEB1111100000800D6
:40254000000000001F1F1F1F1F1F1F1F1F1F1F1F1F1F1F1F1F1F1F1F1F1F1F1F1F1F1F1F1F0D1F1F000E0000000F001F0000000000000E0000000707007000F0FFFFFFFFD9
:40258000FFFFFFFFFFFFFFFF11111110D1111111111111111111111111111111111111111111111111D111111111111D11111111111111F0E1C111F1000000000000000029
:4025C0001F1F1F1F1F1F1F1F1F1F1F1F1F1F1F1F1F1F1F1F1F1F1F1F1F1F1F1F1F1F1F1F0E000E1F1F0F001F1F0000001F0F1F000000F000000F0000FFFFFFFFFFFFFEFD13
:40260000F7FFBFFF111111111111111111111111111111111111111111111111111111111111111111111111F111111E111111D1111D11E100000000000000041F1F1F1FAD
:402640001F1F1F0C1F1F1F1F1F1F1F1F1F1F1F0F1F1F1F1F1F1F1F1F1F1F1F1F001F000000070007000006071F00071F005F004000000000FFFFFFFFFFFFFFFFFFEFFFFE18
:40268000111111D11111111111111111111111111111111111111111101111110111111111011111E6111111111ED1E0D119111E00000000000000001F1F1F1F1F1F1F1F0D
:4026C0001F1F1F1F1F1F1F1F1F1F1F1F1F1F1F1F1F1F1F1F1F1F1F1F000000000000000000000000001F000000000000000000F0FFFFFFFFFFFFFFFFFFFFFFFF11111111AB
:4027000011111111111111111111111111111111111111111111111111111D1111111111111111111111E1111111111100000000000000001F1F1F1F1F1F1F1F071F1F1F75
:402740001F1F1F0D1F1F1F1F1F1F1F171F1F1F1F1F1F1F1F00000F000000001F00000000000000000000000000000000FFFFFFFFFFFFFFFFFFFFFFFF11111111111111115D
:40278000111111111711111111111111111111111111111111111F11111111E111111111111111111111010100000000000040061F1F1F1F1F1F1F1F1F1F1F1F1F1F1F1F77
:4027C0001F1F1F1F1F1F1F1F170F1F1F1F1F1F1F1F051F060000001F000000000A06040D0000000000000000FFFFFFFFFFFFDFFFBFDFFB5F111111111111111111111111DC
:4028000011111111111111111111111111111111711111111111171111111111110111111011111100002000000000101F1F1F1F1F1F1F1F1F1F1F1F1F1F1F1F1F1F1F1F43
:402840001F1F1F1F1F1F1F1F1F1F1F1F001F001F001F000C001F0D1F1F001F0000005F0F00000060FFFFFFFFFFFFFFFFFFFFF7FE11111111E1111111111111111111111159
:4028800011111111111111111111111111111111D111111110D1111111111EE1111DE1EE00000000000000001F1F1F1F1F1F1F1F1F1F1F1F1F1F1F1F1F1F1F1F1F1F1F1FFB
:4028C0001F1F1F1F1F1F1F1F1F00000F0800000F000E00000F00000F0000700000070000FFFFFFFFFFFFFFFFFFFEFFFF1111111111111111111111111111111111111111B1
:402900001111111111111115111111111111111111111111111111F1111F111100000000000000501F1F1F1F1F1F1F1F1F1F1F1F1F1F1F1F1F1F1F1F1F1F1F1F1F1F1F1F15
:402940001F1F1F1F1F0700000000000000000000061F0C070000000000000000FFFFFFFFFFFFFFFFFFFFFBBE11111111111111111111111111111111111111111111111136
:4029800011111111111111111111111111111111111111111111111147656E6572617465645F536F757263655C50536F43365C70646C5C647269766572732F7065726970F3
:4029C000686572616C2F6970632F63795F6970635F6472762E68000047656E6572617465645F536F757263655C50536F43365C70646C5C647269766572735C7065726970C0
:402A0000686572616C5C6770696F5C63795F6770696F2E630000000047656E6572617465645F536F757263655C50536F43365C70646C5C647269766572735C7065726970EF
:402A4000686572616C5C6770696F5C63795F6770696F2E680000000047656E6572617465645F536F757263655C50536F43365C70646C5C647269766572735C7065726970AA
:402A8000686572616C5C6970635C63795F6970635F6472762E68000047656E6572617465645F536F757263655C50536F43365C70646C5C647269766572735C7065726970A5
:402AC000686572616C5C6970635C63795F6970635F6472762E63000047656E6572617465645F536F757263655C50536F43365C70646C5C647269766572735C70657269706A
:402B0000686572616C5C6970635C63795F6970635F706970652E630047656E6572617465645F536F757263655C50536F43365C70646C5C647269766572735C7065726970C7
:402B4000686572616C5C70726F745C63795F70726F742E630000000047656E6572617465645F536F757263655C50536F43365C70646C5C647269766572735C706572697082
:402B8000686572616C5C737973696E745C63795F737973696E742E630000000047656E6572617465645F536F757263655C50536F43365C70646C5C647269766572735C7028
:402BC00065726970686572616C5C737973706D5C63795F737973706D2E63000047656E6572617465645F536F757263655C50536F43365C70646C5C647269766572735C7014
:402C000065726970686572616C5C747269676D75785C63795F747269676D75782E6300000000204000002440000000400000000000002340000030400000314000009F400D
:402C4000000022400000104002020202020202020210101D800017007500FF030602063604102000000000007FC0000000040000000000000019324B647D00804000080B40
:402C8000100000000000FF012002001F00800004FF081018001000140018001C4044484C5000000008100000080000000400000004100000001200000421000000210000C0
:402CC0000016000040114002C41300138013A013200000001C0000000000214000002540000001400000344000002440000031400000324000001F410000234000001140E9
:402D0000010101010101010101101010800019005500F0000501053B04101C01010000000FC000000004000001010101011D3A57789600082000101208000000001F0000FF
:402D40000010000F002000023F06080E00080009000A000B24282C3034000000100000009000000088000000080000008000000004F0000000F00000400200002005A0001A
:402D8000D00100018001A0012000000010000000000000000000001000000008C0000000B42D0010C0000008400500003C060008D80100000048E80100127A0000093D00F3
:402DC00000093D0000093D0004000000A00F00000000D007E9000010C10000100000000010B50004400B27D0144B1A68146AB023D15ACA00531AE3181B68002BF4DA3E227D
:402E00000F4B1A600F4A104B1A60104B0621A322D20099500E4A98509B58084B1A68106AB023D15ACA00531AC31800225A60084B064AD358002BFADA10BDC0461008000860
:402E4000040126401E1F000008012640000026401C05000010B54378FF2B20D100F022FA04000F4B1A683123D35C042B04D8C421FF310C4800F00EFA094B1A68116AB0231A
:402E8000D35A9B00CB18DB685A68116801230B4313601368DB07FCD4200000F0F3F910BD1008000898290010F0B585B001900291544B1A683123D35C002B04D1C421FF3166
:402EC000514800F0E7F94F4B1B681E6AB4229A58971950229B5C002B77D000F0C3F9050003283CD1474B1A683123D35C062B04D8C421FF31444800F0CDF9424B1968B023AC
:402F0000CB5A5A00D21853000A6A94466344B4228A58D3181B68002B23DB002000F0E2F93A4B98421FD03A4B1A6900230021012000F0D0F9002803D0364C17E0013400E0A9
:402F40000024002000F0CEF9304B984202D0324B9C42F3D9304B9C4207D92E4C06E0002404E02C4C02E02B4C00E00024002C46D100F098F90390294B294AD358002B13DA11
:402F8000234A0121300000F075F900280ED10298FFF726FF019B002B0AD03B68002BFCDB00F088F9040004E01A4C02E0194C00E01C4C032D05D10121002000F083F90028C8
:402FC000F9D1039800F05EF919E000F06BF905000F4A0121300000F04DF9002809D1019B002B08D03B68002BFCDB00F063F9040002E0084C00E00B4C280000F043F920007B
:4030000005B0F0BD100800089829001001018800E807000805005200EF4902001C0500000000264001005000F0B54F464646C0B4824B1A685468B0235B055B78002B04D009
:40304000B0235B055B78DBB200E02123212B67D1B023D15ACB005B1A116A8C46634419680029F5DADD6802212943D960B023D15ACB005B1A116A8C466344D968C9073ED507
:40308000D9680904090C8C4684271168D559A84641440968090A0904FF26360431400D0088261168894691598846C14449460968090A0906294365462943D9601168D35972
:4030C000C9180A685E4B98461A4090252D012A430A605A4B99461A6813689C46925962441368414619400B002B4313604B461A681568D15969180B689359EB181B684F4BED
:403100001A68B021555AEB005B1B156AAC46634400255D60156A515ACA00531AEB185B68484A116904230B431361012801D030BF00E020BF414B1A68B023D15ACB005B1A22
:40314000116A8C46634419680029F3DAB02149054978002904D0B02149054978C9B200E02121212932D1D968C90722D510688421525880180468324A1440DB681B0C1B0213
:40318000FF2109020B40234303602C4B19688823C8580B689C46604403681A400D6AB023CC5AE1000B1BEB18DB681B0E1B021A430260224B1A68106AB023D15ACA00531AEF
:4031C000C318DA6802218A43DA6028E086235B00E358002B23D11C4807681C4BA321C9005E581B4A904615681A4A0260062058503E21424611600631174A9950164B134AC2
:40320000D358002BFADA154A86235B00E2500E4B1F60A323DB000D4AD6500D4B1D60074B1A68106AB023D15ACA00531AC31800225A600CBC90469946F0BDC046100800087A
:40324000FF00FFFF00ED00E00801264000002640040126401E1F00001C050000AAAAAAAA0000000001B40248844601BC604700BF2904001001B40248844601BC604700BF29
:40328000E90D001001B40248844601BC604700BFA317001001B40248844601BC604700BF1916001001B40248844601BC604700BF9B17001001B40248844601BC604700BF8D
:4032C000E908001001B40248844601BC604700BF750F001001B40248844601BC604700BFE511001001B40248844601BC604700BF011000100000000000000000000000004E
:40330000000000000000000000000000000000000000000000000000000000000000000000000000000000000000000000000000000000000000000000000000000000008D
:40334000000000000000000000000000000000000000000000000000000000000000000000000000000000000000000000000000000000000000000000000000000000004D
:40338000000000000000000000000000000000000000000000000000000000000000000000000000000000000000000000000000000000000000000000000000000000000D
:4033C00000000000000000000000000000000000000000000000000000000000000000000000000000000000000000000000000000000000000000000000000000000000CD
:020000041008E2
:4000000000780408EB0208100D00000051030810510308105103081051030810000000000000000000000000000000004D0308104D030810000000004D0308104D030810DA
:400040004D0308104D0308104D0308104D0308104D0308104D0308104D0308104D0308104D0308104D0308104D0308104D0308104D0308104D0308104D0308104D03081000
:400080004D0308104D0308104D0308104D0308104D0308104D0308104D0308104D0308104D0308104D0308104D0308104D0308104D0308104D0308104D0308104D030810C0
:4000C0004D0308104D0308104D0308104D0308104D0308104D0308104D0308104D0308104D0308104D0308104D0308104D0308104D0308104D0308104D0308104D03081080
:400100004D0308104D0308104D0308104D0308104D0308104D0308104D0308104D0308104D0308104D0308104D0308104D0308104D0308104D0308104D0308104D0308103F
:400140004D0308104D0308104D0308104D0308104D0308104D0308104D0308104D0308104D0308104D0308104D0308104D0308104D0308104D0308104D0308104D030810FF
:400180004D0308104D0308104D0308104D0308104D0308104D0308104D0308104D0308104D0308104D0308104D0308104D0308104D0308104D0308104D0308104D030810BF
:4001C0004D0308104D0308104D0308104D0308104D0308104D0308104D0308104D0308104D0308104D0308104D0308104D0308104D0308104D0308104D0308104D0308107F
:400200004D0308104D0308104D0308104D0308104D0308104D0308104D0308104D0308104D0308104D0308104D0308104D0308104D0308104D0308104D0308104D0308103E
:400240004D0308104D0308104D0308104D0308104D0308104D0308104D0308104D0308104D0308104D0308104D0308104D0308104D0308104D0308104D0308104D030810FE
:400280004D0308104D0308104D03081010B5054C237833B9044B13B10448AFF300800123237010BDE448020800000000FC110810084B10B51BB108490848AFF30080084812
:4002C000036803B910BD074B002BFBD0BDE81040184700BF00000000E8480208FC110810B4420208000000007047FFF7FDFF72B6104C114DAC4209DA21686268A368043B57
:40030000A2BFC858D050FAE70C34F3E70B490C4A00209142BCBF41F8040BFAE709480A490860BFF34F8F00F017F900F0F1F800F01DF8FEE70012081018120810E4480208DF
:40034000E84A02080040020808ED00E0FEE7FEE700B504207146084202D0EFF3098001E0EFF30880043000F043FDFEE70020704708B5012000F0B6FC08BD00BF704700BF5C
:400380005C4AD2F8803303F00F0303F1D00152F8212002F00702032A04D0042A05D092B9554914E0554A116811E003F1C002514951F8222002F01F02112A06D0132A04D0D0
:4003C0004FF4FA4103E04E4901E04FF400418BBB484BD3F8902502F00100D3F88825C2F30172D3F8883513F0405F07D0414BD3F88835C3F30173012B02D102E0012300E090
:40040000002303B108B9032A46D13A48D0F88025C2F31103D0F88425C2F30C02D0F88005C0F300600130B1FBF2F202FB03F2B2FBF0F131E0012B2FD12E4BD3F8402602F07A
:400440000100D3F80026C2F30172D3F8003613F0405F07D0274BD3F80036C3F30173012B02D102E0012300E0002303B108B9032A12D12048D0F8002602F07F02D0F80036F7
:40048000C3F30423D0F80006C0F3044002FB01F2B2FBF3F2B2FBF0F1164BD3F88033C3F3011321FA03F215494A601648D0F89030C3F3072301330069000E0130B2FBF0F09A
:4004C0008860B2FBF3F3CB600B6103F5742202F23F220D48A0FB0202C2F387420A7503F2E7330A4AA2FB03239B098B61DB03CB61704700BF0000264000127A008C42020816
:4005000000366E010000214083DE1B43D34D621008B50D4800F0D0FCFFF730FFFFF730FF00221146042000F0A5F9084800F038FA074B1B6893F8513013B1064800F0A0FA32
:4005400000F0E2F808BD00BF4411081000490208E44A0208140F081008B500F0A6FC074AD2F8883043F47003C2F88830BFF34F8FBFF36F8F00F09DFC08BD00BF00ED00E0A2
:400580001F4B98422DD00CD840282ED003D8E8B1102828D02FE0802829D0B0F5807F28D029E0184B984228D006D8B0F1204F0DD0154B984212D01EE0144B98420AD0013356
:4005C000984209D0023B984215D101E0002070470F4870470F4870470F4870474FF4A0007047074870470D4870470D4870470D487047034870470C4870474FF4A4007047FA
:4006000006005200010000F0090000A0040000F0010052000200520003005200010050000200500005005200FF00520038B5124B1B6893F83130012B04D840F2C3110F486F
:4006400000F0C6FB0C4B1D682A6AB5F8B03013442C46D5F8B420D358002B0BDB084B1868FFF78EFF6B6801229A6063689B68002BFBD138BD034838BDE44A0208480F08103F
:40068000804A0208020050001A4B186128B102230370FF23437000234380174B1B6893F850202AB300B583B0B3F93830ADF80030002301931149684600F04EFBBDF900309E
:4006C000002B08DB590903F01F03012202FA03F30B4A42F82130084B1B6893F8513023B102220849012000F077FA03B05DF804FB704700BF804A0208E44A020825430208D8
:4007000000E100E0DD43020808B50248FFF7BCFF08BD00BF944A020838B50B4B1B68D3F8B4301B58002B0DDA0D4604460B0C1B0423B140F2D521054800F04AFBA9B2616043
:40074000002038BD024838BDE44A0208880F081001008A0038B50368002B01DA002300E0094B73B90D460446C2600B0C1B0423B140F2BB21054800F02BFBA9B2A16000201C
:4007800038BD014838BD00BF01008A00880F081038B504460D4619B99921084800F018FB074B1B68D3F8B4301B59002B03DAE3682B60002038BD034838BD00BFC80F0810CB
:4007C000E44A020801008A00254B1B6893F8313083423AD900293AD00B6813F01F0F38D170B50D4604461E4B1B6893F83130984204D340F2C3111B4800F0EAFA184B1B6831
:40080000186AB3F8B03004FB0304174E34602A68D2080021686800F055FB00212046FFF77BFF346825B940F293310E4800F0D0FA2A4600212046FFF78DFF60B900210A4B90
:400840001868FFF769FF40B970BD084870470748704706487047064870BD054870BD00BFE44A0208880F0810984A020803018A0001018A0010B504461346B2B9A9B9124B2F
:400880001B6893F83130984204D340F2C3110F4800F09EFA0C4B1B681A6AB3F8B03004FB03240B4B1C60002010BD43B149B1084A51609360111D2046FFF786FF10BD054858
:4008C00010BD044810BD00BFE44A0208880F0810984A020803018A002DE9F0411B4B1B68DC68236883422CD90D464609A0EB4610012303FA00F819B900F0D7FA074600E0CD
:400900000027124B18680368002B01DA002300E00F4B83B9626852F8263018EA030F05D023EA080342F82630002400E0094C0021FFF7F2FE00E0084C25B9384600F0B9FA1B
:4009400000E0064C2046BDE8F08100BF984A020801008A00020188000301880004018A000B4B1B68DB681A6882420CD94109A0EB4110012202FA00F05B6853F821301842B8
:4009800003D004487047044870470448704700BF984A02080101880004018A0000018800024B1B680BB9014B18607047A44A02082DE9F8430446884691461D46089F2C4B46
:4009C0001B681BB9B5212B4800F002FA284B1B682C2000FB04F01C18EEB21E50C5F3072363602D0CA560244B1B6893F831309E4204D340F2C311214800F0EAF91E4B1B6852
:400A0000196AB3F8B02006FB02162661666893F832309E4204D340F2DF11184800F0D8F9154B1B681D6A803605EB46156561A668330C1B0423B14FF4FF71104800F0C8F936
:400A4000330C1B0423B140F2FF110C4800F0C0F9B3B243EA0646AE60C4F81C90C4F820800023A36117B1B7F90030A381BDE8F883A44A020808100810E44A0208880F081033
:400A8000F0B58FB0044618B95221274800F0A0F9A369072B03D95621234800F099F9E36A1BB95821204800F093F9236B1BB959211D4800F08DF907AD04F114060FCE0FC5A5
:400AC00037682F6002AD26460FCE0FC533682B60164B1B68B3F93620079B1344ADF83030089B0D93A26AE16A0CAD00953B460A98FFF75EFF00210091069B0A460598FFF75E
:400B000057FF216B284600F027F9BDF93030002B08DB590903F01F03012202FA03F3044A42F821300FB0F0BD08100810E44A020800E100E0F8B506460F461D4614461AB959
:400B4000FD211F4800F044F91E4B1B681BB9FE211B4800F03DF91B4B1B682C2101FB063001FB07314B68012202FA03F31B04466802FA06F60269EAB18F69EFB91268002AE8
:400B800001DA002200E0104AC2B92288134323600369DC6001238B614D620469330C1B0423B140F2BB21094800F012F9B2B2A2600020F8BD0648F8BD0648F8BD0548F8BD5D
:400BC00008100810A44A020801008A00880F081004028A0007028A00F8B505460F4616460E4B1B6823B94FF4AF710D4800F0F0F80A4B1B682C2404FB0534236A23B94FF473
:400C0000B171074800F0E4F8E369B34204D9236A43F826700020F8BD0248F8BDA44A0208081008100A028A0070B582B000230193044620B940F2D111284800F0C9F8236977
:400C400023B94FF4E971254800F0C2F8636923B940F2D311214800F0BBF8236A23B94FF4EA711E4800F0B4F86369DD682A0C20D012041A601B682069194B1B68D3F8B430A8
:400C8000C358002B15DA01A9FFF782FD60B9019803681E0CDBB2E269934206D2226A52F8233013B1984700E0002631462069FFF733FDADB275B16369ADB21D601B68636A9F
:400CC0001BB198470023636202E0A36A03B198470023A36163691B6802B070BD08100810E44A020810B50446074B1B6823B940F2B111064800F06CF8034B1B682C2000FBB4
:400D00000430FFF791FF10BDA44A02080810081038B50D4B9A680D4B9A420FD10D46044621B940F237110A4800F052F804F11003064A52F8230042F8235038BD1030054B35
:400D400053F8200038BD00BF00ED00E000400208481008100000081048B338B504460D464368072B03D93221134800F031F8B4F900306268002B08DB5201D2B203F160438D
:400D800003F5614383F8002305E003F00F035201D2B20A49CA540A4B9A680A4B9A4208D12946B4F90000FFF7B3FF002038BD06487047002038BD00BF4810081014ED00E063
:400DC00000ED00E0004002080100560001BEFEE738B50D46044C18220146204600F07AF8A5610020FFF7F2FF50480208FEE700BF08B50268254BDA6142681A6282685A6217
:400E0000C2689A620269DA6242691A6382695A63C2699A631E4A916AD963D16A1964516A5964516B9964926BDA64F1EE103A13F0900F27D0026A154B1A65426A5A65826AC6
:400E40009A65C26ADA65026B1A66426B5A66826B9A66C26BDA66026C1A67426C5A67826C9A67C26CDA67026DC3F88020426DC3F88420826DC3F88820C26DC3F88C20026E68
:400E8000C3F89020FFF7B2FF08BD00BF5048020800ED00E0000000000230800803D001300238FCD100BF00BF7047EFF3108072B6704780F310887047014B1860704700BFE6
:400EC000E44A020802440346934202D003F8011BFAE7704710B5034642B111F8014B03F8014B013A002CF7D11A4400E010BD934202D003F8014BFAE710BD0000F8B500BFF6
:400F0000F8BC08BC9E467047F8B500BFF8BC08BC9E46704703000000010000000100000000000000050360000400000001000000000000000100000006046000080000003A
:400F4000604A02087103081047656E6572617465645F536F757263655C50536F43365C70646C5C647269766572732F7065726970686572616C2F6970632F63795F69706388
:400F80005F6472762E68000047656E6572617465645F536F757263655C50536F43365C70646C5C647269766572735C7065726970686572616C5C6970635C63795F697063C0
:400FC0005F6472762E68000047656E6572617465645F536F757263655C50536F43365C70646C5C647269766572735C7065726970686572616C5C6970635C63795F69706380
:401000005F6472762E63000047656E6572617465645F536F757263655C50536F43365C70646C5C647269766572735C7065726970686572616C5C6970635C63795F69706344
:401040005F706970652E630047656E6572617465645F536F757263655C50536F43365C70646C5C647269766572735C7065726970686572616C5C737973696E745C63795F70
:40108000737973696E742E63000000000000204000002440000000400000000000002340000030400000314000009F40000022400000104002020202020202020210101DCD
:4010C000800017007500FF030602063604102000000000007FC0000000040000000000000019324B647D00804000080B100000000000FF012002001F00800004FF081018D9
:40110000001000140018001C4044484C50000000081000000800000004000000041000000012000004210000002100000016000040114002C41300138013A0132000000066
:401140001C0000000000214000002540000001400000344000002440000031400000324000001F410000234000001140010101010101010101101010800019005500F00066
:401180000501053B04101C01010000000FC000000004000001010101011D3A57789600082000101208000000001F00000010000F002000023F06080E00080009000A000BF0
:4011C00024282C3034000000100000009000000088000000080000008000000004F0000000F00000400200002005A000D00100018001A00120000000100000000000000054
:4012000000000810004002088C020000201208108C420208C4050000E4480208040200000048E80100127A0000093D0000127A0000127A0008000000401F00000000A00F66
:40124000B10208108D0208100000000080B2C10050B3164B1B681A6AB3F8B030C3EBC303D358002BF5DA3E22114B1A6041F61E7204331A60A3F584730622C3F8182521F00C
:401280007F41C3F81C15D3F81C35084B1A68116AB2F8B030C3EBC3030B4400225A60054BD3F81C35002BFADA704700BFE44A02080401264000002640F8B5274B1B6893F8D6
:4012C0003130052B04D840F2C311244800F04AFA214F3A68166AB2F8B03003EB83031E4452684FF26003D458A4B200F053FA05463B681968D3F890208A58013C032C27D895
:40130000032A0CD1164A127812F0FF0F07D10822B2601968D3F890208A58032AF9D01968D3F884208B588858C0F307221B0E581C02FB00000B4B03FB00F00B4B1B680B4A26
:40134000A2FB03239B09B0FBF3F08230FFF77EFF284600F00FFAF8BDE44A0208480F08100B00001640420F0090420208D34D62104378FF2B23D110B500F00CFA0446104B37
:401380001B6893F83130042B04D840F2C3110D4800F0E8F90A4B1A68136AB2F8B02003EB8203DB685A68136843F001031360136813F0010FFBD1204600F0DCF910BD704713
:4013C000E44A0208480F08102DE9F04707468846554B1B6893F83130012B04D840F2C311524800F0BFF9504B1B681C6AB3F8B0201444D3F8B420161993F85030002B79D0BB
:401400004B4B1B7813F0FF0F02D04FF0000901E04FF00109B9F1000F38D0434B1B6893F83130052B04D840F2C311404800F09AF93D4B1A68116AB2F8B03003EB83030B4481
:40144000D2F8B420D358002B22DB002000F09AF9384B98421ED00023374A12690121184600F0A0F918B1354D17E0013500E00025002000F087F92F4B984202D0304B9D42D8
:40148000F3D92F4B9D4207D92C4D06E0002504E02A4D02E0294D00E00025002D41D100F079F98246274BD3F81C35002B10DA224A0121204600F07EF960B94046FFF7C6FE2B
:4014C00057B13368002BFCDB00F07CF9054604E01A4D02E0194D00E01B4DB9F1000F05D00121002000F076F90028F9D1504600F041F916E000F04EF980460F4A0121204607
:4015000000F058F938B947B13368002BFCDB00F059F9054602E0094D00E00B4D404600F029F92846BDE8F087E44A0208480F08100B00001601018800804A02080500520048
:40154000EF4902000000264001005000F0B47F4B1A6855684FF0B0535B7813F0FF0F04D04FF0B0535B78DBB200E02123212B55D1116AB2F8B030C3EBC303CC18CB58002BF0
:40158000F6DAE36843F00103E360146AB2F8B030C3EBC3031C44E36813F0020F2DD0E3689EB21368D2F884105958090A090401F47F01D2F88870DB591B0A41EA0363334382
:4015C000E3601168D2F884208B5823F47F4343F410638B505D4A13681C68D3F88810635823F47F4343F41063635013681A68D3F884105158D3F88830D358544B1A68116A37
:40160000B2F8B030C3EBC3030B4400215960116AB2F8B030C3EBC3030B445B684B4B19680C68D1F894301C44494A136943F004031361012801D030BF07E020BF454B1B78F1
:4016400003B120BF0122434B1A70236803F00303022BE9D00A6AB1F8B030C3EBC303D018D358002BF6DA4FF0B0535B7813F0FF0F04D04FF0B0535B78DBB200E02123212BA7
:4016800030D1C36813F0020F1FD00C68D1F88410635823F47F42C3681B0C1B0203F47F4313436350294B19680C68D1F88800235823F47F420D6AB1F8B030C3EBC3032B4476
:4016C000DB681B0E42EA03232350204B1A68136AB2F8B020C2EBC2021344DA6822F00102DA6026E0D5F80C311BBB1B490E681B4BD3F818451A4A106841F61E770F600621F0
:40170000C3F818153E2111604422C3F81C25134BD3F81C35002BFADA4FF0AA33C5F80C310D4B1E60A3F58473C3F8184503F582731860064B1A68116AB2F8B030C3EBC303D2
:401740000B4400225A60F0BC704700BFE44A020800ED00E0A84A020808012640000026400401264001B40248844601BC604700BFD10D081001B40248844601BC604700BF0D
:40178000B30E081001B40248844601BC604700BF6109081001B40248844601BC604700BFAB0E081001B40248844601BC604700BF350B081001B40248844601BC604700BFF5
:4017C0005507081001B40248844601BC604700BF2D06081001B40248844601BC604700BFD90808100000000000000000000000000000000000000000000000000000000059
:0200000490303A
:020000001E1CC4
:0200000490501A
:0C0000000005E20721002100E21E3F1C69
:00000001FF