:020000041000EA
:4000000000F00308CF0200100D00000035030010350300103503001035030010000000000000000000000000000000003103001031030010000000003103001031030010A7
:400040003103001031030010310300103103001031030010310300103103001031030010310300103103001031030010310300103103001031030010310300103103001040
:400080003103001031030010310300103103001031030010310300103103001031030010310300103103001031030010310300103103001031030010310300103103001000
:4000C00031030010310300103103001031030010310300103103001031030010310300103103001031030010310300103103001031030010310300103103001031030010C0
:40010000310300103103001031030010310300103103001031030010310300103103001031030010310300103103001031030010310300103103001031030010310300107F
:40014000310300103103001031030010310300103103001031030010310300103103001031030010310300103103001031030010310300103103001031030010310300103F
:4001800031030010310300103103001031030010310300103103001031030010310300103103001031030010310300103103001031030010310300103103001031030010FF
:4001C00031030010310300103103001031030010310300103103001031030010310300103103001031030010310300103103001031030010310300103103001031030010BF
:40020000310300103103001031030010310300103103001031030010310300103103001031030010310300103103001031030010310300103103001031030010310300107E
:40024000310300103103001031030010310300103103001031030010310300103103001031030010310300103103001031030010310300103103001031030010310300103E
:4002800031030010310300103103001010B5054C237833B9044B13B10448AFF300800123237010BD1C09000800000000242F001008B5034B1BB103490348AFF3008008BDEB
:4002C0000000000020090008242F00107047FFF7FDFF72B6104C114DAC4209DA21686268A368043BA2BFC858D050FAE70C34F3E70B490C4A00209142BCBF41F8040BFAE794
:4003000009480A490860BFF34F8F00F015F900F0EFF800F0CFFBFEE7282F0010402F00101C090008700C00080000000808ED00E0FEE7FEE700B504207146084202D0EFF3E1
:40034000098001E0EFF30880043001F019FBFEE708B5012001F046FA08BD00005D4BD3F8802302F00F0202F1D00153F8213003F00703042B17D8DFE803F00316160508002D
:40038000554B11E0554B1B680EE002F1C003514951F8233003F01F03112B1DD0132B1ED14FF4004300E04E4BB2BB4A4AD2F8900500F00100D2F88815C1F30171D2F88825F0
:4003C00012F0405F0ED0434AD2F88825C2F30172012A08D0002206E04FF40043E4E74FF4FA43E1E7012202B108B9032916D13949D1F88005C0F31100D1F88425C2F30C023B
:40040000D1F88015C1F300610131B3FBF2F300FB03F3B3FBF1F301E0012A2BD02D4AD2F88023C2F30112D3402C4A53602D49D1F89000C0F3072001300969090E0131B3FBCF
:40044000F1F19160B3FBF0F3D360136103F5742101F23F212448A0FB0101C1F38741117503F2E7332149A1FB03139B099361DB03D3617047174AD2F8400600F00100D2F8CE
:400480000016C1F30171D2F8002612F0405F08D0104AD2F80026C2F30172012A02D0002200E0012202B108B90329B7D10949D1F8002602F07F02D1F80006C0F30420D1F8B8
:4004C0000016C1F3044102FB03F3B3FBF0F3B3FBF1F3A3E70000264000127A008C02000800366E010000214083DE1B43D34D621008B50D4801F050FD00F038F9FFF72EFFDA
:4005000000221146042000F00FFF084800F09EFF074B1B6893F8513013B900F023FC08BD044801F013F8F8E76C2E0010380900086C0C00081820001008B501F0E6FA074A01
:40054000D2F8883043F47003C2F88830BFF34F8FBFF36F8F01F0DDFA08BD00BF00ED00E030B50546002214460DE001EB420E11F812C09EF801E00CF800E00132013BDBB27D
:40058000002BF2D10134022C05D855F82400C3B220F0FF00F4E730BD024B034AC3F8002E704700BF00001F410100118010B5664AD2F8003523F0030343F00103C2F80035B2
:4005C000624B1A681068D2F88810425822F47F4242501A681068D2F88410425822F07F4242501A681068D2F88410425822F47F4242501B6893F83E2032B15349D1F88023E6
:4006000022F00F02C1F8802393F83E2032B14E49D1F8802322F03002C1F8802393F83E3033B1494AD2F8803343F00043C2F880330021012001F0EEF80021022001F0EAF8CD
:400640000021032001F0E6F80021042001F0E2F80021084601F0DEF83B4CD4F8043523F4407323F0010343F00103C4F80435D4F8043523F47F03C4F80435D4F8043543F0BD
:400680000043C4F80435D4F8003523F47063C4F80035D4F8003523F4E043C4F80035D4F8003543F40043C4F80035294A136823F440731360002001F0EBFBD4F8803113F0EC
:4006C000010F05D1D4F80C3523F00043C4F80C350821002001F0A6F91C4B1B6893F83F20092A06D993F8711003228A409B68C3F8242C164B1A689468B2F87A002158C9B2F5
:40070000144A0A4322501A689068B2F87A10425822F0F80242501A6892F87330032101FA03F392F8700092F87240A040034392F8710081400B43916843F00043C1F8003430
:400740009368D3F8003410BD000026406C0C00080000274000FF691808B50A46002101F02FFC08BD08B501F01DFC08BD30B58FB040F2DC5001F0DAF89621002001F052F9F2
:4007800000231A46384940F6056001F09DFB00231A46364940F22A7001F096FB34252A46002101A801F00CFC314C01AA0021204600F0E0FA2A46002101A801F001FC01AAE9
:4007C0000121204600F0D6FAFFF7F0FE294B2A4AC3F8F021002409E0284A04EB44014B00D1188988D058FFF7B7FF01340B2CF3D900240AE004EB44039A00204B13441A6DEE
:40080000D96C986CFFF7AEFF0134112CF2D91B4C04F5907104F59670FFF7A2FE184AD2F8003943F00603C2F800392422002101A801F0C6FB01A90E4800F04CFC0DF1040CFD
:4008400004F59C740FCCACE80F000FCCACE80F002368CCF8003001A90A4800F03BFCFFF79BFE0FB030BD00BF0F0E00400107004000003240000021400300FA054C200010E1
:40088000007034400006324070470000014B01221A607047B80A000838B50546274B197193F84230DB0932D11446244B93F8422042F0800283F8422000221A601F4B93F8CB
:4008C000433013F0010F04D01D4B9B6813F0030FF4D01C4B1C4A0121002000F0A1FE58BB164B1B68002BFBD0ACB1022C07D0032C09D0124B93F84230DB09FAD10BE0002051
:4009000001F070F9F5E7002001F03AFAF1E701220A4B83F84020AC460C4C0FCCACE80F000FCCACE80F000FCCACE80F0094E80F008CE80F00284638BD0322E9E7B80A00081D
:40094000000021408D080010AC020008C40A000870B590B005460E4600221B49012000F0B1FE1A4B1A4C221D5A60DA60A66094F8423043F0200384F8423094F842306FF3F5
:40098000C71384F84230012211466846FFF784FFE36BBF2B02D9E36BC12B03D90C4B052283F84020AC460B4C0FCCACE80F000FCCACE80F000FCCACE80F0094E80F008CE88A
:4009C0000F00284610B070BD89080010AC020008B80A0008C40A000810B504460A462021FFF75AFF204610BD10B50446034BD96401220321FFF750FF204610BDB80A000851
:400A000058B50446044EF16432651A463021FFF743FF204658BD00BFB80A000870B590B005460C46214EF164002250216846FFF733FF96F840302BB9237B03F00703022B5B
:400A400013D9FEE7AC4606F10C040FCCACE80F000FCCACE80F000FCCACE80F0094E80F008CE80F00284610B070BD237B03F00703022B13D0012B15D00C4B93F84230DB09D5
:400A8000FAD12C460A4E0FCE0FC40FCE0FC40FCE0FC496E80F0084E80F00E3E7002001F06FF9E9E7002001F09DF8E5E7B80A0008C40A0008F0B591B062B63B4B10229A60B4
:400AC0003A4F3B496846FFF743FF3D466C460FCC0FC50FCC0FC50FCC0FC594E80F0085E80F0007F140016846FFF77EFF03216846FFF772FF3E466C460FCC0FC60FCC0FC691
:400B00000FCC0FC694E80F0085E80F0097F8223013F0200F0AD1244C10256560642000F005FFA560642000F001FFF4E71E4D1026AE601E4C482384F86430452384F86530CD
:400B40004C2384F8663084F867304F2284F86820202184F86910572184F86A1084F86B20522284F86C2084F86D30442384F86E3003230B2204F164016846FFF741FFA44630
:400B80006C460FCCACE80F000FCCACE80F000FCCACE80F0094E80F008CE80F006E6005496846FFF73BFFC1E700063240140B0008BC020008DC020008B0F1204F3CD018D802
:400BC00080283BD007D9B0F5807F3FD0244B984209D024487047102832D0402801D12248704700282ED170474FF4A40070471D4870471E4B98422BD02DD31D4B98422CD8B9
:400C0000B0F1704F12D900F1805001380428EED801A353F820F000BFE90B0010EF0B0010490C0010310C0010350C00100D4870471048704710487047002070470F4870479F
:400C40000F487047074870470E487047044870474FF4A0007047034870470248C3E700BF06005200FF00520002005000090000A0050000F002005200030052000500520068
:400C8000010050000100520010B5124B1B6893F83130012B16D90F4B1C68236AB4F8B0201344D4F8B420D358002B11DB0A4B1868FFF782FF636801229A6063689B68002B97
:400CC000FBD110BD40F2C311044800F049FEE2E70348F6E76C0C0008F80B0008D82A0010020050001A4B186228B102230370FF23437000234380174B1B6893F8502002B94C
:400D0000704700B583B0B3F93830ADF80030002301931149684600F0CFFDBDF90030002B07DB03F01F015B0901228A400B4941F82320084B1B6893F8513013B903B05DF8D3
:400D400004FB02220649012000F0BCFCF6E700BFF80B00086C0C0008A103000800E100E05904000808B50248FFF7BCFF08BD00BF1C0C0008002800F0A181F8B50D4614463F
:400D80000646002A00F09C81072900F2F8802368012B00F2F980636833F00F0340F0F980237A33F01F0340F0F980E368032B00F2FA802369012B00F2FB806369012B00F2CC
:400DC000FC80A369012B00F2FD80E369032B00F2FE80236A012B00F2FF80636A012B00F20081A36A012B00F20181E36A032B00F20281236B072B00F203812768072D00F2C8
:400E00000481012F00F20781002F40F00A810123AB4073606768072D00F2078137F00F0340F00981A800A74B1B6893F87D108B590F22824023EA020307F00F0787401F43F3
:400E40008F51277A072D00F2FC8037F01F0340F0FE809C4B1A689369F31ADB095269190102EB0313032D00F2F88053584FEAC50C1F2000FA0CF023EA000307F01F0707FA78
:400E80000CF71F435750E768082D00F2F380032F00F2F68068008B4B1B6893F87C108B590322824023EA020207F00303834013438B512769082D00F2E980012F00F2EC804F
:400EC000B3690122AA4023EA020307F00107AF401F43B7616769072D00F2E480012F00F2E7807848036893F87EC05CF806300121A94023EA010307F00102AA401A434CF84D
:400F000006206A0002F1100C032303FA0CF31943036893F87F70BB5923EA0101A36903F00103AB400B43E26902F0030202FA0CF21343BB51036893F88020B15821F0FF0102
:400F4000236A03F00103606A400000F002000343A06A800000F004000343E06AC00000F018000343206B4001C0B20343AD0005F47E7503FA05F50D43B5500020F8BD4521EB
:400F8000514800F0EDFC02E746214F4800F0E8FC01E747214C4800F0E3FC01E748214A4800F0DEFC01E74921474800F0D9FC00E74A21454800F0D4FCFFE64B21424800F094
:400FC000CFFCFEE64C21404800F0CAFCFDE64D213D4800F0C5FCFCE64E213B4800F0C0FCFBE64F21384800F0BBFCFAE65021364800F0B6FCF9E65121334800F0B1FCF8E660
:401000005221314800F0ACFCF7E640F227312F4800F0A6FCF5E64FF44A712C4800F0A0FCF2E60123AB40B360F4E64FF47171274800F096FCF2E640F2C531244800F090FC11
:40104000F0E64FF42271214800F08AFCFDE640F289211E4800F084FCFBE62A1F5968D2001F20904021EA000107F01F0797400F435F6008E74FF4DD61144800F071FC06E75D
:4010800040F2E961114800F06BFC03E740F269610E4800F065FC10E740F26A610B4800F05FFC0DE740F20341084800F059FC15E740F20441054800F053FC12E704487047EB
:4010C00003485BE76C0C0008342B00108C2B001001005A0000286ED070B50C46054600296BD00B6833F0FF0347D1236933F0FF0348D1A3685B0D5B05002B48D1636823F453
:40110000FF7323F00103002B46D1E36913F0604F47D1236A13F0604F48D1294B19688A69AA1AD2094969100101EB021226682E601E6896F87DC0E66845F80C601E6896F8B4
:401140007EC0266945F80C601E6896F87FC0666945F80C601E6896F87CC0A66845F80C606668AE611B6893F88030A669EE50E3690B50236A5360002070BD9921114800F008
:40118000EFFBB2E79A210F4800F0EAFBB1E79B210C4800F0E5FBB1E79C210A4800F0E0FBB3E79D21074800F0DBFBB2E79E21054800F0D6FBB1E7044870470348DCE700BFA0
:4011C0006C0C0008342B001001005A0038B50C4B1B68D3F8B4301B58002B01DB094838BD05460C460B0C1B041BB9A4B26C600020F5E740F2D521044800F0B2FBF5E700BFFE
:401200006C0C000801008A00D82A001038B50368002B0FDA05460C46C2600B0C1B041BB9A4B2AC60002038BD40F2BB21024800F097FBF5E70148F6E7D82A001001008A006C
:4012400038B504460D4651B1084B1B68D3F8B4301B59002B08DAE3682B60002038BD9921034800F07DFBEFE70248F7E76C0C0008E42B001001008A00264B1B6893F831307C
:40128000834242D970B505460C4600293FD00B6813F01F0F01D0204870BD1E4B1B6893F8313098421CD21B4B1B68186AB3F8B03003FB0505194E35602268D2080021606863
:4012C00000F07EFE00212846FFF780FF35686CB1224600212846FFF799FF68B11048DBE740F2C3110F4800F03BFBDCE740F293310C4800F035FBEBE70021084B1868FFF7A0
:4013000065FF0028C8D00648C6E7034870470248C2E700BF6C0C000803018A00200C000801018A00D82A001038B505460C4613461AB11BB3D4B9124838BD0029F9D1114B53
:401340001B6893F8313098420AD20E4B1B68186AB3F8B03003FB05000B4B18602046EBE740F2C311094800F0FBFAEEE706494C608B6004312846FFF77FFFDDE70048DBE77A
:4013800003018A006C0C0008200C0008D82A00102DE9F041194B1B68DD682B6883422BD90C46460900F01F00012303FA00F8B9B10027124B18680368002B17DA6A6852F830
:4013C000263013EA080F0FD023EA080342F8263000250021FFF7FAFE54B12846BDE8F08100F093FB0746E4E7054DF2E7054DF3E7384600F08EFBF0E7034DEEE7200C00082B
:40140000020188000301880004018A000B4B1B68DB681A6882420CD9410900F01F00012202FA00F05B6853F82130034203D004487047044870470448704700BF200C0008E4
:401440000101880004018A0000018800034B1B6803B17047014B1860FBE700BF2C0C00082DE9F84304460E4617461D46DDF82080324B1B68002B44D0304B1B682C2004FB3D
:4014800000F01C185FFA85F943F80090C5F3072363602D0CA5602A4B1B6893F83130994534D2274B1B681A6AB3F8B01001FB09222261656893F832309D422DD2204B1B68A7
:4014C0001A6A05F1800302EB43156561D4F808904FEA19431B042BBB4FEA19431B043BBB1FFA89F343EA0943AB60E76126620023A361B8F1000F02D0B8F90030A381BDE8F8
:40150000F883B5210F4800F02BFAB5E740F2C3110D4800F025FAC4E740F2DF110A4800F01FFACBE74FF4FF71074800F019FAD3E740F2FF11044800F013FAD1E72C0C0008CC
:401540006C0C0008402C0010D82A001030B58FB00446002849D0A369072B4BD8E36A002B4DD0236B002B4FD00DF11C0C04F1140EBEE80F00ACE80F00DEF80030CCF8003051
:401580000DF1080CA646BEE80F00ACE80F00DEF80030CCF800301F4B1B68DB8E079A1344ADF83030089B0D930CAD00950B9BA26AE16A0A98FFF754FF00210091069B0A466C
:4015C0000598FFF74DFF216B284600F075F9BDF93030002B07DB03F01F015B0901228A400D4941F823200FB030BD52210B4800F0B7F9B0E75621094800F0B2F9AEE7582141
:40160000064800F0ADF9ACE75921044800F0A8F9AAE700BF6C0C000800E100E0402C0010F8B507460E461C46154652B3204B1B6863B31F4B19682C2202FB071002FB06115A
:401640004A684FF0010C0CFA02F2120446680CFA06F603692BB38F692FBB1B68002B24DA2B882B601A432A600369DD60C1F818C04C620469330C1B046BB9B6B2A6603846EC
:40168000F8BDFD210B4800F06BF9CFE7FE21094800F066F9CDE740F2BB21074800F060F9EBE7064FEBE7064FE9E7054FE7E700BF2C0C0008402C0010D82A001004028A0084
:4016C00007028A00F8B506460F4615460F4B1B6873B10E4B1C682C2000FB0644236A6BB1E369AB4210D9236A43F825700020F8BD4FF4AF71064800F033F9EAE74FF4B1713F
:40170000034800F02DF9EBE70248F0E72C0C0008402C00100A028A0070B582B000230193044680B12369A3B16369C3B1236AE3B16369DD682A0C1ED1ADB2002D3DD163699D
:401740001B6802B070BD40F2D111244800F008F9E8E74FF4E971214800F002F9E4E740F2D3111E4800F0FCF8E0E74FF4EA711B4800F0F6F8DCE712041A601B682069184B43
:401780001B68D3F8B4301B58002BD5DA01A9FFF757FD60B9019803681E0CDBB2E2699A4206D9226A52F8233013B1984700E0002631462069FFF70AFDBEE763691D601B689C
:4017C000636A2BB19847002363620023A361B6E7A36A002BF9D09847F7E700BF402C00106C0C000810B50446084B1B683BB1074B1B682C2000FB0430FFF78EFF10BD40F299
:40180000B111034800F0ACF8F1E700BF2C0C0008402C0010134B1B6893F83C3083421DD9042904D9A1F580739BB2132B18D8FF290CD901F01F010C4B00F1C00243F822107E
:40184000D030042243F820200020704701F00701D030054B43F820100020704703487047024870476C0C00080000264001004A0038B504460C4B9A680C4B9A4204D0103456
:401880000B4B53F8240038BD0D4631B11034074B53F8240043F82450F5E740F23711054800F05EF8F2E700BF00ED00E000000008000000109C2C001060B338B50D460446AA
:4018C0004368072B13D8B4F900306268002B13DB5201D2B203F1604303F5614383F800230D4B9A680D4B9A420DD0002038BD32210B4800F035F8E6E703F00F035201D2B2CC
:401900000849CA54ECE72946B4F90000FFF7B0FF0020EBE70448704700ED00E0000000089C2C001014ED00E00100560010B5044605E0084B186800F0DFF8A4F50044B4F5B6
:40194000004FF6D8044B186804FB00F000F0D4F810BD00BFA8020008A402000801BEFEE738B50C46044D18220146284600F030FBAC610020FFF7F2FF88080008FEE7000015
:4019800008B50268254BDA6142681A6282685A62C2689A620269DA6242691A6382695A63C2699A631E4A916AD963D16A1964516A5964516B9964926BDA64F1EE103A13F0D5
:4019C000900F27D0026A154B1A65426A5A65826A9A65C26ADA65026B1A66426B5A66826B9A66C26BDA66026C1A67426C5A67826C9A67C26CDA67026DC3F88020426DC3F8A1
:401A00008420826DC3F88820C26DC3F88C20026EC3F89020FFF7B2FF08BD00BF8808000800ED00E070B40446002830D01923304802681668B2F8A850725922F003028B422C
:401A40002CBF002301231A43725102681668B2F8A850725922F44072725102681568B2F8AAC055F80C2022F00302134345F80C3003681868B3F8AA20835823F44073835002
:401A80003CB110291DD9212926D801221AE06423CDE7174B1B6893F855208A421ED293F856208A421CD293F857208A421AD293F858208A4218D293F859308B4216D30422AB
:401AC00000E000220A4B1B6859680B6823F00F0313430B6070BC70470222F3E70022F1E70122EFE70222EDE70322EBE70522E9E76C0C0008000000000230800803D00130FA
:401B00000238FCD100BF00BF7047EFF3108072B6704780F31088704770B582B004460D46022803D9042801D0032817D16B1EDBB2012B03D9042D01D0082D15D1264800EBB8
:401B400084046468042D29D0012D29D0022D2DD026466469002CFBD100202EE040F6B2111E48FFF7FDFEE1E740F6B3111B48FFF7F7FEE3E76469BCB1194B984212D0A368A6
:401B80001D42F7D1E3681A6800925B6801932368294668469847104B9C61EBE70020EAE70020E8E7012DEAD102B070BD0A4B9E69002ED1D03669CFE73669002EF4D0B368C3
:401BC0001D42F9D1F3681A6800925B6801933368294668469847EFE7300C0008F82C0010FF00420070B50446012826D81E4B5B684BB301210020FFF78FFF064670BBFFF7DD
:401C000084FF0546184B5B681BB104210020FFF783FF164A136923F004031361012C14D030BF2846FFF775FF0F4B5B681BB108210020FFF771FF304670BD4FF4E0710C48C2
:401C4000FFF78EFED2E70026D9E720BF064B1B7803B120BF044B01221A70E2E702210020FFF75AFF034EE6E7300C000800ED00E0F82C0010FF00420010B50446002833D0B8
:401C80001C4A1368DB6803F5E043D3F8003923601368DA6802F5E042D2F800286260DA6802F5E042D2F80428A260DA6802F5E042D2F80828E260DA6802F5E042D2F80C2891
:401CC0002261DA6802F5E042D2F810286261DA6802F5E042D2F81428A261DB6803F5E043D3F81838E36110BD40F6A1210248FFF737FEC5E76C0C0008F82C001010B5044677
:401D0000002832D01C4B1B68DA68616802F5E042C2F80018DA68A16802F5E042C2F80418DA68E16802F5E042C2F80818DA68216902F5E042C2F80C18DA68616902F5E042F9
:401D4000C2F81018DA68A16902F5E042C2F81418DA68E16902F5E042C2F81818DB68226803F5E043C3F8002910BD40F6C9210348FFF7F6FDC6E700BF6C0C0008F82C00109A
:401D800070B50446012845D83B4B9B68002B47D001210846FFF7C0FE0646002865D1FFF7B4FE0546344B9B681BB104210120FFF7B3FE324B1B6893F843202AB19B68D3F810
:401DC000E03013F0100F2DD14FF0B0539B899BB233B14FF0B0539B899BB2B3F5807F30D1204600F015F9254B1B6893F843202AB19B68D3F8E03013F0100F32D12846FFF73A
:401E000088FE1D4B9B681BB108210120FFF784FE304670BD4FF426711948FFF7A1FDB3E70026BCE71748FFF727FFCDE730BF134B1B681A68D3F89430D35803F00303022BED
:401E4000D1D1114A136943F004031361012CEDD120BF094B1B7803B120BF074B01221A70E5E70848FFF74AFFC8E702210120FFF753FE064ECCE700BF300C00086C0C0008D9
:401E8000F82C00104C0C000800ED00E0FF00420004280FD000060B4B1B681A68D3F8A03000F04070D0504FF0E022136923F00403136170474FF0E022136943F0040313614C
:401EC000704700BF6C0C00082DE9F04104460F4616461D46012B24D824F47F6323F00F0323BB2A4B1B68B3F86EC04FEA9C0C0CF1FF3C4CF0804C4CF4706C37EA0C0302D111
:401F000017F0804F03D15D212148FFF729FD84EA070818F470680ED0DFF878804046BDE8F0815B211A48FFF71BFDD5E75C211848FFF716FDD5E7FFF7E8FD144B19688A6853
:401F4000B1F86C301A44B1F86EC04FEA9C03013B3B40B1F86A100F403F0A0CFB07F707EB8307BB5823F47F7323F00303E4B25EB14FF480710C436D0205F400752C431C4314
:401F8000BC50FFF7C6FDC9E74146F3E76C0C0008542D00100100CE00014B1860704700BF6C0C00080A44914200F1FF3300D1704710B511F8014B03F8014F9142F9D110BD16
:401FC00002440346934200D1704703F8011BF9E710B50139034632B111F8014F03F8014B013A002CF7D11A440021934200D110BD03F8011BF9E70000F8B500BFF8BC08BC37
:402000009E467047F8B500BFF8BC08BC9E4670475FF800F039060008030000000100000001000000000000000503600004000000010000000000000001000000060460001B
:4020400008000000980A0008510300100020344074008020344074000022344074008022344074000024344074008024344074000026344074008026344074000028344056
:402080007400802834407400002A34407400802A3440740000213440A82100109000000000233440382200109000000000253440C8220010900000000027344058230010A0
:4020C0009000000000293440E823001090000000002B3440782400109000000000603440082500107C00000080603440842500107C00000000613440002600107C00000090
:40210000806134407C2600107C00000000623440F82600107C00000080623440742700107C00000000633440F02700107C000000806334406C2800107C0000000064344056
:40214000E82800107C00000080643440642900107C00000000653440E02900107C000000806534405C2A00107C000000BAC0DC04E301EC0C000110010322344001713440B2
:4021800002783440200000000000000000000000000066000000000000000000000000000000000000030000000000000000000000000004FFFFFFFFFFFFFFFFFFFFFFFFB0
:4021C000FFFFFFFFFFFFFFFFFF000000FFFFFFFFFFFFFFFFFFFFFFFFFFFFFFFFFFFFFFFFFF000000000000000000000000000000070600000000000000000060FFFFFFFF94
:40220000FFFFFFFFFFFFFBFF111111111111111111111111111111111111111111111111111111111111111111111111101111111111111111110111000004000000000087
:4022400000000000FFFFF34FFFFFFFFFFFFFFFFFFFFFFFFFF7FFFFFFF6000000FFFFFFFFFFFFFFFFFFFFFFFFFFFFFFFFFFFFFFFFFF00000000001F000000001F0000000017
:40228000000000000000000000000000FFFFFFFFFFFFFFFFFFFFFFFF1111111111111111111111111111011111111111111111111311111111111118111111111111119109
:4022C0001110111011111111000002600000000000020000FFFFFFFFFFFFFFFFFFFFFFFFFFFFFFFFFFFFFFFFF2000000FFFFFFFFFFFFFFFFFFFFFFFFFFFFFFFFFFFFFFFF2A
:40230000FF0000000E1F0700061F001F0D00001F001F1F000000F00000000000FFFFFFDFFFFFFFFFFFFFB3FF111111C111111111111111111111111D1111111111111111F0
:40234000111111111111111111111111111111111111011111111111008080000000000000000004FFFFFF60FFFFFFFFFFFFFFFFFFFFFFFFFFFFFFFFFF000000FFFFFFFF89
:40238000FFFFFFFFFFFFFFFFFFFFFFFFFFFFFFFFFF000000001F0706001F001F0006001F08001F0000000F0F000000F0FFFFFFFFFFFFFFFFFFFFFBFF111111111111011102
:4023C00011111111111111111111111111111111111111111111111111111111101111111111011111111011200498920000000000000000FFFFFFFFFFFFFFFFFFFFFFFF05
:40240000FFFFFFFFFFFFFFFFFF000000FFFFFFFFFFFFFFFFFFFFFFFFFFFFFFFFFFFFFFFFFF0000001F001F1F1F1F001F071F00001F1F0C1F0000F000000F0000FFDFFFFF96
:40244000FFFFFFFFFFFEDF6F111111111111111111111111111111111111111111111111111111111111111111111111111111111111111111111111000002900000000053
:4024800000000000FFFF7FF76766FFFFF6FFFFFFFFFFF7771FFFFFFF7F000000FFFFFFFFFFFFFFFFFFFFFFFFFFFFFFFFFFFFFFFFFF000000061F001F001F001F0000000076
:4024C0001F07001F0006000000000000FFFFFFFFFFFFFFFFFFFFFFFF11111B11111111111111111111111111111111111111111111111111111111111111111113111811E2
:40250000E11291E11297E16200000000000000001F1F1F1F1F1F1F1F1F1F1F1F1F1F1F1F1F1F1F1F1F1F1F1F1F1F1F1F1F1F1F1F000000000000000000000000000000006A
:402540000000000000000000FFFFFFFFFFFFFFFFFFFFFFFF11111111111111111111111111111111111111111111111111111111111111111111111111111111111111117B
:402580001111111100000000000000001F1F1F1F1F1F1F1F1F1F1F1F1F1F1F1F1F1F1F1F1F1F1F1F1F1F1F1F1F1F1F1F00001F000000000F000000000000000000000000C9
:4025C00000000000BFFFFFFFFFFFFFFFFFFFFFFF111111111111111111111111111111111111111111111111111111111111111111111111111111111111111111111111F7
:4026000000000000000000201F1F1F1F1F1F1F1F1F1F1F0C1F1F1F1F1F1F1F1F1F1F1F1F171F1F141F1F1F1F001F00001F0F000F1F0000060C0000000500000000700000BE
:40264000FFFFFFFFFFFFFFFFFFFFBFFF111111101711111111111111111111111111111111111111111111D11111111111E111181111111111D11111EEB111110000080095
:40268000000000001F1F1F1F1F1F1F1F1F1F1F1F1F1F1F1F1F1F1F1F1F1F1F1F1F1F1F1F1F0D1F1F000E0000000F001F0000000000000E0000000707007000F0FFFFFFFF98
:4026C000FFFFFFFFFFFFFFFF11111110D1111111111111111111111111111111111111111111111111D111111111111D11111111111111F0E1C111F10000000000000000E8
:402700001F1F1F1F1F1F1F1F1F1F1F1F1F1F1F1F1F1F1F1F1F1F1F1F1F1F1F1F1F1F1F1F0E000E1F1F0F001F1F0000001F0F1F000000F000000F0000FFFFFFFFFFFFFEFDD1
:40274000F7FFBFFF111111111111111111111111111111111111111111111111111111111111111111111111F111111E111111D1111D11E100000000000000041F1F1F1F6C
:402780001F1F1F0C1F1F1F1F1F1F1F1F1F1F1F0F1F1F1F1F1F1F1F1F1F1F1F1F001F000000070007000006071F00071F005F004000000000FFFFFFFFFFFFFFFFFFEFFFFED7
:4027C000111111D11111111111111111111111111111111111111111101111110111111111011111E6111111111ED1E0D119111E00000000000000001F1F1F1F1F1F1F1FCC
:402800001F1F1F1F1F1F1F1F1F1F1F1F1F1F1F1F1F1F1F1F1F1F1F1F000000000000000000000000001F000000000000000000F0FFFFFFFFFFFFFFFFFFFFFFFF1111111169
:4028400011111111111111111111111111111111111111111111111111111D1111111111111111111111E1111111111100000000000000001F1F1F1F1F1F1F1F071F1F1F34
:402880001F1F1F0D1F1F1F1F1F1F1F171F1F1F1F1F1F1F1F00000F000000001F00000000000000000000000000000000FFFFFFFFFFFFFFFFFFFFFFFF11111111111111111C
:4028C000111111111711111111111111111111111111111111111F11111111E111111111111111111111010100000000000040061F1F1F1F1F1F1F1F1F1F1F1F1F1F1F1F36
:402900001F1F1F1F1F1F1F1F170F1F1F1F1F1F1F1F051F060000001F000000000A06040D0000000000000000FFFFFFFFFFFFDFFFBFDFFB5F1111111111111111111111119A
:4029400011111111111111111111111111111111711111111111171111111111110111111011111100002000000000101F1F1F1F1F1F1F1F1F1F1F1F1F1F1F1F1F1F1F1F02
:402980001F1F1F1F1F1F1F1F1F1F1F1F001F001F001F000C001F0D1F1F001F0000005F0F00000060FFFFFFFFFFFFFFFFFFFFF7FE11111111E1111111111111111111111118
:4029C00011111111111111111111111111111111D111111110D1111111111EE1111DE1EE00000000000000001F1F1F1F1F1F1F1F1F1F1F1F1F1F1F1F1F1F1F1F1F1F1F1FBA
:402A00001F1F1F1F1F1F1F1F1F00000F0800000F000E00000F00000F0000700000070000FFFFFFFFFFFFFFFFFFFEFFFF11111111111111111111111111111111111111116F
:402A40001111111111111115111111111111111111111111111111F1111F111100000000000000501F1F1F1F1F1F1F1F1F1F1F1F1F1F1F1F1F1F1F1F1F1F1F1F1F1F1F1FD4
:402A80001F1F1F1F1F0700000000000000000000061F0C070000000000000000FFFFFFFFFFFFFFFFFFFFFBBE111111111111111111111111111111111111111111111111F5
:402AC0001111111111111111111111111111111111111111111111112E2E2F4F6E657468696E785F43726561746F722E637964736E2F47656E6572617465645F536F757222
:402B000063652F50536F43362F70646C2F647269766572732F7065726970686572616C2F6970632F63795F6970635F6472762E68000000002E2E2F4F6E657468696E785F92
:402B400043726561746F722E637964736E2F47656E6572617465645F536F757263652F50536F43362F70646C2F647269766572732F7065726970686572616C2F6770696F18
:402B80002F63795F6770696F2E6300002E2E2F4F6E657468696E785F43726561746F722E637964736E2F47656E6572617465645F536F757263652F50536F43362F70646C5E
:402BC0002F647269766572732F7065726970686572616C2F6770696F2F63795F6770696F2E6800002E2E2F4F6E657468696E785F43726561746F722E637964736E2F47658E
:402C00006E6572617465645F536F757263652F50536F43362F70646C2F647269766572732F7065726970686572616C2F6970632F63795F6970635F6472762E6300000000E2
:402C40002E2E2F4F6E657468696E785F43726561746F722E637964736E2F47656E6572617465645F536F757263652F50536F43362F70646C2F647269766572732F706572A3
:402C80006970686572616C2F6970632F63795F6970635F706970652E630000002E2E2F4F6E657468696E785F43726561746F722E637964736E2F47656E6572617465645F0D
:402CC000536F757263652F50536F43362F70646C2F647269766572732F7065726970686572616C2F737973696E742F63795F737973696E742E6300002E2E2F4F6E657468AA
:402D0000696E785F43726561746F722E637964736E2F47656E6572617465645F536F757263652F50536F43362F70646C2F647269766572732F7065726970686572616C2F57
:402D4000737973706D2F63795F737973706D2E63000000002E2E2F4F6E657468696E785F43726561746F722E637964736E2F47656E6572617465645F536F757263652F507D
:402D8000536F43362F70646C2F647269766572732F7065726970686572616C2F747269676D75782F63795F747269676D75782E630000000000002040000024400000004092
:402DC0000000000000002340000030400000314000009F40000022400000104002020202020202020210101D800017007500FF030602063604102000000000007FC00000EA
:402E000000040000000000000019324B647D00804000080B100000000000FF012002001F00800004FF081018001000140018001C4044484C50000000081000000800000060
:402E400004000000041000000012000004210000002100000016000040114002C41300138013A013200000001C0000000000214000002540000001400000344000002440EE
:402E8000000031400000324000001F410000234000001140010101010101010101101010800019005500F0000501053B04101C01010000000FC000000004000001010101B5
:402EC000011D3A57789600082000101208000000001F00000010000F002000023F06080E00080009000A000B24282C303400000010000000900000008800000008000000D6
:402F00008000000004F0000000F00000400200002005A000D00100018001A00120000000100000000000000000000010000000088C020000482F00108C020008FC0500003E
:402F40001C090008540300000048E80100127A0000093D0000127A0000127A0008000000401F00000000A00F01006000BC0A000800006000BC0A000800000001F002000844
:402F8000F10064000A0100000000000000000000000000000000000007000000010000000000001472000000000000000280000000000000000000000000000000000000A1
:402FC000000000000000000000000000000000000000000000000000000000000000000000000000000000000000000000000000B10200108D02001080B2C10048B3154B21
:403000001B681A6AB3F8B030C3EBC303D358002BF5DA114B3E22C3F8042141F61E72C3F808210622C3F8182521F07F41C3F81C15D3F81C35074B1B681A6AB3F8B030C3EB93
:40304000C303134400225A60034BD3F81C35002BFADA70476C0C000800002640F8B5284B1B6893F83130052B36D9254F3A68166AB2F8B03003EB83031E44526802F570422A
:40308000146EA4B200F056FA05463B681968D3F890208A58013C032C1AD8032A22D01868D3F884104258120E4058C0F30720531C00FB0333134800FB03F3134A1068134A86
:4030C000A2FB00208009B3FBF0F08230FFF794FF284600F027FAF8BD40F2C3110C4800F011FAC2E74FF0B052D27A002AD7D10822B2601968D3F890208A58032AF9D0CEE76B
:403100006C0C000840420F0090020008D34D6210D82A00104378FF2B00D0704710B500F009FA0446134B1B6893F83130042B1AD9104B1A68136AB2F8B02003EB8203DA685A
:403140000D4B1A6100215961012199615268DA6113680B431360136813F0010FFBD1204600F0E0F910BD40F2C311044800F0CAF9DEE700BF6C0C0008F80B0008D82A0010D8
:403180002DE9F84307468846524B1B6893F83130012B35D94F4B1B681C6AB3F8B0201444D3F8B450254493F85030002B73D04FF0B053DB7A002B3FD1464B1B6893F8313064
:4031C000052B23D9434B19680A6AB1F8B03003EB83031344D1F8B420D358002B73DB002000F094F93C4B98426FD000233B4A126A0121184600F092F9064670B1384C32E02C
:4032000040F2C311374800F07DF9C3E740F2C311344800F077F9D5E70136002000F076F92D4B984202D0304B9E42F5D92E4B9E424DD84FF0010901E04FF0000900F07AF905
:4032400006462A4BD3F81C35002B0FDB244CB9F1000F05D00121002000F05CF90028F9D1304600F05FF92046BDE8F8831B4A0121204600F05BF908B1194CE8E74046FFF707
:40328000BBFE37B12B68002BFCDB00F057F90446DDE7174CDBE700F04DF906460F4A0121204600F043F938B95FB12B68002BFCDB00F044F9044600E0094C304600F032F903
:4032C000D1E70B4CF9E7064CCDE7054CCBE7044CC9E700BF6C0C000801018800F80B000805005200D82A0010EF490200000026400100500070B57F4B19684C684FF0B05342
:403300005B782BB14FF0B0535B78DBB2212B5BD10A6AB1F8B030C3EBC30302EB030CD358002BF5DADCF80C3043F00103CCF80C300B6AB1F8B020C2EBC2021344DA6812F0F1
:40334000020F30D0DA681FFA82FC0D68D1F88420AA58120A120402F47F02D1F88860AD594FEA152E42EA0E624CEA0202DA600D68D1F88420AB5823F47F4343F41063AB5030
:403380005C4A13681D68D3F888106B5823F47F4343F410636B5013681A68D3F884105158D3F88830D358534B1B68196AB3F8B020C2EBC2020A44002151601A6AB3F8B03091
:4033C000C3EBC30313445B684A4B1B681968D3F89430194405E030BF0B6803F00303022B0FD1454A136943F0040313610128F2D120BF424B1B7803B120BF404B01221A70FE
:40340000EAE73C4B1A68116AB2F8B030C3EBC303C818CB58002BF4DA4FF0B0535B7873B34FF0B0535B78DBB2212B28D0D4F80C31002B53D1324BD3F80801D3F81815D3F8B0
:40344000042141F61E75C3F808510625C3F818553E25C3F804514425C3F81C55284BD3F81C35002BFADA4FF0AA33C4F80C31244BC3F80801C3F81815C3F804212EE0C36817
:4034800013F0020F1ED01468D2F88410625822F47F42C3681B0C1B029BB213436350154B1A681468D2F88800235823F47F43116AB2F8B020C2EBC2020A44D268120E43EA9B
:4034C000022323500B4B1A68136AB2F8B020C2EBC2021344DA6822F00102DA60054B1B681A6AB3F8B030C3EBC303134400225A6070BD00BF6C0C000800ED00E0300C000806
:40350000000026405FF800F0611900105FF800F00D1400105FF800F0911300105FF800F0211600105FF800F0131B00105FF800F00D1200105FF800F00B1B00105FF800F094
:40354000890C0010000000000000000000000000000000000000000000000000000000000000000000000000000000000000000000000000000000000000000000000000A6
:40358000000000000000000000000000000000000000000000000000000000000000000000000000000000000000000000000000000000000000000000000000000000000B
:4035C00000000000000000000000000000000000000000000000000000000000000000000000000000000000000000000000000000000000000000000000000000000000CB
:0200000490303A
:02000000FFCF30
:0200000490501A
:0C0000000005E20721002100E21920CFDA
:00000001FF