:020000041000EA
:4000000000F00308CF0200100D00000035030010350300103503001035030010000000000000000000000000000000003103001031030010000000003103001031030010A7
:400040003103001031030010310300103103001031030010310300103103001031030010310300103103001031030010310300103103001031030010310300103103001040
:400080003103001031030010310300103103001031030010310300103103001031030010310300103103001031030010310300103103001031030010310300103103001000
:4000C00031030010310300103103001031030010310300103103001031030010310300103103001031030010310300103103001031030010310300103103001031030010C0
:40010000310300103103001031030010310300103103001031030010310300103103001031030010310300103103001031030010310300103103001031030010310300107F
:40014000310300103103001031030010310300103103001031030010310300103103001031030010310300103103001031030010310300103103001031030010310300103F
:4001800031030010310300103103001031030010310300103103001031030010310300103103001031030010310300103103001031030010310300103103001031030010FF
:4001C00031030010310300103103001031030010310300103103001031030010310300103103001031030010310300103103001031030010310300103103001031030010BF
:40020000310300103103001031030010310300103103001031030010310300103103001031030010310300103103001031030010310300103103001031030010310300107E
:40024000310300103103001031030010310300103103001031030010310300103103001031030010310300103103001031030010310300103103001031030010310300103E
:4002800031030010310300103103001010B5054C237833B9044B13B10448AFF300800123237010BD4C090008000000003845001008B5034B1BB103490348AFF3008008BD91
:4002C0000000000050090008384500107047FFF7FDFF72B6104C114DAC4209DA21686268A368043BA2BFC858D050FAE70C34F3E70B490C4A00209142BCBF41F8040BFAE73A
:4003000009480A490860BFF34F8F00F015F900F0EFF801F003FBFEE73C450010544500104C090008800F00080000000808ED00E0FEE7FEE700B504207146084202D0EFF315
:40034000098001E0EFF30880043002F025FAFEE708B5012002F048F908BD00005D4BD3F8802302F00F0202F1D00153F8213003F00703042B17D8DFE803F00316160508001F
:40038000554B11E0554B1B680EE002F1C003514951F8233003F01F03112B1DD0132B1ED14FF4004300E04E4BB2BB4A4AD2F8900500F00100D2F88815C1F30171D2F88825F0
:4003C00012F0405F0ED0434AD2F88825C2F30172012A08D0002206E04FF40043E4E74FF4FA43E1E7012202B108B9032916D13949D1F88005C0F31100D1F88425C2F30C023B
:40040000D1F88015C1F300610131B3FBF2F300FB03F3B3FBF1F301E0012A2BD02D4AD2F88023C2F30112D3402C4A53602D49D1F89000C0F3072001300969090E0131B3FBCF
:40044000F1F19160B3FBF0F3D360136103F5742101F23F212448A0FB0101C1F38741117503F2E7332149A1FB03139B099361DB03D3617047174AD2F8400600F00100D2F8CE
:400480000016C1F30171D2F8002612F0405F08D0104AD2F80026C2F30172012A02D0002200E0012202B108B90329B7D10949D1F8002602F07F02D1F80006C0F30420D1F8B8
:4004C0000016C1F3044102FB03F3B3FBF0F3B3FBF1F3A3E70000264000127A008C02000800366E010000214083DE1B43D34D621008B50D4802F06CFC00F00CF9FFF72EFFEA
:4005000000221146042001F011FE084801F0A0FE074B1B6893F8513013B901F025FB08BD044801F015FFF8E75C430010680900087C0F0008703B001008B502F0F2F9074A2B
:40054000D2F8883043F47003C2F88830BFF34F8FBFF36F8F02F0E9F908BD00BF00ED00E0024B034AC3F8002E704700BF00001F410100118010B582B0624AD2F8003523F0D8
:40058000030343F00103C2F800355F4B1B68019301A803F0A5F95D4B1A681068D2F88810425822F47F4242501A681068D2F88410425822F07F4242501A681068D2F884105E
:4005C000425822F47F4242501B6893F83E2032B14C49D1F8802322F00F02C1F8802393F83E2032B14749D1F8802322F03002C1F8802393F83E3033B1424AD2F8803343F0A8
:400600000043C2F880330021012002F005F80021022002F001F80021032001F0FDFF0021042001F0F9FF0021084601F0F5FF354CD4F8043523F4407323F0010343F001035A
:40064000C4F80435D4F8043523F47F03C4F80435D4F8043543F00043C4F80435D4F8003523F47063C4F80035D4F8003523F4E043C4F80035D4F8003543F40043C4F800350E
:40068000234A136823F440731360002002F084FBD4F8803113F0010F05D1D4F80C3523F00043C4F80C350821002002F0C7F8174B1B6893F83F20022A03D99B680022C3F80D
:4006C000082C124A13689868B3F87410435823F47F4343F408534350126892F8731003238B4092F8701092F8720081400B43916843F00043C1F800349368D3F8003402B092
:4007000010BD00BF00002640A43B00107C0F00080000274030B58FB040F2DC5002F008F89621002002F08AF834252A46002101A803F0F0F9234C01AA0021204601F01CFA08
:400740002A46002101A803F0E5F901AA0121204601F012FAFFF70EFF2422002101A803F0D9F901A9204601F0B7FB174C0DF1040C04F1040EBEE80F00ACE80F00BEE80F002E
:40078000ACE80F00DEF80030CCF8003001A90F4801F0A2FB0DF1040E04F1280CBCE80F00AEE80F00BCE80F00AEE80F00DCF80030CEF8003001A9064801F08EFBFFF7D0FEF4
:4007C0000FB030BD00003240A43B00108004324000053240FF2902D03A4B83F8FF10394B93F8FF30F62B6AD810B4364A3021D15407E0A0F51C50103880B23249CA5C0132E5
:40080000CA5442F20F729042F3D82E4AD25C302A08D001221344DBB22A4981F8FF303024CC5408E00022F5E7A0F57A7080B2254CE15C0131E154B0F57A7FF5D22149C95C3A
:40084000302900D001221344DBB21E4981F8FF303024CC5405E0643880B21A4CE15C0131E1546328F7D81749C95C302900D001221344DBB2134981F8FF303024CC5405E09C
:400880000A3880B20F4CE15C0131E1540928F7D80C49C95C302900D001221344DAB2094981F8FF2000F130038B540132D2B281F8FF2000238B5408465DF8044B7047002015
:4008C000704700BFE80A0008FF2902D0494B83F8FF10484B93F8FF30F62B00F28980020F4449CA54092A6CD94FF0370C41496244CA540133DBB281F8FF30C0F30362CA5464
:40090000092A61D94FF0370C3A496244CA540133DBB281F8FF30C0F30352CA54092A56D94FF0370C33496244CA540133DBB281F8FF30C0F30342CA54092A4BD94FF0370C76
:400940002C496244CA540133DBB281F8FF30C0F30332CA54092A40D94FF0370C25496244CA540133DBB281F8FF30C0F30322CA54092A35D94FF0370C1E496244CA5401334E
:40098000DBB281F8FF30C0F30312CA54092A2AD94FF0370C17496244CA540133DBB281F8FF3000F00F02CA54092A1FD9372111480A44C2540133DBB280F8FF300022C254D8
:4009C00070474FF0300C91E74FF0300C9CE74FF0300CA7E74FF0300CB2E74FF0300CBDE74FF0300CC8E74FF0300CD3E73021DEE700207047E80A0008FF2A02D0254B83F8E7
:400A0000FF20244B93F8FF3003EB4103FE2B38DC4FF0000C614536DD30B50FE0302519E04FF0300E1B4C7244E2540CF1010C4FFA8CFC013384F8FF3061451CDD00EB0C0EAB
:400A400010F80C20134C94F8FF301209E254092AE4D937250F4C2A44E2549EF800200133DBB284F8FF3002F00F02E254092AD7D94FF0370ED6E7074890F8FF300022C254CF
:400A800030BD00207047034890F8FF300022C254704700BFE80A0008FF290AD00B4B83F8FF1006E0094A591C82F8FF1010F8011BD154064B93F8FF30FF2B02D00278002ABB
:400AC000F0D102480022C254704700BFE80A000870B592B00C460E2800F2DB80DFE800F00819D7BFC1C3C5C7C9CBCDCFD1D3D500744D002D00F0CF802946734802F0C4F9DA
:400B0000002C40F0CE8071496F4802F0BDF912B070BD6F4E06F5A071684600F021FE06F5807C6D460FCDACE80F000FCDACE80F000FCDACE80F0095E80F008CE80F00002126
:400B40006448FFF7A9FF96F850318DF840302D238DF8413096F852218DF842208DF8433096F853218DF844208DF8453000238DF84630FF2110A8FFF78FFFFF2196F85101A2
:400B8000FFF728FEFF215448FFF786FFFF21B6F84401FFF71FFEFF215048FFF77DFF96F84001FF2100F03F00FFF714FE4C4DFF212846FFF771FFB6F84001FF21C0F383108A
:400BC000FFF708FEFF212846FFF766FF96F84101FF21C0F38400FFF7FDFDFF214148FFF75BFFD6F84001FF21C0F3C430FFF7F2FD3D4DFF212846FFF74FFFB6F84201FF21D8
:400C0000C0F30510FFF7E6FDFF212846FFF744FF96F84301FF218008FFF7DCFDFF213348FFF73AFFFF22082106F5A470FFF7E4FEFF212F48FFF730FFFF21D6F83001FFF737
:400C400043FEFF212B48FFF727FFFF211220FFF73BFEFF212848FFF71FFF054649E7274D47E7274D45E7274D43E7274D41E7274D3FE7274D3DE7274D3BE7274D39E7274D98
:400C800037E7274D35E7274D33E7274D31E7274D2FE7274D2DE740F2A551264801F06CFD2AE700212046FFF70FFE044620B12146054802F0E9F826E740F2A5511D4801F0A2
:400CC0005BFDF4E75C3D001000006340743E0010E80A0008783D0010BC3D0010C83D0010D03D0010E43D0010D43D0010D83D0010E83D0010FC3D0010103E0010103C00100A
:400D00001C3C00102C3C00104C3C00106C3C00108C3C0010B03C0010D43C0010F43C00101C3D0010403D0010F03B0010043C0010603D0010183E00104FF0000C944549D27C
:400D400000B51DE0AEF14103DBB2052B3ED8AEF1370E81F800E020E0A3F1410E5FFA8EFEBEF1050F34D891F800E07344373B0B70023001310CF1010C5FFA8CFC944522D20E
:400D80000378602B01D9203B037090F800E0AEF13003DBB2092BD5D80B700B781B010B704378602B01D9203B43704378A3F1300E5FFA8EFEBEF1090FCED891F800E073441B
:400DC000303B0B70D4E700205DF804FB0820FBE70820F9E70020704708B500F0FFFC184BC3F8640193F8663183B9154B93F865318BB9134B93F86731A3B9114B93F864314E
:400E0000BBB900210846FFF763FE08BD01460A20FFF75EFEF9E70A4BD3F864110920FFF757FEF2E7064BD3F864110C20FFF750FEEBE7034BD3F864110B20FFF749FEE4E79A
:400E4000E80A000801281FD070B5A0B01446AF4B93F83E30DB091CD113281ED8DFE810F01F001D0026002F00320074008100A000D30033020F01160132014E018301A001A7
:400E8000B901D201F7018102A14B002283F86821704700210D20FFF71BFE20B070BD914200D006200021FFF713FEF6E7914204D006200021FFF70CFEEFE70120F9E7FFF77E
:400EC0008BFFEAE7891A452904D000210620FFF7FFFDE2E7D31C08228E498F481844FFF72BFF28BB04F1140308228C498A481844FFF722FF00BB04F1250310228849864891
:400F00001844FFF719FFD8B9864B02221A7001347F4A224492F86C21303A18BF0122597862F3C711597000210846FFF7D1FDB4E70021FFF7CDFDB0E70021FFF7C9FDACE7DB
:400F40000021FFF7C5FDA8E7002104A800F000FC00210220FFF7BCFD6D4B022283F868219BE7501C091AC1F34704694901F5B67322461844FFF7E0FE70B9654D002322469F
:400F8000294604A800F0F8FB00210320FFF7A0FD032385F8683180E70021FFF799FD7CE7914204D000210620FFF792FD75E7584E04A800F0FDFB06F5807504AC0FCC0FC551
:400FC0000FCC0FC50FCC0FC594E80F0085E80F00002196F82101FFF7FDFB054668B1524C2946204601F050FF5049204601F04CFF00210846FFF76CFD4FE740F2A5514C48BB
:4010000001F0BAFBEBE7914204D000210620FFF75FFD42E73E4E04A800F0CAFB06F5807404AD0FCD0FC40FCD0FC40FCD0FC495E80F0084E80F0006F51B7496F8212121466D
:4010400004A800F0A7FB002296F821112046FFF7D3FC054668B1344C2946204601F014FF3249204601F010FF00210846FFF730FD13E740F2A5512E4801F07EFBEBE700F031
:401080003DFC00210846FFF723FD06E7891A192904D000210620FFF71BFDFEE601340C2224491D482044FFF747FE38B900201D4B83F870000146FFF70BFDEEE60021FFF72B
:4010C00007FDEAE6891A312904D000210620FFF7FFFCE2E60134182217490F482044FFF72BFE38B900200F4B83F870000146FFF7EFFCD2E60021FFF7EBFCCEE6891A0929E5
:401100001CD000210620FFF7E3FCC6E6740E0008E80A0008AE020008540C0008B6020008BE020008AC02000800006340743E0010183E0010F80200080403000801340422E2
:401140008C498D482044FFF7F7FD40B98B4B012283F8702000210846FFF7BAFC9DE60021FFF7B6FC99E6891A112904D000210620FFF7AEFC91E60134082281497E48204432
:40118000FFF7DAFD40B97D4B012283F8702000210846FFF79DFC80E60021FFF799FC7CE6891A092904D000210620FFF791FC74E601340422734970482044FFF7BDFD20B978
:4011C00000210846FFF784FC67E60021FFF780FC63E6891A032904D000210620FFF778FC5BE601340122684963482044FFF7A4FD20B900210846FFF76BFC4EE60021FFF7AD
:4012000067FC4AE6891A052904D000210620FFF75FFC42E601345D4901F5B670022201F55B712044FFF788FD68B9584CB4F86C335BBAA4F86C3300210420FFF749FC0423F3
:4012400084F8683129E60021FFF742FC25E6501C091AC1F347044D4901F5B67322461844FFF76AFD28BB0DF1500C464D0FCDACE80F000FCDACE80F0095E80F008CE80F00A9
:401280009DF87C30CBB1012B1AD0404D00260296019600942B4605F55C7214A904A800F017FB31460320FFF713FC032385F86831F3E50021FFF70CFCEFE58DF87240E4E799
:4012C0008DF85F40E1E7891A02290FD101342F4B1C4494F86C31312B31D0322B38D0302B09D000210620FFF7F3FBD6E500210620FFF7EEFBD1E5214B93F88020032161F355
:40130000020283F8802000210846FFF7E1FB204AD2F80832C3F30803D2F80822C2F3C032D342F4D10021022001F076F9194904A800F068FA0321022001F06EF9ADE50F4B1C
:4013400093F88020022161F3020283F88020DAE70A4B93F88020012161F3020283F88020D1E7914204D006200021FFF7B1FB94E50020F9E7F8020008540C0008AC020008F5
:40138000FC020008F0020008F4020008E80A0008000063402003000830B5B5B08A4B93F8683193B9884B93F88433002B38D1874904A800F089F9844D012485F88443002146
:4013C0002046FFF785FB85F868417F4B93F86831042B35D07C4B93F86831052B44D0012B40F082807A4BD3F84023B2F1FF3F00F09680D2B2744B93F88533022B00F09D80A2
:4014000000F28380002B00F08C80012B40F0A180542A00F08D806C4B002283F885237EE06C4B6D4A1A60BFF34F8F6C49CA6802F4E0626B4B1343CB60BFF34F8F00BFFDE73D
:40144000614C00230293B4F86C330193FF23009304F51B7304F55C72624904A800F01EFA052384F86831B5E714A800F0A1F99DF88630DB09B6D1544B93F8723313F0020F0E
:4014800007D013F0400F0DD1574B5C6D14F0FF040DD14D4BB3F86C3323BB04224A4B83F868219FE700210E20FFF712FBF1E74F49474801F0E9FC002221464D48FFF79CFAFF
:4014C000054648B1424C2946204601F0DDFC4949204601F0D9FCDCE740F2A551464801F04BF9EFE70622D9E724A800F061F99DF8C630DB097FF476AF00210846FFF7E8FAED
:40150000314B012283F868216CE7FF2B21D100210720FFF7DDFA2C4B002283F8852335B030BD412AFBD10133274A82F88533F6E70133254A82F88533F1E72B2A04D0224BC8
:40154000002283F88523EAE701331F4A82F88533E5E70D2A0BD00A2A09D00133DBB21A4981F88533043B0B4483F86C21D7E7033BD9B2154B83F88513002008E0FFF762FC5A
:40158000114B002283F88523C9E70130C0B21B4B53F8205075B100229142F6D3AC5C002CECD0094B134493F86C319C42EDD10132D2B2F1E700210520FFF78AFA024B002215
:4015C00083F88523ABE700BFE80A00083403000800006340000021400000FA0500ED00E00400FA05F0020008740E0008783E0010540D0008743E0010183E00108C3F0010B5
:4016000070470000014B01221A607047700E000838B50546274B197193F84230DB0932D11446244B93F8422042F0800283F8422000221A601F4B93F8433013F0010F04D083
:401640001D4B9B6813F0030FF4D01C4B1C4A0121002000F0E7FE58BB164B1B68002BFBD0ACB1022C07D0032C09D0124B93F84230DB09FAD10BE0002001F022FAF5E70020CE
:4016800001F002FBF1E701220A4B83F84020AC460C4C0FCCACE80F000FCCACE80F000FCCACE80F0094E80F008CE80F00284638BD0322E9E7700E00080000214005160010D5
:4016C000540300087C0E000870B590B005460E4600221B49012000F0F7FE1A4B1A4C221D5A60DA60A66094F8423043F0200384F8423094F842306FF3C71384F842300122D8
:4017000011466846FFF784FFE36BBF2B02D9E36BC12B03D90C4B052283F84020AC460B4C0FCCACE80F000FCCACE80F000FCCACE80F0094E80F008CE80F00284610B070BD7D
:401740000116001054030008700E00087C0E000810B504460A462021FFF75AFF204610BD10B50446034BD96401220321FFF750FF204610BD700E000858B50446044EF164CC
:4017800032651A463021FFF743FF204658BD00BF700E000810B50446044BD9641A6501224021FFF735FF204610BD00BF700E000810B586468446084C0FCCACE80F000FCCA1
:4017C000ACE80F000FCCACE80F0094E80F008CE80F00704610BD00BF7C0E0008084B1A7B002062F307001A7F62F30F2093F82C2062F3174093F8403063F31F60704700BF9C
:40180000700E000870B590B005460C46214EF164002250216846FFF7FBFE96F840302BB9237B03F00703022B13D9FEE7AC4606F10C040FCCACE80F000FCCACE80F000FCCE1
:40184000ACE80F0094E80F008CE80F00284610B070BD237B03F00703022B13D0012B15D00C4B93F84230DB09FAD12C460A4E0FCE0FC40FCE0FC40FCE0FC496E80F0084E8CA
:401880000F00E3E7002001F0FFF9E9E7002001F017F9E5E7700E00087C0E000838B505460A4CA164E26423659DF81020BDF8143043EA024363659DF818208021FFF7A8FE0E
:4018C000636D85F82130284638BD00BF740E000838B50546084CA164E26423659DF81020BDF8143043EA024363659DF818208121FFF78EFE284638BD740E000800B591B073
:40190000054B44F61D329A640122A4216846FFF77FFE11B05DF804FB740E000808B562B6064B04225A6008220549C1F884205A6000F012F8FFF730FDFCE700BF000532405D
:401940000004324008B50249024801F0E7FD08BDCC0E00080000634010B5124B93F8383093B1114BB3F90030002B07DB03F01F015B0901228A400D4941F823200C4A1368DB
:4019800043F00043136010BD064C22460949084801F082FB0849044800F090FE012384F83830DEE7CC0E0008E03F001000E100E000006340E83F001045190010B0F1204F95
:4019C0003CD018D880283BD007D9B0F5807F3FD0244B984209D024487047102832D0402801D12248704700282ED170474FF4A40070471D4870471E4B98422BD02DD31D4B8D
:401A000098422CD8B0F1704F12D900F1805001380428EED801A353F820F000BFED190010F31900104D1A0010351A0010391A00100D48704710487047104870470020704767
:401A40000F4870470F487047074870470E487047044870474FF4A0007047034870470248C3E700BF06005200FF00520002005000090000A0050000F00200520003005200A3
:401A800005005200010050000100520010B5124B1B6893F83130012B16D90F4B1C68236AB4F8B0201344D4F8B420D358002B11DB0A4B1868FFF782FF636801229A60636860
:401AC0009B68002BFBD110BD40F2C311044800F053FEE2E70348F6E77C0F0008080F000828400010020050001A4B186228B102230370FF23437000234380174B1B6893F8A4
:401B0000502002B9704700B583B0B3F93830ADF80030002301931149684600F0CFFDBDF90030002B07DB03F01F015B0901228A400B4941F82320084B1B6893F8513013B9A2
:401B400003B05DF804FB02220649012000F0BCFCF6E700BF080F00087C0F0008D103000800E100E08904000808B50248FFF7BCFF08BD00BF2C0F0008002800F0A181F8B53C
:401B80000D4614460646002A00F09C81072900F2F8802368012B00F2F980636833F00F0340F0F980237A33F01F0340F0F980E368032B00F2FA802369012B00F2FB8063692F
:401BC000012B00F2FC80A369012B00F2FD80E369032B00F2FE80236A012B00F2FF80636A012B00F20081A36A012B00F20181E36A032B00F20281236B072B00F203812768C2
:401C0000072D00F20481012F00F20781002F40F00A810123AB4073606768072D00F2078137F00F0340F00981A800A74B1B6893F87D108B590F22824023EA020307F00F07E8
:401C400087401F438F51277A072D00F2FC8037F01F0340F0FE809C4B1A689369F31ADB095269190102EB0313032D00F2F88053584FEAC50C1F2000FA0CF023EA000307F068
:401C80001F0707FA0CF71F435750E768082D00F2F380032F00F2F68068008B4B1B6893F87C108B590322824023EA020207F00303834013438B512769082D00F2E980012F78
:401CC00000F2EC80B3690122AA4023EA020307F00107AF401F43B7616769072D00F2E480012F00F2E7807848036893F87EC05CF806300121A94023EA010307F00102AA4082
:401D00001A434CF806206A0002F1100C032303FA0CF31943036893F87F70BB5923EA0101A36903F00103AB400B43E26902F0030202FA0CF21343BB51036893F88020B15864
:401D400021F0FF01236A03F00103606A400000F002000343A06A800000F004000343E06AC00000F018000343206B4001C0B20343AD0005F47E7503FA05F50D43B5500020E7
:401D8000F8BD4521514800F0F7FC02E746214F4800F0F2FC01E747214C4800F0EDFC01E748214A4800F0E8FC01E74921474800F0E3FC00E74A21454800F0DEFCFFE64B21A9
:401DC000424800F0D9FCFEE64C21404800F0D4FCFDE64D213D4800F0CFFCFCE64E213B4800F0CAFCFBE64F21384800F0C5FCFAE65021364800F0C0FCF9E65121334800F027
:401E0000BBFCF8E65221314800F0B6FCF7E640F227312F4800F0B0FCF5E64FF44A712C4800F0AAFCF2E60123AB40B360F4E64FF47171274800F0A0FCF2E640F2C5312448C2
:401E400000F09AFCF0E64FF42271214800F094FCFDE640F289211E4800F08EFCFBE62A1F5968D2001F20904021EA000107F01F0797400F435F6008E74FF4DD61144800F00F
:401E80007BFC06E740F2E961114800F075FC03E740F269610E4800F06FFC10E740F26A610B4800F069FC0DE740F20341084800F063FC15E740F20441054800F05DFC12E74A
:401EC0000448704703485BE77C0F000884400010DC40001001005A0000286ED070B50C46054600296BD00B6833F0FF0347D1236933F0FF0348D1A3685B0D5B05002B48D147
:401F0000636823F4FF7323F00103002B46D1E36913F0604F47D1236A13F0604F48D1294B19688A69AA1AD2094969100101EB021226682E601E6896F87DC0E66845F80C60D8
:401F40001E6896F87EC0266945F80C601E6896F87FC0666945F80C601E6896F87CC0A66845F80C606668AE611B6893F88030A669EE50E3690B50236A5360002070BD99212F
:401F8000114800F0F9FBB2E79A210F4800F0F4FBB1E79B210C4800F0EFFBB1E79C210A4800F0EAFBB3E79D21074800F0E5FBB2E79E21054800F0E0FBB1E70448704703488F
:401FC000DCE700BF7C0F00088440001001005A0038B50C4B1B68D3F8B4301B58002B01DB094838BD05460C460B0C1B041BB9A4B26C600020F5E740F2D521044800F0BCFB87
:40200000F5E700BF7C0F000801008A002840001038B50368002B0FDA05460C46C2600B0C1B041BB9A4B2AC60002038BD40F2BB21024800F0A1FBF5E70148F6E72840001065
:4020400001008A0038B504460D4651B1084B1B68D3F8B4301B59002B08DAE3682B60002038BD9921034800F087FBEFE70248F7E77C0F00083441001001008A00264B1B684C
:4020800093F83130834242D970B505460C4600293FD00B6813F01F0F01D0204870BD1E4B1B6893F8313098421CD21B4B1B68186AB3F8B03003FB0505194E35602268D20852
:4020C0000021606801F026FD00212846FFF780FF35686CB1224600212846FFF799FF68B11048DBE740F2C3110F4800F045FBDCE740F293310C4800F03FFBEBE70021084B63
:402100001868FFF765FF0028C8D00648C6E7034870470248C2E700BF7C0F000803018A00300F000801018A002840001038B505460C4613461AB11BB3D4B9124838BD002969
:40214000F9D1114B1B6893F8313098420AD20E4B1B68186AB3F8B03003FB05000B4B18602046EBE740F2C311094800F005FBEEE706494C608B6004312846FFF77FFFDDE745
:402180000048DBE703018A007C0F0008300F0008284000102DE9F041194B1B68DD682B6883422BD90C46460900F01F00012303FA00F8B9B10027124B18680368002B17DAA8
:4021C0006A6852F8263013EA080F0FD023EA080342F8263000250021FFF7FAFE54B12846BDE8F08100F09DFB0746E4E7054DF2E7054DF3E7384600F098FBF0E7034DEEE721
:40220000300F0008020188000301880004018A000B4B1B68DB681A6882420CD9410900F01F00012202FA00F05B6853F82130034203D004487047044870470448704700BFC3
:40224000300F00080101880004018A0000018800034B1B6803B17047014B1860FBE700BF3C0F00082DE9F84304460E4617461D46DDF82080324B1B68002B44D0304B1B6820
:402280002C2004FB00F01C185FFA85F943F80090C5F3072363602D0CA5602A4B1B6893F83130994534D2274B1B681A6AB3F8B01001FB09222261656893F832309D422DD23C
:4022C000204B1B681A6A05F1800302EB43156561D4F808904FEA19431B042BBB4FEA19431B043BBB1FFA89F343EA0943AB60E76126620023A361B8F1000F02D0B8F90030C5
:40230000A381BDE8F883B5210F4800F035FAB5E740F2C3110D4800F02FFAC4E740F2DF110A4800F029FACBE74FF4FF71074800F023FAD3E740F2FF11044800F01DFAD1E703
:402340003C0F00087C0F0008904100102840001030B58FB00446002849D0A369072B4BD8E36A002B4DD0236B002B4FD00DF11C0C04F1140EBEE80F00ACE80F00DEF8003006
:40238000CCF800300DF1080CA646BEE80F00ACE80F00DEF80030CCF800301F4B1B68DB8E079A1344ADF83030089B0D930CAD00950B9BA26AE16A0A98FFF754FF002100915B
:4023C000069B0A460598FFF74DFF216B284600F075F9BDF93030002B07DB03F01F015B0901228A400D4941F823200FB030BD52210B4800F0C1F9B0E75621094800F0BCF93C
:40240000AEE75821064800F0B7F9ACE75921044800F0B2F9AAE700BF7C0F000800E100E090410010F8B507460E461C46154652B3204B1B6863B31F4B19682C2202FB0710C6
:4024400002FB06114A684FF0010C0CFA02F2120446680CFA06F603692BB38F692FBB1B68002B24DA2B882B601A432A600369DD60C1F818C04C620469330C1B046BB9B6B24E
:40248000A6603846F8BDFD210B4800F075F9CFE7FE21094800F070F9CDE740F2BB21074800F06AF9EBE7064FEBE7064FE9E7054FE7E700BF3C0F0008904100102840001086
:4024C00004028A0007028A00F8B506460F4615460F4B1B6873B10E4B1C682C2000FB0644236A6BB1E369AB4210D9236A43F825700020F8BD4FF4AF71064800F03DF9EAE7FC
:402500004FF4B171034800F037F9EBE70248F0E73C0F0008904100100A028A0070B582B000230193044680B12369A3B16369C3B1236AE3B16369DD682A0C1ED1ADB2002D82
:402540003DD163691B6802B070BD40F2D111244800F012F9E8E74FF4E971214800F00CF9E4E740F2D3111E4800F006F9E0E74FF4EA711B4800F000F9DCE712041A601B681D
:402580002069184B1B68D3F8B4301B58002BD5DA01A9FFF757FD60B9019803681E0CDBB2E2699A4206D9226A52F8233013B1984700E0002631462069FFF70AFDBEE76369A2
:4025C0001D601B68636A2BB19847002363620023A361B6E7A36A002BF9D09847F7E700BF904100107C0F000810B50446084B1B683BB1074B1B682C2000FB0430FFF78EFF12
:4026000010BD40F2B111034800F0B6F8F1E700BF3C0F000890410010134B1B6893F83C3083421DD9042904D9A1F580739BB2132B18D8FF290CD901F01F010C4B00F1C0025C
:4026400043F82210D030042243F820200020704701F00701D030054B43F820100020704703487047024870477C0F00080000264001004A0038B504460C4B9A680C4B9A42E0
:4026800004D010340B4B53F8240038BD0D4631B11034074B53F8240043F82450F5E740F23711054800F068F8F2E700BF00ED00E00000000800000010EC41001060B338B5B2
:4026C0000D4604464368072B13D8B4F900306268002B13DB5201D2B203F1604303F5614383F800230D4B9A680D4B9A420DD0002038BD32210B4800F03FF8E6E703F00F03EE
:402700005201D2B20849CA54ECE72946B4F90000FFF7B0FF0020EBE70448704700ED00E000000008EC41001014ED00E00100560010B5044605E0084B186800F0E9F8A4F54F
:402740000044B4F5004FF6D8044B186804FB00F000F0DEF810BD00BFA8020008A402000808B5034B1B7803FB00F000F0D1F808BDA002000801BEFEE738B50C46044D1822BD
:402780000146284601F0CEF9AC610020FFF7F2FFB8080008FEE7000008B50268254BDA6142681A6282685A62C2689A620269DA6242691A6382695A63C2699A631E4A916A25
:4027C000D963D16A1964516A5964516B9964926BDA64F1EE103A13F0900F27D0026A154B1A65426A5A65826A9A65C26ADA65026B1A66426B5A66826B9A66C26BDA66026C89
:402800001A67426C5A67826C9A67C26CDA67026DC3F88020426DC3F88420826DC3F88820C26DC3F88C20026EC3F89020FFF7B2FF08BD00BFB808000800ED00E070B4044681
:40284000002830D01923304802681668B2F8A850725922F003028B422CBF002301231A43725102681668B2F8A850725922F44072725102681568B2F8AAC055F80C2022F08B
:402880000302134345F80C3003681868B3F8AA20835823F4407383503CB110291DD9212926D801221AE06423CDE7174B1B6893F855208A421ED293F856208A421CD293F8C9
:4028C00057208A421AD293F858208A4218D293F859308B4216D3042200E000220A4B1B6859680B6823F00F0313430B6070BC70470222F3E70022F1E70122EFE70222EDE740
:402900000322EBE70522E9E77C0F0008000000000230800803D001300238FCD100BF00BF7047EFF3108072B6704780F31088704710B5044601280BD884B9114B5869C00FC5
:40294000104B1B6893F844300BB1012C08D010BD40F262710C48FFF70FFFEDE70020EFE7074B9B6913F0804F07D1054B9B69002B01DB0020EBE70120E9E70120E7E700BFD9
:40298000000026407C0F00084842001038B5164B1B6893F8443013B304460D46072809D8114B1B6893F8443053B1104B9B6903F0070306E040F2CC710D48FFF7DDFEEFE7B2
:4029C0000023DBB29C420AD008498A6922F0070204F0070002438A610DB19C4200D838BDC820FFF7BDFEFAE77C0F0008000026404842001070B582B004460D46022803D975
:402A0000042801D0032817D16B1EDBB2012B03D9042D01D0082D15D1264800EB84046468042D29D0012D29D0022D2DD026466469002CFBD100202EE040F6B2111E48FFF76D
:402A40009BFEE1E740F6B3111B48FFF795FEE3E76469BCB1194B984212D0A3681D42F7D1E3681A6800925B6801932368294668469847104B9C61EBE70020EAE70020E8E772
:402A8000012DEAD102B070BD0A4B9E69002ED1D03669CFE73669002EF4D0B3681D42F9D1F3681A6800925B6801933368294668469847EFE7400F000848420010FF00420094
:402AC00070B50446012826D81E4B5B684BB301210020FFF78FFF064670BBFFF722FF0546184B5B681BB104210020FFF783FF164A136923F004031361012C14D030BF2846F0
:402B0000FFF713FF0F4B5B681BB108210020FFF771FF304670BD4FF4E0710C48FFF72CFED2E70026D9E720BF064B1B7803B120BF044B01221A70E2E702210020FFF75AFFFE
:402B4000034EE6E7400F000800ED00E048420010FF00420008B5FFF7E4FE074B5A6807490A4042F468525A605A680A405A605B68FFF7DBFE08BD00BF00002640FF00FC0FFF
:402B800010B50446002833D01C4A1368DB6803F5E043D3F8003923601368DA6802F5E042D2F800286260DA6802F5E042D2F80428A260DA6802F5E042D2F80828E260DA685F
:402BC00002F5E042D2F80C282261DA6802F5E042D2F810286261DA6802F5E042D2F81428A261DB6803F5E043D3F81838E36110BD40F6A1210248FFF7BFFDC5E77C0F0008FA
:402C00004842001010B50446002832D01C4B1B68DA68616802F5E042C2F80018DA68A16802F5E042C2F80418DA68E16802F5E042C2F80818DA68216902F5E042C2F80C1866
:402C4000DA68616902F5E042C2F81018DA68A16902F5E042C2F81418DA68E16902F5E042C2F81818DB68226803F5E043C3F8002910BD40F6C9210348FFF77EFDC6E700BF92
:402C80007C0F00084842001070B50446012845D83B4B9B68002B47D001210846FFF7AAFE0646002865D1FFF73CFE0546344B9B681BB104210120FFF79DFE324B1B6893F884
:402CC00043202AB19B68D3F8E03013F0100F2DD14FF0B0539B899BB233B14FF0B0539B899BB2B3F5807F30D1204600F03DFF254B1B6893F843202AB19B68D3F8E03013F077
:402D0000100F32D12846FFF710FE1D4B9B681BB108210120FFF76EFE304670BD4FF426711948FFF729FDB3E70026BCE71748FFF727FFCDE730BF134B1B681A68D3F89430AF
:402D4000D35803F00303022BD1D1114A136943F004031361012CEDD120BF094B1B7803B120BF074B01221A70E5E70848FFF74AFFC8E702210120FFF73DFE064ECCE700BF53
:402D8000400F00087C0F0008484200105C0F000800ED00E0FF00420004280FD000060B4B1B681A68D3F8A03000F04070D0504FF0E022136923F00403136170474FF0E02204
:402DC000136943F004031361704700BF7C0F0008014B1860704700BF7C0F000810B4D0F8003313F0080305D000230DE0D0F84043CC5401339342F9D35DF8044B7047D0F8BE
:402E0000404321F8134001339342F8D3F4E710B51446D0F80833C3F308039A4200D31C462246FFF7DBFF204610BD10B4D0F8003213F0080305D000230DE0CC5CC0F8404282
:402E400001339342F9D35DF8044B704731F81340C0F8404201339342F8D3F4E710B51446036813F4006F0DD08023D0F80822C2F308029B1AA34200D81C462246FFF7D5FF86
:402E8000204610BD4023F0E700B58E46036813F4006F03D080224FF0000C0BE04022FAE7D0F80832C3F308039A42F9D0C0F840120CF1010C1EF80C100029F1D15DF804FB60
:402EC0002DE9F84305460C46036813F4006F13D04FF08008D5F8007207F00807A66A012E0DD8D5F80832C3F30803984502D0A36A012B1ED0BDE8F8834FF04008EAE7D4F80E
:402F00002490E662013EB9F1000F00D026B940F273512148FFF730FC324649462846FFF79DFFA36A1B1AA36207B1400048446062D7E70023A36237BB636A1E78FFF7F1FCBB
:402F4000C5F840624FF40073C5F8803FD5F8803FFFF7EBFCD5F8883F23F4007323F0010343F4007623F4EE6323F0030373B9C5F8886F236843F002032360236B002BB9D08C
:402F800001209847B6E7636A1E88D7E740F236410248FFF7F1FBEAE7183E0010144400102DE9F04105460C46036813F4006F3BD080267608A769D4F81C8017B1B8F1000FE3
:402FC00004D14FF499613248FFF7D6FB424639462846FFF71CFF236A03442362E3691B1AE3618BBBA3685BB3E368B3421ED3013E2B6813F4006F1BD080239E421AD2D5F8DB
:40300000043323F0FF03F6B21E43C5F804630123C5F8C83F636823F001036360236B0BB104209847BDE8F0814026C2E75E1EDFE74023E2E74FF423711648FFF79DFBDEE722
:403040000023C5F8C83FE5E7A269D5F8001311F0080F00D040001044A061B342E2D25C1E2B6813F4006F0BD080239C420AD2D5F8042322F0FF02E3B21343C5F80433D1E733
:403080004023F2E74FF423710248FFF775FBEEE7183E001014440010002800F0C48170B50C4616460546002900F0BF810B78022B20D8637B023BDBB2062B20D8A37B1BB173
:4030C000022B01D0032B1FD194F82130012B20D894F82830012B21D82378012B23D9A37F002B00F0BC806368013B062B00F2B98000231EE03F219748FFF73EFBD9E740215B
:403100009448FFF739FBD9E741219248FFF734FBDAE742218F48FFF72FFBD9E743218D48FFF72AFBD8E76368083B082B94BF00230123002B40F09780A368053B042B00F2C1
:4031400097806369FF2B00F29880A369FF2B00F29980A37C4BB123781BB9A368092B00F0968049217B48FFF707FB636B23F4366323F00D03002B40F08F80E36B23F4EE6342
:4031800023F00303002B40F08C802378022B00F08D806268013A237F002B00F08D804FF48033A168082900F289804FF400610B4302F00F02134343F000732B60226B2B6834
:4031C00013F4006F7CD080239A427BD2A26B2B6813F4006F7BD080239A427AD2626A2B6813F4006F7AD080239A4279D223781B0603F040732B64637F002B76D04023A27C67
:40320000002A74D04FF480621343227C002A70D04FF480721343627C002A6CD04FF400721343E26A013A120402F470221343627B013A02F007021343A27B120102F030028B
:403240001343AB64237B002B57D04FF48073E27B002A57D12278022A51D0002254E0002367E7012365E745213A48FFF785FA63E746213848FFF780FA63E747213548FFF7D3
:403280007BFA62E748213348FFF776FA61E7A37B002B3FF46AAF64E74C212E48FFF76CFA6BE74D212B48FFF767FA6EE7A37F002B7FF46FAF00226EE7002372E7002176E771
:4032C000402381E762212348FFF756FA7EE7402382E763211F48FFF74FFA7FE7402383E764211C48FFF748FA80E7002387E700228AE700228EE7002292E70023A7E74FF46F
:40330000007201E04FF400721343A268013A02F00F021343C5F80033227DA3691B0403F47F031343C5F81033E26AD5F8003303F00F0303339A4201D3102A03D97A210548D3
:40334000FFF71AFAE37F3BB12378012B5BD0002203E000BF704400100022637B013B03F007031343A27B120102F0300213436B64237B002B4AD04FF48072A368013B03F021
:403380000F0313432278012A42D000221343C5F8003294F83030C5F8043394F82030002B39D04FF0007394F82120012A35D00022134394F82820012A32D00022134394F84B
:4033C000242013432B6594F83830C5F80432636B23F4926323F002031B051B0DC5F8C83FE36B23F08C035B055B0DC5F8883FF6B1002070603060B060F0603062F062306384
:403400000C4B736370BD4FF48072A6E70022B4E74FF48032BAE70023C5E74FF08072C7E74FF48032CAE7044870470348EAE70020E8E700BFEFCDAB000160AA0008694B6965
:40344000834202D84B69C01A7047CB684A699B1A184470472DE9F04107460D46036813F4006F09D04FF080084FEA5808D7F80863C6F308062C6933E04FF04008F4E700248A
:4034800034E02B6B0BB1082098476B69A34230D10023C7F8C83FE4B1013C2C61EC6829463846FFF7CBFF241AA04510D904B1013C3B6813F4006F26D080239C4225D2D7F848
:4034C000043323F0FF03E4B21C43C7F80443BDE8F081EC68013CE0E7AB6823F81420013E002EDAD00134EB68A342C8D06B69A342C7D0D7F84023D7F8003313F0080FEBD13F
:40350000AB681A55EBE74023D7E74FF423710248FFF732F9D3E700BF1444001038B504460D46D0F8003E13F0080F26D0D0F8CC3F13F4487342D1D4F8CC3F13F4006F09D085
:403540006B6843F400636B604FF40063C4F8C03FD4F8C03FD4F8CC3F13F0010F0DD0EB69002B38D1AB681BB129462046FFF772FF0123C4F8C03FD4F8C03FD4F8003E13F0C6
:40358000040F1AD0D4F88C3F13F4A06328D1D4F88C3F13F0010F30D1D4F88C3F13F4007F0BD00022C4F8882F2B6823F001032B60EA622B6B0BB10220984738BD4A681A4364
:4035C0004A60C0F8C03FD0F8C03F0B6B002BB2D010209847AFE729462046FFF7E1FCC7E72A681A432A60C4F8803FD4F8803F2B6B002BCCD020209847C9E729462046FFF70F
:403600005FFC0123C4F8803FD4F8803FC4E7000038B50D4640F4004000040D4BD8614FF47A740B4B1B6C13F0010F05D124B1013C0120FFF795F8F4E744B1054B1A6C42F08C
:4036400001021A64DB6A2B80002038BD0148FCE700003C400400160010B50E4B03EA00430B430D4AD3614FF47A740B4B1B6C13F0010F05D124B1013C0120FFF771F8F4E777
:4036800034B1054A136C43F001031364002010BD0248FCE70000FF7F00003C400400160070B582B005460A2407E0BCB1013CB3B9BDF80620B2F5C05F11D04FF4C05141F6A1
:4036C0000260FFF7C9FF03460028EED10DF1060141F60260FFF79CFF0346E6E74A4B002B43D0002B6DD0002B35D1BDF8063023F03F039BB2ADF80630AA78012A69D0EA7879
:40370000002A7DD196B2C2F10104A4B223F040039BB2ADF8063043F01003ADF806303B4BD3403B4A1360BDF80610314389B2ADF8061041F60960FFF78FFF0346EA78961BD6
:4037400006F00306ADF80660A400A4B23443ADF80640304A54664FF0B052527812B14FF0B0525278184602B070BD0DF1060141F60360FFF74DFF03460028B2D1BDF80620E9
:4037800012F4806FADD10A2408E0C4B1013C002BA7D1BDF80620B2F5806FA2D04FF4806141F60360FFF758FF03460028EDD10DF1060141F60360FFF72BFF0346E5E7124BDD
:4037C0008FE70DF1060141F60960FFF721FF034689E7EA78012A0ED90024022643F04003ADF8063043F03003ADF806300A4BD340074A136097E796B2C2F10204A4B2EDE7B8
:403800000024012682E700BF040016000024F4008C02000800F03D400048E80138B50C4641F2010141EA400141F60860FFF714FF054620B16001FEF793FF284638BD46F684
:40384000370141F60F60FFF707FF0546F2E7000010B59CB01E4C0DF14C0CA646BEE80F00ACE80F00BEE80F00ACE80F00DEF80030CCF800300DF1280C04F1240EBEE80F00D5
:40388000ACE80F00BEE80F00ACE80F00DEF80030CCF800300DF1040E04F1480CBCE80F00AEE80F00BCE80F00AEE80F00DCF80030CEF8003013A90748FEF70EFB0AA9064806
:4038C000FEF70AFB01A90548FEF706FB1CB010BDCC4400100001324080013240000232402DE9F041002800F0EE800646794B5B6813F4003F01D1784C06E0FFF72BF9FAE7F1
:40390000013C0120FEF72CFF744BDB6E0BB1002CF6D1724BD3F8A03013F0010F06D06F4BD3F8B43013F0010F40F0CF806B4BDB6E1BB16B4D2846BDE8F081FFF789FF6949DF
:4039400001F5F833684AC3F8A420327842F42022C3F8A8204FF00112C3F8AC20D1F8005115F0010540F0B3801B6F13F0080F3DD00B6801225D4941EA42321343594A1360F7
:40398000544B5B6913F0804F43D1544AD2F8C43043F00303C2F8C430504CD4F8A07047F4403343F03003C4F8A0304020FEF7D8FED4F8B03013F0010F41D027F4803727F07F
:4039C000100747F4003848F02008444BC3F8A0804FF4FA64464B1B6913F0100F3CD1002C3AD0013C0120FEF7BBFEF3E7414B1B68414A934203D83B4B1B68404ABDE7404A67
:403A0000A2FB0332120D374B1B68013AB2D13B4AB3E701210320FEF7B9FF2E4B5B6903F08043384A126892F84420002AB4D0002BB2D0284A936943F080439361ACE701237A
:403A4000C4F8B0304020FEF78BFE0323C4F8B0304020FEF785FEB0E754B92B4D75B3002D7FF468AF31787078FFF7D8FE054661E71A4A936E43F0080393660120FEF758FF3E
:403A800018B947F4003848F0280828F4802343F00103124AC2F8A0300F4C03E0013C0120FEF75EFE0D4BD3F8B43013F0010F01D1002CF3D1002CD1D1134DD0E73046FFF764
:403AC000EFFD0546CBE7114D34E7054D32E7104D30E700BF00002640F07E0E0000F03D400300160000003C4006000001041A0080004032409402000800093D00040A008019
:403B000083DE1B437C0F000804001600010016000200160002440346934200D1704703F8011BF9E710B50139034632B111F8014F03F8014B013A002CF7D11A4400219342B9
:403B400000D110BD03F8011BF9E70000F8B500BFF8BC08BC9E467047F8B500BFF8BC08BC9E467047000000005FF800F06906000803000000010000000100000000000000EF
:403B800005036000040000000100000000000000010000000604600008000000C80A000851030010191601000A0000000000000000000000686000000000000000000000E5
:403BC0000000000012120000000000000C00000000000000000000000066000000000000000000000000000000000000000000004572726F722030413A2052582065727227
:403C00006F7200006A6F696E696E672E2E2E000073656E64696E672E2E2E0000726563656976696E672E2E2E000000004572726F722030313A20415420636F6D6D616E64FA
:403C4000206E6F7420666F756E6400004572726F722030323A20496E76616C696420706172616D6574657273000000004572726F722030333A204154206275666665722060
:403C80006F766572666C6F77000000004572726F722030343A20496E76616C69642048657861646563696D616C2076616C7565004572726F722030353A204C6F5261574140
:403CC0004E20726164696F206572726F72203078000000004572726F722030363A204C6F526157414E204D4143206572726F7220307800004572726F722030373A204C6F4E
:403D0000526157414E20706172616D65746572206572726F72203078000000004572726F722030383A204C6F526157414E2073797374656D206572726F72203078000000E0
:403D40004572726F722030393A204C6F526157414E20697320627573790000004F4B00004572726F722046463A20556E6B6E6F776E206572726F72002D2D3D204F6E6574F2
:403D800068696E78204C6F526157414E20436F7265204F542D583138203D2D2D0D0A3A20547970652D4F7074696F6E2D53746167652D526567696F6E3A2000000D0A3A2091
:403DC0004275696C643A200020283230000000002D0000003A000000290D0A3A204465764555493A200000000D0A3A20537461636B2056657273696F6E3A20000D0A3A203A
:403E0000434D442056657273696F6E3A200000000D0A4F4B000000002E2E2F4F6E657468696E785F43726561746F722E637964736E2F47656E6572617465645F536F757281
:403E400063652F50536F43362F70646C2F647269766572732F7065726970686572616C2F7363622F63795F7363625F756172742E680000000D0A000052583A2000000000F3
:403E800050494E47000000005245534554000000494E464F0000000053544154555300005345545F4F544141000000004A4F494E000000005458000052585F4C454E475472
:403EC0004800000052580000534C4545504D4F4445000000554E4C4F434B0000524144494F5F5345545F46534B5F4D4F44554C4154494F4E00000000524144494F5F5345A8
:403F0000545F46534B5F5041434B455400000000524144494F5F5345545F4C4F52415F4D4F44554C4154494F4E000000524144494F5F5345545F4C4F52415F5041434B4527
:403F400054000000524144494F5F5345545F4652455155454E435900524144494F5F5345545F5458504F574552000000524144494F5F525800000000524144494F5F5458DE
:403F80000000000048454C5000000000803E0010883E0010903E0010983E0010A03E0010AC3E0010B43E0010B83E0010C43E0010C83E0010D43E0010DC3E0010F83E0010C6
:403FC000103F00102C3F0010443F0010583F00106C3F0010783F0010843F0010000000002B00000007000000000000000C0000000800000000020000000000000000000010
:4040000000000000000000000000000000000000000000000B000000000000000000000000000000000000002E2E2F4F6E657468696E785F43726561746F722E637964738D
:404040006E2F47656E6572617465645F536F757263652F50536F43362F70646C2F647269766572732F7065726970686572616C2F6970632F63795F6970635F6472762E6840
:40408000000000002E2E2F4F6E657468696E785F43726561746F722E637964736E2F47656E6572617465645F536F757263652F50536F43362F70646C2F64726976657273C5
:4040C0002F7065726970686572616C2F6770696F2F63795F6770696F2E6300002E2E2F4F6E657468696E785F43726561746F722E637964736E2F47656E6572617465645F6A
:40410000536F757263652F50536F43362F70646C2F647269766572732F7065726970686572616C2F6770696F2F63795F6770696F2E6800002E2E2F4F6E657468696E785F98
:4041400043726561746F722E637964736E2F47656E6572617465645F536F757263652F50536F43362F70646C2F647269766572732F7065726970686572616C2F6970632F46
:4041800063795F6970635F6472762E63000000002E2E2F4F6E657468696E785F43726561746F722E637964736E2F47656E6572617465645F536F757263652F50536F4336AE
:4041C0002F70646C2F647269766572732F7065726970686572616C2F6970632F63795F6970635F706970652E630000002E2E2F4F6E657468696E785F43726561746F722EE3
:40420000637964736E2F47656E6572617465645F536F757263652F50536F43362F70646C2F647269766572732F7065726970686572616C2F737973696E742F63795F7379EE
:4042400073696E742E6300002E2E2F4F6E657468696E785F43726561746F722E637964736E2F47656E6572617465645F536F757263652F50536F43362F70646C2F64726974
:40428000766572732F7065726970686572616C2F737973706D2F63795F737973706D2E630000000000002040000024400000004000000000000023400000304000003140F9
:4042C00000009F40000022400000104002020202020202020210101D800017007500FF030602063604102000000000007FC0000000040000000000000019324B647D00801E
:404300004000080B100000000000FF012002001F00800004FF081018001000140018001C4044484C50000000081000000800000004000000041000000012000004210000F7
:40434000002100000016000040114002C41300138013A013200000001C0000000000214000002540000001400000344000002440000031400000324000001F410000234082
:4043800000001140010101010101010101101010800019005500F0000501053B04101C01010000000FC000000004000001010101011D3A5778960008200010120800000037
:4043C000001F00000010000F002000023F06080E00080009000A000B24282C3034000000100000009000000088000000080000008000000004F0000000F00000400200002A
:404400002005A000D00100018001A00120000000100000002E2E2F4F6E657468696E785F43726561746F722E637964736E2F47656E6572617465645F536F757263652F5030
:40444000536F43362F70646C2F647269766572732F7065726970686572616C2F7363622F63795F7363625F636F6D6D6F6E2E68002E2E2F4F6E657468696E785F43726561D0
:40448000746F722E637964736E2F47656E6572617465645F536F757263652F50536F43362F70646C2F647269766572732F7065726970686572616C2F7363622F63795F73D4
:4044C00063625F756172742E6300000000000000000000000000000066666666000000000000FFFF000000001C1C1C1C1C1C1C1C00000000000000000000000066E6EE6635
:40450000000000000000FFFF000000001C1A1A1A1A1A000000000000000000000000000066E66666000000000000FFFF000000001A1A001C00000000000000000000001069
:40454000000000088C0200005C4500108C0200082C0600004C090008340600000048E80100127A0000093D0000127A0000127A0008000000401F00000000A00FF000000074
:4045800000000000000000000000000000000000000000000000000000000000000000000000000000000000000000000000000000000000000000000000000000000000FB
:4045C000627D840000000000B6120C00E17A0000001B0000010004AAC00000000000000C000008010000000000000000000000000100000000000000000000007200000017
:404600000000000000000001AC020008F10064000A0000000000000000000000000000000000000001006000740E000800006000740E0008B10200108D02001080B2C1003A
:4046400048B3154B1B681A6AB3F8B030C3EBC303D358002BF5DA114B3E22C3F8042141F61E72C3F808210622C3F8182521F07F41C3F81C15D3F81C35074B1B681A6AB3F870
:40468000B030C3EBC303134400225A60034BD3F81C35002BFADA70477C0F000800002640F8B5284B1B6893F83130052B36D9254F3A68166AB2F8B03003EB83031E445268DC
:4046C00002F57042146EA4B200F046FA05463B681968D3F890208A58013C032C1AD8032A22D01868D3F884104258120E4058C0F30720531C00FB0333134800FB03F3134A6C
:404700001068134AA2FB00208009B3FBF0F08230FFF794FF284600F02BFAF8BD40F2C3110C4800F029FAC2E74FF0B052D27A002AD7D10822B2601968D3F890208A58032AA1
:40474000F9D0CEE77C0F000840420F0090020008D34D6210284000104378FF2B00D0704710B500F0F9F90446134B1B6893F83130042B1AD9104B1A68136AB2F8B02003EBE5
:404780008203DA680D4B1A6100215961012199615268DA6113680B431360136813F0010FFBD1204600F0E4F910BD40F2C311044800F0E2F9DEE700BF7C0F0008080F00088A
:4047C000284000102DE9F84307468846524B1B6893F83130012B35D94F4B1B681C6AB3F8B0201444D3F8B450254493F85030002B73D04FF0B053DB7A002B3FD1464B1B6882
:4048000093F83130052B23D9434B19680A6AB1F8B03003EB83031344D1F8B420D358002B73DB002000F0A0F93C4B98426FD000233B4A126A0121184600F086F9064670B17F
:40484000384C32E040F2C311374800F095F9C3E740F2C311344800F08FF9D5E70136002000F082F92D4B984202D0304B9E42F5D92E4B9E424DD84FF0010901E04FF0000940
:4048800000F06AF906462A4BD3F81C35002B0FDB244CB9F1000F05D00121002000F070F90028F9D1304600F063F92046BDE8F8831B4A0121204600F04BF908B1194CE8E7D2
:4048C0004046FFF7BBFE37B12B68002BFCDB00F047F90446DDE7174CDBE700F03DF906460F4A0121204600F033F938B95FB12B68002BFCDB00F034F9044600E0094C30468C
:4049000000F036F9D1E70B4CF9E7064CCDE7054CCBE7044CC9E700BF7C0F000801018800080F00080500520028400010EF490200000026400100500070B57F4B19684C6881
:404940004FF0B0535B782BB14FF0B0535B78DBB2212B5BD10A6AB1F8B030C3EBC30302EB030CD358002BF5DADCF80C3043F00103CCF80C300B6AB1F8B020C2EBC20213449D
:40498000DA6812F0020F30D0DA681FFA82FC0D68D1F88420AA58120A120402F47F02D1F88860AD594FEA152E42EA0E624CEA0202DA600D68D1F88420AB5823F47F4343F404
:4049C0001063AB505C4A13681D68D3F888106B5823F47F4343F410636B5013681A68D3F884105158D3F88830D358534B1B68196AB3F8B020C2EBC2020A44002151601A6A58
:404A0000B3F8B030C3EBC30313445B684A4B1B681968D3F89430194405E030BF0B6803F00303022B0FD1454A136943F0040313610128F2D120BF424B1B7803B120BF404BC9
:404A400001221A70EAE73C4B1A68116AB2F8B030C3EBC303C818CB58002BF4DA4FF0B0535B7873B34FF0B0535B78DBB2212B28D0D4F80C31002B53D1324BD3F80801D3F8A5
:404A80001815D3F8042141F61E75C3F808510625C3F818553E25C3F804514425C3F81C55284BD3F81C35002BFADA4FF0AA33C4F80C31244BC3F80801C3F81815C3F8042102
:404AC0002EE0C36813F0020F1ED01468D2F88410625822F47F42C3681B0C1B029BB213436350154B1A681468D2F88800235823F47F43116AB2F8B020C2EBC2020A44D26859
:404B0000120E43EA022323500B4B1A68136AB2F8B020C2EBC2021344DA6822F00102DA60054B1B681A6AB3F8B030C3EBC303134400225A6070BD00BF7C0F000800ED00E093
:404B4000400F0008000026405FF800F0252400105FF800F0112000105FF800F0232900105FF800F08D1A00105FF800F0112200105FF800F02B2900105FF800F07927001083
:404B80005FF800F0952100100000000000000000000000000000000000000000000000000000000000000000000000000000000000000000000000000000000000000000E8
:404BC00000000000000000000000000000000000000000000000000000000000000000000000000000000000000000000000000000000000000000000000000000000000B5
:0200000490303A
:02000000692E67
:0200000490501A
:0C0000000005E20721002100E2238A2E07
:00000001FF