:020000041000EA
:4000000000F00308BB2100100D00000021220010212200102122001021220010000000000000000000000000000000001D2200101D220010000000001D2200101D22001044
:400040001D2200101D2200101D2200101D2200101D2200101D2200101D2200101D2200101D2200101D2200101D2200101D2200101D2200101D2200101D2200101D22001090
:400080001D2200101D2200101D2200101D2200101D2200101D2200101D2200101D2200101D2200101D2200101D2200101D2200101D2200101D2200101D2200101D22001050
:4000C0001D2200101D2200101D2200101D2200101D2200101D2200101D2200101D2200101D2200101D2200101D2200101D2200101D2200101D2200101D2200101D22001010
:400100001D2200101D2200101D2200101D2200101D2200101D2200101D2200101D2200101D2200101D2200101D2200101D2200101D2200101D2200101D2200101D220010CF
:400140001D2200101D2200101D2200101D2200101D2200101D2200101D2200101D2200101D2200101D2200101D2200101D2200101D2200101D2200101D2200101D2200108F
:400180001D2200101D2200101D2200101D2200101D2200101D2200101D2200101D2200101D2200101D2200101D2200101D2200101D2200101D2200101D2200101D2200104F
:4001C0001D2200101D2200101D2200101D2200101D2200101D2200101D2200101D2200101D2200101D2200101D2200101D2200101D2200101D2200101D2200101D2200100F
:400200001D2200101D2200101D2200101D2200101D2200101D2200101D2200101D2200101D2200101D2200101D2200101D2200101D2200101D2200101D2200101D220010CE
:400240001D2200101D2200101D2200101D2200101D2200101D2200101D2200101D2200101D2200101D2200101D2200101D2200101D2200101D2200101D2200101D2200108E
:400280001D2200101D2200101D22001010B5054C237833B9044B13B10448AFF300800123237010BD5C1200080000000080A7001008B5034B1BB103490348AFF3008008BDAD
:4002C000000000006012000880A7001010464FF0000C0FE0124B93F82C3013F0040FF9D1104B032283F82C200CE00E4A82F82C300CF1010CC31C23F0030363450EDD1CF097
:40030000030FE7D0064B93F82C3013F00403F9D18445EADA11F90C30DBB2E6E7704700BF001634400014344010B5C82001F0B2F900F030F800214C1C044802F0CDFD4FF4FE
:400340007A7001F0A7F92146F5E700BF44920010074B062283F8282003F58073472283F8282003F5A063002283F82C20704700BF0012344008B501F06CFF054A92F82C3098
:4003800043F0100382F82C30C0B201F066FF08BD0019344008B5064B1B7813B1FFF7EAFF08BDFFF7D5FF024B01221A70F6E700BF78120008FEE730B50546002214460DE08E
:4003C00001EB420E11F812C09EF801E00CF800E00132013BDBB2002BF2D10134032C05D855F82400C3B220F0FF00F4E730BD0000024B034AC3F8002E704700BF00001F414A
:400400000100118030B587B0704AD2F8003523F0030343F00103C2F800356D4B1B68019301A801F093FC6B4A13681868D3F88810435823F47F43435013681868D3F88410AA
:40044000435823F07F43435013681868D3F88410435823F47F4343F4A0634350136893F83E2032B15949D1F8802322F00F02C1F8802393F83E2032B15449D1F8802322F023
:400480003002C1F8802393F83E2032B14F49D1F8802342F00042C1F8802393F83E20012A08D94A49D1F8842322F00F0242F00102C1F8842393F83E20012A06D94349D1F816
:4004C000842322F03002C1F8842393F83E30012B06D93E4AD2F8843343F00043C2F8843340F21111012000F037FF0021022000F033FF0021032000F02FFF0021042000F026
:400500002BFF0021084600F027FF01AC324D0FCD0FC42B68236001A800F04CFF00284FD12E4AD2F8083F43F00043C2F8083F2C4800F0F2FF002846D1244CD4F8043543F4AF
:40054000407343F00103C4F80435D4F8043523F47F0343F4C603C4F80435D4F8043543F00043C4F80435D4F8003523F47063C4F80035D4F8003523F4E04343F48053C4F8BC
:400580000035D4F8003543F40043C4F80035154A136823F440731360012001F0E1F9D4F8803113F0010F05D1D4F80C3523F00043C4F80C353021002001F0F2F807B030BDE1
:4005C0000420FFF7F7FE0420FFF7F4FE00002640589200107C1200085C92001000702640400D03000000274008B50A46002102F021FC08BD08B502F083FB08BD30B58FB047
:400600009621002001F0CCF834252A46002101A802F010FC2B4C01AA0021204600F04AF92A46002101A802F005FC01AA0121204600F040F9FFF7E6FE234B244AC3F8F021B6
:40064000002409E0224A04EB44014B00D1188988D058FFF7C9FF01340B2CF3D900240AE01C4804EB44029300C1188A684968C058FFF7C0FF0134112CF2D917491748FFF7F5
:400680009AFE174AD2F8003943F00603C2F800392422002101A802F0CDFB01A9094800F0B9FA01AC0F4D0FCD0FC40FCD0FC42B68236001A90C4800F0ADFAFFF799FE0FB049
:4006C00030BD00BF00003240000021400300FA059C9C0010C49B0010F49C0010E49C0010007034407092001080043240014B1860704700BF7C120008B0F1204F3CD018D8CA
:4007000080283BD007D9B0F5807F3FD0244B984209D024487047102832D0402801D12248704700282ED170474FF4A40070471D4870471E4B98422BD02DD31D4B98422CD87D
:40074000B0F1704F12D900F1805001380428EED801A353F820F000BF290700102F0700108907001071070010750700100D4870471048704710487047002070470F4870473B
:400780000F487047074870470E487047044870474FF4A0007047034870470248C3E700BF06005200FF00520002005000090000A0050000F00200520003005200050052002D
:4007C000010050000100520010B5124B1B6893F83130012B16D90F4B1C68236AB4F8B0201344D4F8B420D358002B11DB0A4B1868FFF782FF636801229A6063689B68002B5C
:40080000FBD110BD40F2C311044800F067FFE2E70348F6E77C12000880120008749E0010020050001A4B186028B102230370FF23437000234380174B1B6893F8502002B93E
:40084000704700B583B0B3F93830ADF80030002301931149684600F0E3FEBDF90030002B07DB03F01F015B0901228A400B4941F82320084B1B6893F8513013B903B05DF883
:4008800004FB02220649012000F0D2FBF6E700BF901200087C120008C90C000800E100E0810D000808B50248FFF7BCFF08BD00BF94120008002800F0A181F8B50D4614465A
:4008C0000646002A00F09C81072900F2F8802368012B00F2F980636833F00F0340F0F980237A33F01F0340F0F980E368032B00F2FA802369012B00F2FB806369012B00F291
:40090000FC80A369012B00F2FD80E369032B00F2FE80236A012B00F2FF80636A012B00F20081A36A012B00F20181E36A032B00F20281236B072B00F203812768072D00F28C
:400940000481012F00F20781002F40F00A810123AB4073606768072D00F2078137F00F0340F00981A800A74B1B6893F87D108B590F22824023EA020307F00F0787401F43B8
:400980008F51277A072D00F2FC8037F01F0340F0FE809C4B1A689369F31ADB095269190102EB0313032D00F2F88053584FEAC50C1F2000FA0CF023EA000307F01F0707FA3D
:4009C0000CF71F435750E768082D00F2F380032F00F2F68068008B4B1B6893F87C108B590322824023EA020207F00303834013438B512769082D00F2E980012F00F2EC8014
:400A0000B3690122AA4023EA020307F00107AF401F43B7616769072D00F2E480012F00F2E7807848036893F87EC05CF806300121A94023EA010307F00102AA401A434CF811
:400A400006206A0002F1100C032303FA0CF31943036893F87F70BB5923EA0101A36903F00103AB400B43E26902F0030202FA0CF21343BB51036893F88020B15821F0FF01C7
:400A8000236A03F00103606A400000F002000343A06A800000F004000343E06AC00000F018000343206B4001C0B20343AD0005F47E7503FA05F50D43B5500020F8BD4521B0
:400AC000514800F00BFE02E746214F4800F006FE01E747214C4800F001FE01E748214A4800F0FCFD01E74921474800F0F7FD00E74A21454800F0F2FDFFE64B21424800F09C
:400B0000EDFDFEE64C21404800F0E8FDFDE64D213D4800F0E3FDFCE64E213B4800F0DEFDFBE64F21384800F0D9FDFAE65021364800F0D4FDF9E65121334800F0CFFDF8E64B
:400B40005221314800F0CAFDF7E640F227312F4800F0C4FDF5E64FF44A712C4800F0BEFDF2E60123AB40B360F4E64FF47171274800F0B4FDF2E640F2C531244800F0AEFD3B
:400B8000F0E64FF42271214800F0A8FDFDE640F289211E4800F0A2FDFBE62A1F5968D2001F20904021EA000107F01F0797400F435F6008E74FF4DD61144800F08FFD06E7C5
:400BC00040F2E961114800F089FD03E740F269610E4800F083FD10E740F26A610B4800F07DFD0DE740F20341084800F077FD15E740F20441054800F071FD12E70448704715
:400C000003485BE77C1200080C9F0010A09F001001005A0000286ED070B50C46054600296BD00B6833F0FF0347D1236933F0FF0348D1A3685B0D5B05002B48D1636823F42D
:400C4000FF7323F00103002B46D1E36913F0604F47D1236A13F0604F48D1294B19688A69AA1AD2094969100101EB021226682E601E6896F87DC0E66845F80C601E6896F879
:400C80007EC0266945F80C601E6896F87FC0666945F80C601E6896F87CC0A66845F80C606668AE611B6893F88030A669EE50E3690B50236A5360002070BD9921114800F0CD
:400CC0000DFDB2E79A210F4800F008FDB1E79B210C4800F003FDB1E79C210A4800F0FEFCB3E79D21074800F0F9FCB2E79E21054800F0F4FCB1E7044870470348DCE700BFA8
:400D00007C1200080C9F001001005A0038B50C4B1B68D3F8B4301B58002B01DB094838BD05460C460B0C1B041BB9A4B26C600020F5E740F2D521044800F0D0FCF5E700BF41
:400D40007C12000801008A00749E001038B50368002B0FDA05460C46C2600B0C1B041BB9A4B2AC60002038BD40F2BB21024800F0B5FCF5E70148F6E7749E001001008A00DC
:400D800038B504460D4651B1084B1B68D3F8B4301B59002B08DAE3682B60002038BD9921034800F09BFCEFE70248F7E77C12000834A0001001008A00034B1B6803B17047EB
:400DC000014B1860FBE700BFA81200082DE9F84304460E4617461D46DDF82080324B1B68002B44D0304B1B682C2004FB00F01C185FFA85F943F80090C5F3072363602D0C7C
:400E0000A5602A4B1B6893F83130994534D2274B1B681A6AB3F8B01001FB09222261656893F832309D422DD2204B1B681A6A05F1800302EB43156561D4F808904FEA1943D0
:400E40001B042BBB4FEA19431B043BBB1FFA89F343EA0943AB60E76126620023A361B8F1000F02D0B8F90030A381BDE8F883B5210F4800F033FCB5E740F2C3110D4800F0D1
:400E80002DFCC4E740F2DF110A4800F027FCCBE74FF4FF71074800F021FCD3E740F2FF11044800F01BFCD1E7A81200087C120008CCA00010749E001030B58FB00446002883
:400EC00049D0A369072B4BD8E36A002B4DD0236B002B4FD00DF11C0C04F1140EBEE80F00ACE80F00DEF80030CCF800300DF1080CA646BEE80F00ACE80F00DEF80030CCF85C
:400F000000301F4B1B68DB8E079A1344ADF83030089B0D930CAD00950B9BA26AE16A0A98FFF754FF00210091069B0A460598FFF74DFF216B284600F073FBBDF93030002B9A
:400F400007DB03F01F015B0901228A400D4941F823200FB030BD52210B4800F0BFFBB0E75621094800F0BAFBAEE75821064800F0B5FBACE75921044800F0B0FBAAE700BFF9
:400F80007C12000800E100E0CCA00010F8B507460E461C46154652B3204B1B6863B31F4B19682C2202FB071002FB06114A684FF0010C0CFA02F2120446680CFA06F60369BF
:400FC0002BB38F692FBB1B68002B24DA2B882B601A432A600369DD60C1F818C04C620469330C1B046BB9B6B2A6603846F8BDFD210B4800F073FBCFE7FE21094800F06EFB9A
:40100000CDE740F2BB21074800F068FBEBE7064FEBE7064FE9E7054FE7E700BFA8120008CCA00010749E001004028A0007028A00F8B506460F4615460F4B1B6873B10E4BC7
:401040001C682C2000FB0644236A6BB1E369AB4210D9236A43F825700020F8BD4FF4AF71064800F03BFBEAE74FF4B171034800F035FBEBE70248F0E7A8120008CCA00010B5
:401080000A028A0070B582B000230193044680B12369A3B16369C3B1236AE3B16369DD682A0C1ED1ADB2002D3DD163691B6802B070BD40F2D111244800F010FBE8E74FF445
:4010C000E971214800F00AFBE4E740F2D3111E4800F004FBE0E74FF4EA711B4800F0FEFADCE712041A601B682069184B1B68D3F8B4301B58002BD5DA01A9FFF741FE60B919
:40110000019803681E0CDBB2E2699A4206D9226A52F8233013B1984700E0002631462069FFF7F4FDBEE763691D601B68636A2BB19847002363620023A361B6E7A36A002B58
:40114000F9D09847F7E700BFCCA000107C12000810B50446084B1B683BB1074B1B682C2000FB0430FFF78EFF10BD40F2B111034800F0B4FAF1E700BFA8120008CCA00010F5
:40118000264B1B6893F83130834242D970B505460C4600293FD00B6813F01F0F01D0204870BD1E4B1B6893F8313098421CD21B4B1B68186AB3F8B03003FB0505194E3560D1
:4011C0002268D2080021606801F034FE00212846FFF79CFD35686CB1224600212846FFF7B5FD68B11048DBE740F2C3110F4800F075FADCE740F293310C4800F06FFAEBE7E1
:401200000021084B1868FFF781FD0028C8D00648C6E7034870470248C2E700BF7C12000803018A00B412000801018A00749E001038B505460C4613461AB113B3D4B91248DC
:4012400038BD0029F9D1114B1B6893F8313098420AD20E4B1B68186AB3F8B03003FB05000B4B18602046EBE740F2C311094800F035FAEEE708490C604B602846FFF780FF7D
:40128000DEE70148DCE700BF03018A007C120008B4120008749E0010AC1200082DE9F041194B1B68DD682B6883422BD90C46460900F01F00012303FA00F8B9B10027124B3E
:4012C00018680368002B17DA6A6852F8263013EA080F0FD023EA080342F8263000250021FFF714FD54B12846BDE8F08100F0B1FF0746E4E7054DF2E7054DF3E7384600F087
:40130000ACFFF0E7034DEEE7B4120008020188000301880004018A000B4B1B68DB681A6882420CD9410900F01F00012202FA00F05B6853F82130034203D00448704704481D
:4013400070470448704700BFB41200080101880004018A0000018800134B1B6893F83C3083421DD9042904D9A1F580739BB2132B18D8FF290CD901F01F010C4B00F1C002BB
:4013800043F82210D030042243F820200020704701F00701D030054B43F820100020704703487047024870477C1200080000264001004A0010B50446002868D0514BD3F89D
:4013C0008035002BC0F29B802368B3F5802F64D22368C3F31103E279002A64D04FF080721343484AC2F88035A388B3F5005F5CD22389B3F5007F5ED2A388C3F30C03218995
:40140000414A02EA014213433E4AC2F88435A37A0F2B56D8E37A0F2B59D8A389B3F5005F5BD2A37A03F00F03E27A1201D2B21343A189364A02EA01221343A27B120702F052
:40144000405213432F4AC2F88835A379042B4AD8238AB3F5007F4CD22A49D1F88C3523F4E063A279120202F4E0621343C1F88C35D1F88C3523F0FF7323F48033208A224AB8
:4014800002EA00421343C1F88C35002010BD40F21F211F4800F022F990E740F229211C4800F01CF994E700229AE74FF40C71184800F014F99CE740F23121154800F00EF96B
:4014C0009AE74FF40E71124800F008F9A2E740F239210F4800F002F99FE740F23A210C4800F0FCF89DE740F24321094800F0F6F8AEE74FF41171064800F0F0F8ACE7054813
:40150000C4E700BF000026400000FF0100FF1F0064A1001003004A0038B505462C4AD2F88C3543F00043C2F88C35044603E0012000F0C8F8013C264BD3F8903513F0040FDF
:4015400001D1002CF3D1224AD2F8883523F0405343F00053C2F8883505B15CB11C4AD2F8803543F00043C2F8803503E0012000F0A9F8013C164BD3F8903513F0010F01D1DE
:40158000002CF3D105B15CB1114AD2F8883543F04053C2F888350DB1C4B10025284638BD0B4BD3F8882522F0405242F00052C3F88825D3F8802522F00042C3F88025D3F851
:4015C0008C2522F00042C3F88C25E4E7014DE5E70000264002004A0038B504460C4B9A680C4B9A4204D010340B4B53F8240038BD0D4631B11034074B53F8240043F8245065
:40160000F5E740F23711054800F068F8F2E700BF00ED00E00000000800000010FCA1001060B338B50D4604464368072B13D8B4F900306268002B13DB5201D2B203F16043FA
:4016400003F5614383F800230D4B9A680D4B9A420DD0002038BD32210B4800F03FF8E6E703F00F035201D2B20849CA54ECE72946B4F90000FFF7B0FF0020EBE70448704742
:4016800000ED00E000000008FCA1001014ED00E00100560010B5044605E0084B186800F0CFFDA4F50044B4F5004FF6D8044B186804FB00F000F0C4FD10BD00BF9C020008A9
:4016C000A402000808B5034B1B7803FB00F000F0B7FD08BDA802000801BEFEE738B50C46044D18220146284601F00AFCAC610020FFF7F2FFC8110008FEE7000008B502687A
:40170000254BDA6142681A6282685A62C2689A620269DA6242691A6382695A63C2699A631E4A916AD963D16A1964516A5964516B9964926BDA64F1EE103A13F0900F27D0E8
:40174000026A154B1A65426A5A65826A9A65C26ADA65026B1A66426B5A66826B9A66C26BDA66026C1A67426C5A67826C9A67C26CDA67026DC3F88020426DC3F88420826D26
:40178000C3F88820C26DC3F88C20026EC3F89020FFF7B2FF08BD00BFC811000800ED00E070B40446002830D01923304802681668B2F8A850725922F003028B422CBF0023EB
:4017C00001231A43725102681668B2F8A850725922F44072725102681568B2F8AAC055F80C2022F00302134345F80C3003681868B3F8AA20835823F4407383503CB110296D
:401800001DD9212926D801221AE06423CDE7174B1B6893F855208A421ED293F856208A421CD293F857208A421AD293F858208A4218D293F859308B4216D3042200E0002251
:401840000A4B1B6859680B6823F00F0313430B6070BC70470222F3E70022F1E70122EFE70222EDE70322EBE70522E9E77C12000810B5044601280BD884B9114B5869C00FE2
:40188000104B1B6893F844300BB1012C08D010BD40F262710C48FFF721FFEDE70020EFE7074B9B6913F0804F07D1054B9B69002B01DB0020EBE70120E9E70120E7E700BF98
:4018C000000026407C12000894A2001038B5164B1B6893F8443013B304460D46072809D8114B1B6893F8443053B1104B9B6903F0070306E040F2CC710D48FFF7EFFEEFE7C2
:401900000023DBB29C420AD008498A6922F0070204F0070002438A610DB19C4200D838BDC820FFF7CFFEFAE77C1200080000264094A2001008B500F08CFC074B5A680749E5
:401940000A4042F468525A605A680A405A605B6800F083FC08BD00BF00002640FF00FC0F04280FD000060B4B1B681A68D3F8A03000F04070D0504FF0E022136923F00403E9
:40198000136170474FF0E022136943F004031361704700BF7C12000838B50D4640F4004000040D4BD8614FF47A740B4B1B6C13F0010F05D124B1013C0120FFF783FEF4E7C0
:4019C00044B1054B1A6C42F001021A64DB6A2B80002038BD0148FCE700003C400400160010B50E4B03EA00430B430D4AD3614FF47A740B4B1B6C13F0010F05D124B1013C72
:401A00000120FFF75FFEF4E734B1054A136C43F001031364002010BD0248FCE70000FF7F00003C400400160070B582B005460A2407E0BCB1013CB3B9BDF80620B2F5C05F5A
:401A400011D04FF4C05141F60260FFF7C9FF03460028EED10DF1060141F60260FFF79CFF0346E6E7824B002B57D0002B00F08180002B36D1BDF8063023F03F039BB2ADF8C6
:401A80000630AA78012A7CD0EA78002A40F0908096B2C2F10104A4B223F040039BB2ADF8063043F01003ADF80630724BD340724A1360BDF80610314389B2ADF8061041F62B
:401AC0000960FFF78DFF0346EA78961B06F00306ADF80660A400A4B23443ADF80640674A54664FF0B0525278A2B14FF0B0525278D2B2212A0ED0624AB2F8162892B24AB1E5
:401B0000002B58D0002B5ED0002B00F09180002B00F09680184602B070BD0DF1060141F60360FFF739FF034600289ED1BDF8062012F4806F99D10A2408E0C4B1013C002B85
:401B400093D1BDF80620B2F5806F8ED04FF4806141F60360FFF744FF03460028EDD10DF1060141F60360FFF717FF0346E5E7404B7BE70DF1060141F60960FFF70DFF03466F
:401B800076E7EA78012A0ED90024022643F04003ADF8063043F03003ADF80630394BD340354A136085E796B2C2F10204A4B2EDE70024012670E70DF1060141F60760FFF71B
:401BC000EBFE03469EE7BDF8063023F060039BB2ADF806302A48B0F81628C2F38912520102F060021343ADF8063023F428639BB2ADF80630B0F8162892B2D20102F4F06216
:401C00001343ADF8063023F4C05189B2ADF80610B0F81638C3F30723DB0203F4C0531943ADF8061041F60760FFF7DAFE03466BE70DF1060141F60660FFF7AEFE034666E7A0
:401C4000BDF8061021F0C00189B2ADF806100C4BB3F81638C3F30B139B0103F0C0031943ADF8061041F60660FFF7BAFE034651E7040016000024F4009002000800F03D403F
:401C8000001000160048E80138B50C4641F2010141EA400141F60860FFF7A2FE054620B16001FFF70FFD284638BD46F6370141F60F60FFF795FE0546F2E7000010B59CB0FE
:401CC0001E4C0DF14C0CA646BEE80F00ACE80F00BEE80F00ACE80F00DEF80030CCF800300DF1280C04F1240EBEE80F00ACE80F00BEE80F00ACE80F00DEF80030CCF800308B
:401D00000DF1040E04F1480CBCE80F00AEE80F00BCE80F00AEE80F00DCF80030CEF8003013A90748FEF776FF0AA90648FEF772FF01A90548FEF76EFF1CB010BD2CA30010F3
:401D40000001324080013240000232402DE9F041002800F0EE800646794B5B6813F4003F01D1784C06E0FFF7E5FDFAE7013C0120FFF7A8FC744BDB6E0BB1002CF6D1724B02
:401D8000D3F8A03013F0010F06D06F4BD3F8B43013F0010F40F0CF806B4BDB6E1BB16B4D2846BDE8F081FFF789FF694901F5F833684AC3F8A420327842F42022C3F8A82076
:401DC0004FF00112C3F8AC20D1F8005115F0010540F0B3801B6F13F0080F3DD00B6801225D4941EA42321343594A1360544B5B6913F0804F43D1544AD2F8C43043F00303AC
:401E0000C2F8C430504CD4F8A07047F4403343F03003C4F8A0304020FFF754FCD4F8B03013F0010F41D027F4803727F0100747F4003848F02008444BC3F8A0804FF4FA6488
:401E4000464B1B6913F0100F3CD1002C3AD0013C0120FFF737FCF3E7414B1B68414A934203D83B4B1B68404ABDE7404AA2FB0332120D374B1B68013AB2D13B4AB3E7012187
:401E80000320FFF723FD2E4B5B6903F08043384A126892F84420002AB4D0002BB2D0284A936943F080439361ACE70123C4F8B0304020FFF707FC0323C4F8B0304020FFF795
:401EC00001FCB0E754B92B4D75B3002D7FF468AF31787078FFF7D8FE054661E71A4A936E43F0080393660120FFF7C2FC18B947F4003848F0280828F4802343F00103124A8B
:401F0000C2F8A0300F4C03E0013C0120FFF7DAFB0D4BD3F8B43013F0010F01D1002CF3D1002CD1D1134DD0E73046FFF77DFD0546CBE7114D34E7054D32E7104D30E700BFF5
:401F400000002640F07E0E0000F03D400300160000003C4006000001041A0080004032409802000800093D00040A008083DE1B437C12000804001600010016000200160012
:401F800008B50120FFF7E4F808BD0000604BD3F8802302F00F0202F1D00153F8213003F00703042B17D8DFE803F0031616050800584B11E0584B1B680EE002F1C003544924
:401FC00051F8233003F01F03112B1DD0132B1ED14FF4004300E0514BB2BB4D4AD2F8900500F00100D2F88815C1F30171D2F8882512F0405F0ED0464AD2F88825C2F30172D2
:40200000012A08D0002206E04FF40043E4E74FF4FA43E1E7012202B108B9032916D13C49D1F88005C0F31100D1F88425C2F30C02D1F88015C1F300610131B3FBF2F300FB53
:4020400003F3B3FBF1F301E0012A31D0304AD2F88023C2F30112D340314A1360314AD2F89010C1F3072101311269120E0132B3FBF2F22D480260B3FBF1F32C4A13602C4A00
:40208000136003F5742202F23F222A49A1FB0212C2F3874228490A7003F2E733274AA2FB03239B09264A1360DB03264A13607047174AD2F8400600F00100D2F80016C1F306
:4020C0000171D2F8002612F0405F08D0104AD2F80026C2F30172012A02D0002200E0012202B108B90329B1D10949D1F8002602F07F02D1F80006C0F30420D1F80016C1F362
:40210000044102FB03F3B3FBF0F3B3FBF1F39DE70000264000127A009002000800366E019402000800002140980200088C020008A002000883DE1B43A8020008D34D6210AB
:40214000A40200089C02000808B50D48FEF7CEFAFEF754FAFFF71AFF002211460420FFF767F80848FEF728FE074B1B6893F8513013B9FEF797FB08BD0448FEF79DFEF8E7D9
:40218000BC9D0010BC1200087C12000898A3001008B500F05EF8074AD2F8883043F47003C2F88830BFF34F8FBFF36F8F00F055F808BD00BF00ED00E07047FFF7FDFF72B66E
:4021C000104C114DAC4209DA21686268A368043BA2BFC858D050FAE70C34F3E70B490C4A00209142BCBF41F8040BFAE709480A490860BFF34F8FFFF7CBFFFFF7A5FFFEF7EF
:4022000093F8FEE78CA70010A4A700105C120008881400080000000808ED00E0FEE7FEE700B504207146084202D0EFF3098001E0EFF308800430FFF761FAFEE70000000003
:402240000230800803D001300238FCD100BF00BF7047EFF3108072B6704780F31088704781F0004102E000BF83F0004330B54FEA41044FEA430594EA050F08BF90EA020F80
:402280001FBF54EA000C55EA020C7FEA645C7FEA655C00F0E2804FEA5454D4EB5555B8BF6D420CDD2C4480EA020281EA030382EA000083EA010180EA020281EA0303362D3F
:4022C00088BF30BD11F0004F4FEA01314FF4801C4CEA113102D0404261EB410113F0004F4FEA03334CEA133302D0524263EB430394EA050F00F0A780A4F10104D5F1200E48
:402300000DDB02FA0EFC22FA05F2801841F1000103FA0EF2801843FA05F359410EE0A5F120050EF1200E012A03FA0EFC28BF4CF0020C43FA05F3C01851EBE37101F0004561
:4023400007D54FF0000EDCF1000C7EEB00006EEB0101B1F5801F1BD3B1F5001F0CD349085FEA30004FEA3C0C04F101044FEA445212F5800F80F09A80BCF1004F08BF5FEA80
:40238000500C50F1000041EB045141EA050130BD5FEA4C0C404141EB0101013C28BFB1F5801FE9D291F0000F04BF01460020B1FA81F308BF2033A3F10B03B3F120020CDA2C
:4023C0000C3208DD02F1140CC2F10C0201FA0CF021FA02F10CE002F11402D8BFC2F1200C01FA02F120FA0CFCDCBF41EA0C019040E41AA2BF01EB0451294330BD6FEA040469
:402400001F3C1CDA0C340EDC04F11404C4F1200220FA04F001FA02F340EA030021FA04F345EA030130BDC4F10C04C4F1200220FA02F001FA04F340EA0300294630BD21FAA2
:4024400004F0294630BD94F0000F83F4801306BF81F480110134013D4EE77FEA645C18BF7FEA655C29D094EA050F08BF90EA020F05D054EA000C04BF1946104630BD91EAF6
:40248000030F1EBF0021002030BD5FEA545C05D14000494128BF41F0004130BD14F580043CBF01F5801130BD01F0004545F0FE4141F470014FF0000030BD7FEA645C1ABFA6
:4024C000194610467FEA655C1CBF0B46024650EA013406BF52EA033591EA030F41F4002130BD00BF90F0000F04BF0021704730B54FF4806404F132044FF000054FF000016D
:4025000050E700BF90F0000F04BF0021704730B54FF4806404F1320410F0004548BF40424FF000013EE700BF42004FEAE2014FEA31014FEA02701FBF12F07F4393F07F4FEB
:4025400081F06051704732F07F4208BF704793F07F4F04BF41F40021704730B54FF4607401F0004521F000411CE700BF50EA010208BF704730B54FF000050AE050EA0102AF
:4025800008BF704730B511F0004502D5404261EB41014FF4806404F132045FEA915C3FF4D8AE4FF003025FEADC0C18BF03325FEADC0C18BF033202EBDC02C2F1200300FAF1
:4025C00003FC20FA02F001FA03FE40EA0E0021FA02F11444BDE600BF70B54FF0FF0C4CF4E06C1CEA11541DBF1CEA135594EA0C0F95EA0C0F00F0DEF82C4481EA030621EA3C
:402600004C5123EA4C5350EA013518BF52EA033541F4801143F4801338D0A0FB02CE4FF00005E1FB02E506F00042E0FB03E54FF00006E1FB03569CF0000F18BF4EF0010E58
:40264000A4F1FF04B6F5007F64F5407404D25FEA4E0E6D4146EB060642EAC62141EA55514FEAC52040EA5E504FEACE2EB4F1FD0C88BFBCF5E06F1ED8BEF1004F08BF5FEA1D
:40268000500E50F1000041EB045170BD06F0004646EA010140EA020081EA0301B4EB5C04C2BFD4EB0C0541EA045170BD41F480114FF0000E013C00F3AB8014F1360FDEBF72
:4026C000002001F0004170BDC4F10004203C35DA0C341BDC04F11404C4F1200500FA05F320FA04F001FA05F240EA020001F0004221F0004110EBD37021FA04F642EB0601EF
:402700005EEA430E08BF20EAD37070BDC4F10C04C4F1200500FA04F320FA05F001FA04F240EA020001F0004110EBD37041F100015EEA430E08BF20EAD37070BDC4F12005AC
:4027400000FA05F24EEA020E20FA04F301FA05F243EA020321FA04F001F0004121FA04F220EA020000EBD3705EEA430E08BF20EAD37070BD94F0000F0FD101F0004640009B
:4027800041EB010111F4801F08BF013CF7D041EA060195F0000F18BF704703F00046520043EB030313F4801F08BF013DF7D043EA0603704794EA0C0F0CEA135518BF95EABD
:4027C0000C0F0CD050EA410618BF52EA4306D1D181EA030101F000414FF0000070BD50EA410606BF1046194652EA430619D094EA0C0F02D150EA013613D195EA0C0F05D1BC
:4028000052EA03361CBF104619460AD181EA030101F0004141F0FE4141F470014FF0000070BD41F0FE4141F4780170BD70B54FF0FF0C4CF4E06C1CEA11541DBF1CEA13559A
:4028400094EA0C0F95EA0C0F00F0A7F8A4EB050481EA030E52EA03354FEA013100F088804FEA03334FF0805545EA131343EA12634FEA022245EA111545EA10654FEA00267C
:402880000EF000419D4208BF964244F1FD0404F5407402D25B084FEA3202B61A65EB03055B084FEA32024FF480104FF4002CB6EB020E75EB030E22BFB61A754640EA0C00D6
:4028C0005B084FEA3202B6EB020E75EB030E22BFB61A754640EA5C005B084FEA3202B6EB020E75EB030E22BFB61A754640EA9C005B084FEA3202B6EB020E75EB030E22BFFD
:40290000B61A754640EADC0055EA060E18D04FEA051545EA16754FEA06164FEAC30343EA52734FEAC2025FEA1C1CC0D111F4801F0BD141EA00014FF000004FF0004CB6E756
:4029400011F4801F04BF01430020B4F1FD0C88BFBCF5E06F3FF6AFAEB5EB030C04BFB6EB020C5FEA500C50F1000041EB045170BD0EF0004E4EEA113114EB5C04C2BFD4EBEB
:402980000C0541EA045170BD41F480114FF0000E013C90E645EA060E8DE60CEA135594EA0C0F08BF95EA0C0F3FF43BAF94EA0C0F0AD150EA01347FF434AF95EA0C0F7FF422
:4029C00025AF104619462CE795EA0C0F06D152EA03353FF4FDAE1046194622E750EA410618BF52EA43067FF4C5AE50EA41047FF40DAF52EA43057FF4EBAE12E753B94AB9B1
:402A0000002908BF00281CBF4FF0FF314FF0FF3000F074B9ADF1080C6DE904CE00F006F8DDF804E0DDE9022304B070472DE9F047089D04468E46002B4DD18A42944669D991
:402A4000B2FA82F252B101FA02F3C2F1200120FA01F10CFA02FC41EA030E94404FEA1C48210CBEFBF8F61FFA8CF708FB16E341EA034306FB07F199420AD91CEB030306F11A
:402A8000FF3080F01F81994240F21C81023E63445B1AA4B2B3FBF8F008FB103344EA034400FB07F7A7420AD91CEB040400F1FF3380F00A81A74240F207816444023840EA89
:402AC0000640E41B00261DB1D4400023C5E900433146BDE8F0878B4209D9002D00F0EF800026C5E9000130463146BDE8F087B3FA83F6002E4AD18B4202D3824200F2F98089
:402B0000841A61EB030301209E46002DE0D0C5E9004EDDE702B9FFDEB2FA82F2002A40F09280A1EB0C014FEA1C471FFA8CFE0126200CB1FBF7F307FB131140EA01410EFB83
:402B400003F0884208D91CEB010103F1FF3802D2884200F2CB804346091AA4B2B1FBF7F007FB101144EA01440EFB00FEA64508D91CEB040400F1FF3102D2A64500F2BB808E
:402B80000846A4EB0E0440EA03409CE7C6F12007B34022FA07FC4CEA030C20FA07F401FA06F31C43F9404FEA1C4900FA06F3B1FBF9F8200C1FFA8CFE09FB181140EA0141CA
:402BC00008FB0EF0884202FA06F20BD91CEB010108F1FF3A80F08880884240F28580A8F102086144091AA4B2B1FBF9F009FB101144EA014100FB0EFE8E4508D91CEB0101CF
:402C000000F1FF346CD28E456AD90238614440EA0840A0FB0294A1EB0E01A142C846A64656D353D05DB1B3EB080261EB0E0101FA07F722FA06F3F1401F43C5E900710026DF
:402C40003146BDE8F087C2F12003D8400CFA02FC21FA03F3914001434FEA1C471FFA8CFEB3FBF7F007FB10360B0C43EA064300FB0EF69E4204FA02F408D91CEB030300F14E
:402C8000FF382FD29E422DD9023863449B1B89B2B3FBF7F607FB163341EA034106FB0EF38B4208D91CEB010106F1FF3816D28B4214D9023E6144C91A46EA004638E72E4675
:402CC000284605E70646E3E61846F8E64B45A9D2B9EB020864EB0C0E0138A3E74646EAE7204694E74046D1E7D0467BE7023B614432E7304609E76444023842E7704700BF6E
:402D0000844641EA000313F003036DD1403A41D351F8043B40F8043B51F8043B40F8043B51F8043B40F8043B51F8043B40F8043B51F8043B40F8043B51F8043B40F8043BCC
:402D400051F8043B40F8043B51F8043B40F8043B51F8043B40F8043B51F8043B40F8043B51F8043B40F8043B51F8043B40F8043B51F8043B40F8043B51F8043B40F8043B5B
:402D800051F8043B40F8043B51F8043B40F8043B403ABDD2303211D351F8043B40F8043B51F8043B40F8043B51F8043B40F8043B51F8043B40F8043B103AEDD20C3205D3AB
:402DC00051F8043B40F8043B043AF9D2043208D0D2071CBF11F8013B00F8013B01D30B8803806046704700BF082A13D38B078DD010F003038AD0C3F10403D21ADB071CBFBF
:402E000011F8013B00F8013B80D331F8023B20F8023B7BE7043AD9D3013A11F8013B00F8013BF9D20B7803704B7843708B78837060467047830730B548D0541E002A3FD04F
:402E4000CAB2034601E0013C3AD303F8012B9D07F9D1032C2DD9CDB245EA05250F2C45EA054536D9A4F1100222F00F0C03F1200EE6444FEA121C03F1100242E9045542E9C1
:402E8000025510327245F8D10CF1010214F00C0F03EB021204F00F0C13D0ACF1040323F003030433134442F8045B9342FBD10CF003042CB1CAB21C4403F8012B9C42FBD1D4
:402EC00030BD64461346002CF4D1F9E703461446BFE71A46A446E0E70FB400B5074983B004AB086853F8042B8168019300F03CF803B05DF804EB04B0704700BFAC020008AB
:402F000030B540EA0104A30701D1032A0FD8844601F1FF3E07E01EF8011F03F8011B541EC1B19C4622466346002AF4D130BD0B468446194653F8045BA5F1013424EA050407
:402F400014F0803FE4D1043A032A4CF8045B1946EFD8DDE76244002CE8D003F8011B9342FBD130BD000000002DE9F04F2DED0A8BD3B01C4609EE101A914609EE900A0546F5
:402F800003F08EF90368179318460D9404F058F916901DB1AB6B002B00F0488219EE102A536EDB0740F14781B2F90C309AB2960409D419EE101A43F400538B819AB24B6E7C
:402FC00023F400534B66150740F1CC8019EE103A1B69002B00F0C68002F01A030A2B00F0D2804D469FED9C7B2B78002429AACDE92744CDE91944CDE91B448DED147B19EE38
:40300000909A12942692904618940A94002B00F0B081AB4604E01BF8013F002B00F0CD80252BF8D1BBEB050640F0CB809BF80030002B00F09E8100234FF0FF329BF8017033
:403040008DF87B3009930BF1010B08929A462B2420210BF1010BA7F120035A2B00F20081DFE813F00A03FE00FE000503FE00FE00FE006A00FE00FE0076029E02FE008102E3
:40308000A802FE00A3025B005B005B005B005B005B005B005B005B00FE00FE00FE00FE00FE00FE00FE008E01FE001602ED018E018E018E01FE00FE00FE00FE000003FE0065
:4030C000FE004502FE00FE00FE002002FE00C202FE00FE009A07FE00FE00FE00FE00FE00FE00FE00FE008E01FE001602EF018E018E018E01E602EF01E801FE00F302FE002C
:4031000086024702D402E801FE0020027D007607FE00FE007A07FE007D00A7F1300300221BF8017B02EB820203EB4202A7F13003092BF5D909928EE7484603F0B1F843681C
:403140001B93184604F07CF81C900646484603F0A7F8836819932021002E40F0EA869BF8007076E719EE101A19EE900A19EE105A01F000FD002841F02483AA8902F01A034A
:403180000A2B7FF42EAF19EE101AB1F90E30002BFFF627AF4B6ED90702D4920541F1568119EE101A19EE900A23464A4653B0BDEC0A8BBDE8F04F01F09DBCBBEB050600F091
:4031C000D880289B33442893279B0133072BC8E90056279305DC08F108080A9B33440A9324E719EE101A26AA484604F0D3F890B90DF1A408F1E719EE101A26AA484604F04F
:40320000C9F8002800F0A6800C9B23B119EE900A194602F01BFF19EE102A536ED80740F1FA8093895A0601F1D5820A9853B0BDEC0A8BBDE8F08FB2F90C309F059AB23FF5A5
:40324000B6AE19EE105AA86D03F032F8B5F90C309AB2ACE6AFF300800000000000000000002F00F0868000238DF8E4708DF87B300122CDE90B2307920893109313931193E4
:4032800039AD1AF002020E9202D0079A023207921AF084020F9205D1099A0799561A002E00F36883289C8BB1279B0DF17B0201330134C8F80020072B4FF001022894279304
:4032C000C8F8042000F39F8308F108080E9B83B1279B1FAA01330234C8F80020072B4FF0020228942793C8F8042000F3998308F108080F9B802B00F06A82089B0B9A9E1A02
:40330000002E00F3AB821AF4807F40F006820B9BC8F804301C44279BC8F800500133072B2894279300F3198308F108081AF0040F05D0099B079A9D1A002D00F38583DDE95E
:40334000092307998A42ACBF9B185B180A93002C7FF451AF002327930C9B1BB10C99484602F074FE0DF1A4085D462B78002B7FF450AE289B002B41F01882002327934AE7AE
:403380000D9B073323F00703B3EC027B8DED147BDDE914120D9322F000430AEE101A0AEE903A4FF0FF32B0EE4A8AF0EE6A8AB74B51EC180B05F0B4FE002840F0E884B34BA5
:4033C00051EC180B4FF0FF3205F08CFE002840F0DE84DDE914010022002305F079FE002840F067879DF87B30A94DAA4A2AF0800A0321472FC8BF154600220C9207910B91B4
:403400000892109213921192002B3FF43AAF079A0132079235E7938999053FF503AF19EE104A906D02F046FFA389FBE6284602F015FDB3E59BF800704AF0200A09E64AF05C
:40344000100A1AF0200F0D9B00F04084073323F007031A465B6852F8084B0D921E46002BC0F24384089B013300F0BC822AF08003079354EA060340F0B782089B002B40F0F5
:40348000B882DDF81CA0002308930B9352AD1FE10D9A002352F8041B8DF87B308DF8E4100D92E5E60D9C54F8045B00268DF87B60002D00F09085089B5A1C00F051861A4654
:4034C0003146284603F01CFA0C90002801F02C810C9B0896591B0B9121EAE1719DF87B300D9407910C961096139611968CE74AF0100A1AF0200600F0C9830D9B073323F091
:4035000007035E6853F8084B0D932AF480630793002300228DF87B20089A551C00F0C080079921F0800A54EA060140F0B780002A40F00786002BA6D1079B13F001030B9383
:4035400000F0148430238DF847310DF24715BFE00D9B53F8042B0992002A80F2D583099A0D93524209929BF800704AF0040A70E51AF0200F40F0D2841AF0100F40F0E78532
:403580001AF0400F40F0A9861AF4007F00F0DF850D9B0A9953F8042B0D9311705D46E4E69BF800708DF87B4053E59BF800704AF0800A4EE55A4612F8017B2A2F01F06D824B
:4035C000A7F13003092B934698BF002201F2E9801BF8017B02EB820203EB4202A7F13003092BF5D9089236E54AF010030793079B13F0200600F059830D9B073323F00703ED
:403600005E6853F8084B0D93012382E70D9B53F8044B0D9330234AF0020278278DF87C301D4B189307928DF87D700026022370E79BF80070682F03BF9BF801704AF4007ADE
:403640000BF1010B4AF0400A03E59BF800706C2F03BF9BF801704AF0200A0BF1010B4AF0100AF6E49BF800704AF0080AF1E49BF800704AF0010AECE49DF87B30002B7FF4BE
:403680006EAD9BF800708DF87B10E2E4FFFFEF7FD0A30010D4A30010E0A30010CDF81CA0012B00F0A181022B52AD20D1189A04F00F032409D35C05F8013D44EA06743609FB
:4036C00054EA0603F3D152AB5B1BDDF81CA00B9308990B989DF87B3081424FF00002B8BF01460C9207911092139211928CE604F00703E40844EA4674F608303354EA0601CD
:403700002A4605F8013DF2D10799CC0700F1758252AB5B1B8A460B93DAE7652F40F3D780DDE914010022002305F0C8FC002800F0C681279BC14AC8F800200133013401228F
:40374000072B28942793C8F8042000F3DE8408F10808209B129A934280F2D182169B179A1C44C8E90023279B28940133072B279300F3238408F10808129B5D1E002D7FF7BC
:40378000D5AD102D279B41F36781AD4F0E972246102619EE104A05E008F10808103D102D40F3C18401331032072BC8E90076CDE92732F1DD26AA2146484603F0EBFD002868
:4037C0007FF422ADDDE927320DF1A408E6E7099B079A9E1A002E7FF790AD102E279B41F33C8097490F95224619EE105A0E910C4604E0103E102E08F1080819DD01331032F0
:403800001021072BCDE92732C8F80040C8F80410EFDD26AA294648460DF1A40803F0BAFD00287FF4F1AC103E102EDDE92732E5DC0F9D144601330E9AC8F800203444072B45
:40384000CDE92734C8F8046000F3A983089B0B9A9E1A002E08F108087FF755AD102E279B40F30F8576480E904246214619EE108A044604E0103E102E02F1080216DD0133B4
:4038800010311020072BCDE9273114605060F1DD26AA4146484603F07DFD00287FF4B4AC103E102EDDE9273129AAE8DC90460C4601330E9AC8F800203444072BCDE9273438
:4038C000C8F8046000F3D48108F108081BE5129B012B40F37381279EC8F80050013601340123072E28942796C8F8043000F3968308F10808169B179A01361C44072EC8E958
:403900000023CDE9276400F3978308F10808DDE914010022002305F0D1FB002840F07B81129B0136013B01351C44072EC8F800502796C8F80430289400F3518108F10808A2
:403940001A9BC8F8043001361C44072E22ABCDE92764C8F800307FF7E7AC19EE101A26AA484603F017FD00287FF44EAC289C0DF1A408DBE4102EDDE9273222DD1D95102431
:4039800019EE105A04E0103E102E08F1080817DD01332C491032072BC8E90014CDE92732F1DD26AA294648460DF1A40803F0F2FC00287FF429AC103E102EDDE92732E7DC34
:4039C0001D9DC8F804600133B418072B1D4AC8F80020CDE9273400F37D839DF87B3008F1080860E4CDF81CA00A2C76F1000380F0318330340123DDF81CA08DF847410B93D6
:403A00000DF2471564E619EE101A26AA484603F0C1FC00287FF4F8AB289C0DF1A40855E419EE101A26AA484603F0B4FC00287FF4EBAB289C0DF1A4085BE400BF10A400102A
:403A400024A4001014A40010102D279B20DD19EE107A102604E0103D102D08F1080817DD0133AC4A1034072BC8E90026CDE92734F1DD26AA394648460DF1A40803F08AFC22
:403A800000287FF4C1AB103D102DDDE92734E7DC0133A04AC8F804502C44072BCDE92734C8F800207FF74BAC19EE101A26AA484603F070FC00287FF4A7AB289C3FE4209AE3
:403AC000002A40F32B81DDE911739F42A8BF1F46002F0BDD279B01333C44072BC8E900572894279300F3D18508F10808119E002FA8BFF61B002E00F34483119B1AF4806F50
:403B00002B440B9340F0DF84209B129A934203DB1AF0010F00F0D283169A17991444C8E90012279A28940132072A279200F3BB8508F10808129A0B99AE18761AD51AAE4296
:403B4000A8BF2E46002E0DDD279BC8F8001001333444072BC8F804602894279300F3068608F10808002EA8BFAD1B002D7FF7DEAB102D279B40F37087674F0E972246102615
:403B800019EE104A05E008F10808103D102D40F3CA8201331032072BC8E90076CDE92732F1DD26AA2146484603F0F4FB00287FF42BABDDE927320DF1A408E6E71AF0010F39
:403BC0007FF489AE279EC8F80050013601340123072E28942796C8F804307FF7AFAE19EE101A26AA484603F0D5FB00287FF40CABDDE927640DF1A408A2E6302B3FF463AD7C
:403C00003023023A05F8013C52AB9B1ADDF81CA00B9315465CE5129B5D1E002D7FF790AE102D40F31F873C4ACDF820A0234619EE10AA0E921027144605E008F10808103D7E
:403C4000102D40F3E38201361033072EC8E90047CDE92763F1DD26AA5146484603F09AFB00287FF4D1AADDE927630DF1A408E6E719EE101A26AA484603F08CFB00287FF4BC
:403C8000C3AA289C0DF1A408FFF73DBB1AF0100340F03E811AF0400200F0C8820D9A52F8044B0D921E46A4B22FE4079B13F0100366D1079A12F0400200F0C6820D9A52F800
:403CC000044B0D921E46A4B2012322E453F8044B0D931AF0100F4FD11AF0400F48D044F3C036334624B2FFF7BABB2D2364428DF87B3066EB4606CDF81CA001230CE41AF0B5
:403D0000010F3FF413AB29E59BF800700D93FFF7A0B900BF14A4001024A40010279BB649C8F80010013301340121072B28942793C8F8041000F3808408F10808002A40F031
:403D40004682129A0AF0010313433FF4EFAA169B179A1C44C8E90023279B28940133072B279300F3648308F1080841E252ADAFE41AF4007F40F0AB82E6173346FFF76FBB63
:403D80000D9B53F8044B0D930123FFF7C2BBDDE9140102460B4605F0C3F9002840F02C86612F00F07D85412F00F0A082089B013327F02003079300F0C285472B00F0A985E5
:403DC000DDE914014AF4807200290B924FF00003C0F2418441EC1B0B0E930C93079B462B00F07084452B00F02285089B019324AB049321AB039320AB029302230093484603
:403E000053EC1B2B00F0C4FF079B472B054640F05B861AF0010F5646DDF82CA040F0DF84249B5B1B1293079B472B00F01683079B462B00F08584209B1193119B079A013B85
:403E4000412A209300F0E685FAB20021002BB8BF119B8DF88820BABFC3F101032D222B22092B8DF8892040F36E850DF19704DFF898C1224610468CFB0321DA17C2EBA102B9
:403E800002EB8201A3EB4101303100F8011C19466329134600F1FF32ECDC3033D9B2831E9C4202F8011C40F20B8613460DF18A0201E013F8011B02F8011B9C42F9D10DF130
:403EC00099030DF18A021B1A134422AA9B1A1A93129B1A9A012B1A440B9240F3AF850B9B169A13440B930B9A002326F4806622EAE27246F4807A10930792139311930E9B1D
:403F0000002B40F0D98208939DF87B30FFF77CBA0D9B53F8044B0D93FFF7F7BA0D9B0A9853F8041B0D93C217C1E900025D46FFF71CBA199B002B3FF412A9199B1B78002BB4
:403F40003FF40DA99BF800704AF4806AFFF781B8CDF81CA0FFF74BBB284B18931AF0200654D00D9B073323F007035E6853F8084B0D931AF0010F09D054EA060306D03023A9
:403F80008DF87D704AF0020A8DF87C302AF4806307930223FFF7BDBA194B1893DEE719EE101A26AA484603F0F5F900287FF42CA9289C0DF1A408FFF7A0B919EE101A26AA79
:403FC000484603F0E7F900287FF41EA9289C0DF1A408FFF7D1BB089A0C95062A294628BF062208952B460792064D0D940B92109113911191FFF708BA10A40010E0A30010EF
:40400000F4A3001008A40010676666661AF0100370D00D9B53F8044B0D93AAE719EE101A26AA484603F0B6F900287FF4EDA8DDE927640DF1A4085DE419EE101A26AA484688
:4040400003F0A8F900287FF4DFA8DDE927640DF1A4085CE4079B002203F48063CDE90B7808EE109A0DF5A47ADDF86490174698460CE00023204631460A22FEF7BFFC0A2CB6
:4040800076F100031CD304460E46AA4620460A2200233146FEF7B2FC30320AF1FF3501370AF8012CB8F1000FE3D099F800309F42DFD1FF2FDDD00A2C76F1000380F0E58045
:4040C000CDF864901297DDF830800B9F18EE109AFFF7F9BA19EE101A26AA484603F05AF900287FF491A89DF87B30289C0DF1A408FFF7D9B81AF0400200F0B6800D9A52F895
:40410000044B0D921E46A4B233E719EE101A26AA484603F03FF900287FF476A8289C0DF1A408FFF716BB144601330E9AC8F800202C44072BC8F80450CDE927347FF7F4A826
:404140000BE4012BCDF81CA07FF4ADAA51E40D9B0A9953F8042B5D4611600D93FFF705B9284608960D9403F06BF820EAE0719DF87B300B9007910C96109613961196FFF718
:4041800043B9102E279B40F39484BA480E904246214619EE108A1027044604E00832103E102E40F3378201331031072BC2E90047CDE92731F2DD26AA4146484603F0EAF841
:4041C00000287FF421A8DDE9273129AAE7E7169B17991C44C8E90013279B28940133072B279300F3248108F10808002AC0F2FA82129AC8F8005001331444072BCDE92734F5
:40420000C8F804207FF790A8FFF7A7BBDDF820A01C4601360E9BC8F800302C44072ECDE92764C8F804507FF789ABD8E40D9B1AF4007614BF53F8044B53F8044B0D931CBFBF
:404240001646E4B2FFF761B9079B13F400760D9B14BF53F8044B53F8044B0D931CBF1646E4B20123FFF755B90D9B1AF4007614BF53F8044B53F8044B0D931CBF1646E4B239
:4042800077E67C4A0E92FFF713BB1C9B1B99ED1A1A462846FEF734FE99F801300BB109F10109204631460A2200230027FEF7A6FBE9E62D238DF87B30FFF796B8129A0B99C2
:4042C000AE18761AD51AAE42A8BF2E464AE444F3C016334664B2FFF7C2B80D9B0A9953F8042B0D9311805D46FFF73FB830238DF87C3058238DF87D30089B632B4AF002044C
:4043000000F3D38200230C9339ADDDE914124AF481730B93002A27F02003A2460793C0F29B81002342EC1B1B0E93612F00F04C83412F7FF453AD20AA51EC1B0B02F0EEFEB8
:4043400000224FF07F53FEF747F902460B4643EC182B0022002304F0B1FE08B101232093454B0F93089B1D95CDE9107BCDE912A80CEE109ADDF83CB059EC188B5E1E2C46DF
:4043800005E000220023013E04F098FEE0B93B4B002240464946FEF71FF98946804604F0D5FE0546FEF7AEF80B46024649464046FDF75AFF1BF80530A24604F8013B731C73
:4043C000374680468946DCD149EC188B2C4BDDF84C8051EC180B00223E461CEE109ADDE9107BCDF840A01195DDF848A01D9D04F08DFE002840F0388251EC180B204B0022C3
:4044000004F05CFE18B1119BD90700F12D82002E334606DB01332344302204F8012BA342FBD1631B56461293DDF82CA0FBE419EE101A26AA484602F0ADFF00287EF4E4AE53
:40444000DDE92734209A0DF1A408CEE619EE103A986D01F02FFFFEF7A3BE209B1193DA1C02DB089A93420DDD023F27F020030793E3E400BF24A40010F4A30010000030401B
:404480000000E03FDDE911329342C0F28081F00740F19782169A13440B93710503D5119B002B00F360820B9B23EAE3730793672700231093139322E52D2300228DF87B3026
:4044C0000892FEF7A4BF129BCDF838B0DDF84CB00B9E199FCDF82CA0EB1808934246DDF870A0109B0F9519EE108AA446BBF1000F30D0002B71D1013F0BF1FF3B1B9BC2E9C9
:40450000003A279B0133D444072BCDF8A0C0279367DC0832089B38789B1B8342A8BF0346002B1C460BDD279801309C440728C2E90063CDF8A0C027905FDC38780832002C78
:40454000ACBF051B0546002D17DC0644109BBBF1000FCED1002B40D10F9D129BDDF82CA0DDF838B01997EB189E429046324628BF1A4664460B92FFF7C7BA102D27981FDD25
:404580001024634604E0103D102D02F1080216DD0130B44910330728C2E90014CDE92703F1DD26AA4146484602F0F4FE00287EF42BAE103D102DDDE9270329AAE8DC9C4684
:4045C0000130A84B5560AC440728CDE9270C13604DDC387808320644B8E7109B013B10938CE726AA4146484602F0D4FE00287EF40BAEDDF8A0C029AA8CE726AA4146484612
:4046000002F0C8FE00287EF4FFAD3878DDF8A0C029AA94E790460C4601330E9AC8F800203444072BCDE92734C8F8046000F3638108F10808FFF761BA19EE101A26AA484606
:4046400002F0A8FE00287EF4DFAD209A289C0DF1A408FFF773BB0C93DDE9141202F100430BEE903A2D230BEE101A0E935DE626AA4146484602F08EFE00287EF4C5AD387836
:40468000DDF8A0C029AA064460E719EE101A26AA484602F07FFE00287EF4B6AD289C0DF1A408FFF723BA19EE101A26AA484602F071FE00287EF4A8AD209B289C0DF1A4081D
:4046C000FFF738BA089B019324AB049321AB039320AB029303230093484653EC1B2B00F057FB0378302B054600F09A81209B089A56461344DDF82CA0EC1851EC1B0B0022BF
:40470000002304F0DBFC10B12346FFF78ABB249BA342BFF486AB30215A1C24921970249B9C42F9D8FFF77DBB089B07930B930D949DF87B300890109013901190FEF764BEAD
:40474000209A1192002A40F39181089906F001030B4340F03081119B0B936627730500F103810B9B23EAE3730793A1E619EE101A26AA484602F00EFE00287EF445AD209DDF
:40478000129B289C5D1B0DF1A408FFF7EBB9129B169A9A18119B0B92002B40F354816727DCE700230893FEF756BC19EE101A19EE900A26AA02F0EEFD00283EF4DEADFEF7D2
:4047C0002ABD6B6EDC0705D4AB89980502D4A86D01F070FD4FF0FF330A93FEF726BD089BEC188AE75642103280F270811D480E904246214619EE108A1027044603E00832B7
:40480000103E102E5BDD01331031072BC2E90047CDE92731F3DD26AA4146484602F0BAFD00287EF4F1ACDDE9273129AAE8E7089B5C1C24AB049321AB039320AB0293022350
:404840000093019453EC1B2B484600F0A1FA054656462C44DDF82CA04FE7024A0E92FEF7E9BF00BF24A40010109B24930F9B14F8012CD97B8A42234609D1302003F8010C24
:40488000249B5A1E249213F8012C9142F6D0392A0BBF0F9A0132927AD2B203F8012CC0E530238DF87C30782324E5591C484601F073FD0546002800F00C810C9025E59046DC
:4048C0000C4601330E9AC8F800203444072BCDE92734C8F804607FF746AA19EE101A26AA484602F057FD00287EF48EACDDE927340DF1A4087CE419EE101A26AA484602F010
:4049000049FD00287EF480AC289C0DF1A408FFF7F4B8089B002B08BF01230893159B4AF48072002B0B92C0F29B809DED147B0E900C90B0EE47BAF0EE67BAFFF756BA062372
:404940000893FFF73DBA002940F0A48030228DF88A200DF18B02303302F8013B22ABD31A1A93FFF7B5BA672719990B78FF2B00F0A3800024119A204603E001300131FF2B1C
:4049800008D0934206DAD21A4B78002BF5D10B780134F4E71991119213901094109A139B1C9913440B9A01FB03230B9323EAE3730793FFF7A4BA169BD31819440B91662767
:4049C000CCE6119B0B9368E520AA51EC1B0B02F0A5FB00224FF07F53FDF7FEFD02460B4643EC182B0022002304F068FB08B1012320933C4B0F93B5E4159B3B4D3B4A002BAC
:404A0000B6BF2D239DF87B308DF87B302AF0800AFEF7EEBC07F10F02D2B20121FFF716BA51EC1B0B0022002304F048FB00287FF45DAE089BC3F10103209358E6F4077FF549
:404A400052AAFFF74CBAC3F101031A4422EAE2730B92079367272BE5254A0E92FFF764BB0C90F9E5224B0E93FFF7D3BB089A06F0010656EA020304D10123079366270B9320
:404A800016E5169B01331A4422EAE2730B92079366270DE50DF18A025DE70D9B9BF80170934653F8042B0D9342EAE2720892FEF7D0BA0F4A0E92AFE50023109313936DE74E
:404AC00002231A93FFF704BA089CC1E6084A0E92F7E619EE102A938943F040039381FEF79ABB00BFE0A30010D8A30010DCA3001024A4001070B50C468989ADF58E6D21F06A
:404B00000201ADF81410616E1B91E189ADF81610E1690991616A0B911CA9029106914FF4806106460491079118A80021CDE90032089101F0B9FBDDE9003202A93046FEF70D
:404B400013FA051E07DB02A9304601F053F9002818BF4FF0FF35BDF814305B0603D5A38943F04003A381189801F0A0FB28460DF58E6D70BD38B5334B1B6805460C460BB140
:404B80009A6B12B3B4F90C3018079AB225D5216900292DD012F0010007D00020A06060694042A06139B1002038BD950758BF6069A0600029F7D1120658BF0846F4D543F002
:404BC0004003A3814FF0FF3038BD184601F046F9B4F90C3018079AB2D9D4D1062AD5520714D4216943F00803A3819AB20029D1D102F42070B0F5007FCCD02146284601F036
:404C00005BFBB4F90C3021699AB2C3E7216B51B104F14002914204D0284601F017FAB4F90C300022226321690022C4E9001223F02403D7E7092243F040032A604FF0FF304D
:404C4000A38138BDAC020008024B13B1024800F005B8704700000000815F0010002301461A46184603F0F6BA2DE9F04F03690C69A34283B0C0F28780013C01F11405A300F9
:404C800000F11408009355F8243058F82420013381469A4208EB840005EB84070190B2FBF3F63BD30023AE4640469B465EF804AB02681FFA8AFC06FB0C334FEA134C4FEA84
:404CC0001A4A06FB0ACA1FFA83FCABEB0C0C1FFA8AF31CFA82FCC3EB124202EB2C421FFA8CFC4CEA0243774540F8043B4FEA224B4FEA1A43DAD2009B58F8033073B9019B91
:404D0000043B984504D307E0984504F1FF3403D253F80429002AF7D0C9F81040484602F0D3F800282BDB01364046002355F8041BD0F800C08AB29A1A0B0C12FA8CF2C3EBB9
:404D40001C4303EB224392B242EA0342AF4240F8042B4FEA2343E9D258F8242008EB84036AB9043B984504D307E0984504F1FF3403D253F80429002AF7D0C9F81040304645
:404D800003B0BDE8F08F002003B0BDE8F08F00BF2DE9F04F2DED068B016C95B090469946CDE90489279D044641B1426C4A60012393408B6001F026FE00232364B9F1000A0F
:404DC000B4BF012300232B607B4BBCBF2AF0004ACDF814A033EA0A0300F0B2809DED047B002251EC170BB0EE479AF0EE679A002304F064F9074680B1269A01231360289B10
:404E0000002B00F0DA826D481860431E0393039815B0BDEC068BBDE8F08F12AB019313AB0093204653EC192BB0EE498AF0EE698A02F012F95FEA1A56054640F09980DDE93C
:404E400012763E4406F23240202840F3AA83C0F140000AFA00FA06F2124028FA00F04AEA0000FDF73FFB0123013E0D93A1F1F871534B0022FDF7F8F949A3D3E90023FDF707
:404E8000ABFB49A3D3E90023FDF7F0F9804630468946FDF737FB46A3D3E90023FDF79CFB02460B4640464946FDF7E0F98046894604F04CF90022834600234046494604F0C0
:404EC00007F9002840F06C82BBF1160F00F25B823C4B03EBCB03D3E9002351EC190B04F0F7F8002874D00023BE1B0C93731E0BF1FF3B069300F14E8200230993BBF1000FC4
:404F00006DDA099BCDF81CB0A3EB0B030993CBF100030B93249B092B4FF0000B68D8052B40F33D83043B24930026249B023B032B00F29886DFE813F04D044A044104240494
:404F4000269A42F20F73CAF3130A13605AEA08031DD1289B002B00F07C861B4B03930833289A0398136015B0BDEC068BBDE8F08F18EE903AC3F3130351EC190B43F07F5127
:404F80000D97A6F2FF36129F41F4401170E7289B002B40F0D9830D4B039338E7AFF3008061436F63A787D23FB3C8608B288AC63FFB799F501344D33F0000F07F11A4001077
:404FC0000000F83F38A5001038A4001034A40010BE1B731E069300F19A840C900990069B5B44CDE9063B00230B93249B092B96D90023CDE9243301264FF0FF330A96089315
:40500000089B0F9300216164204601F0D5FC0390002800F02F86039B2364089B0E2B00F2F980002E00F0F6800799002940F37184BD4B01F00F0203EBC2034FEA2118C905CF
:40504000D3E9006740F10384B84B51EC190BD3E90823FDF7EBFB41EC180B08F00F084FF0030AB8F1000F13D0DFF8C09218F0010F09D030463946D9E90023FDF7ADFA0AF160
:40508000010A06460F465FEA680809F10809EDD151EC180B32463B46FDF7C8FB41EC1A0B0C9B5BB157EC1A6BA14B1AEE100A0022394604F00DF8002840F052855046FDF784
:4050C00021FA53EC1A2BFDF787FA9A4B0022FDF7CDF8089B8046A1F15079002B00F0F383079B1093089B0E930A9B002B00F0C0840E9A8D4B9049DDF80CA003EBC20353E931
:4051000002230020FDF792FB42464B46FDF7ACF859EC1A8B41EC180B49461AEE100A04F015F80746FDF7EEF902460B461AEE100A4946FDF799F830370AF8017B53EC182BAE
:4051400006460F4603F0C4FF002840F055854FF000080AEE105ACDF844B055465BEC18AB08EE104A44462AE00E9B01349C424BDA724B504659460022FDF72EFA6F4B0022CE
:4051800082468B4630463946FDF726FA8946804603F0DCFF0746FDF7B5F902460B4640464946FDF761F8303705F8017B52465B4606460F4603F08CFF002840F0188532465B
:4051C0003B465B490020FDF74FF852465B4603F07FFF0028C8D0109B039A0793AA4618EE104A1AEE105A02E0924500F0EA84D1461AF8013D392BF7D00133DBB28AF8003005
:40520000079B01330793ABE1DDF844B01AEE105A18EE104A139B002BC0F29480079A0E2A00F39080404B03EBC203D3E90089259B002B1BDA089B002B18DC40F05D83404B9C
:40524000002240464946FDF7C7F902460B4651EC190B03F047FFDDF820A05646002800F0D082259BDDF80C80DF43D2E242464B4651EC190BFDF7DAFA03F068FF06468346CD
:40528000FDF740F942464B46FDF7A6F90B46024651EC190BFCF7E8FFDDF80CA0334630330AF8013B089B012B00F08E834FF0010B08EE105A08EE904A1D465446DA461DE041
:4052C00042464B4630463946FDF7B0FA03F03EFF8346FDF717F942464B46FDF77DF90AF1010A0B46024639463046FCF7BDFF0BF13003AA4504F8013B00F061830F4B002299
:40530000FDF76AF90022002306460F4603F0D6FE0028D5D0A24618EE105A18EE904A079B01330793D1461BE138A5001010A500100000F03F00001C400000E03F0000244021
:40534000000014400A9A002A3FD0249A012A40F39C82089B03F1FF380B9B4345C0F26E82A3EB0808089B002BC0F26683069A1A440692099A17461A4409920121204601F015
:40538000EFFB064625E00123BE1B0C93731E06937FF5B2ADC6F10103099300230693ADE55846FDF7AFF842464B4603F087FE00287FF48AAD0BF1FF3B86E5874B0393039834
:4053C00015B0BDEC068BBDE8F08FDDE90976DDF82C80002F0CDD069A002A09DD0999BA421346A8BF3B46C91AFF1AD31A099106930B9BDBB10A9B002B00F08282B8F1000F53
:405400000FDD31464246204601F086FC2A4601460646204601F0D2FB29460546204601F0F1FA0B9BB3EB080240F000830121204601F096FBBBF1000F824600F3B780249B0E
:40544000012B40F385814FF000090120BBF1000F40F0B880069A104410F01F0000F09680C0F12003042B40F3F883099BC0F11C0003440244099307440692099B002B05DD43
:4054800029461A46204601F0A7FC0546069B002B05DD51461A46204601F09EFC82460C9B002B40F03681089B002B40F31D810A9B002B40F0A080079B01330793DDF80C8031
:4054C000DDF82090012707E0294600230A22204601F0A2FA0137054651462846FFF7C4FB4F4500F1300008F8010BEDDB089A002AC8BF9346039AD8BF4FF0010B03469344D6
:405500000027294601222046049301F065FC5146054601F0D9FC002840F3A5811BF8013C039A0BF1FF3B04E05A4500F0A7811BF8013D392B0BF10109F6D001338BF8003014
:405540005146204601F05EFA56B12FB1B74203D03946204601F056FA3146204601F052FA2946204601F04EFA002389F80030269B079A1A60289B002B3FF449AC0398C3F8C8
:40558000009015B0BDEC068BBDE8F08F1C20099B03440993069B0344074406936DE70126C3E4C0F1200008FA00F05AE401465A46204601F0B1FB249B012B824640F3D58160
:4055C0004FF00009DAF810300AEB8303186901F077FAC0F120003DE710A40010314600230A22204601F018FA0F9B002B064640F32383CDE90783002F00F31981B9F1000F5C
:4056000040F0FD81B046049B039F089903F001027B1E1944249B0B92134309910A9351462846FFF721FB31468346284601F04CFC424651468146204601F068FCC2680146FF
:405640000BF13003002A42D106902846089301F03BFC06990490204601F0D4F9049A089B1AB90A99002900F0D782B9F1000FC0F28881249949EA01090B9951EA090100F030
:405680008081002A00F3E881099A3B7007F101099742CB4600F0E681294600230A22204601F0BAF94645054631464FF000034FF00A02204612D001F0AFF941460646002359
:4056C0000A22204601F0A8F94F468046A7E72046049301F097F9049B0122C6E701F09CF94F46064680469AE7249B022B78DC0A9B002B80D1079B5146013328460793FFF736
:40570000B3FADDF80CB000F130030BF8013B0027F7E65146284601F0D7FB0028BFF6C3AE294600230A22204601F076F9079B03F1FF380A9B0546002B7FF450AF0F9B002BFB
:4057400040F371820893B9E6BD4B0393033307E4DDE9041200297FF476AEC2F31303002B7FF471AEB74B1340002B00F03E82099B01330993069B013306934FF0010964E641
:4057800001230A93259B079A13440F930133012B1F460893B8BF01270021172F61647FF733AC012204235B0003F11400B842114602F10102F7D9616426E401230A93259B3A
:4057C000002B4BDD0F9308931F46E5E700230A93D8E700230A93F2E70F9BCDF81C800893089B002B7FF43DAD51460522204601F013F901468246284601F066FB00287FF771
:4058000030AD0398079F3123804600F8013B013703905146204601F0F5F87B1CDDF80C900793CDF80C80002E7FF496AE98E631463A46204601F0D0FA0646DFE60B9BCDF86C
:405840002C80A8EB03039B444FF000088AE54FF0020AB0EE498AF0EE698A02E4012325930893FFF7CDBB03D1049BDB073FF556AED9461BF8013D302BFAD061E6079B039A3E
:4058800001330793312313705AE60D9A002A00F0638103F23343069ADDF82C801A440692099A17461A44099267E55046FCF72AFE53EC1A2BFCF790FE634B0022FCF7D6FC4C
:4058C0008046A1F15079614B002251EC1A0BFCF7CBFC42464B4606460F4603F017FC002840F07F8130463946424609F1004303F0EFFB00283FF48EAC4FF0000A5646B0E4E0
:4059000029460B9A204601F007FA05468EE50C9040E500F04E81079A4D4B564206F00F0203EBC203D3E9002351EC190BFCF754FE361141EC1A0B00F08881464F00234FF024
:40594000020AF20706D5D7E90023FCF745FE0AF1010A0123761007F10807F2D1002B3FF49FAB41EC1A0BFFF79BBB049B002B7FF427AEDDE90412C2F31303002B3FF4F2AEB7
:405980001EE6002A12DD294601222046049301F023FA5146054601F097FA0028049B40F33581392B00F013810BF13103B94609F8013B079B0133374607934646C0E5A246BF
:4059C00018EE105A18EE904A02460B46FCF74EFC42464B4606460F4603F098FB60B942464B463046394603F069FB00283FF497AC5FEACB717FF593AC039AFFF7F8BB7168CE
:405A0000204600F0D9FF0746002800F03A81336902339A0006F10C010C30FDF771F939460122204601F0D8F98046ECE52946204601F072F90546F9E4DDE908239F1A9CE42B
:405A400034A400100000F07F00001C400000144038A5001010A50010392B00F0B880B9460133A4E7079A013237460792464648E50E988D4901EBC00142464B4651E9020101
:405A8000FCF7AAFD5AEC1A9B41EC180B51461AEE100A03F05BFB0746FCF734FD02460B461AEE100A5146FCF7DFFB06460E98DDF80C803037012808F8017B0F4600F0BA8091
:405AC0000E9B039ACDF838B013449B46C246774B002230463946FCF77FFD8946804603F035FB0746FCF70EFD303702460B4640464946FCF7B9FB0AF8017BDA4506460F462E
:405B0000E5D1DA46DDF838B0694B59EC188B002218EE100A4946FCF7A9FB32463B4603F0D7FA00286DD118EE102A4B4660490020FCF79AFB32463B4603F0E8FA00283FF460
:405B400069ABD1460AF1FF3A19F8013C302BF8D0109B0133079303E5129BC3F136039AE6089B002B3FF4A1AE0F9B002B7FF752AB079A0E93013A4D4B10921AEE100A3946EA
:405B80000022FCF729FD024616460F460AF10100FCF7B8FC32463B46FCF71EFD454B0022FCF764FB47EC1A6B8046A1F15079FFF79BBA4FF0020AB0EE49AAF0EE69AAFFF71C
:405BC0006FBA079B013307933123FFF717BB079BBB4601330793392337460BF8013B46469EE44FF0000A56460BE699462DE4AA4618EE104A1AEE105A109B01330793D14641
:405C0000AEE4109B039A0793FFF7F1BA7FF4CEAEDA077FF5CBAEC4E6392BD8D0B9F1000F3FF7C2AEC2E6249B022B3FF7D5ADCDF81C805FE5C24667E7249B022B3FF7CCAD9B
:405C40000F9BCDF81C800893D5E44FF0020AFFF727BA194B0393FFF7DAB83FF40EACC0F13C0094E4002666643146204600F0A4FE039068B9114B124800224FF4D57102F069
:405C80002FFB0E4B0E483A4640F2EA2102F028FB039B236401224FF0FF3325960F930A920893FFF7B7BA00BF38A50010000024400000E03F00001C4038A4001044A4001016
:405CC00058A40010B1F90C202DE9F0410C461107804647D4636842F40062002BA2815EDDA56A002D58D00023D8F80060C8F8003093B212F4805256D10123E1694046A84776
:405D0000431C67D0A389A56A5F0705D56368C01A236B0BB1E36BC01AE169024600234046A847411C41D1D8F80030002B3DD01D2B01D0162B56D1A3892269226023F4006336
:405D400000216160A381216BC8F8006021B304F14003994202D0404600F078F900202063BDE8F0812669BEB193B2256826609A070CBF63690023AD1BA3600BE02B463246C8
:405D8000E169676A4046B847B0F1000CA5EB0C05664417DD002DF1DC0020BDE8F081E36B002B9DDCF8E7206DAEE7B4F90C302269226023F40063A3810022DB046260C2D546
:405DC0002065C0E7A38943F040034FF0FF30A381BDE8F081D8F80030002B93D01D2B06D0162B04D0A38943F04003A381D5E7C8F80060D1E738B50C46054608B1836BA3B18D
:405E0000B4F90C00B8B1636EDB0701D4810515D528462146FFF756FF636EDA07054602D4A3899B050ED5284638BD00F017F8B4F90C000028E7D10546284638BDA06D00F000
:405E400037FAE5E7A06D00F035FA284638BD00BF014900F001BA00BFC98300102DE9F0478246394800F024FADAF83840002C66D1DAF80450354ACAF83C200323CAE9B843DF
:405E8000DFF8DC90DFF8DC80314F324E04230AF53B72CAF8E8222146C5E90243C5E90044C5E904446C660822AC6105F15C00FCF7C1FFC5E90759C5E90987EE6205F1580093
:405EC00000F0F2F9DAF80850234BEB602146C5E90044C5E904446C66AC60AC61082205F15C00FCF7A7FFC5E90759C5E90987EE6205F1580000F0D8F9DAF80C50174BEB600F
:405F00002146C5E90044C5E904446C66AC60AC61082205F15C00FCF78DFF05F15800C5E90759C5E90A76C5F8248000F0BDF90123CAF838300448BDE8F04700F0BBB9BDE81C
:405F4000F047014800F0B6B948140008515E001015720010357200100900010012000200B1710010D5710010014800F0A1B900BF44140008014800F09DB900BF44140008CB
:405F800038B5084B084D5B1B9C1007D0043B1D44013C55F804399847002CF9D1BDE8384003F04AB9640C0008600C0008F8B5244F0C46064600F0F4FCBA685568C4F57E6301
:405FC0000F3325F003052B4423F47F6323F00F03A3F58054B4F5805F07DB0021304601F0D5F8BB682B44984204D0304600F0DEFC0020F8BD6142304601F0C8F801300DD05D
:40600000104ABB682D1B45F001055D60136830461B1B136000F0CAFC0120F8BD0021304601F0B4F8BA68831A0F2BDEDD43F001035360054B03491B68C01A0860D5E700BFCF
:40604000DC0600084C140008E40A0008002961D0F8B50C46064600F0A3FC54F8042C7B4FA4F1080522F0010105EB010CB868DCF80430604523F0030300F08B80D207CCF82D
:40608000043032D454F8082CAD1A1144AA6807F1080082426AD00CEB0304D4F804E0EC68D4601EF0010FA26000F0978041F001036B60CCF80010B1F5007F35D27A68CB08E8
:4060C00048090121013381401143796007EBC30257F83310083AC5E9021247F83350CD603046BDE8F84000F061BC0CEB03025268D00710D4194407F10800DCF808308342D0
:4061000073D0DCF80C20DA60936041F001036B606950D0E7704741F00103B1F5007F44F8043CCCF80010C9D3B1F5206F4FEA512348D28B0903F1390003F13802C300F818C4
:40614000FB580838984259D05A6822F003028A4202D99B689842F7D1D868C5E902308560DD603046BDE8F84000F020BC0CEB03025268D20763D40B44DCE90212CA609160FA
:4061800043F001026A603046EB50BDE8F84000F00DBC0B44D10707D454F8082CAD1A1344D5E90212CA60916043F001026A60284ABD6012689A4293D8264B30461968FFF75D
:4061C000F5FE8DE7142B0AD9542B1FD80B0B03F16F0003F16E02C300B1E719448DE703F15C0003F15B02C300A9E741F00103C7E90455C5E902006B60695071E77968921056
:40620000012404FA02F20A437A60A6E7B3F5AA7F06D8CB0B03F1780003F17702C3008EE740F25452934206D88B0C03F17D0003F17C02C30083E74FF47E737E227FE741F060
:4062400001036B60CCF800104AE700BFDC060008E80A00087C1400082DE9F8430746884600F538764FF00009D6E90154013D11D4A389012B05F1FF3508D9B4F90E300133FF
:40628000214603D03846C04749EA00096B1C04F16804EDD13668002EE6D14846BDE8F88300487047DC0B0008704700BF704700BF704700BF704700BF2DE9F0418B890C4699
:4062C000990796B008D504F143030122C4E90432236016B0BDE8F081B4F90E100029064627DB6A4602F072F9002821DB019D05F47045A5F50055B5FA85F54FF480686D09C3
:406300004FF400674146304600F046F8B4F90C30F0B1204AF26343F08003C4F81480A3812060206135BB3B43A38116B0BDE8F081A38913F0800519D04FF040084146304685
:4063400000F02AF80025B4F90C302F460028E0D19A05BED423F0030304F1430243F002030121C4E90421A3812260B2E74FF480682F46C7E7B4F90E10304602F0B5FA10B9C7
:40638000B4F90C30CFE7A38923F0030343F001031BB2C8E7515E00102DE9F04F01F10B06162E83B0044624D8102900F2BA8000F0F7FA102618220220B54F3A44A2F108017C
:4063C00053688B4200F0BA805A68D96822F003021A449D68E9608D60516841F001012046516003F1080500F0E1FA284603B0BDE8F08F36F0070600F19480B14200F29180F6
:4064000000F0CEFAB6F5FC7FC0F09A81730A00F08F80042B00F26F81B30903F1390003F1380CC3009A4F3B44A3F108055B689D4206D10CE0002980F22781DB689D4206D099
:406440005A6822F00302911B0F29F3DD60463D69DFF850C265457CD06A6822F00302931B0F2B00F37B81002BC7E904CC80F26C81B2F5007F80F01A81D308796801334FEA40
:40648000521E012202FA0EF20A4357F833E0C5F808E007EBC3010839E9607A6047F83350CEF80C50831001219940914257D8114206D120F003004900114200F10400FAD0D3
:4064C00007EBC0094D468646D5F80C80454508D11DE1002B80F22481D8F80C80454500F01681D8F8042022F00302931B0F2BF0DD2046D8E9025408EB060146F00106C8F8E5
:406500000460EC60A56043F00104C7E90411C1E902CC4C6048F8023000F048FA08F1080502E00C2323600025284603B0BDE8F08F4FF4007340204FF03F0C73E7D3689A42CC
:4065400008BF02307FF440AF3D69DFF858C1654582D17A688310012199409142A7D9BD686B6823F003094E4503D8A9EB06030F2B7ADCDFF834B1474BDBF800201B680132C1
:40658000334405EB090A00F0338103F580530F3323F47F6828F00F084146204600F0F6FD411C024600F0F380824500F2EE803A4B196841441960084600F04E81DBF8001090
:4065C000019301311BBFA2EB0A0A5044CBF80020186012F0070B00F01781CBF108010A44CBF5805190440831A1EB0801C1F30B0A51462046009200F0C9FD421CDDE9002334
:4066000000F04F81801A00EB0A081968BA6048F001005144BD425060196000F02981B9F10F0F40F227816868A9F10C0C2CF0070C00F0010040EA0C0068604FF0050E05EB54
:406640000C00BCF10F0FC0E901EE00F2328150681546124B1A688A4238BF1960104B1A688A4238BF196094E0AA1943F0010346F001066E602046BA60536000F097F9083556
:40668000284603B0BDE8F08FD9681A44A1E600BFDC0600087C1400084C1400087414000878140008E4060008E40A0008B2F5206F4FEA522363D3142B00F2B78003F15C01E7
:4066C000C9005B3307EB010E7958AEF1080E8E4500F091804B6823F00303934202D989688E45F7D1D1F80CE07A68C5E9021ECEF80850CD60D6E6142B59D9542B00F29D8075
:40670000330B03F16F0003F16E0CC3008AE60EF1010E1EF0030F05F108057FF4D5AE51E0424445465368D8F80C1043F00103536055F8083F2046D9608B6000F037F9F3E606
:40674000F00806F1080237E62A442046536843F001035360083500F029F9E5E6A919204646F0010643F001046E60C7E90411C1E902CC4C60AB5000F019F90835D4E693098C
:4067800003F13901C90038339CE7BD425FD0BD68686820F003084645A8EB060302D80F2B3FF762AF204600F001F90025BCE603F15C0003F15B0CC30034E659F808394B4573
:4067C00040F0968010F0030F00F1FF30F5D17B6823EA01037B60490099423FF6C0AE19B9BDE649000EF1040E1942FAD0704667E603F11008D0E69A104FF001087B6808FA35
:4068000002F21A437A6070E702EB08014942C1F30B0A51462046009200F0B8FC431CDDE900237FF4EFAEDA46EFE6542B25D8130B03F16F01C9006E3344E7B3F5AA7F25D8AB
:40684000F30B03F1780003F1770CC300EAE5294B186840441860B1E6CAF30B0CBCF1000F7FF4ACAEBD68C84448F001006860F0E61546EEE60123536094E7B3F5AA7F23D86C
:40688000D30B03F17801C90077331BE740F25452934223D8B30C03F17D0003F17C0CC300C0E5ABF1080BD844A8EB02084FF0000AABE605F1080120460093FFF7C7FBBD6845
:4068C000009B68681968C4E640F254518B420BD8930C03F17D01C9007C33F3E64FF47E737F204FF07E0C9DE54FF47E717E23E9E67B6870E74C1400080000000000000000B7
:4069000001F0FF01102A2BDB10F0070F08D010F8013B013A8B422DD010F0070F42B3F6D1F0B441EA012141EA014122F007047FF000070023F0E80256083C85EA010586EAB0
:40694000010685FA47F5A3FA87F586FA47F6A5FA87F68EB9EED1F0BC01F0FF0102F0070232B110F8013B013A83EA010313B1F8D10020704701387047002D06BF35460338F6
:40698000073815F0010F07D1013015F4807F02BF013015F4C03F0130F0BC0138704700BF0148FFF785BC00BF401400080148FFF781BC00BF40140008C36C70B505460C46C9
:4069C0004BB153F8240080B1026843F824200023C0E9033370BD2122042101F0A1FC0346E8640028EDD1002070BD012101FA04F6721D9200284601F093FC0028F3D0C0E96B
:406A00000146E4E731B1C36C4A6853F82200086043F82210704700BFF0B50C69064683B00D4601F1140E0020DEF800101FFA81FC02FB0C334FEA134C090C02FB01CC013049
:406A40009BB203EB0C4384424EF8043B4FEA1C43EADC3BB1AA68A24207DD05EB8402013453612C61284603B0F0BD6968019301313046FFF7A1FF019B0746B8B12A69019347
:406A8000023205F10C0192000C30FCF739F9F26C6968019B52F82100286042F821503D4605EB8402013453612C61DBE7024B03483A46B52101F014FC44A40010B4A40010C3
:406AC000030C1B04D3B90004102310F07F4F04BF0002083310F0704F04BF0001043310F0404F04BF80000233002805DB10F0804F03F1010308BF2023184670470023E4E73A
:406B0000036813F00702014607D0DA071FD4980721D55B080B600120704798B2A0B11046DAB20AB908301B0A1A0704BF1B0904309A0704BF9B080230DA0703D45B0800F193
:406B4000010006D00B6070471B0C1020E8E700207047202070479B080B600220704700BF38B5C36C04460D464BB15868B0B102685A6000220123C0E90435C26038BD212206
:406B8000042101F0CDFB0346E0640028EDD1094B094800224FF4A07101F0A2FB1C220121204601F0BDFB0028F1D001220223C0E90123DEE744A40010B4A400102DE9F04FF4
:406BC0000E691569AE4285B08846144605DB2A46234635460C4616469846A3686168AF19BB42B8BF0131FFF7E7FE0190002800F08780019B03F1140909EB870AD14505D2A7
:406C00004B46002243F8042B9A45FBD808F1140808EB860B04F11403D8451A4603EB85055FD22B1B153B23F0030304331534A54238BF0423CDE902A7AC461F46924605E013
:406C4000000C29D1C34509F1040948D958F8040B85B2002DF4D056464C46002356F8040B216882B21FFA81FE05FB02EE000C0A0C734405FB002202EB13429BB243EA024368
:406C8000B44544F8043B4FEA1243E7D849F8073058F8040C000CD5D0D9F80030544619464D4600222688090C00FB06110A449BB243EA024345F8043B54F8046B2968360CEF
:406CC0008BB200FB063303EB1243A4454FEA1342E8D8C34549F8073009F10409B6D8DDE902A7002F02DC05E0013F03D05AF8043D002BF9D0019B18461F6105B0BDE8F08F46
:406D0000034B0448019A40F25D1101F0E9FA00BF44A40010B4A4001012F003032DE9F0411446064632D10D46A41020D0D6F84880B8F1000F33D0E3074FF0000707D46410CC
:406D400015D0D8F80000A8B18046E307F7D5424629463046FFF732FFB5B16968F36C641053F821202A6043F821500546E9D12846BDE8F081424641463046FFF71FFFC8F847
:406D8000000007608046E0E70546D8E7013B0F4A52F823200023FFF73FFE0546C4E701213046FFF709FE804640B1012340F27122C0E904320023B0640360BCE7044B05487A
:406DC00042464FF4A07101F08BFA00BF00A6001044A40010B4A400102DE9F0470C4690462669A368496806EB6216751C9D4207464FEA621904DD5B009D4201F10101FADCED
:406E00003846FFF7D9FD8446002851D0B9F1000F00F114000EDD09F105024FEA820E03460CEB8202002143F8041B9342FBD1AEF114031844216904F1140318F01F0803EBDD
:406E400081012DD0C8F1200986464FF0000A1A6802FA08F242EA0A024EF8042B53F8042B994222FA09FAF2D80B1B153B23F00303043304F11502914238BF0423BAF1000FBC
:406E800018BF2E4640F803A0FB6C6268CCF8106053F822102160604643F82240BDE8F087043853F8042B40F8042F9942F9D8EBE7034B0448624640F2D91101F011FA00BF32
:406EC00044A40010B4A400100B6984460069C01A16D10CF1140C14310CEB830210B401EB830301E0944508D252F8044D53F8041D8C42F7D005D24FF0FF305DF8044B7047E6
:406F0000704701205DF8044B704700BF2DE9F84F0F691369FF1A002F0E4690467AD101F11405143202EB830205EB830301E09D4273D253F8041D52F8044DA142F7D064D32B
:406F40007168FFF739FD8146002872D03569D8F81020C76008F1140E06F1140009F1140A06F1100C0EEB820200EB8507564600215EF8044B5CF804BFA3B211FA8BF1CB1A97
:406F8000210CC1EB1B4101EB23419BB243EA0143724546F8043B4FEA2141E9D8A2EB0804153C08F11508424524F0030606F1040638BF0426304424F0030238BF00228742C9
:406FC0005244B24416D95646044654F8043B11FA83F10A1402EB134289B241EA0243A74246F8043B4FEA2241EFD87A1E101A20F00302524423B952F8043D013D002BFAD04B
:40700000C9F810504846BDE8F88F334601274646984695E7F9DB002792E70021FFF7CCFC814668B101220023C9E904234846BDE8F88F074B07484A464FF4107101F050F9B3
:40704000034B04484A4640F2322101F049F900BF44A40010B4A40010F0B5012183B016461F46FFF7A9FC054600284CD0C7F30A54C7F313030CB143F48013002E019323D006
:4070800068460096FFF73CFD0346002837D0019AC0F1200102FA01F1C2400098019201436961002A14BF02210121AA612961B4B1089AA4F233441C441460099AC3F1350301
:4070C0002846136003B0F0BD01A8FFF719FD019B0121C5E9041300F12003002CE8D105EB8102A3F232431069089A1360FFF7E8FC099BC0EB41101860284603B0F0BDDDE98D
:4071000000126961CDE7034B03482A4640F20A3101F0E6F844A40010B4A40010DFF864C0F8B521F000430027634504460D461646176022DC844653EA0C0C1ED0DFF848C0F5
:4071400001EA0C0C0A46BCF1000F09D10C4B0022FBF742FA6FF0350704460A4621F0004322F0FF421B1522F4E002A3F2FE3342F07F553B4445F40015336020462946F8BDC5
:4071800000005043FFFFEF7F0000F07F38B5074D0022044608462A6002F038F8431C00D038BD2B68002BFBD0236038BD8014000810B50C46B1F90E1001F056FC002803DBD1
:4071C000236D0344236510BDA38923F48053A38110BD00BF2DE9F0410C46B1F90C101F46CB05054616460BD421F48051A1813B46B4F90E1032462846BDE8F04101F014B8B6
:40720000B4F90E100223002201F086FBB4F90C10EAE700BF10B50C46B1F90E1001F07CFBA389421C0EBF23F4805343F480532065A38110BDB1F90E1001F0AEB8000000004A
